{"project/contracts/SimplePoolManager.sol":{"SimplePoolManager":{"abi":[{"inputs":[{"internalType":"address","name":"_usdtToken","type":"address"}],"stateMutability":"nonpayable","type":"constructor"},{"inputs":[{"internalType":"address","name":"spender","type":"address"},{"internalType":"uint256","name":"allowance","type":"uint256"},{"internalType":"uint256","name":"needed","type":"uint256"}],"name":"ERC20InsufficientAllowance","type":"error"},{"inputs":[{"internalType":"address","name":"sender","type":"address"},{"internalType":"uint256","name":"balance","type":"uint256"},{"internalType":"uint256","name":"needed","type":"uint256"}],"name":"ERC20InsufficientBalance","type":"error"},{"inputs":[{"internalType":"address","name":"approver","type":"address"}],"name":"ERC20InvalidApprover","type":"error"},{"inputs":[{"internalType":"address","name":"receiver","type":"address"}],"name":"ERC20InvalidReceiver","type":"error"},{"inputs":[{"internalType":"address","name":"sender","type":"address"}],"name":"ERC20InvalidSender","type":"error"},{"inputs":[{"internalType":"address","name":"spender","type":"address"}],"name":"ERC20InvalidSpender","type":"error"},{"inputs":[{"internalType":"address","name":"owner","type":"address"}],"name":"OwnableInvalidOwner","type":"error"},{"inputs":[{"internalType":"address","name":"account","type":"address"}],"name":"OwnableUnauthorizedAccount","type":"error"},{"inputs":[],"name":"ReentrancyGuardReentrantCall","type":"error"},{"anonymous":false,"inputs":[{"indexed":true,"internalType":"address","name":"owner","type":"address"},{"indexed":true,"internalType":"address","name":"spender","type":"address"},{"indexed":false,"internalType":"uint256","name":"value","type":"uint256"}],"name":"Approval","type":"event"},{"anonymous":false,"inputs":[{"indexed":true,"internalType":"address","name":"previousOwner","type":"address"},{"indexed":true,"internalType":"address","name":"newOwner","type":"address"}],"name":"OwnershipTransferred","type":"event"},{"anonymous":false,"inputs":[{"indexed":true,"internalType":"uint256","name":"poolId","type":"uint256"}],"name":"PoolCancelled","type":"event"},{"anonymous":false,"inputs":[{"indexed":true,"internalType":"uint256","name":"poolId","type":"uint256"},{"indexed":false,"internalType":"enum SimplePoolManager.PoolType","name":"poolType","type":"uint8"},{"indexed":false,"internalType":"address","name":"creator","type":"address"},{"indexed":false,"internalType":"string","name":"eventName","type":"string"}],"name":"PoolCreated","type":"event"},{"anonymous":false,"inputs":[{"indexed":true,"internalType":"uint256","name":"poolId","type":"uint256"}],"name":"PoolFinalized","type":"event"},{"anonymous":false,"inputs":[{"indexed":true,"internalType":"address","name":"from","type":"address"},{"indexed":true,"internalType":"address","name":"to","type":"address"},{"indexed":false,"internalType":"uint256","name":"value","type":"uint256"}],"name":"Transfer","type":"event"},{"anonymous":false,"inputs":[{"indexed":true,"internalType":"uint256","name":"poolId","type":"uint256"},{"indexed":true,"internalType":"address","name":"user","type":"address"},{"indexed":false,"internalType":"uint256","name":"amount","type":"uint256"},{"indexed":false,"internalType":"uint256","name":"tlootMinted","type":"uint256"}],"name":"UserJoined","type":"event"},{"anonymous":false,"inputs":[{"indexed":true,"internalType":"uint256","name":"poolId","type":"uint256"},{"indexed":true,"internalType":"address","name":"winner","type":"address"}],"name":"WinnerSelected","type":"event"},{"inputs":[],"name":"MAX_TLOOT_SUPPLY","outputs":[{"internalType":"uint256","name":"","type":"uint256"}],"stateMutability":"view","type":"function"},{"inputs":[{"internalType":"address","name":"owner","type":"address"},{"internalType":"address","name":"spender","type":"address"}],"name":"allowance","outputs":[{"internalType":"uint256","name":"","type":"uint256"}],"stateMutability":"view","type":"function"},{"inputs":[{"internalType":"address","name":"spender","type":"address"},{"internalType":"uint256","name":"value","type":"uint256"}],"name":"approve","outputs":[{"internalType":"bool","name":"","type":"bool"}],"stateMutability":"nonpayable","type":"function"},{"inputs":[{"internalType":"address","name":"account","type":"address"}],"name":"balanceOf","outputs":[{"internalType":"uint256","name":"","type":"uint256"}],"stateMutability":"view","type":"function"},{"inputs":[{"internalType":"uint256","name":"poolId","type":"uint256"}],"name":"cancelPool","outputs":[],"stateMutability":"nonpayable","type":"function"},{"inputs":[{"internalType":"uint256","name":"","type":"uint256"},{"internalType":"address","name":"","type":"address"}],"name":"contributions","outputs":[{"internalType":"uint256","name":"","type":"uint256"}],"stateMutability":"view","type":"function"},{"inputs":[{"internalType":"enum SimplePoolManager.PoolType","name":"poolType","type":"uint8"},{"internalType":"string","name":"eventName","type":"string"},{"internalType":"uint256","name":"entryAmount","type":"uint256"},{"internalType":"uint256","name":"ticketPrice","type":"uint256"},{"internalType":"uint256","name":"maxParticipants","type":"uint256"},{"internalType":"uint256","name":"deadline","type":"uint256"}],"name":"createPool","outputs":[{"internalType":"uint256","name":"","type":"uint256"}],"stateMutability":"nonpayable","type":"function"},{"inputs":[],"name":"decimals","outputs":[{"internalType":"uint8","name":"","type":"uint8"}],"stateMutability":"view","type":"function"},{"inputs":[{"internalType":"uint256","name":"poolId","type":"uint256"}],"name":"finalizePool","outputs":[],"stateMutability":"nonpayable","type":"function"},{"inputs":[{"internalType":"uint256","name":"poolId","type":"uint256"}],"name":"getParticipantCount","outputs":[{"internalType":"uint256","name":"","type":"uint256"}],"stateMutability":"view","type":"function"},{"inputs":[{"internalType":"uint256","name":"poolId","type":"uint256"}],"name":"getParticipants","outputs":[{"internalType":"address[]","name":"","type":"address[]"}],"stateMutability":"view","type":"function"},{"inputs":[{"internalType":"uint256","name":"poolId","type":"uint256"}],"name":"getPool","outputs":[{"components":[{"internalType":"uint256","name":"id","type":"uint256"},{"internalType":"enum SimplePoolManager.PoolType","name":"poolType","type":"uint8"},{"internalType":"enum SimplePoolManager.PoolStatus","name":"status","type":"uint8"},{"internalType":"address","name":"creator","type":"address"},{"internalType":"string","name":"eventName","type":"string"},{"internalType":"uint256","name":"entryAmount","type":"uint256"},{"internalType":"uint256","name":"ticketPrice","type":"uint256"},{"internalType":"uint256","name":"maxParticipants","type":"uint256"},{"internalType":"uint256","name":"deadline","type":"uint256"},{"internalType":"uint256","name":"totalPooled","type":"uint256"},{"internalType":"address","name":"winner","type":"address"},{"internalType":"address[]","name":"participants","type":"address[]"}],"internalType":"struct SimplePoolManager.Pool","name":"","type":"tuple"}],"stateMutability":"view","type":"function"},{"inputs":[{"internalType":"uint256","name":"","type":"uint256"},{"internalType":"address","name":"","type":"address"}],"name":"hasJoined","outputs":[{"internalType":"bool","name":"","type":"bool"}],"stateMutability":"view","type":"function"},{"inputs":[{"internalType":"uint256","name":"poolId","type":"uint256"},{"internalType":"uint256","name":"amount","type":"uint256"}],"name":"joinPool","outputs":[],"stateMutability":"nonpayable","type":"function"},{"inputs":[],"name":"name","outputs":[{"internalType":"string","name":"","type":"string"}],"stateMutability":"view","type":"function"},{"inputs":[],"name":"owner","outputs":[{"internalType":"address","name":"","type":"address"}],"stateMutability":"view","type":"function"},{"inputs":[],"name":"poolCount","outputs":[{"internalType":"uint256","name":"","type":"uint256"}],"stateMutability":"view","type":"function"},{"inputs":[{"internalType":"uint256","name":"","type":"uint256"}],"name":"pools","outputs":[{"internalType":"uint256","name":"id","type":"uint256"},{"internalType":"enum SimplePoolManager.PoolType","name":"poolType","type":"uint8"},{"internalType":"enum SimplePoolManager.PoolStatus","name":"status","type":"uint8"},{"internalType":"address","name":"creator","type":"address"},{"internalType":"string","name":"eventName","type":"string"},{"internalType":"uint256","name":"entryAmount","type":"uint256"},{"internalType":"uint256","name":"ticketPrice","type":"uint256"},{"internalType":"uint256","name":"maxParticipants","type":"uint256"},{"internalType":"uint256","name":"deadline","type":"uint256"},{"internalType":"uint256","name":"totalPooled","type":"uint256"},{"internalType":"address","name":"winner","type":"address"}],"stateMutability":"view","type":"function"},{"inputs":[],"name":"renounceOwnership","outputs":[],"stateMutability":"nonpayable","type":"function"},{"inputs":[{"internalType":"uint256","name":"poolId","type":"uint256"},{"internalType":"uint256","name":"randomSeed","type":"uint256"}],"name":"selectWinner","outputs":[],"stateMutability":"nonpayable","type":"function"},{"inputs":[],"name":"symbol","outputs":[{"internalType":"string","name":"","type":"string"}],"stateMutability":"view","type":"function"},{"inputs":[],"name":"totalSupply","outputs":[{"internalType":"uint256","name":"","type":"uint256"}],"stateMutability":"view","type":"function"},{"inputs":[{"internalType":"address","name":"to","type":"address"},{"internalType":"uint256","name":"value","type":"uint256"}],"name":"transfer","outputs":[{"internalType":"bool","name":"","type":"bool"}],"stateMutability":"nonpayable","type":"function"},{"inputs":[{"internalType":"address","name":"from","type":"address"},{"internalType":"address","name":"to","type":"address"},{"internalType":"uint256","name":"value","type":"uint256"}],"name":"transferFrom","outputs":[{"internalType":"bool","name":"","type":"bool"}],"stateMutability":"nonpayable","type":"function"},{"inputs":[{"internalType":"address","name":"newOwner","type":"address"}],"name":"transferOwnership","outputs":[],"stateMutability":"nonpayable","type":"function"},{"inputs":[],"name":"usdtToken","outputs":[{"internalType":"contract IERC20Simple","name":"","type":"address"}],"stateMutability":"view","type":"function"}],"evm":{"bytecode":{"linkReferences":{},"object":"60a06040523461043057611fde6020813803918261001c81610434565b93849283398101031261043057516001600160a01b03811690819003610430576100466040610434565b90600b82526a2a2627a7aa102a37b5b2b760a91b60208301526100696040610434565b6005815264151313d3d560da1b602082015282519091906001600160401b03811161034157600354600181811c91168015610426575b602082101461032357601f81116103c3575b506020601f821160011461036057819293945f92610355575b50508160011b915f199060031b1c1916176003555b81516001600160401b03811161034157600454600181811c91168015610337575b602082101461032357601f81116102c0575b50602092601f821160011461025f57928192935f92610254575b50508160011b915f199060031b1c1916176004555b33156102415760058054336001600160a01b0319821681179092556001600160a01b03167f8be0079c531659141344cd1fd0a4f28419497f9722a3daafe3b4186f6b6457e05f80a360016006556080526002546a52b7d2dcc80cd2e4000000810180911161022d57600255335f525f60205260405f206a52b7d2dcc80cd2e400000081540190556040516a52b7d2dcc80cd2e400000081525f7fddf252ad1be2c89b69c2b068fc378daa952ba7f163c4a11628f55a4df523b3ef60203393a3604051611b84908161045a82396080518181816103180152818161059b01528181610a880152611ad60152f35b634e487b7160e01b5f52601160045260245ffd5b631e4fbdf760e01b5f525f60045260245ffd5b015190505f8061012c565b601f1982169360045f52805f20915f5b8681106102a85750836001959610610290575b505050811b01600455610141565b01515f1960f88460031b161c191690555f8080610282565b9192602060018192868501518155019401920161026f565b60045f527f8a35acfbc15ff81a39ae7d344fd709f28e8600b4aa8c65c6b64bfe7fe36bd19b601f830160051c81019160208410610319575b601f0160051c01905b81811061030e5750610112565b5f8155600101610301565b90915081906102f8565b634e487b7160e01b5f52602260045260245ffd5b90607f1690610100565b634e487b7160e01b5f52604160045260245ffd5b015190505f806100ca565b601f1982169060035f52805f20915f5b8181106103ab57509583600195969710610393575b505050811b016003556100df565b01515f1960f88460031b161c191690555f8080610385565b9192602060018192868b015181550194019201610370565b60035f527fc2575a0e9e593c00f959f8c92f12db2869c3395a3b0502d05e2516446f71f85b601f830160051c8101916020841061041c575b601f0160051c01905b81811061041157506100b1565b5f8155600101610404565b90915081906103fb565b90607f169061009f565b5f80fd5b6040519190601f01601f191682016001600160401b038111838210176103415760405256fe6080806040526004361015610012575f80fd5b5f3560e01c908163068bcd8d1461135f5750806306fdde03146112ba578063095ea7b3146112385780630e88d46414610fb7578063108c8492146109b657806318160ddd1461099957806323b872dd146108ba578063313ce5671461089f5780633d891f591461085b578063681947191461081257806370a08231146107db578063715018a614610780578063827c78891461073257806386ae5fec146107055780638da5cb5b146106dd57806395d89b41146105fb578063a9059cbb146105ca578063a98ad46c14610586578063ac4afa38146104b2578063c1e3bd3e1461043b578063c5a1f43414610278578063cc936e7714610252578063dd62ed3e14610202578063e6fa0209146101e1578063f2fde38b1461015b5763f525cb681461013a575f80fd5b34610157575f366003190112610157576020600754604051908152f35b5f80fd5b34610157576020366003190112610157576101746115c2565b61017c6119e9565b6001600160a01b031680156101ce57600580546001600160a01b0319811683179091556001600160a01b03167f8be0079c531659141344cd1fd0a4f28419497f9722a3daafe3b4186f6b6457e05f80a3005b631e4fbdf760e01b5f525f60045260245ffd5b34610157576102006101f23661162d565b906101fb6119e9565b6117f8565b005b346101575760403660031901126101575761021b6115c2565b6102236115d8565b6001600160a01b039182165f908152600160209081526040808320949093168252928352819020549051908152f35b34610157575f3660031901126101575760206040516b033b2e3c9fd0803ce80000008152f35b34610157576020366003190112610157576004356102946119e9565b805f52600860205260405f206001810160ff815460081c166003811015610427576102bf901561176c565b60088201546001600160a01b0316156103ed57805461ff00191661010017905560055460079091015460405163a9059cbb60e01b81526001600160a01b039290921660048301526024820152602081806044810103815f7f00000000000000000000000000000000000000000000000000000000000000006001600160a01b03165af19081156103e2575f916103b3575b501561037c577f7ed2d5bdf35d4cb790f65d053de7890f1b4a687ac689ca56c23730833531deb05f80a2005b60405162461bcd60e51b815260206004820152600f60248201526e151c985b9cd9995c8819985a5b1959608a1b6044820152606490fd5b6103d5915060203d6020116103db575b6103cd818361160b565b8101906117aa565b82610350565b503d6103c3565b6040513d5f823e3d90fd5b60405162461bcd60e51b8152602060048201526012602482015271139bc81dda5b9b995c881cd95b1958dd195960721b6044820152606490fd5b634e487b7160e01b5f52602160045260245ffd5b34610157576020366003190112610157576004355f526008602052610465600960405f200161171b565b6040518091602082016020835281518091526020604084019201905f5b818110610490575050500390f35b82516001600160a01b0316845285945060209384019390920191600101610482565b34610157576020366003190112610157576004355f52600860205260405f2080546001820154916104e56002820161167b565b60038201549160048101546005820154600683015491610560600785015494600860018060a01b039101541695604051998a998a5261052a60208b0160ff8316611584565b61053d60408b0160ff8360081c16611591565b60101c6001600160a01b031660608a015261016060808a0181905289019061159e565b9560a088015260c087015260e08601526101008501526101208401526101408301520390f35b34610157575f366003190112610157576040517f00000000000000000000000000000000000000000000000000000000000000006001600160a01b03168152602090f35b34610157576040366003190112610157576105f06105e66115c2565b602435903361193f565b602060405160018152f35b34610157575f366003190112610157576040515f60045461061b81611643565b80845290600181169081156106b9575060011461065b575b610657836106438185038261160b565b60405191829160208352602083019061159e565b0390f35b60045f9081527f8a35acfbc15ff81a39ae7d344fd709f28e8600b4aa8c65c6b64bfe7fe36bd19b939250905b80821061069f57509091508101602001610643610633565b919260018160209254838588010152019101909291610687565b60ff191660208086019190915291151560051b840190910191506106439050610633565b34610157575f366003190112610157576005546040516001600160a01b039091168152602090f35b34610157576020366003190112610157576004355f5260086020526020600960405f200154604051908152f35b346101575760203660031901126101575760043561074e6119e9565b805f52600860205260ff600160405f20015460081c169060038210156104275761077b610200921561176c565b611a10565b34610157575f366003190112610157576107986119e9565b600580546001600160a01b031981169091555f906001600160a01b03167f8be0079c531659141344cd1fd0a4f28419497f9722a3daafe3b4186f6b6457e08280a3005b34610157576020366003190112610157576001600160a01b036107fc6115c2565b165f525f602052602060405f2054604051908152f35b346101575760403660031901126101575761082b6115d8565b6004355f52600960205260405f209060018060a01b03165f52602052602060ff60405f2054166040519015158152f35b34610157576040366003190112610157576108746115d8565b6004355f52600a60205260405f209060018060a01b03165f52602052602060405f2054604051908152f35b34610157575f36600319011261015757602060405160128152f35b34610157576060366003190112610157576108d36115c2565b6108db6115d8565b6001600160a01b0382165f818152600160209081526040808320338452909152902054909260443592915f198110610919575b506105f0935061193f565b83811061097e57841561096b573315610958576105f0945f52600160205260405f2060018060a01b0333165f526020528360405f20910390558461090e565b634a1406b160e11b5f525f60045260245ffd5b63e602df0560e01b5f525f60045260245ffd5b8390637dc7a0d960e11b5f523360045260245260445260645ffd5b34610157575f366003190112610157576020600254604051908152f35b34610157576109c43661162d565b90600260065414610fa857600260065581815f52600860205260405f2092835415610f6d576001840191825460ff8160081c16600381101561042757610a0a901561176c565b6006860154421015610f39575f85815260096020908152604080832033845290915290205460ff16610f035760ff16600281101561042757610d81575050600983015460058401541115610d50576003830154925b6040516323b872dd60e01b8152336004820152306024820152604481018590526020816064815f7f00000000000000000000000000000000000000000000000000000000000000006001600160a01b03165af19081156103e2575f91610d31575b5015610cf55760098101805468010000000000000000811015610ce157610aec916001820181556117c2565b81546001600160a01b0360039290921b91821b1916339182901b179091555f8481526009602090815260408083208484528252808320805460ff19166001179055868352600a825280832093835292905220849055600781018054610b529086906117eb565b80915560ff8354166002811015610427576001149182610cd2575b5050610c9a575b5064e8d4a51000820282810464e8d4a510001483151715610c86576b033b2e3c9fd0803ce8000000610ba8826002546117eb565b11610c4b573315610c3857610bbf816002546117eb565b600255335f525f60205260405f208181540190556040518181525f7fddf252ad1be2c89b69c2b068fc378daa952ba7f163c4a11628f55a4df523b3ef60203393a360405192835260208301527f9a215eca654acfb405df5f8f7f472eccecc6dc50a60ee8f4c6e8225f4bab0ce360403393a36001600655005b63ec442f0560e01b5f525f60045260245ffd5b60405162461bcd60e51b815260206004820152601360248201527213585e081cdd5c1c1b1e48195e18d959591959606a1b6044820152606490fd5b634e487b7160e01b5f52601160045260245ffd5b805461ff001916610100179055807f7ed2d5bdf35d4cb790f65d053de7890f1b4a687ac689ca56c23730833531deb05f80a282610b74565b60040154111590508480610b6d565b634e487b7160e01b5f52604160045260245ffd5b60405162461bcd60e51b81526020600482015260146024820152731554d115081d1c985b9cd9995c8819985a5b195960621b6044820152606490fd5b610d4a915060203d6020116103db576103cd818361160b565b85610ac0565b60405162461bcd60e51b8152602060048201526009602482015268141bdbdb08199d5b1b60ba1b6044820152606490fd5b8015610ebe57600485015490600786015480830392808411610c865714610e7957620f42408110610e345760508202828104605003610c8657606490048111610dda578110610dd2575b5092610a5f565b905084610dcb565b60405162461bcd60e51b815260206004820152602c60248201527f43616e6e6f7420636f6e74726962757465206d6f7265207468616e203830252060448201526b6f662072656d61696e696e6760a01b6064820152608490fd5b60405162461bcd60e51b815260206004820152601e60248201527f4d696e696d756d20636f6e747269627574696f6e2069732031205553445400006044820152606490fd5b60405162461bcd60e51b815260206004820152601960248201527f506f6f6c20616c72656164792066756c6c792066756e646564000000000000006044820152606490fd5b60405162461bcd60e51b815260206004820152601d60248201527f416d6f756e74206d7573742062652067726561746572207468616e20300000006044820152606490fd5b60405162461bcd60e51b815260206004820152600e60248201526d105b1c9958591e481a9bda5b995960921b6044820152606490fd5b60405162461bcd60e51b815260206004820152600c60248201526b141bdbdb08195e1c1a5c995960a21b6044820152606490fd5b60405162461bcd60e51b8152602060048201526013602482015272141bdbdb08191bd95cc81b9bdd08195e1a5cdd606a1b6044820152606490fd5b633ee5aeb560e01b5f5260045ffd5b346101575760c0366003190112610157576004356002811015610157576024359067ffffffffffffffff8211610157573660238301121561015757816004013567ffffffffffffffff8111610ce1576040519261101e601f8301601f19166020018561160b565b818452366024838301011161015757815f9260246020930183870137840101526007545f198114610c8657600190810160078190555f81815260086020526040902081815591820180546001600160b01b03191660ff8516173360101b62010000600160b01b0316179055835193919290916002840167ffffffffffffffff8611610ce1576110ad8154611643565b95601f87116111f3575b6020965086601f8211600114611168579285967fa1d183de8fce351ce90c5aef8b14eca79f903cebb82f1e90a9fea0069f22dd839593836111529461113c975f9161115d575b508160011b915f199060031b1c19161790555b604435600382015560643560048201556084356005820155600660a43591015560405193848094611584565b338884015260606040840152606083019061159e565b0390a2604051908152f35b90508401518c6110fd565b601f19821690835f52805f20915f5b8181106111dc57509360018461113c97948a9b94611152977fa1d183de8fce351ce90c5aef8b14eca79f903cebb82f1e90a9fea0069f22dd839b99106111c4575b5050811b019055611110565b8601515f1960f88460031b161c191690558c806111b8565b91928a60018192868a015181550194019201611177565b815f5260205f20601f820160051c8101976020831061122e575b601f0160051c01965b87811061122357506110b7565b5f8155600101611216565b909750879061120d565b34610157576040366003190112610157576112516115c2565b60243590331561096b576001600160a01b031690811561095857335f52600160205260405f20825f526020528060405f20556040519081527f8c5be1e5ebec7d5bd14f71427d1e84f3dd0314c0f7b2291e5b200ac8c7c3b92560203392a3602060405160018152f35b34610157575f366003190112610157576040515f6003546112da81611643565b80845290600181169081156106b9575060011461130157610657836106438185038261160b565b60035f9081527fc2575a0e9e593c00f959f8c92f12db2869c3395a3b0502d05e2516446f71f85b939250905b80821061134557509091508101602001610643610633565b91926001816020925483858801015201910190929161132d565b34610157576020366003190112610157576101608161137f6060936115ee565b5f81525f60208201525f60408201525f838201528260808201525f60a08201525f60c08201525f60e08201525f6101008201525f6101208201525f61014082015201526004355f52600860205260405f20604051906113dd826115ee565b80548252600181015490602083019060ff8316600281101561042757825260ff8360081c166040850190600381101561042757815260109390931c6001600160a01b03166060850190815291928492916114396002820161167b565b926080850193845260038201549360a08601948552600483015460c0870190815260058401549060e0880191825260068501549261010089019384526007860154946101208a01958652600160a01b60019003600888015416966101408b019788526009016114a79061171b565b976101608b019889526040519b8c9b60208d525160208d01525160408c016114ce91611584565b5160608b016114dc91611591565b516001600160a01b031660808a01525161018060a08a0152611503906101a08a019061159e565b965160c08901525160e0880152516101008701525161012086015251610140850152516001600160a01b031661016084015251828203601f19016101808401528051808352602092830192909101905f5b818110611562575050500390f35b82516001600160a01b0316845285945060209384019390920191600101611554565b9060028210156104275752565b9060038210156104275752565b805180835260209291819084018484015e5f828201840152601f01601f1916010190565b600435906001600160a01b038216820361015757565b602435906001600160a01b038216820361015757565b610180810190811067ffffffffffffffff821117610ce157604052565b90601f8019910116810190811067ffffffffffffffff821117610ce157604052565b6040906003190112610157576004359060243590565b90600182811c92168015611671575b602083101461165d57565b634e487b7160e01b5f52602260045260245ffd5b91607f1691611652565b9060405191825f82549261168e84611643565b80845293600181169081156116f957506001146116b5575b506116b39250038361160b565b565b90505f9291925260205f20905f915b8183106116dd5750509060206116b3928201015f6116a6565b60209193508060019154838589010152019101909184926116c4565b9050602092506116b394915060ff191682840152151560051b8201015f6116a6565b90604051918281549182825260208201905f5260205f20925f5b81811061174a5750506116b39250038361160b565b84546001600160a01b0316835260019485019487945060209093019201611735565b1561177357565b60405162461bcd60e51b815260206004820152600f60248201526e506f6f6c206e6f742061637469766560881b6044820152606490fd5b90816020910312610157575180151581036101575790565b80548210156117d7575f5260205f2001905f90565b634e487b7160e01b5f52603260045260245ffd5b91908201809211610c8657565b90815f52600860205260405f209060ff600183015460081c16600381101561042757611824901561176c565b600682015442106119095760098201908154156118d25760078301546004840154116118c65781549182156118b2576008926118619206906117c2565b90549190920180546001600160a01b03191660039390931b9190911c6001600160a01b03169182179055907f03fb57eb449654e24e1b240d3d06702cf79362a065d5c0323aee642d4702fa4b5f80a3565b634e487b7160e01b5f52601260045260245ffd5b5050506116b390611a10565b60405162461bcd60e51b815260206004820152600f60248201526e4e6f207061727469636970616e747360881b6044820152606490fd5b60405162461bcd60e51b815260206004820152600e60248201526d141bdbdb081b9bdd08195b99195960921b6044820152606490fd5b6001600160a01b03169081156119d6576001600160a01b0316918215610c3857815f525f60205260405f20548181106119bd57817fddf252ad1be2c89b69c2b068fc378daa952ba7f163c4a11628f55a4df523b3ef92602092855f525f84520360405f2055845f525f825260405f20818154019055604051908152a3565b8263391434e360e21b5f5260045260245260445260645ffd5b634b637e8f60e11b5f525f60045260245ffd5b6005546001600160a01b031633036119fd57565b63118cdaa760e01b5f523360045260245ffd5b90815f52600860205260405f206001810161020061ff001982541617905560095f9101905b8154811015611b2557611a4881836117c2565b90545f868152600a6020908152604080832060039590951b9390931c6001600160a01b03168083529390522054919082611a88575b506001915001611a35565b5f868152600a602090815260408083206001600160a01b03948516808552908352818420849055905163a9059cbb60e01b8152600481019190915260248101959095529184916044918391907f0000000000000000000000000000000000000000000000000000000000000000165af19182156103e25760019215611a7d57611b1e9060203d81116103db576103cd818361160b565b505f611a7d565b5050907f3d229dd60fc64b0903758feed58453f62e715f5d01dc0978c0a3a312dd2776c25f80a256fea2646970667358221220d9e0578e431db3c28449a209d6fc31751c2c1e543e2ca87396b2090a2f50275a64736f6c634300081c0033","opcodes":"PUSH1 0xA0 PUSH1 0x40 MSTORE CALLVALUE PUSH2 0x430 JUMPI PUSH2 0x1FDE PUSH1 0x20 DUP2 CODESIZE SUB SWAP2 DUP3 PUSH2 0x1C DUP2 PUSH2 0x434 JUMP JUMPDEST SWAP4 DUP5 SWAP3 DUP4 CODECOPY DUP2 ADD SUB SLT PUSH2 0x430 JUMPI MLOAD PUSH1 0x1 PUSH1 0x1 PUSH1 0xA0 SHL SUB DUP2 AND SWAP1 DUP2 SWAP1 SUB PUSH2 0x430 JUMPI PUSH2 0x46 PUSH1 0x40 PUSH2 0x434 JUMP JUMPDEST SWAP1 PUSH1 0xB DUP3 MSTORE PUSH11 0x2A2627A7AA102A37B5B2B7 PUSH1 0xA9 SHL PUSH1 0x20 DUP4 ADD MSTORE PUSH2 0x69 PUSH1 0x40 PUSH2 0x434 JUMP JUMPDEST PUSH1 0x5 DUP2 MSTORE PUSH5 0x151313D3D5 PUSH1 0xDA SHL PUSH1 0x20 DUP3 ADD MSTORE DUP3 MLOAD SWAP1 SWAP2 SWAP1 PUSH1 0x1 PUSH1 0x1 PUSH1 0x40 SHL SUB DUP2 GT PUSH2 0x341 JUMPI PUSH1 0x3 SLOAD PUSH1 0x1 DUP2 DUP2 SHR SWAP2 AND DUP1 ISZERO PUSH2 0x426 JUMPI JUMPDEST PUSH1 0x20 DUP3 LT EQ PUSH2 0x323 JUMPI PUSH1 0x1F DUP2 GT PUSH2 0x3C3 JUMPI JUMPDEST POP PUSH1 0x20 PUSH1 0x1F DUP3 GT PUSH1 0x1 EQ PUSH2 0x360 JUMPI DUP2 SWAP3 SWAP4 SWAP5 PUSH0 SWAP3 PUSH2 0x355 JUMPI JUMPDEST POP POP DUP2 PUSH1 0x1 SHL SWAP2 PUSH0 NOT SWAP1 PUSH1 0x3 SHL SHR NOT AND OR PUSH1 0x3 SSTORE JUMPDEST DUP2 MLOAD PUSH1 0x1 PUSH1 0x1 PUSH1 0x40 SHL SUB DUP2 GT PUSH2 0x341 JUMPI PUSH1 0x4 SLOAD PUSH1 0x1 DUP2 DUP2 SHR SWAP2 AND DUP1 ISZERO PUSH2 0x337 JUMPI JUMPDEST PUSH1 0x20 DUP3 LT EQ PUSH2 0x323 JUMPI PUSH1 0x1F DUP2 GT PUSH2 0x2C0 JUMPI JUMPDEST POP PUSH1 0x20 SWAP3 PUSH1 0x1F DUP3 GT PUSH1 0x1 EQ PUSH2 0x25F JUMPI SWAP3 DUP2 SWAP3 SWAP4 PUSH0 SWAP3 PUSH2 0x254 JUMPI JUMPDEST POP POP DUP2 PUSH1 0x1 SHL SWAP2 PUSH0 NOT SWAP1 PUSH1 0x3 SHL SHR NOT AND OR PUSH1 0x4 SSTORE JUMPDEST CALLER ISZERO PUSH2 0x241 JUMPI PUSH1 0x5 DUP1 SLOAD CALLER PUSH1 0x1 PUSH1 0x1 PUSH1 0xA0 SHL SUB NOT DUP3 AND DUP2 OR SWAP1 SWAP3 SSTORE PUSH1 0x1 PUSH1 0x1 PUSH1 0xA0 SHL SUB AND PUSH32 0x8BE0079C531659141344CD1FD0A4F28419497F9722A3DAAFE3B4186F6B6457E0 PUSH0 DUP1 LOG3 PUSH1 0x1 PUSH1 0x6 SSTORE PUSH1 0x80 MSTORE PUSH1 0x2 SLOAD PUSH11 0x52B7D2DCC80CD2E4000000 DUP2 ADD DUP1 SWAP2 GT PUSH2 0x22D JUMPI PUSH1 0x2 SSTORE CALLER PUSH0 MSTORE PUSH0 PUSH1 0x20 MSTORE PUSH1 0x40 PUSH0 KECCAK256 PUSH11 0x52B7D2DCC80CD2E4000000 DUP2 SLOAD ADD SWAP1 SSTORE PUSH1 0x40 MLOAD PUSH11 0x52B7D2DCC80CD2E4000000 DUP2 MSTORE PUSH0 PUSH32 0xDDF252AD1BE2C89B69C2B068FC378DAA952BA7F163C4A11628F55A4DF523B3EF PUSH1 0x20 CALLER SWAP4 LOG3 PUSH1 0x40 MLOAD PUSH2 0x1B84 SWAP1 DUP2 PUSH2 0x45A DUP3 CODECOPY PUSH1 0x80 MLOAD DUP2 DUP2 DUP2 PUSH2 0x318 ADD MSTORE DUP2 DUP2 PUSH2 0x59B ADD MSTORE DUP2 DUP2 PUSH2 0xA88 ADD MSTORE PUSH2 0x1AD6 ADD MSTORE RETURN JUMPDEST PUSH4 0x4E487B71 PUSH1 0xE0 SHL PUSH0 MSTORE PUSH1 0x11 PUSH1 0x4 MSTORE PUSH1 0x24 PUSH0 REVERT JUMPDEST PUSH4 0x1E4FBDF7 PUSH1 0xE0 SHL PUSH0 MSTORE PUSH0 PUSH1 0x4 MSTORE PUSH1 0x24 PUSH0 REVERT JUMPDEST ADD MLOAD SWAP1 POP PUSH0 DUP1 PUSH2 0x12C JUMP JUMPDEST PUSH1 0x1F NOT DUP3 AND SWAP4 PUSH1 0x4 PUSH0 MSTORE DUP1 PUSH0 KECCAK256 SWAP2 PUSH0 JUMPDEST DUP7 DUP2 LT PUSH2 0x2A8 JUMPI POP DUP4 PUSH1 0x1 SWAP6 SWAP7 LT PUSH2 0x290 JUMPI JUMPDEST POP POP POP DUP2 SHL ADD PUSH1 0x4 SSTORE PUSH2 0x141 JUMP JUMPDEST ADD MLOAD PUSH0 NOT PUSH1 0xF8 DUP5 PUSH1 0x3 SHL AND SHR NOT AND SWAP1 SSTORE PUSH0 DUP1 DUP1 PUSH2 0x282 JUMP JUMPDEST SWAP2 SWAP3 PUSH1 0x20 PUSH1 0x1 DUP2 SWAP3 DUP7 DUP6 ADD MLOAD DUP2 SSTORE ADD SWAP5 ADD SWAP3 ADD PUSH2 0x26F JUMP JUMPDEST PUSH1 0x4 PUSH0 MSTORE PUSH32 0x8A35ACFBC15FF81A39AE7D344FD709F28E8600B4AA8C65C6B64BFE7FE36BD19B PUSH1 0x1F DUP4 ADD PUSH1 0x5 SHR DUP2 ADD SWAP2 PUSH1 0x20 DUP5 LT PUSH2 0x319 JUMPI JUMPDEST PUSH1 0x1F ADD PUSH1 0x5 SHR ADD SWAP1 JUMPDEST DUP2 DUP2 LT PUSH2 0x30E JUMPI POP PUSH2 0x112 JUMP JUMPDEST PUSH0 DUP2 SSTORE PUSH1 0x1 ADD PUSH2 0x301 JUMP JUMPDEST SWAP1 SWAP2 POP DUP2 SWAP1 PUSH2 0x2F8 JUMP JUMPDEST PUSH4 0x4E487B71 PUSH1 0xE0 SHL PUSH0 MSTORE PUSH1 0x22 PUSH1 0x4 MSTORE PUSH1 0x24 PUSH0 REVERT JUMPDEST SWAP1 PUSH1 0x7F AND SWAP1 PUSH2 0x100 JUMP JUMPDEST PUSH4 0x4E487B71 PUSH1 0xE0 SHL PUSH0 MSTORE PUSH1 0x41 PUSH1 0x4 MSTORE PUSH1 0x24 PUSH0 REVERT JUMPDEST ADD MLOAD SWAP1 POP PUSH0 DUP1 PUSH2 0xCA JUMP JUMPDEST PUSH1 0x1F NOT DUP3 AND SWAP1 PUSH1 0x3 PUSH0 MSTORE DUP1 PUSH0 KECCAK256 SWAP2 PUSH0 JUMPDEST DUP2 DUP2 LT PUSH2 0x3AB JUMPI POP SWAP6 DUP4 PUSH1 0x1 SWAP6 SWAP7 SWAP8 LT PUSH2 0x393 JUMPI JUMPDEST POP POP POP DUP2 SHL ADD PUSH1 0x3 SSTORE PUSH2 0xDF JUMP JUMPDEST ADD MLOAD PUSH0 NOT PUSH1 0xF8 DUP5 PUSH1 0x3 SHL AND SHR NOT AND SWAP1 SSTORE PUSH0 DUP1 DUP1 PUSH2 0x385 JUMP JUMPDEST SWAP2 SWAP3 PUSH1 0x20 PUSH1 0x1 DUP2 SWAP3 DUP7 DUP12 ADD MLOAD DUP2 SSTORE ADD SWAP5 ADD SWAP3 ADD PUSH2 0x370 JUMP JUMPDEST PUSH1 0x3 PUSH0 MSTORE PUSH32 0xC2575A0E9E593C00F959F8C92F12DB2869C3395A3B0502D05E2516446F71F85B PUSH1 0x1F DUP4 ADD PUSH1 0x5 SHR DUP2 ADD SWAP2 PUSH1 0x20 DUP5 LT PUSH2 0x41C JUMPI JUMPDEST PUSH1 0x1F ADD PUSH1 0x5 SHR ADD SWAP1 JUMPDEST DUP2 DUP2 LT PUSH2 0x411 JUMPI POP PUSH2 0xB1 JUMP JUMPDEST PUSH0 DUP2 SSTORE PUSH1 0x1 ADD PUSH2 0x404 JUMP JUMPDEST SWAP1 SWAP2 POP DUP2 SWAP1 PUSH2 0x3FB JUMP JUMPDEST SWAP1 PUSH1 0x7F AND SWAP1 PUSH2 0x9F JUMP JUMPDEST PUSH0 DUP1 REVERT JUMPDEST PUSH1 0x40 MLOAD SWAP2 SWAP1 PUSH1 0x1F ADD PUSH1 0x1F NOT AND DUP3 ADD PUSH1 0x1 PUSH1 0x1 PUSH1 0x40 SHL SUB DUP2 GT DUP4 DUP3 LT OR PUSH2 0x341 JUMPI PUSH1 0x40 MSTORE JUMP INVALID PUSH1 0x80 DUP1 PUSH1 0x40 MSTORE PUSH1 0x4 CALLDATASIZE LT ISZERO PUSH2 0x12 JUMPI PUSH0 DUP1 REVERT JUMPDEST PUSH0 CALLDATALOAD PUSH1 0xE0 SHR SWAP1 DUP2 PUSH4 0x68BCD8D EQ PUSH2 0x135F JUMPI POP DUP1 PUSH4 0x6FDDE03 EQ PUSH2 0x12BA JUMPI DUP1 PUSH4 0x95EA7B3 EQ PUSH2 0x1238 JUMPI DUP1 PUSH4 0xE88D464 EQ PUSH2 0xFB7 JUMPI DUP1 PUSH4 0x108C8492 EQ PUSH2 0x9B6 JUMPI DUP1 PUSH4 0x18160DDD EQ PUSH2 0x999 JUMPI DUP1 PUSH4 0x23B872DD EQ PUSH2 0x8BA JUMPI DUP1 PUSH4 0x313CE567 EQ PUSH2 0x89F JUMPI DUP1 PUSH4 0x3D891F59 EQ PUSH2 0x85B JUMPI DUP1 PUSH4 0x68194719 EQ PUSH2 0x812 JUMPI DUP1 PUSH4 0x70A08231 EQ PUSH2 0x7DB JUMPI DUP1 PUSH4 0x715018A6 EQ PUSH2 0x780 JUMPI DUP1 PUSH4 0x827C7889 EQ PUSH2 0x732 JUMPI DUP1 PUSH4 0x86AE5FEC EQ PUSH2 0x705 JUMPI DUP1 PUSH4 0x8DA5CB5B EQ PUSH2 0x6DD JUMPI DUP1 PUSH4 0x95D89B41 EQ PUSH2 0x5FB JUMPI DUP1 PUSH4 0xA9059CBB EQ PUSH2 0x5CA JUMPI DUP1 PUSH4 0xA98AD46C EQ PUSH2 0x586 JUMPI DUP1 PUSH4 0xAC4AFA38 EQ PUSH2 0x4B2 JUMPI DUP1 PUSH4 0xC1E3BD3E EQ PUSH2 0x43B JUMPI DUP1 PUSH4 0xC5A1F434 EQ PUSH2 0x278 JUMPI DUP1 PUSH4 0xCC936E77 EQ PUSH2 0x252 JUMPI DUP1 PUSH4 0xDD62ED3E EQ PUSH2 0x202 JUMPI DUP1 PUSH4 0xE6FA0209 EQ PUSH2 0x1E1 JUMPI DUP1 PUSH4 0xF2FDE38B EQ PUSH2 0x15B JUMPI PUSH4 0xF525CB68 EQ PUSH2 0x13A JUMPI PUSH0 DUP1 REVERT JUMPDEST CALLVALUE PUSH2 0x157 JUMPI PUSH0 CALLDATASIZE PUSH1 0x3 NOT ADD SLT PUSH2 0x157 JUMPI PUSH1 0x20 PUSH1 0x7 SLOAD PUSH1 0x40 MLOAD SWAP1 DUP2 MSTORE RETURN JUMPDEST PUSH0 DUP1 REVERT JUMPDEST CALLVALUE PUSH2 0x157 JUMPI PUSH1 0x20 CALLDATASIZE PUSH1 0x3 NOT ADD SLT PUSH2 0x157 JUMPI PUSH2 0x174 PUSH2 0x15C2 JUMP JUMPDEST PUSH2 0x17C PUSH2 0x19E9 JUMP JUMPDEST PUSH1 0x1 PUSH1 0x1 PUSH1 0xA0 SHL SUB AND DUP1 ISZERO PUSH2 0x1CE JUMPI PUSH1 0x5 DUP1 SLOAD PUSH1 0x1 PUSH1 0x1 PUSH1 0xA0 SHL SUB NOT DUP2 AND DUP4 OR SWAP1 SWAP2 SSTORE PUSH1 0x1 PUSH1 0x1 PUSH1 0xA0 SHL SUB AND PUSH32 0x8BE0079C531659141344CD1FD0A4F28419497F9722A3DAAFE3B4186F6B6457E0 PUSH0 DUP1 LOG3 STOP JUMPDEST PUSH4 0x1E4FBDF7 PUSH1 0xE0 SHL PUSH0 MSTORE PUSH0 PUSH1 0x4 MSTORE PUSH1 0x24 PUSH0 REVERT JUMPDEST CALLVALUE PUSH2 0x157 JUMPI PUSH2 0x200 PUSH2 0x1F2 CALLDATASIZE PUSH2 0x162D JUMP JUMPDEST SWAP1 PUSH2 0x1FB PUSH2 0x19E9 JUMP JUMPDEST PUSH2 0x17F8 JUMP JUMPDEST STOP JUMPDEST CALLVALUE PUSH2 0x157 JUMPI PUSH1 0x40 CALLDATASIZE PUSH1 0x3 NOT ADD SLT PUSH2 0x157 JUMPI PUSH2 0x21B PUSH2 0x15C2 JUMP JUMPDEST PUSH2 0x223 PUSH2 0x15D8 JUMP JUMPDEST PUSH1 0x1 PUSH1 0x1 PUSH1 0xA0 SHL SUB SWAP2 DUP3 AND PUSH0 SWAP1 DUP2 MSTORE PUSH1 0x1 PUSH1 0x20 SWAP1 DUP2 MSTORE PUSH1 0x40 DUP1 DUP4 KECCAK256 SWAP5 SWAP1 SWAP4 AND DUP3 MSTORE SWAP3 DUP4 MSTORE DUP2 SWAP1 KECCAK256 SLOAD SWAP1 MLOAD SWAP1 DUP2 MSTORE RETURN JUMPDEST CALLVALUE PUSH2 0x157 JUMPI PUSH0 CALLDATASIZE PUSH1 0x3 NOT ADD SLT PUSH2 0x157 JUMPI PUSH1 0x20 PUSH1 0x40 MLOAD PUSH12 0x33B2E3C9FD0803CE8000000 DUP2 MSTORE RETURN JUMPDEST CALLVALUE PUSH2 0x157 JUMPI PUSH1 0x20 CALLDATASIZE PUSH1 0x3 NOT ADD SLT PUSH2 0x157 JUMPI PUSH1 0x4 CALLDATALOAD PUSH2 0x294 PUSH2 0x19E9 JUMP JUMPDEST DUP1 PUSH0 MSTORE PUSH1 0x8 PUSH1 0x20 MSTORE PUSH1 0x40 PUSH0 KECCAK256 PUSH1 0x1 DUP2 ADD PUSH1 0xFF DUP2 SLOAD PUSH1 0x8 SHR AND PUSH1 0x3 DUP2 LT ISZERO PUSH2 0x427 JUMPI PUSH2 0x2BF SWAP1 ISZERO PUSH2 0x176C JUMP JUMPDEST PUSH1 0x8 DUP3 ADD SLOAD PUSH1 0x1 PUSH1 0x1 PUSH1 0xA0 SHL SUB AND ISZERO PUSH2 0x3ED JUMPI DUP1 SLOAD PUSH2 0xFF00 NOT AND PUSH2 0x100 OR SWAP1 SSTORE PUSH1 0x5 SLOAD PUSH1 0x7 SWAP1 SWAP2 ADD SLOAD PUSH1 0x40 MLOAD PUSH4 0xA9059CBB PUSH1 0xE0 SHL DUP2 MSTORE PUSH1 0x1 PUSH1 0x1 PUSH1 0xA0 SHL SUB SWAP3 SWAP1 SWAP3 AND PUSH1 0x4 DUP4 ADD MSTORE PUSH1 0x24 DUP3 ADD MSTORE PUSH1 0x20 DUP2 DUP1 PUSH1 0x44 DUP2 ADD SUB DUP2 PUSH0 PUSH32 0x0 PUSH1 0x1 PUSH1 0x1 PUSH1 0xA0 SHL SUB AND GAS CALL SWAP1 DUP2 ISZERO PUSH2 0x3E2 JUMPI PUSH0 SWAP2 PUSH2 0x3B3 JUMPI JUMPDEST POP ISZERO PUSH2 0x37C JUMPI PUSH32 0x7ED2D5BDF35D4CB790F65D053DE7890F1B4A687AC689CA56C23730833531DEB0 PUSH0 DUP1 LOG2 STOP JUMPDEST PUSH1 0x40 MLOAD PUSH3 0x461BCD PUSH1 0xE5 SHL DUP2 MSTORE PUSH1 0x20 PUSH1 0x4 DUP3 ADD MSTORE PUSH1 0xF PUSH1 0x24 DUP3 ADD MSTORE PUSH15 0x151C985B9CD9995C8819985A5B1959 PUSH1 0x8A SHL PUSH1 0x44 DUP3 ADD MSTORE PUSH1 0x64 SWAP1 REVERT JUMPDEST PUSH2 0x3D5 SWAP2 POP PUSH1 0x20 RETURNDATASIZE PUSH1 0x20 GT PUSH2 0x3DB JUMPI JUMPDEST PUSH2 0x3CD DUP2 DUP4 PUSH2 0x160B JUMP JUMPDEST DUP2 ADD SWAP1 PUSH2 0x17AA JUMP JUMPDEST DUP3 PUSH2 0x350 JUMP JUMPDEST POP RETURNDATASIZE PUSH2 0x3C3 JUMP JUMPDEST PUSH1 0x40 MLOAD RETURNDATASIZE PUSH0 DUP3 RETURNDATACOPY RETURNDATASIZE SWAP1 REVERT JUMPDEST PUSH1 0x40 MLOAD PUSH3 0x461BCD PUSH1 0xE5 SHL DUP2 MSTORE PUSH1 0x20 PUSH1 0x4 DUP3 ADD MSTORE PUSH1 0x12 PUSH1 0x24 DUP3 ADD MSTORE PUSH18 0x139BC81DDA5B9B995C881CD95B1958DD1959 PUSH1 0x72 SHL PUSH1 0x44 DUP3 ADD MSTORE PUSH1 0x64 SWAP1 REVERT JUMPDEST PUSH4 0x4E487B71 PUSH1 0xE0 SHL PUSH0 MSTORE PUSH1 0x21 PUSH1 0x4 MSTORE PUSH1 0x24 PUSH0 REVERT JUMPDEST CALLVALUE PUSH2 0x157 JUMPI PUSH1 0x20 CALLDATASIZE PUSH1 0x3 NOT ADD SLT PUSH2 0x157 JUMPI PUSH1 0x4 CALLDATALOAD PUSH0 MSTORE PUSH1 0x8 PUSH1 0x20 MSTORE PUSH2 0x465 PUSH1 0x9 PUSH1 0x40 PUSH0 KECCAK256 ADD PUSH2 0x171B JUMP JUMPDEST PUSH1 0x40 MLOAD DUP1 SWAP2 PUSH1 0x20 DUP3 ADD PUSH1 0x20 DUP4 MSTORE DUP2 MLOAD DUP1 SWAP2 MSTORE PUSH1 0x20 PUSH1 0x40 DUP5 ADD SWAP3 ADD SWAP1 PUSH0 JUMPDEST DUP2 DUP2 LT PUSH2 0x490 JUMPI POP POP POP SUB SWAP1 RETURN JUMPDEST DUP3 MLOAD PUSH1 0x1 PUSH1 0x1 PUSH1 0xA0 SHL SUB AND DUP5 MSTORE DUP6 SWAP5 POP PUSH1 0x20 SWAP4 DUP5 ADD SWAP4 SWAP1 SWAP3 ADD SWAP2 PUSH1 0x1 ADD PUSH2 0x482 JUMP JUMPDEST CALLVALUE PUSH2 0x157 JUMPI PUSH1 0x20 CALLDATASIZE PUSH1 0x3 NOT ADD SLT PUSH2 0x157 JUMPI PUSH1 0x4 CALLDATALOAD PUSH0 MSTORE PUSH1 0x8 PUSH1 0x20 MSTORE PUSH1 0x40 PUSH0 KECCAK256 DUP1 SLOAD PUSH1 0x1 DUP3 ADD SLOAD SWAP2 PUSH2 0x4E5 PUSH1 0x2 DUP3 ADD PUSH2 0x167B JUMP JUMPDEST PUSH1 0x3 DUP3 ADD SLOAD SWAP2 PUSH1 0x4 DUP2 ADD SLOAD PUSH1 0x5 DUP3 ADD SLOAD PUSH1 0x6 DUP4 ADD SLOAD SWAP2 PUSH2 0x560 PUSH1 0x7 DUP6 ADD SLOAD SWAP5 PUSH1 0x8 PUSH1 0x1 DUP1 PUSH1 0xA0 SHL SUB SWAP2 ADD SLOAD AND SWAP6 PUSH1 0x40 MLOAD SWAP10 DUP11 SWAP10 DUP11 MSTORE PUSH2 0x52A PUSH1 0x20 DUP12 ADD PUSH1 0xFF DUP4 AND PUSH2 0x1584 JUMP JUMPDEST PUSH2 0x53D PUSH1 0x40 DUP12 ADD PUSH1 0xFF DUP4 PUSH1 0x8 SHR AND PUSH2 0x1591 JUMP JUMPDEST PUSH1 0x10 SHR PUSH1 0x1 PUSH1 0x1 PUSH1 0xA0 SHL SUB AND PUSH1 0x60 DUP11 ADD MSTORE PUSH2 0x160 PUSH1 0x80 DUP11 ADD DUP2 SWAP1 MSTORE DUP10 ADD SWAP1 PUSH2 0x159E JUMP JUMPDEST SWAP6 PUSH1 0xA0 DUP9 ADD MSTORE PUSH1 0xC0 DUP8 ADD MSTORE PUSH1 0xE0 DUP7 ADD MSTORE PUSH2 0x100 DUP6 ADD MSTORE PUSH2 0x120 DUP5 ADD MSTORE PUSH2 0x140 DUP4 ADD MSTORE SUB SWAP1 RETURN JUMPDEST CALLVALUE PUSH2 0x157 JUMPI PUSH0 CALLDATASIZE PUSH1 0x3 NOT ADD SLT PUSH2 0x157 JUMPI PUSH1 0x40 MLOAD PUSH32 0x0 PUSH1 0x1 PUSH1 0x1 PUSH1 0xA0 SHL SUB AND DUP2 MSTORE PUSH1 0x20 SWAP1 RETURN JUMPDEST CALLVALUE PUSH2 0x157 JUMPI PUSH1 0x40 CALLDATASIZE PUSH1 0x3 NOT ADD SLT PUSH2 0x157 JUMPI PUSH2 0x5F0 PUSH2 0x5E6 PUSH2 0x15C2 JUMP JUMPDEST PUSH1 0x24 CALLDATALOAD SWAP1 CALLER PUSH2 0x193F JUMP JUMPDEST PUSH1 0x20 PUSH1 0x40 MLOAD PUSH1 0x1 DUP2 MSTORE RETURN JUMPDEST CALLVALUE PUSH2 0x157 JUMPI PUSH0 CALLDATASIZE PUSH1 0x3 NOT ADD SLT PUSH2 0x157 JUMPI PUSH1 0x40 MLOAD PUSH0 PUSH1 0x4 SLOAD PUSH2 0x61B DUP2 PUSH2 0x1643 JUMP JUMPDEST DUP1 DUP5 MSTORE SWAP1 PUSH1 0x1 DUP2 AND SWAP1 DUP2 ISZERO PUSH2 0x6B9 JUMPI POP PUSH1 0x1 EQ PUSH2 0x65B JUMPI JUMPDEST PUSH2 0x657 DUP4 PUSH2 0x643 DUP2 DUP6 SUB DUP3 PUSH2 0x160B JUMP JUMPDEST PUSH1 0x40 MLOAD SWAP2 DUP3 SWAP2 PUSH1 0x20 DUP4 MSTORE PUSH1 0x20 DUP4 ADD SWAP1 PUSH2 0x159E JUMP JUMPDEST SUB SWAP1 RETURN JUMPDEST PUSH1 0x4 PUSH0 SWAP1 DUP2 MSTORE PUSH32 0x8A35ACFBC15FF81A39AE7D344FD709F28E8600B4AA8C65C6B64BFE7FE36BD19B SWAP4 SWAP3 POP SWAP1 JUMPDEST DUP1 DUP3 LT PUSH2 0x69F JUMPI POP SWAP1 SWAP2 POP DUP2 ADD PUSH1 0x20 ADD PUSH2 0x643 PUSH2 0x633 JUMP JUMPDEST SWAP2 SWAP3 PUSH1 0x1 DUP2 PUSH1 0x20 SWAP3 SLOAD DUP4 DUP6 DUP9 ADD ADD MSTORE ADD SWAP2 ADD SWAP1 SWAP3 SWAP2 PUSH2 0x687 JUMP JUMPDEST PUSH1 0xFF NOT AND PUSH1 0x20 DUP1 DUP7 ADD SWAP2 SWAP1 SWAP2 MSTORE SWAP2 ISZERO ISZERO PUSH1 0x5 SHL DUP5 ADD SWAP1 SWAP2 ADD SWAP2 POP PUSH2 0x643 SWAP1 POP PUSH2 0x633 JUMP JUMPDEST CALLVALUE PUSH2 0x157 JUMPI PUSH0 CALLDATASIZE PUSH1 0x3 NOT ADD SLT PUSH2 0x157 JUMPI PUSH1 0x5 SLOAD PUSH1 0x40 MLOAD PUSH1 0x1 PUSH1 0x1 PUSH1 0xA0 SHL SUB SWAP1 SWAP2 AND DUP2 MSTORE PUSH1 0x20 SWAP1 RETURN JUMPDEST CALLVALUE PUSH2 0x157 JUMPI PUSH1 0x20 CALLDATASIZE PUSH1 0x3 NOT ADD SLT PUSH2 0x157 JUMPI PUSH1 0x4 CALLDATALOAD PUSH0 MSTORE PUSH1 0x8 PUSH1 0x20 MSTORE PUSH1 0x20 PUSH1 0x9 PUSH1 0x40 PUSH0 KECCAK256 ADD SLOAD PUSH1 0x40 MLOAD SWAP1 DUP2 MSTORE RETURN JUMPDEST CALLVALUE PUSH2 0x157 JUMPI PUSH1 0x20 CALLDATASIZE PUSH1 0x3 NOT ADD SLT PUSH2 0x157 JUMPI PUSH1 0x4 CALLDATALOAD PUSH2 0x74E PUSH2 0x19E9 JUMP JUMPDEST DUP1 PUSH0 MSTORE PUSH1 0x8 PUSH1 0x20 MSTORE PUSH1 0xFF PUSH1 0x1 PUSH1 0x40 PUSH0 KECCAK256 ADD SLOAD PUSH1 0x8 SHR AND SWAP1 PUSH1 0x3 DUP3 LT ISZERO PUSH2 0x427 JUMPI PUSH2 0x77B PUSH2 0x200 SWAP3 ISZERO PUSH2 0x176C JUMP JUMPDEST PUSH2 0x1A10 JUMP JUMPDEST CALLVALUE PUSH2 0x157 JUMPI PUSH0 CALLDATASIZE PUSH1 0x3 NOT ADD SLT PUSH2 0x157 JUMPI PUSH2 0x798 PUSH2 0x19E9 JUMP JUMPDEST PUSH1 0x5 DUP1 SLOAD PUSH1 0x1 PUSH1 0x1 PUSH1 0xA0 SHL SUB NOT DUP2 AND SWAP1 SWAP2 SSTORE PUSH0 SWAP1 PUSH1 0x1 PUSH1 0x1 PUSH1 0xA0 SHL SUB AND PUSH32 0x8BE0079C531659141344CD1FD0A4F28419497F9722A3DAAFE3B4186F6B6457E0 DUP3 DUP1 LOG3 STOP JUMPDEST CALLVALUE PUSH2 0x157 JUMPI PUSH1 0x20 CALLDATASIZE PUSH1 0x3 NOT ADD SLT PUSH2 0x157 JUMPI PUSH1 0x1 PUSH1 0x1 PUSH1 0xA0 SHL SUB PUSH2 0x7FC PUSH2 0x15C2 JUMP JUMPDEST AND PUSH0 MSTORE PUSH0 PUSH1 0x20 MSTORE PUSH1 0x20 PUSH1 0x40 PUSH0 KECCAK256 SLOAD PUSH1 0x40 MLOAD SWAP1 DUP2 MSTORE RETURN JUMPDEST CALLVALUE PUSH2 0x157 JUMPI PUSH1 0x40 CALLDATASIZE PUSH1 0x3 NOT ADD SLT PUSH2 0x157 JUMPI PUSH2 0x82B PUSH2 0x15D8 JUMP JUMPDEST PUSH1 0x4 CALLDATALOAD PUSH0 MSTORE PUSH1 0x9 PUSH1 0x20 MSTORE PUSH1 0x40 PUSH0 KECCAK256 SWAP1 PUSH1 0x1 DUP1 PUSH1 0xA0 SHL SUB AND PUSH0 MSTORE PUSH1 0x20 MSTORE PUSH1 0x20 PUSH1 0xFF PUSH1 0x40 PUSH0 KECCAK256 SLOAD AND PUSH1 0x40 MLOAD SWAP1 ISZERO ISZERO DUP2 MSTORE RETURN JUMPDEST CALLVALUE PUSH2 0x157 JUMPI PUSH1 0x40 CALLDATASIZE PUSH1 0x3 NOT ADD SLT PUSH2 0x157 JUMPI PUSH2 0x874 PUSH2 0x15D8 JUMP JUMPDEST PUSH1 0x4 CALLDATALOAD PUSH0 MSTORE PUSH1 0xA PUSH1 0x20 MSTORE PUSH1 0x40 PUSH0 KECCAK256 SWAP1 PUSH1 0x1 DUP1 PUSH1 0xA0 SHL SUB AND PUSH0 MSTORE PUSH1 0x20 MSTORE PUSH1 0x20 PUSH1 0x40 PUSH0 KECCAK256 SLOAD PUSH1 0x40 MLOAD SWAP1 DUP2 MSTORE RETURN JUMPDEST CALLVALUE PUSH2 0x157 JUMPI PUSH0 CALLDATASIZE PUSH1 0x3 NOT ADD SLT PUSH2 0x157 JUMPI PUSH1 0x20 PUSH1 0x40 MLOAD PUSH1 0x12 DUP2 MSTORE RETURN JUMPDEST CALLVALUE PUSH2 0x157 JUMPI PUSH1 0x60 CALLDATASIZE PUSH1 0x3 NOT ADD SLT PUSH2 0x157 JUMPI PUSH2 0x8D3 PUSH2 0x15C2 JUMP JUMPDEST PUSH2 0x8DB PUSH2 0x15D8 JUMP JUMPDEST PUSH1 0x1 PUSH1 0x1 PUSH1 0xA0 SHL SUB DUP3 AND PUSH0 DUP2 DUP2 MSTORE PUSH1 0x1 PUSH1 0x20 SWAP1 DUP2 MSTORE PUSH1 0x40 DUP1 DUP4 KECCAK256 CALLER DUP5 MSTORE SWAP1 SWAP2 MSTORE SWAP1 KECCAK256 SLOAD SWAP1 SWAP3 PUSH1 0x44 CALLDATALOAD SWAP3 SWAP2 PUSH0 NOT DUP2 LT PUSH2 0x919 JUMPI JUMPDEST POP PUSH2 0x5F0 SWAP4 POP PUSH2 0x193F JUMP JUMPDEST DUP4 DUP2 LT PUSH2 0x97E JUMPI DUP5 ISZERO PUSH2 0x96B JUMPI CALLER ISZERO PUSH2 0x958 JUMPI PUSH2 0x5F0 SWAP5 PUSH0 MSTORE PUSH1 0x1 PUSH1 0x20 MSTORE PUSH1 0x40 PUSH0 KECCAK256 PUSH1 0x1 DUP1 PUSH1 0xA0 SHL SUB CALLER AND PUSH0 MSTORE PUSH1 0x20 MSTORE DUP4 PUSH1 0x40 PUSH0 KECCAK256 SWAP2 SUB SWAP1 SSTORE DUP5 PUSH2 0x90E JUMP JUMPDEST PUSH4 0x4A1406B1 PUSH1 0xE1 SHL PUSH0 MSTORE PUSH0 PUSH1 0x4 MSTORE PUSH1 0x24 PUSH0 REVERT JUMPDEST PUSH4 0xE602DF05 PUSH1 0xE0 SHL PUSH0 MSTORE PUSH0 PUSH1 0x4 MSTORE PUSH1 0x24 PUSH0 REVERT JUMPDEST DUP4 SWAP1 PUSH4 0x7DC7A0D9 PUSH1 0xE1 SHL PUSH0 MSTORE CALLER PUSH1 0x4 MSTORE PUSH1 0x24 MSTORE PUSH1 0x44 MSTORE PUSH1 0x64 PUSH0 REVERT JUMPDEST CALLVALUE PUSH2 0x157 JUMPI PUSH0 CALLDATASIZE PUSH1 0x3 NOT ADD SLT PUSH2 0x157 JUMPI PUSH1 0x20 PUSH1 0x2 SLOAD PUSH1 0x40 MLOAD SWAP1 DUP2 MSTORE RETURN JUMPDEST CALLVALUE PUSH2 0x157 JUMPI PUSH2 0x9C4 CALLDATASIZE PUSH2 0x162D JUMP JUMPDEST SWAP1 PUSH1 0x2 PUSH1 0x6 SLOAD EQ PUSH2 0xFA8 JUMPI PUSH1 0x2 PUSH1 0x6 SSTORE DUP2 DUP2 PUSH0 MSTORE PUSH1 0x8 PUSH1 0x20 MSTORE PUSH1 0x40 PUSH0 KECCAK256 SWAP3 DUP4 SLOAD ISZERO PUSH2 0xF6D JUMPI PUSH1 0x1 DUP5 ADD SWAP2 DUP3 SLOAD PUSH1 0xFF DUP2 PUSH1 0x8 SHR AND PUSH1 0x3 DUP2 LT ISZERO PUSH2 0x427 JUMPI PUSH2 0xA0A SWAP1 ISZERO PUSH2 0x176C JUMP JUMPDEST PUSH1 0x6 DUP7 ADD SLOAD TIMESTAMP LT ISZERO PUSH2 0xF39 JUMPI PUSH0 DUP6 DUP2 MSTORE PUSH1 0x9 PUSH1 0x20 SWAP1 DUP2 MSTORE PUSH1 0x40 DUP1 DUP4 KECCAK256 CALLER DUP5 MSTORE SWAP1 SWAP2 MSTORE SWAP1 KECCAK256 SLOAD PUSH1 0xFF AND PUSH2 0xF03 JUMPI PUSH1 0xFF AND PUSH1 0x2 DUP2 LT ISZERO PUSH2 0x427 JUMPI PUSH2 0xD81 JUMPI POP POP PUSH1 0x9 DUP4 ADD SLOAD PUSH1 0x5 DUP5 ADD SLOAD GT ISZERO PUSH2 0xD50 JUMPI PUSH1 0x3 DUP4 ADD SLOAD SWAP3 JUMPDEST PUSH1 0x40 MLOAD PUSH4 0x23B872DD PUSH1 0xE0 SHL DUP2 MSTORE CALLER PUSH1 0x4 DUP3 ADD MSTORE ADDRESS PUSH1 0x24 DUP3 ADD MSTORE PUSH1 0x44 DUP2 ADD DUP6 SWAP1 MSTORE PUSH1 0x20 DUP2 PUSH1 0x64 DUP2 PUSH0 PUSH32 0x0 PUSH1 0x1 PUSH1 0x1 PUSH1 0xA0 SHL SUB AND GAS CALL SWAP1 DUP2 ISZERO PUSH2 0x3E2 JUMPI PUSH0 SWAP2 PUSH2 0xD31 JUMPI JUMPDEST POP ISZERO PUSH2 0xCF5 JUMPI PUSH1 0x9 DUP2 ADD DUP1 SLOAD PUSH9 0x10000000000000000 DUP2 LT ISZERO PUSH2 0xCE1 JUMPI PUSH2 0xAEC SWAP2 PUSH1 0x1 DUP3 ADD DUP2 SSTORE PUSH2 0x17C2 JUMP JUMPDEST DUP2 SLOAD PUSH1 0x1 PUSH1 0x1 PUSH1 0xA0 SHL SUB PUSH1 0x3 SWAP3 SWAP1 SWAP3 SHL SWAP2 DUP3 SHL NOT AND CALLER SWAP2 DUP3 SWAP1 SHL OR SWAP1 SWAP2 SSTORE PUSH0 DUP5 DUP2 MSTORE PUSH1 0x9 PUSH1 0x20 SWAP1 DUP2 MSTORE PUSH1 0x40 DUP1 DUP4 KECCAK256 DUP5 DUP5 MSTORE DUP3 MSTORE DUP1 DUP4 KECCAK256 DUP1 SLOAD PUSH1 0xFF NOT AND PUSH1 0x1 OR SWAP1 SSTORE DUP7 DUP4 MSTORE PUSH1 0xA DUP3 MSTORE DUP1 DUP4 KECCAK256 SWAP4 DUP4 MSTORE SWAP3 SWAP1 MSTORE KECCAK256 DUP5 SWAP1 SSTORE PUSH1 0x7 DUP2 ADD DUP1 SLOAD PUSH2 0xB52 SWAP1 DUP7 SWAP1 PUSH2 0x17EB JUMP JUMPDEST DUP1 SWAP2 SSTORE PUSH1 0xFF DUP4 SLOAD AND PUSH1 0x2 DUP2 LT ISZERO PUSH2 0x427 JUMPI PUSH1 0x1 EQ SWAP2 DUP3 PUSH2 0xCD2 JUMPI JUMPDEST POP POP PUSH2 0xC9A JUMPI JUMPDEST POP PUSH5 0xE8D4A51000 DUP3 MUL DUP3 DUP2 DIV PUSH5 0xE8D4A51000 EQ DUP4 ISZERO OR ISZERO PUSH2 0xC86 JUMPI PUSH12 0x33B2E3C9FD0803CE8000000 PUSH2 0xBA8 DUP3 PUSH1 0x2 SLOAD PUSH2 0x17EB JUMP JUMPDEST GT PUSH2 0xC4B JUMPI CALLER ISZERO PUSH2 0xC38 JUMPI PUSH2 0xBBF DUP2 PUSH1 0x2 SLOAD PUSH2 0x17EB JUMP JUMPDEST PUSH1 0x2 SSTORE CALLER PUSH0 MSTORE PUSH0 PUSH1 0x20 MSTORE PUSH1 0x40 PUSH0 KECCAK256 DUP2 DUP2 SLOAD ADD SWAP1 SSTORE PUSH1 0x40 MLOAD DUP2 DUP2 MSTORE PUSH0 PUSH32 0xDDF252AD1BE2C89B69C2B068FC378DAA952BA7F163C4A11628F55A4DF523B3EF PUSH1 0x20 CALLER SWAP4 LOG3 PUSH1 0x40 MLOAD SWAP3 DUP4 MSTORE PUSH1 0x20 DUP4 ADD MSTORE PUSH32 0x9A215ECA654ACFB405DF5F8F7F472ECCECC6DC50A60EE8F4C6E8225F4BAB0CE3 PUSH1 0x40 CALLER SWAP4 LOG3 PUSH1 0x1 PUSH1 0x6 SSTORE STOP JUMPDEST PUSH4 0xEC442F05 PUSH1 0xE0 SHL PUSH0 MSTORE PUSH0 PUSH1 0x4 MSTORE PUSH1 0x24 PUSH0 REVERT JUMPDEST PUSH1 0x40 MLOAD PUSH3 0x461BCD PUSH1 0xE5 SHL DUP2 MSTORE PUSH1 0x20 PUSH1 0x4 DUP3 ADD MSTORE PUSH1 0x13 PUSH1 0x24 DUP3 ADD MSTORE PUSH19 0x13585E081CDD5C1C1B1E48195E18D959591959 PUSH1 0x6A SHL PUSH1 0x44 DUP3 ADD MSTORE PUSH1 0x64 SWAP1 REVERT JUMPDEST PUSH4 0x4E487B71 PUSH1 0xE0 SHL PUSH0 MSTORE PUSH1 0x11 PUSH1 0x4 MSTORE PUSH1 0x24 PUSH0 REVERT JUMPDEST DUP1 SLOAD PUSH2 0xFF00 NOT AND PUSH2 0x100 OR SWAP1 SSTORE DUP1 PUSH32 0x7ED2D5BDF35D4CB790F65D053DE7890F1B4A687AC689CA56C23730833531DEB0 PUSH0 DUP1 LOG2 DUP3 PUSH2 0xB74 JUMP JUMPDEST PUSH1 0x4 ADD SLOAD GT ISZERO SWAP1 POP DUP5 DUP1 PUSH2 0xB6D JUMP JUMPDEST PUSH4 0x4E487B71 PUSH1 0xE0 SHL PUSH0 MSTORE PUSH1 0x41 PUSH1 0x4 MSTORE PUSH1 0x24 PUSH0 REVERT JUMPDEST PUSH1 0x40 MLOAD PUSH3 0x461BCD PUSH1 0xE5 SHL DUP2 MSTORE PUSH1 0x20 PUSH1 0x4 DUP3 ADD MSTORE PUSH1 0x14 PUSH1 0x24 DUP3 ADD MSTORE PUSH20 0x1554D115081D1C985B9CD9995C8819985A5B1959 PUSH1 0x62 SHL PUSH1 0x44 DUP3 ADD MSTORE PUSH1 0x64 SWAP1 REVERT JUMPDEST PUSH2 0xD4A SWAP2 POP PUSH1 0x20 RETURNDATASIZE PUSH1 0x20 GT PUSH2 0x3DB JUMPI PUSH2 0x3CD DUP2 DUP4 PUSH2 0x160B JUMP JUMPDEST DUP6 PUSH2 0xAC0 JUMP JUMPDEST PUSH1 0x40 MLOAD PUSH3 0x461BCD PUSH1 0xE5 SHL DUP2 MSTORE PUSH1 0x20 PUSH1 0x4 DUP3 ADD MSTORE PUSH1 0x9 PUSH1 0x24 DUP3 ADD MSTORE PUSH9 0x141BDBDB08199D5B1B PUSH1 0xBA SHL PUSH1 0x44 DUP3 ADD MSTORE PUSH1 0x64 SWAP1 REVERT JUMPDEST DUP1 ISZERO PUSH2 0xEBE JUMPI PUSH1 0x4 DUP6 ADD SLOAD SWAP1 PUSH1 0x7 DUP7 ADD SLOAD DUP1 DUP4 SUB SWAP3 DUP1 DUP5 GT PUSH2 0xC86 JUMPI EQ PUSH2 0xE79 JUMPI PUSH3 0xF4240 DUP2 LT PUSH2 0xE34 JUMPI PUSH1 0x50 DUP3 MUL DUP3 DUP2 DIV PUSH1 0x50 SUB PUSH2 0xC86 JUMPI PUSH1 0x64 SWAP1 DIV DUP2 GT PUSH2 0xDDA JUMPI DUP2 LT PUSH2 0xDD2 JUMPI JUMPDEST POP SWAP3 PUSH2 0xA5F JUMP JUMPDEST SWAP1 POP DUP5 PUSH2 0xDCB JUMP JUMPDEST PUSH1 0x40 MLOAD PUSH3 0x461BCD PUSH1 0xE5 SHL DUP2 MSTORE PUSH1 0x20 PUSH1 0x4 DUP3 ADD MSTORE PUSH1 0x2C PUSH1 0x24 DUP3 ADD MSTORE PUSH32 0x43616E6E6F7420636F6E74726962757465206D6F7265207468616E2038302520 PUSH1 0x44 DUP3 ADD MSTORE PUSH12 0x6F662072656D61696E696E67 PUSH1 0xA0 SHL PUSH1 0x64 DUP3 ADD MSTORE PUSH1 0x84 SWAP1 REVERT JUMPDEST PUSH1 0x40 MLOAD PUSH3 0x461BCD PUSH1 0xE5 SHL DUP2 MSTORE PUSH1 0x20 PUSH1 0x4 DUP3 ADD MSTORE PUSH1 0x1E PUSH1 0x24 DUP3 ADD MSTORE PUSH32 0x4D696E696D756D20636F6E747269627574696F6E206973203120555344540000 PUSH1 0x44 DUP3 ADD MSTORE PUSH1 0x64 SWAP1 REVERT JUMPDEST PUSH1 0x40 MLOAD PUSH3 0x461BCD PUSH1 0xE5 SHL DUP2 MSTORE PUSH1 0x20 PUSH1 0x4 DUP3 ADD MSTORE PUSH1 0x19 PUSH1 0x24 DUP3 ADD MSTORE PUSH32 0x506F6F6C20616C72656164792066756C6C792066756E64656400000000000000 PUSH1 0x44 DUP3 ADD MSTORE PUSH1 0x64 SWAP1 REVERT JUMPDEST PUSH1 0x40 MLOAD PUSH3 0x461BCD PUSH1 0xE5 SHL DUP2 MSTORE PUSH1 0x20 PUSH1 0x4 DUP3 ADD MSTORE PUSH1 0x1D PUSH1 0x24 DUP3 ADD MSTORE PUSH32 0x416D6F756E74206D7573742062652067726561746572207468616E2030000000 PUSH1 0x44 DUP3 ADD MSTORE PUSH1 0x64 SWAP1 REVERT JUMPDEST PUSH1 0x40 MLOAD PUSH3 0x461BCD PUSH1 0xE5 SHL DUP2 MSTORE PUSH1 0x20 PUSH1 0x4 DUP3 ADD MSTORE PUSH1 0xE PUSH1 0x24 DUP3 ADD MSTORE PUSH14 0x105B1C9958591E481A9BDA5B9959 PUSH1 0x92 SHL PUSH1 0x44 DUP3 ADD MSTORE PUSH1 0x64 SWAP1 REVERT JUMPDEST PUSH1 0x40 MLOAD PUSH3 0x461BCD PUSH1 0xE5 SHL DUP2 MSTORE PUSH1 0x20 PUSH1 0x4 DUP3 ADD MSTORE PUSH1 0xC PUSH1 0x24 DUP3 ADD MSTORE PUSH12 0x141BDBDB08195E1C1A5C9959 PUSH1 0xA2 SHL PUSH1 0x44 DUP3 ADD MSTORE PUSH1 0x64 SWAP1 REVERT JUMPDEST PUSH1 0x40 MLOAD PUSH3 0x461BCD PUSH1 0xE5 SHL DUP2 MSTORE PUSH1 0x20 PUSH1 0x4 DUP3 ADD MSTORE PUSH1 0x13 PUSH1 0x24 DUP3 ADD MSTORE PUSH19 0x141BDBDB08191BD95CC81B9BDD08195E1A5CDD PUSH1 0x6A SHL PUSH1 0x44 DUP3 ADD MSTORE PUSH1 0x64 SWAP1 REVERT JUMPDEST PUSH4 0x3EE5AEB5 PUSH1 0xE0 SHL PUSH0 MSTORE PUSH1 0x4 PUSH0 REVERT JUMPDEST CALLVALUE PUSH2 0x157 JUMPI PUSH1 0xC0 CALLDATASIZE PUSH1 0x3 NOT ADD SLT PUSH2 0x157 JUMPI PUSH1 0x4 CALLDATALOAD PUSH1 0x2 DUP2 LT ISZERO PUSH2 0x157 JUMPI PUSH1 0x24 CALLDATALOAD SWAP1 PUSH8 0xFFFFFFFFFFFFFFFF DUP3 GT PUSH2 0x157 JUMPI CALLDATASIZE PUSH1 0x23 DUP4 ADD SLT ISZERO PUSH2 0x157 JUMPI DUP2 PUSH1 0x4 ADD CALLDATALOAD PUSH8 0xFFFFFFFFFFFFFFFF DUP2 GT PUSH2 0xCE1 JUMPI PUSH1 0x40 MLOAD SWAP3 PUSH2 0x101E PUSH1 0x1F DUP4 ADD PUSH1 0x1F NOT AND PUSH1 0x20 ADD DUP6 PUSH2 0x160B JUMP JUMPDEST DUP2 DUP5 MSTORE CALLDATASIZE PUSH1 0x24 DUP4 DUP4 ADD ADD GT PUSH2 0x157 JUMPI DUP2 PUSH0 SWAP3 PUSH1 0x24 PUSH1 0x20 SWAP4 ADD DUP4 DUP8 ADD CALLDATACOPY DUP5 ADD ADD MSTORE PUSH1 0x7 SLOAD PUSH0 NOT DUP2 EQ PUSH2 0xC86 JUMPI PUSH1 0x1 SWAP1 DUP2 ADD PUSH1 0x7 DUP2 SWAP1 SSTORE PUSH0 DUP2 DUP2 MSTORE PUSH1 0x8 PUSH1 0x20 MSTORE PUSH1 0x40 SWAP1 KECCAK256 DUP2 DUP2 SSTORE SWAP2 DUP3 ADD DUP1 SLOAD PUSH1 0x1 PUSH1 0x1 PUSH1 0xB0 SHL SUB NOT AND PUSH1 0xFF DUP6 AND OR CALLER PUSH1 0x10 SHL PUSH3 0x10000 PUSH1 0x1 PUSH1 0xB0 SHL SUB AND OR SWAP1 SSTORE DUP4 MLOAD SWAP4 SWAP2 SWAP3 SWAP1 SWAP2 PUSH1 0x2 DUP5 ADD PUSH8 0xFFFFFFFFFFFFFFFF DUP7 GT PUSH2 0xCE1 JUMPI PUSH2 0x10AD DUP2 SLOAD PUSH2 0x1643 JUMP JUMPDEST SWAP6 PUSH1 0x1F DUP8 GT PUSH2 0x11F3 JUMPI JUMPDEST PUSH1 0x20 SWAP7 POP DUP7 PUSH1 0x1F DUP3 GT PUSH1 0x1 EQ PUSH2 0x1168 JUMPI SWAP3 DUP6 SWAP7 PUSH32 0xA1D183DE8FCE351CE90C5AEF8B14ECA79F903CEBB82F1E90A9FEA0069F22DD83 SWAP6 SWAP4 DUP4 PUSH2 0x1152 SWAP5 PUSH2 0x113C SWAP8 PUSH0 SWAP2 PUSH2 0x115D JUMPI JUMPDEST POP DUP2 PUSH1 0x1 SHL SWAP2 PUSH0 NOT SWAP1 PUSH1 0x3 SHL SHR NOT AND OR SWAP1 SSTORE JUMPDEST PUSH1 0x44 CALLDATALOAD PUSH1 0x3 DUP3 ADD SSTORE PUSH1 0x64 CALLDATALOAD PUSH1 0x4 DUP3 ADD SSTORE PUSH1 0x84 CALLDATALOAD PUSH1 0x5 DUP3 ADD SSTORE PUSH1 0x6 PUSH1 0xA4 CALLDATALOAD SWAP2 ADD SSTORE PUSH1 0x40 MLOAD SWAP4 DUP5 DUP1 SWAP5 PUSH2 0x1584 JUMP JUMPDEST CALLER DUP9 DUP5 ADD MSTORE PUSH1 0x60 PUSH1 0x40 DUP5 ADD MSTORE PUSH1 0x60 DUP4 ADD SWAP1 PUSH2 0x159E JUMP JUMPDEST SUB SWAP1 LOG2 PUSH1 0x40 MLOAD SWAP1 DUP2 MSTORE RETURN JUMPDEST SWAP1 POP DUP5 ADD MLOAD DUP13 PUSH2 0x10FD JUMP JUMPDEST PUSH1 0x1F NOT DUP3 AND SWAP1 DUP4 PUSH0 MSTORE DUP1 PUSH0 KECCAK256 SWAP2 PUSH0 JUMPDEST DUP2 DUP2 LT PUSH2 0x11DC JUMPI POP SWAP4 PUSH1 0x1 DUP5 PUSH2 0x113C SWAP8 SWAP5 DUP11 SWAP12 SWAP5 PUSH2 0x1152 SWAP8 PUSH32 0xA1D183DE8FCE351CE90C5AEF8B14ECA79F903CEBB82F1E90A9FEA0069F22DD83 SWAP12 SWAP10 LT PUSH2 0x11C4 JUMPI JUMPDEST POP POP DUP2 SHL ADD SWAP1 SSTORE PUSH2 0x1110 JUMP JUMPDEST DUP7 ADD MLOAD PUSH0 NOT PUSH1 0xF8 DUP5 PUSH1 0x3 SHL AND SHR NOT AND SWAP1 SSTORE DUP13 DUP1 PUSH2 0x11B8 JUMP JUMPDEST SWAP2 SWAP3 DUP11 PUSH1 0x1 DUP2 SWAP3 DUP7 DUP11 ADD MLOAD DUP2 SSTORE ADD SWAP5 ADD SWAP3 ADD PUSH2 0x1177 JUMP JUMPDEST DUP2 PUSH0 MSTORE PUSH1 0x20 PUSH0 KECCAK256 PUSH1 0x1F DUP3 ADD PUSH1 0x5 SHR DUP2 ADD SWAP8 PUSH1 0x20 DUP4 LT PUSH2 0x122E JUMPI JUMPDEST PUSH1 0x1F ADD PUSH1 0x5 SHR ADD SWAP7 JUMPDEST DUP8 DUP2 LT PUSH2 0x1223 JUMPI POP PUSH2 0x10B7 JUMP JUMPDEST PUSH0 DUP2 SSTORE PUSH1 0x1 ADD PUSH2 0x1216 JUMP JUMPDEST SWAP1 SWAP8 POP DUP8 SWAP1 PUSH2 0x120D JUMP JUMPDEST CALLVALUE PUSH2 0x157 JUMPI PUSH1 0x40 CALLDATASIZE PUSH1 0x3 NOT ADD SLT PUSH2 0x157 JUMPI PUSH2 0x1251 PUSH2 0x15C2 JUMP JUMPDEST PUSH1 0x24 CALLDATALOAD SWAP1 CALLER ISZERO PUSH2 0x96B JUMPI PUSH1 0x1 PUSH1 0x1 PUSH1 0xA0 SHL SUB AND SWAP1 DUP2 ISZERO PUSH2 0x958 JUMPI CALLER PUSH0 MSTORE PUSH1 0x1 PUSH1 0x20 MSTORE PUSH1 0x40 PUSH0 KECCAK256 DUP3 PUSH0 MSTORE PUSH1 0x20 MSTORE DUP1 PUSH1 0x40 PUSH0 KECCAK256 SSTORE PUSH1 0x40 MLOAD SWAP1 DUP2 MSTORE PUSH32 0x8C5BE1E5EBEC7D5BD14F71427D1E84F3DD0314C0F7B2291E5B200AC8C7C3B925 PUSH1 0x20 CALLER SWAP3 LOG3 PUSH1 0x20 PUSH1 0x40 MLOAD PUSH1 0x1 DUP2 MSTORE RETURN JUMPDEST CALLVALUE PUSH2 0x157 JUMPI PUSH0 CALLDATASIZE PUSH1 0x3 NOT ADD SLT PUSH2 0x157 JUMPI PUSH1 0x40 MLOAD PUSH0 PUSH1 0x3 SLOAD PUSH2 0x12DA DUP2 PUSH2 0x1643 JUMP JUMPDEST DUP1 DUP5 MSTORE SWAP1 PUSH1 0x1 DUP2 AND SWAP1 DUP2 ISZERO PUSH2 0x6B9 JUMPI POP PUSH1 0x1 EQ PUSH2 0x1301 JUMPI PUSH2 0x657 DUP4 PUSH2 0x643 DUP2 DUP6 SUB DUP3 PUSH2 0x160B JUMP JUMPDEST PUSH1 0x3 PUSH0 SWAP1 DUP2 MSTORE PUSH32 0xC2575A0E9E593C00F959F8C92F12DB2869C3395A3B0502D05E2516446F71F85B SWAP4 SWAP3 POP SWAP1 JUMPDEST DUP1 DUP3 LT PUSH2 0x1345 JUMPI POP SWAP1 SWAP2 POP DUP2 ADD PUSH1 0x20 ADD PUSH2 0x643 PUSH2 0x633 JUMP JUMPDEST SWAP2 SWAP3 PUSH1 0x1 DUP2 PUSH1 0x20 SWAP3 SLOAD DUP4 DUP6 DUP9 ADD ADD MSTORE ADD SWAP2 ADD SWAP1 SWAP3 SWAP2 PUSH2 0x132D JUMP JUMPDEST CALLVALUE PUSH2 0x157 JUMPI PUSH1 0x20 CALLDATASIZE PUSH1 0x3 NOT ADD SLT PUSH2 0x157 JUMPI PUSH2 0x160 DUP2 PUSH2 0x137F PUSH1 0x60 SWAP4 PUSH2 0x15EE JUMP JUMPDEST PUSH0 DUP2 MSTORE PUSH0 PUSH1 0x20 DUP3 ADD MSTORE PUSH0 PUSH1 0x40 DUP3 ADD MSTORE PUSH0 DUP4 DUP3 ADD MSTORE DUP3 PUSH1 0x80 DUP3 ADD MSTORE PUSH0 PUSH1 0xA0 DUP3 ADD MSTORE PUSH0 PUSH1 0xC0 DUP3 ADD MSTORE PUSH0 PUSH1 0xE0 DUP3 ADD MSTORE PUSH0 PUSH2 0x100 DUP3 ADD MSTORE PUSH0 PUSH2 0x120 DUP3 ADD MSTORE PUSH0 PUSH2 0x140 DUP3 ADD MSTORE ADD MSTORE PUSH1 0x4 CALLDATALOAD PUSH0 MSTORE PUSH1 0x8 PUSH1 0x20 MSTORE PUSH1 0x40 PUSH0 KECCAK256 PUSH1 0x40 MLOAD SWAP1 PUSH2 0x13DD DUP3 PUSH2 0x15EE JUMP JUMPDEST DUP1 SLOAD DUP3 MSTORE PUSH1 0x1 DUP2 ADD SLOAD SWAP1 PUSH1 0x20 DUP4 ADD SWAP1 PUSH1 0xFF DUP4 AND PUSH1 0x2 DUP2 LT ISZERO PUSH2 0x427 JUMPI DUP3 MSTORE PUSH1 0xFF DUP4 PUSH1 0x8 SHR AND PUSH1 0x40 DUP6 ADD SWAP1 PUSH1 0x3 DUP2 LT ISZERO PUSH2 0x427 JUMPI DUP2 MSTORE PUSH1 0x10 SWAP4 SWAP1 SWAP4 SHR PUSH1 0x1 PUSH1 0x1 PUSH1 0xA0 SHL SUB AND PUSH1 0x60 DUP6 ADD SWAP1 DUP2 MSTORE SWAP2 SWAP3 DUP5 SWAP3 SWAP2 PUSH2 0x1439 PUSH1 0x2 DUP3 ADD PUSH2 0x167B JUMP JUMPDEST SWAP3 PUSH1 0x80 DUP6 ADD SWAP4 DUP5 MSTORE PUSH1 0x3 DUP3 ADD SLOAD SWAP4 PUSH1 0xA0 DUP7 ADD SWAP5 DUP6 MSTORE PUSH1 0x4 DUP4 ADD SLOAD PUSH1 0xC0 DUP8 ADD SWAP1 DUP2 MSTORE PUSH1 0x5 DUP5 ADD SLOAD SWAP1 PUSH1 0xE0 DUP9 ADD SWAP2 DUP3 MSTORE PUSH1 0x6 DUP6 ADD SLOAD SWAP3 PUSH2 0x100 DUP10 ADD SWAP4 DUP5 MSTORE PUSH1 0x7 DUP7 ADD SLOAD SWAP5 PUSH2 0x120 DUP11 ADD SWAP6 DUP7 MSTORE PUSH1 0x1 PUSH1 0xA0 SHL PUSH1 0x1 SWAP1 SUB PUSH1 0x8 DUP9 ADD SLOAD AND SWAP7 PUSH2 0x140 DUP12 ADD SWAP8 DUP9 MSTORE PUSH1 0x9 ADD PUSH2 0x14A7 SWAP1 PUSH2 0x171B JUMP JUMPDEST SWAP8 PUSH2 0x160 DUP12 ADD SWAP9 DUP10 MSTORE PUSH1 0x40 MLOAD SWAP12 DUP13 SWAP12 PUSH1 0x20 DUP14 MSTORE MLOAD PUSH1 0x20 DUP14 ADD MSTORE MLOAD PUSH1 0x40 DUP13 ADD PUSH2 0x14CE SWAP2 PUSH2 0x1584 JUMP JUMPDEST MLOAD PUSH1 0x60 DUP12 ADD PUSH2 0x14DC SWAP2 PUSH2 0x1591 JUMP JUMPDEST MLOAD PUSH1 0x1 PUSH1 0x1 PUSH1 0xA0 SHL SUB AND PUSH1 0x80 DUP11 ADD MSTORE MLOAD PUSH2 0x180 PUSH1 0xA0 DUP11 ADD MSTORE PUSH2 0x1503 SWAP1 PUSH2 0x1A0 DUP11 ADD SWAP1 PUSH2 0x159E JUMP JUMPDEST SWAP7 MLOAD PUSH1 0xC0 DUP10 ADD MSTORE MLOAD PUSH1 0xE0 DUP9 ADD MSTORE MLOAD PUSH2 0x100 DUP8 ADD MSTORE MLOAD PUSH2 0x120 DUP7 ADD MSTORE MLOAD PUSH2 0x140 DUP6 ADD MSTORE MLOAD PUSH1 0x1 PUSH1 0x1 PUSH1 0xA0 SHL SUB AND PUSH2 0x160 DUP5 ADD MSTORE MLOAD DUP3 DUP3 SUB PUSH1 0x1F NOT ADD PUSH2 0x180 DUP5 ADD MSTORE DUP1 MLOAD DUP1 DUP4 MSTORE PUSH1 0x20 SWAP3 DUP4 ADD SWAP3 SWAP1 SWAP2 ADD SWAP1 PUSH0 JUMPDEST DUP2 DUP2 LT PUSH2 0x1562 JUMPI POP POP POP SUB SWAP1 RETURN JUMPDEST DUP3 MLOAD PUSH1 0x1 PUSH1 0x1 PUSH1 0xA0 SHL SUB AND DUP5 MSTORE DUP6 SWAP5 POP PUSH1 0x20 SWAP4 DUP5 ADD SWAP4 SWAP1 SWAP3 ADD SWAP2 PUSH1 0x1 ADD PUSH2 0x1554 JUMP JUMPDEST SWAP1 PUSH1 0x2 DUP3 LT ISZERO PUSH2 0x427 JUMPI MSTORE JUMP JUMPDEST SWAP1 PUSH1 0x3 DUP3 LT ISZERO PUSH2 0x427 JUMPI MSTORE JUMP JUMPDEST DUP1 MLOAD DUP1 DUP4 MSTORE PUSH1 0x20 SWAP3 SWAP2 DUP2 SWAP1 DUP5 ADD DUP5 DUP5 ADD MCOPY PUSH0 DUP3 DUP3 ADD DUP5 ADD MSTORE PUSH1 0x1F ADD PUSH1 0x1F NOT AND ADD ADD SWAP1 JUMP JUMPDEST PUSH1 0x4 CALLDATALOAD SWAP1 PUSH1 0x1 PUSH1 0x1 PUSH1 0xA0 SHL SUB DUP3 AND DUP3 SUB PUSH2 0x157 JUMPI JUMP JUMPDEST PUSH1 0x24 CALLDATALOAD SWAP1 PUSH1 0x1 PUSH1 0x1 PUSH1 0xA0 SHL SUB DUP3 AND DUP3 SUB PUSH2 0x157 JUMPI JUMP JUMPDEST PUSH2 0x180 DUP2 ADD SWAP1 DUP2 LT PUSH8 0xFFFFFFFFFFFFFFFF DUP3 GT OR PUSH2 0xCE1 JUMPI PUSH1 0x40 MSTORE JUMP JUMPDEST SWAP1 PUSH1 0x1F DUP1 NOT SWAP2 ADD AND DUP2 ADD SWAP1 DUP2 LT PUSH8 0xFFFFFFFFFFFFFFFF DUP3 GT OR PUSH2 0xCE1 JUMPI PUSH1 0x40 MSTORE JUMP JUMPDEST PUSH1 0x40 SWAP1 PUSH1 0x3 NOT ADD SLT PUSH2 0x157 JUMPI PUSH1 0x4 CALLDATALOAD SWAP1 PUSH1 0x24 CALLDATALOAD SWAP1 JUMP JUMPDEST SWAP1 PUSH1 0x1 DUP3 DUP2 SHR SWAP3 AND DUP1 ISZERO PUSH2 0x1671 JUMPI JUMPDEST PUSH1 0x20 DUP4 LT EQ PUSH2 0x165D JUMPI JUMP JUMPDEST PUSH4 0x4E487B71 PUSH1 0xE0 SHL PUSH0 MSTORE PUSH1 0x22 PUSH1 0x4 MSTORE PUSH1 0x24 PUSH0 REVERT JUMPDEST SWAP2 PUSH1 0x7F AND SWAP2 PUSH2 0x1652 JUMP JUMPDEST SWAP1 PUSH1 0x40 MLOAD SWAP2 DUP3 PUSH0 DUP3 SLOAD SWAP3 PUSH2 0x168E DUP5 PUSH2 0x1643 JUMP JUMPDEST DUP1 DUP5 MSTORE SWAP4 PUSH1 0x1 DUP2 AND SWAP1 DUP2 ISZERO PUSH2 0x16F9 JUMPI POP PUSH1 0x1 EQ PUSH2 0x16B5 JUMPI JUMPDEST POP PUSH2 0x16B3 SWAP3 POP SUB DUP4 PUSH2 0x160B JUMP JUMPDEST JUMP JUMPDEST SWAP1 POP PUSH0 SWAP3 SWAP2 SWAP3 MSTORE PUSH1 0x20 PUSH0 KECCAK256 SWAP1 PUSH0 SWAP2 JUMPDEST DUP2 DUP4 LT PUSH2 0x16DD JUMPI POP POP SWAP1 PUSH1 0x20 PUSH2 0x16B3 SWAP3 DUP3 ADD ADD PUSH0 PUSH2 0x16A6 JUMP JUMPDEST PUSH1 0x20 SWAP2 SWAP4 POP DUP1 PUSH1 0x1 SWAP2 SLOAD DUP4 DUP6 DUP10 ADD ADD MSTORE ADD SWAP2 ADD SWAP1 SWAP2 DUP5 SWAP3 PUSH2 0x16C4 JUMP JUMPDEST SWAP1 POP PUSH1 0x20 SWAP3 POP PUSH2 0x16B3 SWAP5 SWAP2 POP PUSH1 0xFF NOT AND DUP3 DUP5 ADD MSTORE ISZERO ISZERO PUSH1 0x5 SHL DUP3 ADD ADD PUSH0 PUSH2 0x16A6 JUMP JUMPDEST SWAP1 PUSH1 0x40 MLOAD SWAP2 DUP3 DUP2 SLOAD SWAP2 DUP3 DUP3 MSTORE PUSH1 0x20 DUP3 ADD SWAP1 PUSH0 MSTORE PUSH1 0x20 PUSH0 KECCAK256 SWAP3 PUSH0 JUMPDEST DUP2 DUP2 LT PUSH2 0x174A JUMPI POP POP PUSH2 0x16B3 SWAP3 POP SUB DUP4 PUSH2 0x160B JUMP JUMPDEST DUP5 SLOAD PUSH1 0x1 PUSH1 0x1 PUSH1 0xA0 SHL SUB AND DUP4 MSTORE PUSH1 0x1 SWAP5 DUP6 ADD SWAP5 DUP8 SWAP5 POP PUSH1 0x20 SWAP1 SWAP4 ADD SWAP3 ADD PUSH2 0x1735 JUMP JUMPDEST ISZERO PUSH2 0x1773 JUMPI JUMP JUMPDEST PUSH1 0x40 MLOAD PUSH3 0x461BCD PUSH1 0xE5 SHL DUP2 MSTORE PUSH1 0x20 PUSH1 0x4 DUP3 ADD MSTORE PUSH1 0xF PUSH1 0x24 DUP3 ADD MSTORE PUSH15 0x506F6F6C206E6F7420616374697665 PUSH1 0x88 SHL PUSH1 0x44 DUP3 ADD MSTORE PUSH1 0x64 SWAP1 REVERT JUMPDEST SWAP1 DUP2 PUSH1 0x20 SWAP2 SUB SLT PUSH2 0x157 JUMPI MLOAD DUP1 ISZERO ISZERO DUP2 SUB PUSH2 0x157 JUMPI SWAP1 JUMP JUMPDEST DUP1 SLOAD DUP3 LT ISZERO PUSH2 0x17D7 JUMPI PUSH0 MSTORE PUSH1 0x20 PUSH0 KECCAK256 ADD SWAP1 PUSH0 SWAP1 JUMP JUMPDEST PUSH4 0x4E487B71 PUSH1 0xE0 SHL PUSH0 MSTORE PUSH1 0x32 PUSH1 0x4 MSTORE PUSH1 0x24 PUSH0 REVERT JUMPDEST SWAP2 SWAP1 DUP3 ADD DUP1 SWAP3 GT PUSH2 0xC86 JUMPI JUMP JUMPDEST SWAP1 DUP2 PUSH0 MSTORE PUSH1 0x8 PUSH1 0x20 MSTORE PUSH1 0x40 PUSH0 KECCAK256 SWAP1 PUSH1 0xFF PUSH1 0x1 DUP4 ADD SLOAD PUSH1 0x8 SHR AND PUSH1 0x3 DUP2 LT ISZERO PUSH2 0x427 JUMPI PUSH2 0x1824 SWAP1 ISZERO PUSH2 0x176C JUMP JUMPDEST PUSH1 0x6 DUP3 ADD SLOAD TIMESTAMP LT PUSH2 0x1909 JUMPI PUSH1 0x9 DUP3 ADD SWAP1 DUP2 SLOAD ISZERO PUSH2 0x18D2 JUMPI PUSH1 0x7 DUP4 ADD SLOAD PUSH1 0x4 DUP5 ADD SLOAD GT PUSH2 0x18C6 JUMPI DUP2 SLOAD SWAP2 DUP3 ISZERO PUSH2 0x18B2 JUMPI PUSH1 0x8 SWAP3 PUSH2 0x1861 SWAP3 MOD SWAP1 PUSH2 0x17C2 JUMP JUMPDEST SWAP1 SLOAD SWAP2 SWAP1 SWAP3 ADD DUP1 SLOAD PUSH1 0x1 PUSH1 0x1 PUSH1 0xA0 SHL SUB NOT AND PUSH1 0x3 SWAP4 SWAP1 SWAP4 SHL SWAP2 SWAP1 SWAP2 SHR PUSH1 0x1 PUSH1 0x1 PUSH1 0xA0 SHL SUB AND SWAP2 DUP3 OR SWAP1 SSTORE SWAP1 PUSH32 0x3FB57EB449654E24E1B240D3D06702CF79362A065D5C0323AEE642D4702FA4B PUSH0 DUP1 LOG3 JUMP JUMPDEST PUSH4 0x4E487B71 PUSH1 0xE0 SHL PUSH0 MSTORE PUSH1 0x12 PUSH1 0x4 MSTORE PUSH1 0x24 PUSH0 REVERT JUMPDEST POP POP POP PUSH2 0x16B3 SWAP1 PUSH2 0x1A10 JUMP JUMPDEST PUSH1 0x40 MLOAD PUSH3 0x461BCD PUSH1 0xE5 SHL DUP2 MSTORE PUSH1 0x20 PUSH1 0x4 DUP3 ADD MSTORE PUSH1 0xF PUSH1 0x24 DUP3 ADD MSTORE PUSH15 0x4E6F207061727469636970616E7473 PUSH1 0x88 SHL PUSH1 0x44 DUP3 ADD MSTORE PUSH1 0x64 SWAP1 REVERT JUMPDEST PUSH1 0x40 MLOAD PUSH3 0x461BCD PUSH1 0xE5 SHL DUP2 MSTORE PUSH1 0x20 PUSH1 0x4 DUP3 ADD MSTORE PUSH1 0xE PUSH1 0x24 DUP3 ADD MSTORE PUSH14 0x141BDBDB081B9BDD08195B991959 PUSH1 0x92 SHL PUSH1 0x44 DUP3 ADD MSTORE PUSH1 0x64 SWAP1 REVERT JUMPDEST PUSH1 0x1 PUSH1 0x1 PUSH1 0xA0 SHL SUB AND SWAP1 DUP2 ISZERO PUSH2 0x19D6 JUMPI PUSH1 0x1 PUSH1 0x1 PUSH1 0xA0 SHL SUB AND SWAP2 DUP3 ISZERO PUSH2 0xC38 JUMPI DUP2 PUSH0 MSTORE PUSH0 PUSH1 0x20 MSTORE PUSH1 0x40 PUSH0 KECCAK256 SLOAD DUP2 DUP2 LT PUSH2 0x19BD JUMPI DUP2 PUSH32 0xDDF252AD1BE2C89B69C2B068FC378DAA952BA7F163C4A11628F55A4DF523B3EF SWAP3 PUSH1 0x20 SWAP3 DUP6 PUSH0 MSTORE PUSH0 DUP5 MSTORE SUB PUSH1 0x40 PUSH0 KECCAK256 SSTORE DUP5 PUSH0 MSTORE PUSH0 DUP3 MSTORE PUSH1 0x40 PUSH0 KECCAK256 DUP2 DUP2 SLOAD ADD SWAP1 SSTORE PUSH1 0x40 MLOAD SWAP1 DUP2 MSTORE LOG3 JUMP JUMPDEST DUP3 PUSH4 0x391434E3 PUSH1 0xE2 SHL PUSH0 MSTORE PUSH1 0x4 MSTORE PUSH1 0x24 MSTORE PUSH1 0x44 MSTORE PUSH1 0x64 PUSH0 REVERT JUMPDEST PUSH4 0x4B637E8F PUSH1 0xE1 SHL PUSH0 MSTORE PUSH0 PUSH1 0x4 MSTORE PUSH1 0x24 PUSH0 REVERT JUMPDEST PUSH1 0x5 SLOAD PUSH1 0x1 PUSH1 0x1 PUSH1 0xA0 SHL SUB AND CALLER SUB PUSH2 0x19FD JUMPI JUMP JUMPDEST PUSH4 0x118CDAA7 PUSH1 0xE0 SHL PUSH0 MSTORE CALLER PUSH1 0x4 MSTORE PUSH1 0x24 PUSH0 REVERT JUMPDEST SWAP1 DUP2 PUSH0 MSTORE PUSH1 0x8 PUSH1 0x20 MSTORE PUSH1 0x40 PUSH0 KECCAK256 PUSH1 0x1 DUP2 ADD PUSH2 0x200 PUSH2 0xFF00 NOT DUP3 SLOAD AND OR SWAP1 SSTORE PUSH1 0x9 PUSH0 SWAP2 ADD SWAP1 JUMPDEST DUP2 SLOAD DUP2 LT ISZERO PUSH2 0x1B25 JUMPI PUSH2 0x1A48 DUP2 DUP4 PUSH2 0x17C2 JUMP JUMPDEST SWAP1 SLOAD PUSH0 DUP7 DUP2 MSTORE PUSH1 0xA PUSH1 0x20 SWAP1 DUP2 MSTORE PUSH1 0x40 DUP1 DUP4 KECCAK256 PUSH1 0x3 SWAP6 SWAP1 SWAP6 SHL SWAP4 SWAP1 SWAP4 SHR PUSH1 0x1 PUSH1 0x1 PUSH1 0xA0 SHL SUB AND DUP1 DUP4 MSTORE SWAP4 SWAP1 MSTORE KECCAK256 SLOAD SWAP2 SWAP1 DUP3 PUSH2 0x1A88 JUMPI JUMPDEST POP PUSH1 0x1 SWAP2 POP ADD PUSH2 0x1A35 JUMP JUMPDEST PUSH0 DUP7 DUP2 MSTORE PUSH1 0xA PUSH1 0x20 SWAP1 DUP2 MSTORE PUSH1 0x40 DUP1 DUP4 KECCAK256 PUSH1 0x1 PUSH1 0x1 PUSH1 0xA0 SHL SUB SWAP5 DUP6 AND DUP1 DUP6 MSTORE SWAP1 DUP4 MSTORE DUP2 DUP5 KECCAK256 DUP5 SWAP1 SSTORE SWAP1 MLOAD PUSH4 0xA9059CBB PUSH1 0xE0 SHL DUP2 MSTORE PUSH1 0x4 DUP2 ADD SWAP2 SWAP1 SWAP2 MSTORE PUSH1 0x24 DUP2 ADD SWAP6 SWAP1 SWAP6 MSTORE SWAP2 DUP5 SWAP2 PUSH1 0x44 SWAP2 DUP4 SWAP2 SWAP1 PUSH32 0x0 AND GAS CALL SWAP2 DUP3 ISZERO PUSH2 0x3E2 JUMPI PUSH1 0x1 SWAP3 ISZERO PUSH2 0x1A7D JUMPI PUSH2 0x1B1E SWAP1 PUSH1 0x20 RETURNDATASIZE DUP2 GT PUSH2 0x3DB JUMPI PUSH2 0x3CD DUP2 DUP4 PUSH2 0x160B JUMP JUMPDEST POP PUSH0 PUSH2 0x1A7D JUMP JUMPDEST POP POP SWAP1 PUSH32 0x3D229DD60FC64B0903758FEED58453F62E715F5D01DC0978C0A3A312DD2776C2 PUSH0 DUP1 LOG2 JUMP INVALID LOG2 PUSH5 0x6970667358 0x22 SLT KECCAK256 0xD9 0xE0 JUMPI DUP15 NUMBER SAR 0xB3 0xC2 DUP5 BLOBHASH LOG2 MULMOD 0xD6 0xFC BALANCE PUSH22 0x1C2C1E543E2CA87396B2090A2F50275A64736F6C6343 STOP ADDMOD SHR STOP CALLER "},"methodIdentifiers":{"MAX_TLOOT_SUPPLY()":"cc936e77","allowance(address,address)":"dd62ed3e","approve(address,uint256)":"095ea7b3","balanceOf(address)":"70a08231","cancelPool(uint256)":"827c7889","contributions(uint256,address)":"3d891f59","createPool(uint8,string,uint256,uint256,uint256,uint256)":"0e88d464","decimals()":"313ce567","finalizePool(uint256)":"c5a1f434","getParticipantCount(uint256)":"86ae5fec","getParticipants(uint256)":"c1e3bd3e","getPool(uint256)":"068bcd8d","hasJoined(uint256,address)":"68194719","joinPool(uint256,uint256)":"108c8492","name()":"06fdde03","owner()":"8da5cb5b","poolCount()":"f525cb68","pools(uint256)":"ac4afa38","renounceOwnership()":"715018a6","selectWinner(uint256,uint256)":"e6fa0209","symbol()":"95d89b41","totalSupply()":"18160ddd","transfer(address,uint256)":"a9059cbb","transferFrom(address,address,uint256)":"23b872dd","transferOwnership(address)":"f2fde38b","usdtToken()":"a98ad46c"}}}}}