{"project/contracts/Counter.sol":{"Counter":{"abi":[{"anonymous":false,"inputs":[{"indexed":false,"internalType":"uint256","name":"by","type":"uint256"}],"name":"Increment","type":"event"},{"inputs":[],"name":"inc","outputs":[],"stateMutability":"nonpayable","type":"function"},{"inputs":[{"internalType":"uint256","name":"by","type":"uint256"}],"name":"incBy","outputs":[],"stateMutability":"nonpayable","type":"function"},{"inputs":[],"name":"x","outputs":[{"internalType":"uint256","name":"","type":"uint256"}],"stateMutability":"view","type":"function"}],"evm":{"bytecode":{"linkReferences":{},"object":"60808060405234601557610197908161001a8239f35b5f80fdfe6080806040526004361015610012575f80fd5b5f3560e01c9081630c55699c1461014857508063371303c0146100fc576370119d061461003d575f80fd5b346100f85760203660031901126100f85760043580156100a7575f54818101809111610093577f51af157c2eee40f68107a47a49c32fbbeb0a3c9e5cd37aa56e88e6be92368a81916020915f55604051908152a1005b634e487b7160e01b5f52601160045260245ffd5b60405162461bcd60e51b815260206004820152602360248201527f696e6342793a20696e6372656d656e742073686f756c6420626520706f73697460448201526269766560e81b6064820152608490fd5b5f80fd5b346100f8575f3660031901126100f8575f545f198114610093576001015f557f51af157c2eee40f68107a47a49c32fbbeb0a3c9e5cd37aa56e88e6be92368a81602060405160018152a1005b346100f8575f3660031901126100f8576020905f548152f3fea2646970667358221220dc8df6cd0537c99e967bd707da9cc154e8544c6a1db3a69c1038df61671a21b764736f6c634300081c0033","opcodes":"PUSH1 0x80 DUP1 PUSH1 0x40 MSTORE CALLVALUE PUSH1 0x15 JUMPI PUSH2 0x197 SWAP1 DUP2 PUSH2 0x1A DUP3 CODECOPY RETURN JUMPDEST PUSH0 DUP1 REVERT INVALID PUSH1 0x80 DUP1 PUSH1 0x40 MSTORE PUSH1 0x4 CALLDATASIZE LT ISZERO PUSH2 0x12 JUMPI PUSH0 DUP1 REVERT JUMPDEST PUSH0 CALLDATALOAD PUSH1 0xE0 SHR SWAP1 DUP2 PUSH4 0xC55699C EQ PUSH2 0x148 JUMPI POP DUP1 PUSH4 0x371303C0 EQ PUSH2 0xFC JUMPI PUSH4 0x70119D06 EQ PUSH2 0x3D JUMPI PUSH0 DUP1 REVERT JUMPDEST CALLVALUE PUSH2 0xF8 JUMPI PUSH1 0x20 CALLDATASIZE PUSH1 0x3 NOT ADD SLT PUSH2 0xF8 JUMPI PUSH1 0x4 CALLDATALOAD DUP1 ISZERO PUSH2 0xA7 JUMPI PUSH0 SLOAD DUP2 DUP2 ADD DUP1 SWAP2 GT PUSH2 0x93 JUMPI PUSH32 0x51AF157C2EEE40F68107A47A49C32FBBEB0A3C9E5CD37AA56E88E6BE92368A81 SWAP2 PUSH1 0x20 SWAP2 PUSH0 SSTORE PUSH1 0x40 MLOAD SWAP1 DUP2 MSTORE LOG1 STOP JUMPDEST PUSH4 0x4E487B71 PUSH1 0xE0 SHL PUSH0 MSTORE PUSH1 0x11 PUSH1 0x4 MSTORE PUSH1 0x24 PUSH0 REVERT JUMPDEST PUSH1 0x40 MLOAD PUSH3 0x461BCD PUSH1 0xE5 SHL DUP2 MSTORE PUSH1 0x20 PUSH1 0x4 DUP3 ADD MSTORE PUSH1 0x23 PUSH1 0x24 DUP3 ADD MSTORE PUSH32 0x696E6342793A20696E6372656D656E742073686F756C6420626520706F736974 PUSH1 0x44 DUP3 ADD MSTORE PUSH3 0x697665 PUSH1 0xE8 SHL PUSH1 0x64 DUP3 ADD MSTORE PUSH1 0x84 SWAP1 REVERT JUMPDEST PUSH0 DUP1 REVERT JUMPDEST CALLVALUE PUSH2 0xF8 JUMPI PUSH0 CALLDATASIZE PUSH1 0x3 NOT ADD SLT PUSH2 0xF8 JUMPI PUSH0 SLOAD PUSH0 NOT DUP2 EQ PUSH2 0x93 JUMPI PUSH1 0x1 ADD PUSH0 SSTORE PUSH32 0x51AF157C2EEE40F68107A47A49C32FBBEB0A3C9E5CD37AA56E88E6BE92368A81 PUSH1 0x20 PUSH1 0x40 MLOAD PUSH1 0x1 DUP2 MSTORE LOG1 STOP JUMPDEST CALLVALUE PUSH2 0xF8 JUMPI PUSH0 CALLDATASIZE PUSH1 0x3 NOT ADD SLT PUSH2 0xF8 JUMPI PUSH1 0x20 SWAP1 PUSH0 SLOAD DUP2 MSTORE RETURN INVALID LOG2 PUSH5 0x6970667358 0x22 SLT KECCAK256 0xDC DUP14 0xF6 0xCD SDIV CALLDATACOPY 0xC9 SWAP15 SWAP7 PUSH28 0xD707DA9CC154E8544C6A1DB3A69C1038DF61671A21B764736F6C6343 STOP ADDMOD SHR STOP CALLER "},"methodIdentifiers":{"inc()":"371303c0","incBy(uint256)":"70119d06","x()":"0c55699c"}}}}}