{"project/contracts/SimplePoolManager.sol":{"SimplePoolManager":{"abi":[{"inputs":[{"internalType":"address","name":"_usdtToken","type":"address"}],"stateMutability":"nonpayable","type":"constructor"},{"inputs":[{"internalType":"address","name":"spender","type":"address"},{"internalType":"uint256","name":"allowance","type":"uint256"},{"internalType":"uint256","name":"needed","type":"uint256"}],"name":"ERC20InsufficientAllowance","type":"error"},{"inputs":[{"internalType":"address","name":"sender","type":"address"},{"internalType":"uint256","name":"balance","type":"uint256"},{"internalType":"uint256","name":"needed","type":"uint256"}],"name":"ERC20InsufficientBalance","type":"error"},{"inputs":[{"internalType":"address","name":"approver","type":"address"}],"name":"ERC20InvalidApprover","type":"error"},{"inputs":[{"internalType":"address","name":"receiver","type":"address"}],"name":"ERC20InvalidReceiver","type":"error"},{"inputs":[{"internalType":"address","name":"sender","type":"address"}],"name":"ERC20InvalidSender","type":"error"},{"inputs":[{"internalType":"address","name":"spender","type":"address"}],"name":"ERC20InvalidSpender","type":"error"},{"inputs":[{"internalType":"address","name":"owner","type":"address"}],"name":"OwnableInvalidOwner","type":"error"},{"inputs":[{"internalType":"address","name":"account","type":"address"}],"name":"OwnableUnauthorizedAccount","type":"error"},{"inputs":[],"name":"ReentrancyGuardReentrantCall","type":"error"},{"anonymous":false,"inputs":[{"indexed":true,"internalType":"address","name":"owner","type":"address"},{"indexed":true,"internalType":"address","name":"spender","type":"address"},{"indexed":false,"internalType":"uint256","name":"value","type":"uint256"}],"name":"Approval","type":"event"},{"anonymous":false,"inputs":[{"indexed":true,"internalType":"address","name":"previousOwner","type":"address"},{"indexed":true,"internalType":"address","name":"newOwner","type":"address"}],"name":"OwnershipTransferred","type":"event"},{"anonymous":false,"inputs":[{"indexed":true,"internalType":"uint256","name":"poolId","type":"uint256"},{"indexed":true,"internalType":"address","name":"user","type":"address"},{"indexed":false,"internalType":"uint256","name":"remainingAmount","type":"uint256"}],"name":"PaymentCompleted","type":"event"},{"anonymous":false,"inputs":[{"indexed":true,"internalType":"uint256","name":"poolId","type":"uint256"}],"name":"PoolCancelled","type":"event"},{"anonymous":false,"inputs":[{"indexed":true,"internalType":"uint256","name":"poolId","type":"uint256"},{"indexed":false,"internalType":"enum SimplePoolManager.PoolType","name":"poolType","type":"uint8"},{"indexed":false,"internalType":"address","name":"creator","type":"address"},{"indexed":false,"internalType":"string","name":"eventName","type":"string"}],"name":"PoolCreated","type":"event"},{"anonymous":false,"inputs":[{"indexed":true,"internalType":"uint256","name":"poolId","type":"uint256"}],"name":"PoolFinalized","type":"event"},{"anonymous":false,"inputs":[{"indexed":true,"internalType":"address","name":"from","type":"address"},{"indexed":true,"internalType":"address","name":"to","type":"address"},{"indexed":false,"internalType":"uint256","name":"value","type":"uint256"}],"name":"Transfer","type":"event"},{"anonymous":false,"inputs":[{"indexed":true,"internalType":"uint256","name":"poolId","type":"uint256"},{"indexed":true,"internalType":"address","name":"user","type":"address"},{"indexed":false,"internalType":"uint256","name":"amount","type":"uint256"},{"indexed":false,"internalType":"uint256","name":"tlootMinted","type":"uint256"}],"name":"UserJoined","type":"event"},{"anonymous":false,"inputs":[{"indexed":true,"internalType":"uint256","name":"poolId","type":"uint256"},{"indexed":true,"internalType":"address","name":"winner","type":"address"}],"name":"WinnerSelected","type":"event"},{"inputs":[],"name":"MAX_TLOOT_SUPPLY","outputs":[{"internalType":"uint256","name":"","type":"uint256"}],"stateMutability":"view","type":"function"},{"inputs":[{"internalType":"address","name":"owner","type":"address"},{"internalType":"address","name":"spender","type":"address"}],"name":"allowance","outputs":[{"internalType":"uint256","name":"","type":"uint256"}],"stateMutability":"view","type":"function"},{"inputs":[{"internalType":"address","name":"spender","type":"address"},{"internalType":"uint256","name":"value","type":"uint256"}],"name":"approve","outputs":[{"internalType":"bool","name":"","type":"bool"}],"stateMutability":"nonpayable","type":"function"},{"inputs":[{"internalType":"address","name":"account","type":"address"}],"name":"balanceOf","outputs":[{"internalType":"uint256","name":"","type":"uint256"}],"stateMutability":"view","type":"function"},{"inputs":[{"internalType":"uint256","name":"poolId","type":"uint256"}],"name":"cancelPool","outputs":[],"stateMutability":"nonpayable","type":"function"},{"inputs":[{"internalType":"uint256","name":"poolId","type":"uint256"}],"name":"completePayment","outputs":[],"stateMutability":"nonpayable","type":"function"},{"inputs":[{"internalType":"uint256","name":"","type":"uint256"},{"internalType":"address","name":"","type":"address"}],"name":"contributions","outputs":[{"internalType":"uint256","name":"","type":"uint256"}],"stateMutability":"view","type":"function"},{"inputs":[{"internalType":"enum SimplePoolManager.PoolType","name":"poolType","type":"uint8"},{"internalType":"string","name":"eventName","type":"string"},{"internalType":"uint256","name":"entryAmount","type":"uint256"},{"internalType":"uint256","name":"ticketPrice","type":"uint256"},{"internalType":"uint256","name":"maxParticipants","type":"uint256"},{"internalType":"uint256","name":"deadline","type":"uint256"}],"name":"createPool","outputs":[{"internalType":"uint256","name":"","type":"uint256"}],"stateMutability":"nonpayable","type":"function"},{"inputs":[],"name":"decimals","outputs":[{"internalType":"uint8","name":"","type":"uint8"}],"stateMutability":"view","type":"function"},{"inputs":[{"internalType":"uint256","name":"poolId","type":"uint256"}],"name":"finalizePool","outputs":[],"stateMutability":"nonpayable","type":"function"},{"inputs":[{"internalType":"uint256","name":"poolId","type":"uint256"}],"name":"getParticipantCount","outputs":[{"internalType":"uint256","name":"","type":"uint256"}],"stateMutability":"view","type":"function"},{"inputs":[{"internalType":"uint256","name":"poolId","type":"uint256"}],"name":"getParticipants","outputs":[{"internalType":"address[]","name":"","type":"address[]"}],"stateMutability":"view","type":"function"},{"inputs":[{"internalType":"uint256","name":"poolId","type":"uint256"}],"name":"getPool","outputs":[{"components":[{"internalType":"uint256","name":"id","type":"uint256"},{"internalType":"enum SimplePoolManager.PoolType","name":"poolType","type":"uint8"},{"internalType":"enum SimplePoolManager.PoolStatus","name":"status","type":"uint8"},{"internalType":"address","name":"creator","type":"address"},{"internalType":"string","name":"eventName","type":"string"},{"internalType":"uint256","name":"entryAmount","type":"uint256"},{"internalType":"uint256","name":"ticketPrice","type":"uint256"},{"internalType":"uint256","name":"maxParticipants","type":"uint256"},{"internalType":"uint256","name":"deadline","type":"uint256"},{"internalType":"uint256","name":"totalPooled","type":"uint256"},{"internalType":"address","name":"winner","type":"address"},{"internalType":"address[]","name":"participants","type":"address[]"}],"internalType":"struct SimplePoolManager.Pool","name":"","type":"tuple"}],"stateMutability":"view","type":"function"},{"inputs":[{"internalType":"uint256","name":"","type":"uint256"},{"internalType":"address","name":"","type":"address"}],"name":"hasCompletedPayment","outputs":[{"internalType":"bool","name":"","type":"bool"}],"stateMutability":"view","type":"function"},{"inputs":[{"internalType":"uint256","name":"","type":"uint256"},{"internalType":"address","name":"","type":"address"}],"name":"hasJoined","outputs":[{"internalType":"bool","name":"","type":"bool"}],"stateMutability":"view","type":"function"},{"inputs":[{"internalType":"uint256","name":"poolId","type":"uint256"}],"name":"joinPool","outputs":[],"stateMutability":"nonpayable","type":"function"},{"inputs":[],"name":"name","outputs":[{"internalType":"string","name":"","type":"string"}],"stateMutability":"view","type":"function"},{"inputs":[],"name":"owner","outputs":[{"internalType":"address","name":"","type":"address"}],"stateMutability":"view","type":"function"},{"inputs":[],"name":"poolCount","outputs":[{"internalType":"uint256","name":"","type":"uint256"}],"stateMutability":"view","type":"function"},{"inputs":[{"internalType":"uint256","name":"","type":"uint256"}],"name":"pools","outputs":[{"internalType":"uint256","name":"id","type":"uint256"},{"internalType":"enum SimplePoolManager.PoolType","name":"poolType","type":"uint8"},{"internalType":"enum SimplePoolManager.PoolStatus","name":"status","type":"uint8"},{"internalType":"address","name":"creator","type":"address"},{"internalType":"string","name":"eventName","type":"string"},{"internalType":"uint256","name":"entryAmount","type":"uint256"},{"internalType":"uint256","name":"ticketPrice","type":"uint256"},{"internalType":"uint256","name":"maxParticipants","type":"uint256"},{"internalType":"uint256","name":"deadline","type":"uint256"},{"internalType":"uint256","name":"totalPooled","type":"uint256"},{"internalType":"address","name":"winner","type":"address"}],"stateMutability":"view","type":"function"},{"inputs":[],"name":"renounceOwnership","outputs":[],"stateMutability":"nonpayable","type":"function"},{"inputs":[{"internalType":"uint256","name":"poolId","type":"uint256"},{"internalType":"uint256","name":"randomSeed","type":"uint256"}],"name":"selectWinner","outputs":[],"stateMutability":"nonpayable","type":"function"},{"inputs":[],"name":"symbol","outputs":[{"internalType":"string","name":"","type":"string"}],"stateMutability":"view","type":"function"},{"inputs":[],"name":"totalSupply","outputs":[{"internalType":"uint256","name":"","type":"uint256"}],"stateMutability":"view","type":"function"},{"inputs":[{"internalType":"address","name":"to","type":"address"},{"internalType":"uint256","name":"value","type":"uint256"}],"name":"transfer","outputs":[{"internalType":"bool","name":"","type":"bool"}],"stateMutability":"nonpayable","type":"function"},{"inputs":[{"internalType":"address","name":"from","type":"address"},{"internalType":"address","name":"to","type":"address"},{"internalType":"uint256","name":"value","type":"uint256"}],"name":"transferFrom","outputs":[{"internalType":"bool","name":"","type":"bool"}],"stateMutability":"nonpayable","type":"function"},{"inputs":[{"internalType":"address","name":"newOwner","type":"address"}],"name":"transferOwnership","outputs":[],"stateMutability":"nonpayable","type":"function"},{"inputs":[],"name":"usdtToken","outputs":[{"internalType":"contract IERC20Simple","name":"","type":"address"}],"stateMutability":"view","type":"function"}],"evm":{"bytecode":{"linkReferences":{},"object":"60a060405234610437576121c46020813803918261001c8161043b565b93849283398101031261043757516001600160a01b0381169081900361043757610046604061043b565b90600b82526a2a2627a7aa102a37b5b2b760a91b6020830152610069604061043b565b6005815264151313d3d560da1b602082015282519091906001600160401b03811161034857600354600181811c9116801561042d575b602082101461032a57601f81116103ca575b506020601f821160011461036757819293945f9261035c575b50508160011b915f199060031b1c1916176003555b81516001600160401b03811161034857600454600181811c9116801561033e575b602082101461032a57601f81116102c7575b50602092601f821160011461026657928192935f9261025b575b50508160011b915f199060031b1c1916176004555b33156102485760058054336001600160a01b0319821681179092556001600160a01b03167f8be0079c531659141344cd1fd0a4f28419497f9722a3daafe3b4186f6b6457e05f80a360016006556080526002546a52b7d2dcc80cd2e4000000810180911161023457600255335f525f60205260405f206a52b7d2dcc80cd2e400000081540190556040516a52b7d2dcc80cd2e400000081525f7fddf252ad1be2c89b69c2b068fc378daa952ba7f163c4a11628f55a4df523b3ef60203393a3604051611d639081610461823960805181818161037f01528181610602015281816109af01528181610d3c0152611cb50152f35b634e487b7160e01b5f52601160045260245ffd5b631e4fbdf760e01b5f525f60045260245ffd5b015190505f8061012c565b601f1982169360045f52805f20915f5b8681106102af5750836001959610610297575b505050811b01600455610141565b01515f1960f88460031b161c191690555f8080610289565b91926020600181928685015181550194019201610276565b60045f527f8a35acfbc15ff81a39ae7d344fd709f28e8600b4aa8c65c6b64bfe7fe36bd19b601f830160051c81019160208410610320575b601f0160051c01905b8181106103155750610112565b5f8155600101610308565b90915081906102ff565b634e487b7160e01b5f52602260045260245ffd5b90607f1690610100565b634e487b7160e01b5f52604160045260245ffd5b015190505f806100ca565b601f1982169060035f52805f20915f5b8181106103b25750958360019596971061039a575b505050811b016003556100df565b01515f1960f88460031b161c191690555f808061038c565b9192602060018192868b015181550194019201610377565b60035f527fc2575a0e9e593c00f959f8c92f12db2869c3395a3b0502d05e2516446f71f85b601f830160051c81019160208410610423575b601f0160051c01905b81811061041857506100b1565b5f815560010161040b565b9091508190610402565b90607f169061009f565b5f80fd5b6040519190601f01601f191682016001600160401b038111838210176103485760405256fe6080806040526004361015610012575f80fd5b5f3560e01c908163068bcd8d1461143f5750806306fdde031461139a578063095ea7b3146113185780630e88d4641461109757806318160ddd1461107a57806323b872dd14610f9b578063313ce56714610f8057806334e7a19f14610c785780633d891f5914610c345780634f01c6f2146108c2578063681947191461087957806370a0823114610842578063715018a6146107e7578063827c78891461079957806386ae5fec1461076c5780638da5cb5b1461074457806395d89b4114610662578063a9059cbb14610631578063a98ad46c146105ed578063ac4afa3814610519578063c1e3bd3e146104a2578063c5a1f434146102df578063cc936e77146102b9578063dd62ed3e14610269578063e6fa020914610240578063ed476295146101f7578063f2fde38b146101715763f525cb6814610150575f80fd5b3461016d575f36600319011261016d576020600754604051908152f35b5f80fd5b3461016d57602036600319011261016d5761018a6116a2565b610192611bc8565b6001600160a01b031680156101e457600580546001600160a01b0319811683179091556001600160a01b03167f8be0079c531659141344cd1fd0a4f28419497f9722a3daafe3b4186f6b6457e05f80a3005b631e4fbdf760e01b5f525f60045260245ffd5b3461016d57604036600319011261016d576102106116b8565b6004355f52600b60205260405f209060018060a01b03165f52602052602060ff60405f2054166040519015158152f35b3461016d57604036600319011261016d57610259611bc8565b610267602435600435611947565b005b3461016d57604036600319011261016d576102826116a2565b61028a6116b8565b6001600160a01b039182165f908152600160209081526040808320949093168252928352819020549051908152f35b3461016d575f36600319011261016d5760206040516b033b2e3c9fd0803ce80000008152f35b3461016d57602036600319011261016d576004356102fb611bc8565b805f52600860205260405f206001810160ff815460081c16600381101561048e576103269015611836565b60088201546001600160a01b03161561045457805461ff00191661010017905560055460079091015460405163a9059cbb60e01b81526001600160a01b039290921660048301526024820152602081806044810103815f7f00000000000000000000000000000000000000000000000000000000000000006001600160a01b03165af1908115610449575f9161041a575b50156103e3577f7ed2d5bdf35d4cb790f65d053de7890f1b4a687ac689ca56c23730833531deb05f80a2005b60405162461bcd60e51b815260206004820152600f60248201526e151c985b9cd9995c8819985a5b1959608a1b6044820152606490fd5b61043c915060203d602011610442575b61043481836116eb565b810190611874565b826103b7565b503d61042a565b6040513d5f823e3d90fd5b60405162461bcd60e51b8152602060048201526012602482015271139bc81dda5b9b995c881cd95b1958dd195960721b6044820152606490fd5b634e487b7160e01b5f52602160045260245ffd5b3461016d57602036600319011261016d576004355f5260086020526104cc600960405f20016117e5565b6040518091602082016020835281518091526020604084019201905f5b8181106104f7575050500390f35b82516001600160a01b03168452859450602093840193909201916001016104e9565b3461016d57602036600319011261016d576004355f52600860205260405f20805460018201549161054c60028201611745565b600382015491600481015460058201546006830154916105c7600785015494600860018060a01b039101541695604051998a998a5261059160208b0160ff8316611664565b6105a460408b0160ff8360081c16611671565b60101c6001600160a01b031660608a015261016060808a0181905289019061167e565b9560a088015260c087015260e08601526101008501526101208401526101408301520390f35b3461016d575f36600319011261016d576040517f00000000000000000000000000000000000000000000000000000000000000006001600160a01b03168152602090f35b3461016d57604036600319011261016d5761065761064d6116a2565b6024359033611a8e565b602060405160018152f35b3461016d575f36600319011261016d576040515f6004546106828161170d565b808452906001811690811561072057506001146106c2575b6106be836106aa818503826116eb565b60405191829160208352602083019061167e565b0390f35b60045f9081527f8a35acfbc15ff81a39ae7d344fd709f28e8600b4aa8c65c6b64bfe7fe36bd19b939250905b808210610706575090915081016020016106aa61069a565b9192600181602092548385880101520191019092916106ee565b60ff191660208086019190915291151560051b840190910191506106aa905061069a565b3461016d575f36600319011261016d576005546040516001600160a01b039091168152602090f35b3461016d57602036600319011261016d576004355f5260086020526020600960405f200154604051908152f35b3461016d57602036600319011261016d576004356107b5611bc8565b805f52600860205260ff600160405f20015460081c1690600382101561048e576107e26102679215611836565b611bef565b3461016d575f36600319011261016d576107ff611bc8565b600580546001600160a01b031981169091555f906001600160a01b03167f8be0079c531659141344cd1fd0a4f28419497f9722a3daafe3b4186f6b6457e08280a3005b3461016d57602036600319011261016d576001600160a01b036108636116a2565b165f525f602052602060405f2054604051908152f35b3461016d57604036600319011261016d576108926116b8565b6004355f52600960205260405f209060018060a01b03165f52602052602060ff60405f2054166040519015158152f35b3461016d57602036600319011261016d576004356108de611b4b565b805f52600860205260405f2090600182015460ff8116600281101561048e57600103610bef5760081c60ff16600381101561048e57600103610bb1575f81815260096020908152604080832033845290915290205460ff1615610b78575f818152600b6020908152604080832033845290915290205460ff16610b33576006820154421015610aee57600482015460038301549081810393818511610abb576040516323b872dd60e01b815233600482015230602482015260448101869052906020826064815f6001600160a01b037f0000000000000000000000000000000000000000000000000000000000000000165af1918215610449576007926109ec915f91610acf575b5061188c565b5f858152600b6020908152604080832033808552908352818420805460ff19166001179055888452600a835281842090845290915290208054610a309088906118f8565b905501610a3e8582546118f8565b905564e8d4a5100084029184830464e8d4a510001491141715610abb5780610a826b033b2e3c9fd0803ce8000000610a7b610a88946002546118f8565b1115611905565b33611b6b565b6040519182527f90fe20ec2825e11e06afdcbf41b604101d2ce121c29c84e4f62d4bc1fda709b960203393a36001600655005b634e487b7160e01b5f52601160045260245ffd5b610ae8915060203d6020116104425761043481836116eb565b886109e6565b60405162461bcd60e51b815260206004820152601760248201527f5061796d656e7420646561646c696e65207061737365640000000000000000006044820152606490fd5b60405162461bcd60e51b815260206004820152601960248201527f5061796d656e7420616c726561647920636f6d706c65746564000000000000006044820152606490fd5b60405162461bcd60e51b8152602060048201526011602482015270139bdd0818481c185c9d1a58da5c185b9d607a1b6044820152606490fd5b60405162461bcd60e51b8152602060048201526016602482015275141bdbdb081b9bdd08199a5b985b1a5e9959081e595d60521b6044820152606490fd5b60405162461bcd60e51b815260206004820152601c60248201527f4f6e6c7920666f7220436f6d6d6974546f436c61696d20706f6f6c73000000006044820152606490fd5b3461016d57604036600319011261016d57610c4d6116b8565b6004355f52600a60205260405f209060018060a01b03165f52602052602060405f2054604051908152f35b3461016d57602036600319011261016d57600435610c94611b4b565b805f52600860205260405f2090815415610f455760ff600183015460081c16600381101561048e57610cc69015611836565b6006820154421015610f11575f81815260096020908152604080832033845290915290205460ff16610edb5760098201805460058401541115610eaa5760038301546040516323b872dd60e01b8152336004820152306024820152604481018290529093906020816064815f6001600160a01b037f0000000000000000000000000000000000000000000000000000000000000000165af1801561044957610d74915f91610e8b575061188c565b81549168010000000000000000831015610e775782610d9a9160016007950181556118cf565b81546001600160a01b0360039290921b91821b1916339182901b179091555f8481526009602090815260408083208484528252808320805460ff19166001179055868352600a825280832093835292905220849055018054610dfd9084906118f8565b905564e8d4a51000820282810464e8d4a510001483151715610abb57610e356b033b2e3c9fd0803ce8000000610a7b836002546118f8565b610e3f8133611b6b565b60405192835260208301527f9a215eca654acfb405df5f8f7f472eccecc6dc50a60ee8f4c6e8225f4bab0ce360403393a36001600655005b634e487b7160e01b5f52604160045260245ffd5b610ea4915060203d6020116104425761043481836116eb565b866109e6565b60405162461bcd60e51b8152602060048201526009602482015268141bdbdb08199d5b1b60ba1b6044820152606490fd5b60405162461bcd60e51b815260206004820152600e60248201526d105b1c9958591e481a9bda5b995960921b6044820152606490fd5b60405162461bcd60e51b815260206004820152600c60248201526b141bdbdb08195e1c1a5c995960a21b6044820152606490fd5b60405162461bcd60e51b8152602060048201526013602482015272141bdbdb08191bd95cc81b9bdd08195e1a5cdd606a1b6044820152606490fd5b3461016d575f36600319011261016d57602060405160128152f35b3461016d57606036600319011261016d57610fb46116a2565b610fbc6116b8565b6001600160a01b0382165f818152600160209081526040808320338452909152902054909260443592915f198110610ffa575b506106579350611a8e565b83811061105f57841561104c57331561103957610657945f52600160205260405f2060018060a01b0333165f526020528360405f209103905584610fef565b634a1406b160e11b5f525f60045260245ffd5b63e602df0560e01b5f525f60045260245ffd5b8390637dc7a0d960e11b5f523360045260245260445260645ffd5b3461016d575f36600319011261016d576020600254604051908152f35b3461016d5760c036600319011261016d57600435600281101561016d576024359067ffffffffffffffff821161016d573660238301121561016d57816004013567ffffffffffffffff8111610e7757604051926110fe601f8301601f1916602001856116eb565b818452366024838301011161016d57815f9260246020930183870137840101526007545f198114610abb57600190810160078190555f81815260086020526040902081815591820180546001600160b01b03191660ff8516173360101b62010000600160b01b0316179055835193919290916002840167ffffffffffffffff8611610e775761118d815461170d565b95601f87116112d3575b6020965086601f8211600114611248579285967fa1d183de8fce351ce90c5aef8b14eca79f903cebb82f1e90a9fea0069f22dd839593836112329461121c975f9161123d575b508160011b915f199060031b1c19161790555b604435600382015560643560048201556084356005820155600660a43591015560405193848094611664565b338884015260606040840152606083019061167e565b0390a2604051908152f35b90508401518c6111dd565b601f19821690835f52805f20915f5b8181106112bc57509360018461121c97948a9b94611232977fa1d183de8fce351ce90c5aef8b14eca79f903cebb82f1e90a9fea0069f22dd839b99106112a4575b5050811b0190556111f0565b8601515f1960f88460031b161c191690558c80611298565b91928a60018192868a015181550194019201611257565b815f5260205f20601f820160051c8101976020831061130e575b601f0160051c01965b8781106113035750611197565b5f81556001016112f6565b90975087906112ed565b3461016d57604036600319011261016d576113316116a2565b60243590331561104c576001600160a01b031690811561103957335f52600160205260405f20825f526020528060405f20556040519081527f8c5be1e5ebec7d5bd14f71427d1e84f3dd0314c0f7b2291e5b200ac8c7c3b92560203392a3602060405160018152f35b3461016d575f36600319011261016d576040515f6003546113ba8161170d565b808452906001811690811561072057506001146113e1576106be836106aa818503826116eb565b60035f9081527fc2575a0e9e593c00f959f8c92f12db2869c3395a3b0502d05e2516446f71f85b939250905b808210611425575090915081016020016106aa61069a565b91926001816020925483858801015201910190929161140d565b3461016d57602036600319011261016d576101608161145f6060936116ce565b5f81525f60208201525f60408201525f838201528260808201525f60a08201525f60c08201525f60e08201525f6101008201525f6101208201525f61014082015201526004355f52600860205260405f20604051906114bd826116ce565b80548252600181015490602083019060ff8316600281101561048e57825260ff8360081c166040850190600381101561048e57815260109390931c6001600160a01b031660608501908152919284929161151960028201611745565b926080850193845260038201549360a08601948552600483015460c0870190815260058401549060e0880191825260068501549261010089019384526007860154946101208a01958652600160a01b60019003600888015416966101408b01978852600901611587906117e5565b976101608b019889526040519b8c9b60208d525160208d01525160408c016115ae91611664565b5160608b016115bc91611671565b516001600160a01b031660808a01525161018060a08a01526115e3906101a08a019061167e565b965160c08901525160e0880152516101008701525161012086015251610140850152516001600160a01b031661016084015251828203601f19016101808401528051808352602092830192909101905f5b818110611642575050500390f35b82516001600160a01b0316845285945060209384019390920191600101611634565b90600282101561048e5752565b90600382101561048e5752565b805180835260209291819084018484015e5f828201840152601f01601f1916010190565b600435906001600160a01b038216820361016d57565b602435906001600160a01b038216820361016d57565b610180810190811067ffffffffffffffff821117610e7757604052565b90601f8019910116810190811067ffffffffffffffff821117610e7757604052565b90600182811c9216801561173b575b602083101461172757565b634e487b7160e01b5f52602260045260245ffd5b91607f169161171c565b9060405191825f8254926117588461170d565b80845293600181169081156117c3575060011461177f575b5061177d925003836116eb565b565b90505f9291925260205f20905f915b8183106117a757505090602061177d928201015f611770565b602091935080600191548385890101520191019091849261178e565b90506020925061177d94915060ff191682840152151560051b8201015f611770565b90604051918281549182825260208201905f5260205f20925f5b81811061181457505061177d925003836116eb565b84546001600160a01b03168352600194850194879450602090930192016117ff565b1561183d57565b60405162461bcd60e51b815260206004820152600f60248201526e506f6f6c206e6f742061637469766560881b6044820152606490fd5b9081602091031261016d5751801515810361016d5790565b1561189357565b60405162461bcd60e51b81526020600482015260146024820152731554d115081d1c985b9cd9995c8819985a5b195960621b6044820152606490fd5b80548210156118e4575f5260205f2001905f90565b634e487b7160e01b5f52603260045260245ffd5b91908201809211610abb57565b1561190c57565b60405162461bcd60e51b815260206004820152601360248201527213585e081cdd5c1c1b1e48195e18d959591959606a1b6044820152606490fd5b90815f52600860205260405f209060ff600183015460081c16600381101561048e576119739015611836565b60068201544210611a58576009820190815415611a21576007830154600484015411611a15578154918215611a01576008926119b09206906118cf565b90549190920180546001600160a01b03191660039390931b9190911c6001600160a01b03169182179055907f03fb57eb449654e24e1b240d3d06702cf79362a065d5c0323aee642d4702fa4b5f80a3565b634e487b7160e01b5f52601260045260245ffd5b50505061177d90611bef565b60405162461bcd60e51b815260206004820152600f60248201526e4e6f207061727469636970616e747360881b6044820152606490fd5b60405162461bcd60e51b815260206004820152600e60248201526d141bdbdb081b9bdd08195b99195960921b6044820152606490fd5b6001600160a01b0316908115611b38576001600160a01b0316918215611b2557815f525f60205260405f2054818110611b0c57817fddf252ad1be2c89b69c2b068fc378daa952ba7f163c4a11628f55a4df523b3ef92602092855f525f84520360405f2055845f525f825260405f20818154019055604051908152a3565b8263391434e360e21b5f5260045260245260445260645ffd5b63ec442f0560e01b5f525f60045260245ffd5b634b637e8f60e11b5f525f60045260245ffd5b600260065414611b5c576002600655565b633ee5aeb560e01b5f5260045ffd5b6001600160a01b0316908115611b25577fddf252ad1be2c89b69c2b068fc378daa952ba7f163c4a11628f55a4df523b3ef602082611bac5f946002546118f8565b60025584845283825260408420818154019055604051908152a3565b6005546001600160a01b03163303611bdc57565b63118cdaa760e01b5f523360045260245ffd5b90815f52600860205260405f206001810161020061ff001982541617905560095f9101905b8154811015611d0457611c2781836118cf565b90545f868152600a6020908152604080832060039590951b9390931c6001600160a01b03168083529390522054919082611c67575b506001915001611c14565b5f868152600a602090815260408083206001600160a01b03948516808552908352818420849055905163a9059cbb60e01b8152600481019190915260248101959095529184916044918391907f0000000000000000000000000000000000000000000000000000000000000000165af19182156104495760019215611c5c57611cfd9060203d81116104425761043481836116eb565b505f611c5c565b5050907f3d229dd60fc64b0903758feed58453f62e715f5d01dc0978c0a3a312dd2776c25f80a256fea2646970667358221220c5b1368f57b1d6631b665625efb12cb13d16f3f762f95501365a1bc47517c8eb64736f6c634300081c0033","opcodes":"PUSH1 0xA0 PUSH1 0x40 MSTORE CALLVALUE PUSH2 0x437 JUMPI PUSH2 0x21C4 PUSH1 0x20 DUP2 CODESIZE SUB SWAP2 DUP3 PUSH2 0x1C DUP2 PUSH2 0x43B JUMP JUMPDEST SWAP4 DUP5 SWAP3 DUP4 CODECOPY DUP2 ADD SUB SLT PUSH2 0x437 JUMPI MLOAD PUSH1 0x1 PUSH1 0x1 PUSH1 0xA0 SHL SUB DUP2 AND SWAP1 DUP2 SWAP1 SUB PUSH2 0x437 JUMPI PUSH2 0x46 PUSH1 0x40 PUSH2 0x43B JUMP JUMPDEST SWAP1 PUSH1 0xB DUP3 MSTORE PUSH11 0x2A2627A7AA102A37B5B2B7 PUSH1 0xA9 SHL PUSH1 0x20 DUP4 ADD MSTORE PUSH2 0x69 PUSH1 0x40 PUSH2 0x43B JUMP JUMPDEST PUSH1 0x5 DUP2 MSTORE PUSH5 0x151313D3D5 PUSH1 0xDA SHL PUSH1 0x20 DUP3 ADD MSTORE DUP3 MLOAD SWAP1 SWAP2 SWAP1 PUSH1 0x1 PUSH1 0x1 PUSH1 0x40 SHL SUB DUP2 GT PUSH2 0x348 JUMPI PUSH1 0x3 SLOAD PUSH1 0x1 DUP2 DUP2 SHR SWAP2 AND DUP1 ISZERO PUSH2 0x42D JUMPI JUMPDEST PUSH1 0x20 DUP3 LT EQ PUSH2 0x32A JUMPI PUSH1 0x1F DUP2 GT PUSH2 0x3CA JUMPI JUMPDEST POP PUSH1 0x20 PUSH1 0x1F DUP3 GT PUSH1 0x1 EQ PUSH2 0x367 JUMPI DUP2 SWAP3 SWAP4 SWAP5 PUSH0 SWAP3 PUSH2 0x35C JUMPI JUMPDEST POP POP DUP2 PUSH1 0x1 SHL SWAP2 PUSH0 NOT SWAP1 PUSH1 0x3 SHL SHR NOT AND OR PUSH1 0x3 SSTORE JUMPDEST DUP2 MLOAD PUSH1 0x1 PUSH1 0x1 PUSH1 0x40 SHL SUB DUP2 GT PUSH2 0x348 JUMPI PUSH1 0x4 SLOAD PUSH1 0x1 DUP2 DUP2 SHR SWAP2 AND DUP1 ISZERO PUSH2 0x33E JUMPI JUMPDEST PUSH1 0x20 DUP3 LT EQ PUSH2 0x32A JUMPI PUSH1 0x1F DUP2 GT PUSH2 0x2C7 JUMPI JUMPDEST POP PUSH1 0x20 SWAP3 PUSH1 0x1F DUP3 GT PUSH1 0x1 EQ PUSH2 0x266 JUMPI SWAP3 DUP2 SWAP3 SWAP4 PUSH0 SWAP3 PUSH2 0x25B JUMPI JUMPDEST POP POP DUP2 PUSH1 0x1 SHL SWAP2 PUSH0 NOT SWAP1 PUSH1 0x3 SHL SHR NOT AND OR PUSH1 0x4 SSTORE JUMPDEST CALLER ISZERO PUSH2 0x248 JUMPI PUSH1 0x5 DUP1 SLOAD CALLER PUSH1 0x1 PUSH1 0x1 PUSH1 0xA0 SHL SUB NOT DUP3 AND DUP2 OR SWAP1 SWAP3 SSTORE PUSH1 0x1 PUSH1 0x1 PUSH1 0xA0 SHL SUB AND PUSH32 0x8BE0079C531659141344CD1FD0A4F28419497F9722A3DAAFE3B4186F6B6457E0 PUSH0 DUP1 LOG3 PUSH1 0x1 PUSH1 0x6 SSTORE PUSH1 0x80 MSTORE PUSH1 0x2 SLOAD PUSH11 0x52B7D2DCC80CD2E4000000 DUP2 ADD DUP1 SWAP2 GT PUSH2 0x234 JUMPI PUSH1 0x2 SSTORE CALLER PUSH0 MSTORE PUSH0 PUSH1 0x20 MSTORE PUSH1 0x40 PUSH0 KECCAK256 PUSH11 0x52B7D2DCC80CD2E4000000 DUP2 SLOAD ADD SWAP1 SSTORE PUSH1 0x40 MLOAD PUSH11 0x52B7D2DCC80CD2E4000000 DUP2 MSTORE PUSH0 PUSH32 0xDDF252AD1BE2C89B69C2B068FC378DAA952BA7F163C4A11628F55A4DF523B3EF PUSH1 0x20 CALLER SWAP4 LOG3 PUSH1 0x40 MLOAD PUSH2 0x1D63 SWAP1 DUP2 PUSH2 0x461 DUP3 CODECOPY PUSH1 0x80 MLOAD DUP2 DUP2 DUP2 PUSH2 0x37F ADD MSTORE DUP2 DUP2 PUSH2 0x602 ADD MSTORE DUP2 DUP2 PUSH2 0x9AF ADD MSTORE DUP2 DUP2 PUSH2 0xD3C ADD MSTORE PUSH2 0x1CB5 ADD MSTORE RETURN JUMPDEST PUSH4 0x4E487B71 PUSH1 0xE0 SHL PUSH0 MSTORE PUSH1 0x11 PUSH1 0x4 MSTORE PUSH1 0x24 PUSH0 REVERT JUMPDEST PUSH4 0x1E4FBDF7 PUSH1 0xE0 SHL PUSH0 MSTORE PUSH0 PUSH1 0x4 MSTORE PUSH1 0x24 PUSH0 REVERT JUMPDEST ADD MLOAD SWAP1 POP PUSH0 DUP1 PUSH2 0x12C JUMP JUMPDEST PUSH1 0x1F NOT DUP3 AND SWAP4 PUSH1 0x4 PUSH0 MSTORE DUP1 PUSH0 KECCAK256 SWAP2 PUSH0 JUMPDEST DUP7 DUP2 LT PUSH2 0x2AF JUMPI POP DUP4 PUSH1 0x1 SWAP6 SWAP7 LT PUSH2 0x297 JUMPI JUMPDEST POP POP POP DUP2 SHL ADD PUSH1 0x4 SSTORE PUSH2 0x141 JUMP JUMPDEST ADD MLOAD PUSH0 NOT PUSH1 0xF8 DUP5 PUSH1 0x3 SHL AND SHR NOT AND SWAP1 SSTORE PUSH0 DUP1 DUP1 PUSH2 0x289 JUMP JUMPDEST SWAP2 SWAP3 PUSH1 0x20 PUSH1 0x1 DUP2 SWAP3 DUP7 DUP6 ADD MLOAD DUP2 SSTORE ADD SWAP5 ADD SWAP3 ADD PUSH2 0x276 JUMP JUMPDEST PUSH1 0x4 PUSH0 MSTORE PUSH32 0x8A35ACFBC15FF81A39AE7D344FD709F28E8600B4AA8C65C6B64BFE7FE36BD19B PUSH1 0x1F DUP4 ADD PUSH1 0x5 SHR DUP2 ADD SWAP2 PUSH1 0x20 DUP5 LT PUSH2 0x320 JUMPI JUMPDEST PUSH1 0x1F ADD PUSH1 0x5 SHR ADD SWAP1 JUMPDEST DUP2 DUP2 LT PUSH2 0x315 JUMPI POP PUSH2 0x112 JUMP JUMPDEST PUSH0 DUP2 SSTORE PUSH1 0x1 ADD PUSH2 0x308 JUMP JUMPDEST SWAP1 SWAP2 POP DUP2 SWAP1 PUSH2 0x2FF JUMP JUMPDEST PUSH4 0x4E487B71 PUSH1 0xE0 SHL PUSH0 MSTORE PUSH1 0x22 PUSH1 0x4 MSTORE PUSH1 0x24 PUSH0 REVERT JUMPDEST SWAP1 PUSH1 0x7F AND SWAP1 PUSH2 0x100 JUMP JUMPDEST PUSH4 0x4E487B71 PUSH1 0xE0 SHL PUSH0 MSTORE PUSH1 0x41 PUSH1 0x4 MSTORE PUSH1 0x24 PUSH0 REVERT JUMPDEST ADD MLOAD SWAP1 POP PUSH0 DUP1 PUSH2 0xCA JUMP JUMPDEST PUSH1 0x1F NOT DUP3 AND SWAP1 PUSH1 0x3 PUSH0 MSTORE DUP1 PUSH0 KECCAK256 SWAP2 PUSH0 JUMPDEST DUP2 DUP2 LT PUSH2 0x3B2 JUMPI POP SWAP6 DUP4 PUSH1 0x1 SWAP6 SWAP7 SWAP8 LT PUSH2 0x39A JUMPI JUMPDEST POP POP POP DUP2 SHL ADD PUSH1 0x3 SSTORE PUSH2 0xDF JUMP JUMPDEST ADD MLOAD PUSH0 NOT PUSH1 0xF8 DUP5 PUSH1 0x3 SHL AND SHR NOT AND SWAP1 SSTORE PUSH0 DUP1 DUP1 PUSH2 0x38C JUMP JUMPDEST SWAP2 SWAP3 PUSH1 0x20 PUSH1 0x1 DUP2 SWAP3 DUP7 DUP12 ADD MLOAD DUP2 SSTORE ADD SWAP5 ADD SWAP3 ADD PUSH2 0x377 JUMP JUMPDEST PUSH1 0x3 PUSH0 MSTORE PUSH32 0xC2575A0E9E593C00F959F8C92F12DB2869C3395A3B0502D05E2516446F71F85B PUSH1 0x1F DUP4 ADD PUSH1 0x5 SHR DUP2 ADD SWAP2 PUSH1 0x20 DUP5 LT PUSH2 0x423 JUMPI JUMPDEST PUSH1 0x1F ADD PUSH1 0x5 SHR ADD SWAP1 JUMPDEST DUP2 DUP2 LT PUSH2 0x418 JUMPI POP PUSH2 0xB1 JUMP JUMPDEST PUSH0 DUP2 SSTORE PUSH1 0x1 ADD PUSH2 0x40B JUMP JUMPDEST SWAP1 SWAP2 POP DUP2 SWAP1 PUSH2 0x402 JUMP JUMPDEST SWAP1 PUSH1 0x7F AND SWAP1 PUSH2 0x9F JUMP JUMPDEST PUSH0 DUP1 REVERT JUMPDEST PUSH1 0x40 MLOAD SWAP2 SWAP1 PUSH1 0x1F ADD PUSH1 0x1F NOT AND DUP3 ADD PUSH1 0x1 PUSH1 0x1 PUSH1 0x40 SHL SUB DUP2 GT DUP4 DUP3 LT OR PUSH2 0x348 JUMPI PUSH1 0x40 MSTORE JUMP INVALID PUSH1 0x80 DUP1 PUSH1 0x40 MSTORE PUSH1 0x4 CALLDATASIZE LT ISZERO PUSH2 0x12 JUMPI PUSH0 DUP1 REVERT JUMPDEST PUSH0 CALLDATALOAD PUSH1 0xE0 SHR SWAP1 DUP2 PUSH4 0x68BCD8D EQ PUSH2 0x143F JUMPI POP DUP1 PUSH4 0x6FDDE03 EQ PUSH2 0x139A JUMPI DUP1 PUSH4 0x95EA7B3 EQ PUSH2 0x1318 JUMPI DUP1 PUSH4 0xE88D464 EQ PUSH2 0x1097 JUMPI DUP1 PUSH4 0x18160DDD EQ PUSH2 0x107A JUMPI DUP1 PUSH4 0x23B872DD EQ PUSH2 0xF9B JUMPI DUP1 PUSH4 0x313CE567 EQ PUSH2 0xF80 JUMPI DUP1 PUSH4 0x34E7A19F EQ PUSH2 0xC78 JUMPI DUP1 PUSH4 0x3D891F59 EQ PUSH2 0xC34 JUMPI DUP1 PUSH4 0x4F01C6F2 EQ PUSH2 0x8C2 JUMPI DUP1 PUSH4 0x68194719 EQ PUSH2 0x879 JUMPI DUP1 PUSH4 0x70A08231 EQ PUSH2 0x842 JUMPI DUP1 PUSH4 0x715018A6 EQ PUSH2 0x7E7 JUMPI DUP1 PUSH4 0x827C7889 EQ PUSH2 0x799 JUMPI DUP1 PUSH4 0x86AE5FEC EQ PUSH2 0x76C JUMPI DUP1 PUSH4 0x8DA5CB5B EQ PUSH2 0x744 JUMPI DUP1 PUSH4 0x95D89B41 EQ PUSH2 0x662 JUMPI DUP1 PUSH4 0xA9059CBB EQ PUSH2 0x631 JUMPI DUP1 PUSH4 0xA98AD46C EQ PUSH2 0x5ED JUMPI DUP1 PUSH4 0xAC4AFA38 EQ PUSH2 0x519 JUMPI DUP1 PUSH4 0xC1E3BD3E EQ PUSH2 0x4A2 JUMPI DUP1 PUSH4 0xC5A1F434 EQ PUSH2 0x2DF JUMPI DUP1 PUSH4 0xCC936E77 EQ PUSH2 0x2B9 JUMPI DUP1 PUSH4 0xDD62ED3E EQ PUSH2 0x269 JUMPI DUP1 PUSH4 0xE6FA0209 EQ PUSH2 0x240 JUMPI DUP1 PUSH4 0xED476295 EQ PUSH2 0x1F7 JUMPI DUP1 PUSH4 0xF2FDE38B EQ PUSH2 0x171 JUMPI PUSH4 0xF525CB68 EQ PUSH2 0x150 JUMPI PUSH0 DUP1 REVERT JUMPDEST CALLVALUE PUSH2 0x16D JUMPI PUSH0 CALLDATASIZE PUSH1 0x3 NOT ADD SLT PUSH2 0x16D JUMPI PUSH1 0x20 PUSH1 0x7 SLOAD PUSH1 0x40 MLOAD SWAP1 DUP2 MSTORE RETURN JUMPDEST PUSH0 DUP1 REVERT JUMPDEST CALLVALUE PUSH2 0x16D JUMPI PUSH1 0x20 CALLDATASIZE PUSH1 0x3 NOT ADD SLT PUSH2 0x16D JUMPI PUSH2 0x18A PUSH2 0x16A2 JUMP JUMPDEST PUSH2 0x192 PUSH2 0x1BC8 JUMP JUMPDEST PUSH1 0x1 PUSH1 0x1 PUSH1 0xA0 SHL SUB AND DUP1 ISZERO PUSH2 0x1E4 JUMPI PUSH1 0x5 DUP1 SLOAD PUSH1 0x1 PUSH1 0x1 PUSH1 0xA0 SHL SUB NOT DUP2 AND DUP4 OR SWAP1 SWAP2 SSTORE PUSH1 0x1 PUSH1 0x1 PUSH1 0xA0 SHL SUB AND PUSH32 0x8BE0079C531659141344CD1FD0A4F28419497F9722A3DAAFE3B4186F6B6457E0 PUSH0 DUP1 LOG3 STOP JUMPDEST PUSH4 0x1E4FBDF7 PUSH1 0xE0 SHL PUSH0 MSTORE PUSH0 PUSH1 0x4 MSTORE PUSH1 0x24 PUSH0 REVERT JUMPDEST CALLVALUE PUSH2 0x16D JUMPI PUSH1 0x40 CALLDATASIZE PUSH1 0x3 NOT ADD SLT PUSH2 0x16D JUMPI PUSH2 0x210 PUSH2 0x16B8 JUMP JUMPDEST PUSH1 0x4 CALLDATALOAD PUSH0 MSTORE PUSH1 0xB PUSH1 0x20 MSTORE PUSH1 0x40 PUSH0 KECCAK256 SWAP1 PUSH1 0x1 DUP1 PUSH1 0xA0 SHL SUB AND PUSH0 MSTORE PUSH1 0x20 MSTORE PUSH1 0x20 PUSH1 0xFF PUSH1 0x40 PUSH0 KECCAK256 SLOAD AND PUSH1 0x40 MLOAD SWAP1 ISZERO ISZERO DUP2 MSTORE RETURN JUMPDEST CALLVALUE PUSH2 0x16D JUMPI PUSH1 0x40 CALLDATASIZE PUSH1 0x3 NOT ADD SLT PUSH2 0x16D JUMPI PUSH2 0x259 PUSH2 0x1BC8 JUMP JUMPDEST PUSH2 0x267 PUSH1 0x24 CALLDATALOAD PUSH1 0x4 CALLDATALOAD PUSH2 0x1947 JUMP JUMPDEST STOP JUMPDEST CALLVALUE PUSH2 0x16D JUMPI PUSH1 0x40 CALLDATASIZE PUSH1 0x3 NOT ADD SLT PUSH2 0x16D JUMPI PUSH2 0x282 PUSH2 0x16A2 JUMP JUMPDEST PUSH2 0x28A PUSH2 0x16B8 JUMP JUMPDEST PUSH1 0x1 PUSH1 0x1 PUSH1 0xA0 SHL SUB SWAP2 DUP3 AND PUSH0 SWAP1 DUP2 MSTORE PUSH1 0x1 PUSH1 0x20 SWAP1 DUP2 MSTORE PUSH1 0x40 DUP1 DUP4 KECCAK256 SWAP5 SWAP1 SWAP4 AND DUP3 MSTORE SWAP3 DUP4 MSTORE DUP2 SWAP1 KECCAK256 SLOAD SWAP1 MLOAD SWAP1 DUP2 MSTORE RETURN JUMPDEST CALLVALUE PUSH2 0x16D JUMPI PUSH0 CALLDATASIZE PUSH1 0x3 NOT ADD SLT PUSH2 0x16D JUMPI PUSH1 0x20 PUSH1 0x40 MLOAD PUSH12 0x33B2E3C9FD0803CE8000000 DUP2 MSTORE RETURN JUMPDEST CALLVALUE PUSH2 0x16D JUMPI PUSH1 0x20 CALLDATASIZE PUSH1 0x3 NOT ADD SLT PUSH2 0x16D JUMPI PUSH1 0x4 CALLDATALOAD PUSH2 0x2FB PUSH2 0x1BC8 JUMP JUMPDEST DUP1 PUSH0 MSTORE PUSH1 0x8 PUSH1 0x20 MSTORE PUSH1 0x40 PUSH0 KECCAK256 PUSH1 0x1 DUP2 ADD PUSH1 0xFF DUP2 SLOAD PUSH1 0x8 SHR AND PUSH1 0x3 DUP2 LT ISZERO PUSH2 0x48E JUMPI PUSH2 0x326 SWAP1 ISZERO PUSH2 0x1836 JUMP JUMPDEST PUSH1 0x8 DUP3 ADD SLOAD PUSH1 0x1 PUSH1 0x1 PUSH1 0xA0 SHL SUB AND ISZERO PUSH2 0x454 JUMPI DUP1 SLOAD PUSH2 0xFF00 NOT AND PUSH2 0x100 OR SWAP1 SSTORE PUSH1 0x5 SLOAD PUSH1 0x7 SWAP1 SWAP2 ADD SLOAD PUSH1 0x40 MLOAD PUSH4 0xA9059CBB PUSH1 0xE0 SHL DUP2 MSTORE PUSH1 0x1 PUSH1 0x1 PUSH1 0xA0 SHL SUB SWAP3 SWAP1 SWAP3 AND PUSH1 0x4 DUP4 ADD MSTORE PUSH1 0x24 DUP3 ADD MSTORE PUSH1 0x20 DUP2 DUP1 PUSH1 0x44 DUP2 ADD SUB DUP2 PUSH0 PUSH32 0x0 PUSH1 0x1 PUSH1 0x1 PUSH1 0xA0 SHL SUB AND GAS CALL SWAP1 DUP2 ISZERO PUSH2 0x449 JUMPI PUSH0 SWAP2 PUSH2 0x41A JUMPI JUMPDEST POP ISZERO PUSH2 0x3E3 JUMPI PUSH32 0x7ED2D5BDF35D4CB790F65D053DE7890F1B4A687AC689CA56C23730833531DEB0 PUSH0 DUP1 LOG2 STOP JUMPDEST PUSH1 0x40 MLOAD PUSH3 0x461BCD PUSH1 0xE5 SHL DUP2 MSTORE PUSH1 0x20 PUSH1 0x4 DUP3 ADD MSTORE PUSH1 0xF PUSH1 0x24 DUP3 ADD MSTORE PUSH15 0x151C985B9CD9995C8819985A5B1959 PUSH1 0x8A SHL PUSH1 0x44 DUP3 ADD MSTORE PUSH1 0x64 SWAP1 REVERT JUMPDEST PUSH2 0x43C SWAP2 POP PUSH1 0x20 RETURNDATASIZE PUSH1 0x20 GT PUSH2 0x442 JUMPI JUMPDEST PUSH2 0x434 DUP2 DUP4 PUSH2 0x16EB JUMP JUMPDEST DUP2 ADD SWAP1 PUSH2 0x1874 JUMP JUMPDEST DUP3 PUSH2 0x3B7 JUMP JUMPDEST POP RETURNDATASIZE PUSH2 0x42A JUMP JUMPDEST PUSH1 0x40 MLOAD RETURNDATASIZE PUSH0 DUP3 RETURNDATACOPY RETURNDATASIZE SWAP1 REVERT JUMPDEST PUSH1 0x40 MLOAD PUSH3 0x461BCD PUSH1 0xE5 SHL DUP2 MSTORE PUSH1 0x20 PUSH1 0x4 DUP3 ADD MSTORE PUSH1 0x12 PUSH1 0x24 DUP3 ADD MSTORE PUSH18 0x139BC81DDA5B9B995C881CD95B1958DD1959 PUSH1 0x72 SHL PUSH1 0x44 DUP3 ADD MSTORE PUSH1 0x64 SWAP1 REVERT JUMPDEST PUSH4 0x4E487B71 PUSH1 0xE0 SHL PUSH0 MSTORE PUSH1 0x21 PUSH1 0x4 MSTORE PUSH1 0x24 PUSH0 REVERT JUMPDEST CALLVALUE PUSH2 0x16D JUMPI PUSH1 0x20 CALLDATASIZE PUSH1 0x3 NOT ADD SLT PUSH2 0x16D JUMPI PUSH1 0x4 CALLDATALOAD PUSH0 MSTORE PUSH1 0x8 PUSH1 0x20 MSTORE PUSH2 0x4CC PUSH1 0x9 PUSH1 0x40 PUSH0 KECCAK256 ADD PUSH2 0x17E5 JUMP JUMPDEST PUSH1 0x40 MLOAD DUP1 SWAP2 PUSH1 0x20 DUP3 ADD PUSH1 0x20 DUP4 MSTORE DUP2 MLOAD DUP1 SWAP2 MSTORE PUSH1 0x20 PUSH1 0x40 DUP5 ADD SWAP3 ADD SWAP1 PUSH0 JUMPDEST DUP2 DUP2 LT PUSH2 0x4F7 JUMPI POP POP POP SUB SWAP1 RETURN JUMPDEST DUP3 MLOAD PUSH1 0x1 PUSH1 0x1 PUSH1 0xA0 SHL SUB AND DUP5 MSTORE DUP6 SWAP5 POP PUSH1 0x20 SWAP4 DUP5 ADD SWAP4 SWAP1 SWAP3 ADD SWAP2 PUSH1 0x1 ADD PUSH2 0x4E9 JUMP JUMPDEST CALLVALUE PUSH2 0x16D JUMPI PUSH1 0x20 CALLDATASIZE PUSH1 0x3 NOT ADD SLT PUSH2 0x16D JUMPI PUSH1 0x4 CALLDATALOAD PUSH0 MSTORE PUSH1 0x8 PUSH1 0x20 MSTORE PUSH1 0x40 PUSH0 KECCAK256 DUP1 SLOAD PUSH1 0x1 DUP3 ADD SLOAD SWAP2 PUSH2 0x54C PUSH1 0x2 DUP3 ADD PUSH2 0x1745 JUMP JUMPDEST PUSH1 0x3 DUP3 ADD SLOAD SWAP2 PUSH1 0x4 DUP2 ADD SLOAD PUSH1 0x5 DUP3 ADD SLOAD PUSH1 0x6 DUP4 ADD SLOAD SWAP2 PUSH2 0x5C7 PUSH1 0x7 DUP6 ADD SLOAD SWAP5 PUSH1 0x8 PUSH1 0x1 DUP1 PUSH1 0xA0 SHL SUB SWAP2 ADD SLOAD AND SWAP6 PUSH1 0x40 MLOAD SWAP10 DUP11 SWAP10 DUP11 MSTORE PUSH2 0x591 PUSH1 0x20 DUP12 ADD PUSH1 0xFF DUP4 AND PUSH2 0x1664 JUMP JUMPDEST PUSH2 0x5A4 PUSH1 0x40 DUP12 ADD PUSH1 0xFF DUP4 PUSH1 0x8 SHR AND PUSH2 0x1671 JUMP JUMPDEST PUSH1 0x10 SHR PUSH1 0x1 PUSH1 0x1 PUSH1 0xA0 SHL SUB AND PUSH1 0x60 DUP11 ADD MSTORE PUSH2 0x160 PUSH1 0x80 DUP11 ADD DUP2 SWAP1 MSTORE DUP10 ADD SWAP1 PUSH2 0x167E JUMP JUMPDEST SWAP6 PUSH1 0xA0 DUP9 ADD MSTORE PUSH1 0xC0 DUP8 ADD MSTORE PUSH1 0xE0 DUP7 ADD MSTORE PUSH2 0x100 DUP6 ADD MSTORE PUSH2 0x120 DUP5 ADD MSTORE PUSH2 0x140 DUP4 ADD MSTORE SUB SWAP1 RETURN JUMPDEST CALLVALUE PUSH2 0x16D JUMPI PUSH0 CALLDATASIZE PUSH1 0x3 NOT ADD SLT PUSH2 0x16D JUMPI PUSH1 0x40 MLOAD PUSH32 0x0 PUSH1 0x1 PUSH1 0x1 PUSH1 0xA0 SHL SUB AND DUP2 MSTORE PUSH1 0x20 SWAP1 RETURN JUMPDEST CALLVALUE PUSH2 0x16D JUMPI PUSH1 0x40 CALLDATASIZE PUSH1 0x3 NOT ADD SLT PUSH2 0x16D JUMPI PUSH2 0x657 PUSH2 0x64D PUSH2 0x16A2 JUMP JUMPDEST PUSH1 0x24 CALLDATALOAD SWAP1 CALLER PUSH2 0x1A8E JUMP JUMPDEST PUSH1 0x20 PUSH1 0x40 MLOAD PUSH1 0x1 DUP2 MSTORE RETURN JUMPDEST CALLVALUE PUSH2 0x16D JUMPI PUSH0 CALLDATASIZE PUSH1 0x3 NOT ADD SLT PUSH2 0x16D JUMPI PUSH1 0x40 MLOAD PUSH0 PUSH1 0x4 SLOAD PUSH2 0x682 DUP2 PUSH2 0x170D JUMP JUMPDEST DUP1 DUP5 MSTORE SWAP1 PUSH1 0x1 DUP2 AND SWAP1 DUP2 ISZERO PUSH2 0x720 JUMPI POP PUSH1 0x1 EQ PUSH2 0x6C2 JUMPI JUMPDEST PUSH2 0x6BE DUP4 PUSH2 0x6AA DUP2 DUP6 SUB DUP3 PUSH2 0x16EB JUMP JUMPDEST PUSH1 0x40 MLOAD SWAP2 DUP3 SWAP2 PUSH1 0x20 DUP4 MSTORE PUSH1 0x20 DUP4 ADD SWAP1 PUSH2 0x167E JUMP JUMPDEST SUB SWAP1 RETURN JUMPDEST PUSH1 0x4 PUSH0 SWAP1 DUP2 MSTORE PUSH32 0x8A35ACFBC15FF81A39AE7D344FD709F28E8600B4AA8C65C6B64BFE7FE36BD19B SWAP4 SWAP3 POP SWAP1 JUMPDEST DUP1 DUP3 LT PUSH2 0x706 JUMPI POP SWAP1 SWAP2 POP DUP2 ADD PUSH1 0x20 ADD PUSH2 0x6AA PUSH2 0x69A JUMP JUMPDEST SWAP2 SWAP3 PUSH1 0x1 DUP2 PUSH1 0x20 SWAP3 SLOAD DUP4 DUP6 DUP9 ADD ADD MSTORE ADD SWAP2 ADD SWAP1 SWAP3 SWAP2 PUSH2 0x6EE JUMP JUMPDEST PUSH1 0xFF NOT AND PUSH1 0x20 DUP1 DUP7 ADD SWAP2 SWAP1 SWAP2 MSTORE SWAP2 ISZERO ISZERO PUSH1 0x5 SHL DUP5 ADD SWAP1 SWAP2 ADD SWAP2 POP PUSH2 0x6AA SWAP1 POP PUSH2 0x69A JUMP JUMPDEST CALLVALUE PUSH2 0x16D JUMPI PUSH0 CALLDATASIZE PUSH1 0x3 NOT ADD SLT PUSH2 0x16D JUMPI PUSH1 0x5 SLOAD PUSH1 0x40 MLOAD PUSH1 0x1 PUSH1 0x1 PUSH1 0xA0 SHL SUB SWAP1 SWAP2 AND DUP2 MSTORE PUSH1 0x20 SWAP1 RETURN JUMPDEST CALLVALUE PUSH2 0x16D JUMPI PUSH1 0x20 CALLDATASIZE PUSH1 0x3 NOT ADD SLT PUSH2 0x16D JUMPI PUSH1 0x4 CALLDATALOAD PUSH0 MSTORE PUSH1 0x8 PUSH1 0x20 MSTORE PUSH1 0x20 PUSH1 0x9 PUSH1 0x40 PUSH0 KECCAK256 ADD SLOAD PUSH1 0x40 MLOAD SWAP1 DUP2 MSTORE RETURN JUMPDEST CALLVALUE PUSH2 0x16D JUMPI PUSH1 0x20 CALLDATASIZE PUSH1 0x3 NOT ADD SLT PUSH2 0x16D JUMPI PUSH1 0x4 CALLDATALOAD PUSH2 0x7B5 PUSH2 0x1BC8 JUMP JUMPDEST DUP1 PUSH0 MSTORE PUSH1 0x8 PUSH1 0x20 MSTORE PUSH1 0xFF PUSH1 0x1 PUSH1 0x40 PUSH0 KECCAK256 ADD SLOAD PUSH1 0x8 SHR AND SWAP1 PUSH1 0x3 DUP3 LT ISZERO PUSH2 0x48E JUMPI PUSH2 0x7E2 PUSH2 0x267 SWAP3 ISZERO PUSH2 0x1836 JUMP JUMPDEST PUSH2 0x1BEF JUMP JUMPDEST CALLVALUE PUSH2 0x16D JUMPI PUSH0 CALLDATASIZE PUSH1 0x3 NOT ADD SLT PUSH2 0x16D JUMPI PUSH2 0x7FF PUSH2 0x1BC8 JUMP JUMPDEST PUSH1 0x5 DUP1 SLOAD PUSH1 0x1 PUSH1 0x1 PUSH1 0xA0 SHL SUB NOT DUP2 AND SWAP1 SWAP2 SSTORE PUSH0 SWAP1 PUSH1 0x1 PUSH1 0x1 PUSH1 0xA0 SHL SUB AND PUSH32 0x8BE0079C531659141344CD1FD0A4F28419497F9722A3DAAFE3B4186F6B6457E0 DUP3 DUP1 LOG3 STOP JUMPDEST CALLVALUE PUSH2 0x16D JUMPI PUSH1 0x20 CALLDATASIZE PUSH1 0x3 NOT ADD SLT PUSH2 0x16D JUMPI PUSH1 0x1 PUSH1 0x1 PUSH1 0xA0 SHL SUB PUSH2 0x863 PUSH2 0x16A2 JUMP JUMPDEST AND PUSH0 MSTORE PUSH0 PUSH1 0x20 MSTORE PUSH1 0x20 PUSH1 0x40 PUSH0 KECCAK256 SLOAD PUSH1 0x40 MLOAD SWAP1 DUP2 MSTORE RETURN JUMPDEST CALLVALUE PUSH2 0x16D JUMPI PUSH1 0x40 CALLDATASIZE PUSH1 0x3 NOT ADD SLT PUSH2 0x16D JUMPI PUSH2 0x892 PUSH2 0x16B8 JUMP JUMPDEST PUSH1 0x4 CALLDATALOAD PUSH0 MSTORE PUSH1 0x9 PUSH1 0x20 MSTORE PUSH1 0x40 PUSH0 KECCAK256 SWAP1 PUSH1 0x1 DUP1 PUSH1 0xA0 SHL SUB AND PUSH0 MSTORE PUSH1 0x20 MSTORE PUSH1 0x20 PUSH1 0xFF PUSH1 0x40 PUSH0 KECCAK256 SLOAD AND PUSH1 0x40 MLOAD SWAP1 ISZERO ISZERO DUP2 MSTORE RETURN JUMPDEST CALLVALUE PUSH2 0x16D JUMPI PUSH1 0x20 CALLDATASIZE PUSH1 0x3 NOT ADD SLT PUSH2 0x16D JUMPI PUSH1 0x4 CALLDATALOAD PUSH2 0x8DE PUSH2 0x1B4B JUMP JUMPDEST DUP1 PUSH0 MSTORE PUSH1 0x8 PUSH1 0x20 MSTORE PUSH1 0x40 PUSH0 KECCAK256 SWAP1 PUSH1 0x1 DUP3 ADD SLOAD PUSH1 0xFF DUP2 AND PUSH1 0x2 DUP2 LT ISZERO PUSH2 0x48E JUMPI PUSH1 0x1 SUB PUSH2 0xBEF JUMPI PUSH1 0x8 SHR PUSH1 0xFF AND PUSH1 0x3 DUP2 LT ISZERO PUSH2 0x48E JUMPI PUSH1 0x1 SUB PUSH2 0xBB1 JUMPI PUSH0 DUP2 DUP2 MSTORE PUSH1 0x9 PUSH1 0x20 SWAP1 DUP2 MSTORE PUSH1 0x40 DUP1 DUP4 KECCAK256 CALLER DUP5 MSTORE SWAP1 SWAP2 MSTORE SWAP1 KECCAK256 SLOAD PUSH1 0xFF AND ISZERO PUSH2 0xB78 JUMPI PUSH0 DUP2 DUP2 MSTORE PUSH1 0xB PUSH1 0x20 SWAP1 DUP2 MSTORE PUSH1 0x40 DUP1 DUP4 KECCAK256 CALLER DUP5 MSTORE SWAP1 SWAP2 MSTORE SWAP1 KECCAK256 SLOAD PUSH1 0xFF AND PUSH2 0xB33 JUMPI PUSH1 0x6 DUP3 ADD SLOAD TIMESTAMP LT ISZERO PUSH2 0xAEE JUMPI PUSH1 0x4 DUP3 ADD SLOAD PUSH1 0x3 DUP4 ADD SLOAD SWAP1 DUP2 DUP2 SUB SWAP4 DUP2 DUP6 GT PUSH2 0xABB JUMPI PUSH1 0x40 MLOAD PUSH4 0x23B872DD PUSH1 0xE0 SHL DUP2 MSTORE CALLER PUSH1 0x4 DUP3 ADD MSTORE ADDRESS PUSH1 0x24 DUP3 ADD MSTORE PUSH1 0x44 DUP2 ADD DUP7 SWAP1 MSTORE SWAP1 PUSH1 0x20 DUP3 PUSH1 0x64 DUP2 PUSH0 PUSH1 0x1 PUSH1 0x1 PUSH1 0xA0 SHL SUB PUSH32 0x0 AND GAS CALL SWAP2 DUP3 ISZERO PUSH2 0x449 JUMPI PUSH1 0x7 SWAP3 PUSH2 0x9EC SWAP2 PUSH0 SWAP2 PUSH2 0xACF JUMPI JUMPDEST POP PUSH2 0x188C JUMP JUMPDEST PUSH0 DUP6 DUP2 MSTORE PUSH1 0xB PUSH1 0x20 SWAP1 DUP2 MSTORE PUSH1 0x40 DUP1 DUP4 KECCAK256 CALLER DUP1 DUP6 MSTORE SWAP1 DUP4 MSTORE DUP2 DUP5 KECCAK256 DUP1 SLOAD PUSH1 0xFF NOT AND PUSH1 0x1 OR SWAP1 SSTORE DUP9 DUP5 MSTORE PUSH1 0xA DUP4 MSTORE DUP2 DUP5 KECCAK256 SWAP1 DUP5 MSTORE SWAP1 SWAP2 MSTORE SWAP1 KECCAK256 DUP1 SLOAD PUSH2 0xA30 SWAP1 DUP9 SWAP1 PUSH2 0x18F8 JUMP JUMPDEST SWAP1 SSTORE ADD PUSH2 0xA3E DUP6 DUP3 SLOAD PUSH2 0x18F8 JUMP JUMPDEST SWAP1 SSTORE PUSH5 0xE8D4A51000 DUP5 MUL SWAP2 DUP5 DUP4 DIV PUSH5 0xE8D4A51000 EQ SWAP2 EQ OR ISZERO PUSH2 0xABB JUMPI DUP1 PUSH2 0xA82 PUSH12 0x33B2E3C9FD0803CE8000000 PUSH2 0xA7B PUSH2 0xA88 SWAP5 PUSH1 0x2 SLOAD PUSH2 0x18F8 JUMP JUMPDEST GT ISZERO PUSH2 0x1905 JUMP JUMPDEST CALLER PUSH2 0x1B6B JUMP JUMPDEST PUSH1 0x40 MLOAD SWAP2 DUP3 MSTORE PUSH32 0x90FE20EC2825E11E06AFDCBF41B604101D2CE121C29C84E4F62D4BC1FDA709B9 PUSH1 0x20 CALLER SWAP4 LOG3 PUSH1 0x1 PUSH1 0x6 SSTORE STOP JUMPDEST PUSH4 0x4E487B71 PUSH1 0xE0 SHL PUSH0 MSTORE PUSH1 0x11 PUSH1 0x4 MSTORE PUSH1 0x24 PUSH0 REVERT JUMPDEST PUSH2 0xAE8 SWAP2 POP PUSH1 0x20 RETURNDATASIZE PUSH1 0x20 GT PUSH2 0x442 JUMPI PUSH2 0x434 DUP2 DUP4 PUSH2 0x16EB JUMP JUMPDEST DUP9 PUSH2 0x9E6 JUMP JUMPDEST PUSH1 0x40 MLOAD PUSH3 0x461BCD PUSH1 0xE5 SHL DUP2 MSTORE PUSH1 0x20 PUSH1 0x4 DUP3 ADD MSTORE PUSH1 0x17 PUSH1 0x24 DUP3 ADD MSTORE PUSH32 0x5061796D656E7420646561646C696E6520706173736564000000000000000000 PUSH1 0x44 DUP3 ADD MSTORE PUSH1 0x64 SWAP1 REVERT JUMPDEST PUSH1 0x40 MLOAD PUSH3 0x461BCD PUSH1 0xE5 SHL DUP2 MSTORE PUSH1 0x20 PUSH1 0x4 DUP3 ADD MSTORE PUSH1 0x19 PUSH1 0x24 DUP3 ADD MSTORE PUSH32 0x5061796D656E7420616C726561647920636F6D706C6574656400000000000000 PUSH1 0x44 DUP3 ADD MSTORE PUSH1 0x64 SWAP1 REVERT JUMPDEST PUSH1 0x40 MLOAD PUSH3 0x461BCD PUSH1 0xE5 SHL DUP2 MSTORE PUSH1 0x20 PUSH1 0x4 DUP3 ADD MSTORE PUSH1 0x11 PUSH1 0x24 DUP3 ADD MSTORE PUSH17 0x139BDD0818481C185C9D1A58DA5C185B9D PUSH1 0x7A SHL PUSH1 0x44 DUP3 ADD MSTORE PUSH1 0x64 SWAP1 REVERT JUMPDEST PUSH1 0x40 MLOAD PUSH3 0x461BCD PUSH1 0xE5 SHL DUP2 MSTORE PUSH1 0x20 PUSH1 0x4 DUP3 ADD MSTORE PUSH1 0x16 PUSH1 0x24 DUP3 ADD MSTORE PUSH22 0x141BDBDB081B9BDD08199A5B985B1A5E9959081E595D PUSH1 0x52 SHL PUSH1 0x44 DUP3 ADD MSTORE PUSH1 0x64 SWAP1 REVERT JUMPDEST PUSH1 0x40 MLOAD PUSH3 0x461BCD PUSH1 0xE5 SHL DUP2 MSTORE PUSH1 0x20 PUSH1 0x4 DUP3 ADD MSTORE PUSH1 0x1C PUSH1 0x24 DUP3 ADD MSTORE PUSH32 0x4F6E6C7920666F7220436F6D6D6974546F436C61696D20706F6F6C7300000000 PUSH1 0x44 DUP3 ADD MSTORE PUSH1 0x64 SWAP1 REVERT JUMPDEST CALLVALUE PUSH2 0x16D JUMPI PUSH1 0x40 CALLDATASIZE PUSH1 0x3 NOT ADD SLT PUSH2 0x16D JUMPI PUSH2 0xC4D PUSH2 0x16B8 JUMP JUMPDEST PUSH1 0x4 CALLDATALOAD PUSH0 MSTORE PUSH1 0xA PUSH1 0x20 MSTORE PUSH1 0x40 PUSH0 KECCAK256 SWAP1 PUSH1 0x1 DUP1 PUSH1 0xA0 SHL SUB AND PUSH0 MSTORE PUSH1 0x20 MSTORE PUSH1 0x20 PUSH1 0x40 PUSH0 KECCAK256 SLOAD PUSH1 0x40 MLOAD SWAP1 DUP2 MSTORE RETURN JUMPDEST CALLVALUE PUSH2 0x16D JUMPI PUSH1 0x20 CALLDATASIZE PUSH1 0x3 NOT ADD SLT PUSH2 0x16D JUMPI PUSH1 0x4 CALLDATALOAD PUSH2 0xC94 PUSH2 0x1B4B JUMP JUMPDEST DUP1 PUSH0 MSTORE PUSH1 0x8 PUSH1 0x20 MSTORE PUSH1 0x40 PUSH0 KECCAK256 SWAP1 DUP2 SLOAD ISZERO PUSH2 0xF45 JUMPI PUSH1 0xFF PUSH1 0x1 DUP4 ADD SLOAD PUSH1 0x8 SHR AND PUSH1 0x3 DUP2 LT ISZERO PUSH2 0x48E JUMPI PUSH2 0xCC6 SWAP1 ISZERO PUSH2 0x1836 JUMP JUMPDEST PUSH1 0x6 DUP3 ADD SLOAD TIMESTAMP LT ISZERO PUSH2 0xF11 JUMPI PUSH0 DUP2 DUP2 MSTORE PUSH1 0x9 PUSH1 0x20 SWAP1 DUP2 MSTORE PUSH1 0x40 DUP1 DUP4 KECCAK256 CALLER DUP5 MSTORE SWAP1 SWAP2 MSTORE SWAP1 KECCAK256 SLOAD PUSH1 0xFF AND PUSH2 0xEDB JUMPI PUSH1 0x9 DUP3 ADD DUP1 SLOAD PUSH1 0x5 DUP5 ADD SLOAD GT ISZERO PUSH2 0xEAA JUMPI PUSH1 0x3 DUP4 ADD SLOAD PUSH1 0x40 MLOAD PUSH4 0x23B872DD PUSH1 0xE0 SHL DUP2 MSTORE CALLER PUSH1 0x4 DUP3 ADD MSTORE ADDRESS PUSH1 0x24 DUP3 ADD MSTORE PUSH1 0x44 DUP2 ADD DUP3 SWAP1 MSTORE SWAP1 SWAP4 SWAP1 PUSH1 0x20 DUP2 PUSH1 0x64 DUP2 PUSH0 PUSH1 0x1 PUSH1 0x1 PUSH1 0xA0 SHL SUB PUSH32 0x0 AND GAS CALL DUP1 ISZERO PUSH2 0x449 JUMPI PUSH2 0xD74 SWAP2 PUSH0 SWAP2 PUSH2 0xE8B JUMPI POP PUSH2 0x188C JUMP JUMPDEST DUP2 SLOAD SWAP2 PUSH9 0x10000000000000000 DUP4 LT ISZERO PUSH2 0xE77 JUMPI DUP3 PUSH2 0xD9A SWAP2 PUSH1 0x1 PUSH1 0x7 SWAP6 ADD DUP2 SSTORE PUSH2 0x18CF JUMP JUMPDEST DUP2 SLOAD PUSH1 0x1 PUSH1 0x1 PUSH1 0xA0 SHL SUB PUSH1 0x3 SWAP3 SWAP1 SWAP3 SHL SWAP2 DUP3 SHL NOT AND CALLER SWAP2 DUP3 SWAP1 SHL OR SWAP1 SWAP2 SSTORE PUSH0 DUP5 DUP2 MSTORE PUSH1 0x9 PUSH1 0x20 SWAP1 DUP2 MSTORE PUSH1 0x40 DUP1 DUP4 KECCAK256 DUP5 DUP5 MSTORE DUP3 MSTORE DUP1 DUP4 KECCAK256 DUP1 SLOAD PUSH1 0xFF NOT AND PUSH1 0x1 OR SWAP1 SSTORE DUP7 DUP4 MSTORE PUSH1 0xA DUP3 MSTORE DUP1 DUP4 KECCAK256 SWAP4 DUP4 MSTORE SWAP3 SWAP1 MSTORE KECCAK256 DUP5 SWAP1 SSTORE ADD DUP1 SLOAD PUSH2 0xDFD SWAP1 DUP5 SWAP1 PUSH2 0x18F8 JUMP JUMPDEST SWAP1 SSTORE PUSH5 0xE8D4A51000 DUP3 MUL DUP3 DUP2 DIV PUSH5 0xE8D4A51000 EQ DUP4 ISZERO OR ISZERO PUSH2 0xABB JUMPI PUSH2 0xE35 PUSH12 0x33B2E3C9FD0803CE8000000 PUSH2 0xA7B DUP4 PUSH1 0x2 SLOAD PUSH2 0x18F8 JUMP JUMPDEST PUSH2 0xE3F DUP2 CALLER PUSH2 0x1B6B JUMP JUMPDEST PUSH1 0x40 MLOAD SWAP3 DUP4 MSTORE PUSH1 0x20 DUP4 ADD MSTORE PUSH32 0x9A215ECA654ACFB405DF5F8F7F472ECCECC6DC50A60EE8F4C6E8225F4BAB0CE3 PUSH1 0x40 CALLER SWAP4 LOG3 PUSH1 0x1 PUSH1 0x6 SSTORE STOP JUMPDEST PUSH4 0x4E487B71 PUSH1 0xE0 SHL PUSH0 MSTORE PUSH1 0x41 PUSH1 0x4 MSTORE PUSH1 0x24 PUSH0 REVERT JUMPDEST PUSH2 0xEA4 SWAP2 POP PUSH1 0x20 RETURNDATASIZE PUSH1 0x20 GT PUSH2 0x442 JUMPI PUSH2 0x434 DUP2 DUP4 PUSH2 0x16EB JUMP JUMPDEST DUP7 PUSH2 0x9E6 JUMP JUMPDEST PUSH1 0x40 MLOAD PUSH3 0x461BCD PUSH1 0xE5 SHL DUP2 MSTORE PUSH1 0x20 PUSH1 0x4 DUP3 ADD MSTORE PUSH1 0x9 PUSH1 0x24 DUP3 ADD MSTORE PUSH9 0x141BDBDB08199D5B1B PUSH1 0xBA SHL PUSH1 0x44 DUP3 ADD MSTORE PUSH1 0x64 SWAP1 REVERT JUMPDEST PUSH1 0x40 MLOAD PUSH3 0x461BCD PUSH1 0xE5 SHL DUP2 MSTORE PUSH1 0x20 PUSH1 0x4 DUP3 ADD MSTORE PUSH1 0xE PUSH1 0x24 DUP3 ADD MSTORE PUSH14 0x105B1C9958591E481A9BDA5B9959 PUSH1 0x92 SHL PUSH1 0x44 DUP3 ADD MSTORE PUSH1 0x64 SWAP1 REVERT JUMPDEST PUSH1 0x40 MLOAD PUSH3 0x461BCD PUSH1 0xE5 SHL DUP2 MSTORE PUSH1 0x20 PUSH1 0x4 DUP3 ADD MSTORE PUSH1 0xC PUSH1 0x24 DUP3 ADD MSTORE PUSH12 0x141BDBDB08195E1C1A5C9959 PUSH1 0xA2 SHL PUSH1 0x44 DUP3 ADD MSTORE PUSH1 0x64 SWAP1 REVERT JUMPDEST PUSH1 0x40 MLOAD PUSH3 0x461BCD PUSH1 0xE5 SHL DUP2 MSTORE PUSH1 0x20 PUSH1 0x4 DUP3 ADD MSTORE PUSH1 0x13 PUSH1 0x24 DUP3 ADD MSTORE PUSH19 0x141BDBDB08191BD95CC81B9BDD08195E1A5CDD PUSH1 0x6A SHL PUSH1 0x44 DUP3 ADD MSTORE PUSH1 0x64 SWAP1 REVERT JUMPDEST CALLVALUE PUSH2 0x16D JUMPI PUSH0 CALLDATASIZE PUSH1 0x3 NOT ADD SLT PUSH2 0x16D JUMPI PUSH1 0x20 PUSH1 0x40 MLOAD PUSH1 0x12 DUP2 MSTORE RETURN JUMPDEST CALLVALUE PUSH2 0x16D JUMPI PUSH1 0x60 CALLDATASIZE PUSH1 0x3 NOT ADD SLT PUSH2 0x16D JUMPI PUSH2 0xFB4 PUSH2 0x16A2 JUMP JUMPDEST PUSH2 0xFBC PUSH2 0x16B8 JUMP JUMPDEST PUSH1 0x1 PUSH1 0x1 PUSH1 0xA0 SHL SUB DUP3 AND PUSH0 DUP2 DUP2 MSTORE PUSH1 0x1 PUSH1 0x20 SWAP1 DUP2 MSTORE PUSH1 0x40 DUP1 DUP4 KECCAK256 CALLER DUP5 MSTORE SWAP1 SWAP2 MSTORE SWAP1 KECCAK256 SLOAD SWAP1 SWAP3 PUSH1 0x44 CALLDATALOAD SWAP3 SWAP2 PUSH0 NOT DUP2 LT PUSH2 0xFFA JUMPI JUMPDEST POP PUSH2 0x657 SWAP4 POP PUSH2 0x1A8E JUMP JUMPDEST DUP4 DUP2 LT PUSH2 0x105F JUMPI DUP5 ISZERO PUSH2 0x104C JUMPI CALLER ISZERO PUSH2 0x1039 JUMPI PUSH2 0x657 SWAP5 PUSH0 MSTORE PUSH1 0x1 PUSH1 0x20 MSTORE PUSH1 0x40 PUSH0 KECCAK256 PUSH1 0x1 DUP1 PUSH1 0xA0 SHL SUB CALLER AND PUSH0 MSTORE PUSH1 0x20 MSTORE DUP4 PUSH1 0x40 PUSH0 KECCAK256 SWAP2 SUB SWAP1 SSTORE DUP5 PUSH2 0xFEF JUMP JUMPDEST PUSH4 0x4A1406B1 PUSH1 0xE1 SHL PUSH0 MSTORE PUSH0 PUSH1 0x4 MSTORE PUSH1 0x24 PUSH0 REVERT JUMPDEST PUSH4 0xE602DF05 PUSH1 0xE0 SHL PUSH0 MSTORE PUSH0 PUSH1 0x4 MSTORE PUSH1 0x24 PUSH0 REVERT JUMPDEST DUP4 SWAP1 PUSH4 0x7DC7A0D9 PUSH1 0xE1 SHL PUSH0 MSTORE CALLER PUSH1 0x4 MSTORE PUSH1 0x24 MSTORE PUSH1 0x44 MSTORE PUSH1 0x64 PUSH0 REVERT JUMPDEST CALLVALUE PUSH2 0x16D JUMPI PUSH0 CALLDATASIZE PUSH1 0x3 NOT ADD SLT PUSH2 0x16D JUMPI PUSH1 0x20 PUSH1 0x2 SLOAD PUSH1 0x40 MLOAD SWAP1 DUP2 MSTORE RETURN JUMPDEST CALLVALUE PUSH2 0x16D JUMPI PUSH1 0xC0 CALLDATASIZE PUSH1 0x3 NOT ADD SLT PUSH2 0x16D JUMPI PUSH1 0x4 CALLDATALOAD PUSH1 0x2 DUP2 LT ISZERO PUSH2 0x16D JUMPI PUSH1 0x24 CALLDATALOAD SWAP1 PUSH8 0xFFFFFFFFFFFFFFFF DUP3 GT PUSH2 0x16D JUMPI CALLDATASIZE PUSH1 0x23 DUP4 ADD SLT ISZERO PUSH2 0x16D JUMPI DUP2 PUSH1 0x4 ADD CALLDATALOAD PUSH8 0xFFFFFFFFFFFFFFFF DUP2 GT PUSH2 0xE77 JUMPI PUSH1 0x40 MLOAD SWAP3 PUSH2 0x10FE PUSH1 0x1F DUP4 ADD PUSH1 0x1F NOT AND PUSH1 0x20 ADD DUP6 PUSH2 0x16EB JUMP JUMPDEST DUP2 DUP5 MSTORE CALLDATASIZE PUSH1 0x24 DUP4 DUP4 ADD ADD GT PUSH2 0x16D JUMPI DUP2 PUSH0 SWAP3 PUSH1 0x24 PUSH1 0x20 SWAP4 ADD DUP4 DUP8 ADD CALLDATACOPY DUP5 ADD ADD MSTORE PUSH1 0x7 SLOAD PUSH0 NOT DUP2 EQ PUSH2 0xABB JUMPI PUSH1 0x1 SWAP1 DUP2 ADD PUSH1 0x7 DUP2 SWAP1 SSTORE PUSH0 DUP2 DUP2 MSTORE PUSH1 0x8 PUSH1 0x20 MSTORE PUSH1 0x40 SWAP1 KECCAK256 DUP2 DUP2 SSTORE SWAP2 DUP3 ADD DUP1 SLOAD PUSH1 0x1 PUSH1 0x1 PUSH1 0xB0 SHL SUB NOT AND PUSH1 0xFF DUP6 AND OR CALLER PUSH1 0x10 SHL PUSH3 0x10000 PUSH1 0x1 PUSH1 0xB0 SHL SUB AND OR SWAP1 SSTORE DUP4 MLOAD SWAP4 SWAP2 SWAP3 SWAP1 SWAP2 PUSH1 0x2 DUP5 ADD PUSH8 0xFFFFFFFFFFFFFFFF DUP7 GT PUSH2 0xE77 JUMPI PUSH2 0x118D DUP2 SLOAD PUSH2 0x170D JUMP JUMPDEST SWAP6 PUSH1 0x1F DUP8 GT PUSH2 0x12D3 JUMPI JUMPDEST PUSH1 0x20 SWAP7 POP DUP7 PUSH1 0x1F DUP3 GT PUSH1 0x1 EQ PUSH2 0x1248 JUMPI SWAP3 DUP6 SWAP7 PUSH32 0xA1D183DE8FCE351CE90C5AEF8B14ECA79F903CEBB82F1E90A9FEA0069F22DD83 SWAP6 SWAP4 DUP4 PUSH2 0x1232 SWAP5 PUSH2 0x121C SWAP8 PUSH0 SWAP2 PUSH2 0x123D JUMPI JUMPDEST POP DUP2 PUSH1 0x1 SHL SWAP2 PUSH0 NOT SWAP1 PUSH1 0x3 SHL SHR NOT AND OR SWAP1 SSTORE JUMPDEST PUSH1 0x44 CALLDATALOAD PUSH1 0x3 DUP3 ADD SSTORE PUSH1 0x64 CALLDATALOAD PUSH1 0x4 DUP3 ADD SSTORE PUSH1 0x84 CALLDATALOAD PUSH1 0x5 DUP3 ADD SSTORE PUSH1 0x6 PUSH1 0xA4 CALLDATALOAD SWAP2 ADD SSTORE PUSH1 0x40 MLOAD SWAP4 DUP5 DUP1 SWAP5 PUSH2 0x1664 JUMP JUMPDEST CALLER DUP9 DUP5 ADD MSTORE PUSH1 0x60 PUSH1 0x40 DUP5 ADD MSTORE PUSH1 0x60 DUP4 ADD SWAP1 PUSH2 0x167E JUMP JUMPDEST SUB SWAP1 LOG2 PUSH1 0x40 MLOAD SWAP1 DUP2 MSTORE RETURN JUMPDEST SWAP1 POP DUP5 ADD MLOAD DUP13 PUSH2 0x11DD JUMP JUMPDEST PUSH1 0x1F NOT DUP3 AND SWAP1 DUP4 PUSH0 MSTORE DUP1 PUSH0 KECCAK256 SWAP2 PUSH0 JUMPDEST DUP2 DUP2 LT PUSH2 0x12BC JUMPI POP SWAP4 PUSH1 0x1 DUP5 PUSH2 0x121C SWAP8 SWAP5 DUP11 SWAP12 SWAP5 PUSH2 0x1232 SWAP8 PUSH32 0xA1D183DE8FCE351CE90C5AEF8B14ECA79F903CEBB82F1E90A9FEA0069F22DD83 SWAP12 SWAP10 LT PUSH2 0x12A4 JUMPI JUMPDEST POP POP DUP2 SHL ADD SWAP1 SSTORE PUSH2 0x11F0 JUMP JUMPDEST DUP7 ADD MLOAD PUSH0 NOT PUSH1 0xF8 DUP5 PUSH1 0x3 SHL AND SHR NOT AND SWAP1 SSTORE DUP13 DUP1 PUSH2 0x1298 JUMP JUMPDEST SWAP2 SWAP3 DUP11 PUSH1 0x1 DUP2 SWAP3 DUP7 DUP11 ADD MLOAD DUP2 SSTORE ADD SWAP5 ADD SWAP3 ADD PUSH2 0x1257 JUMP JUMPDEST DUP2 PUSH0 MSTORE PUSH1 0x20 PUSH0 KECCAK256 PUSH1 0x1F DUP3 ADD PUSH1 0x5 SHR DUP2 ADD SWAP8 PUSH1 0x20 DUP4 LT PUSH2 0x130E JUMPI JUMPDEST PUSH1 0x1F ADD PUSH1 0x5 SHR ADD SWAP7 JUMPDEST DUP8 DUP2 LT PUSH2 0x1303 JUMPI POP PUSH2 0x1197 JUMP JUMPDEST PUSH0 DUP2 SSTORE PUSH1 0x1 ADD PUSH2 0x12F6 JUMP JUMPDEST SWAP1 SWAP8 POP DUP8 SWAP1 PUSH2 0x12ED JUMP JUMPDEST CALLVALUE PUSH2 0x16D JUMPI PUSH1 0x40 CALLDATASIZE PUSH1 0x3 NOT ADD SLT PUSH2 0x16D JUMPI PUSH2 0x1331 PUSH2 0x16A2 JUMP JUMPDEST PUSH1 0x24 CALLDATALOAD SWAP1 CALLER ISZERO PUSH2 0x104C JUMPI PUSH1 0x1 PUSH1 0x1 PUSH1 0xA0 SHL SUB AND SWAP1 DUP2 ISZERO PUSH2 0x1039 JUMPI CALLER PUSH0 MSTORE PUSH1 0x1 PUSH1 0x20 MSTORE PUSH1 0x40 PUSH0 KECCAK256 DUP3 PUSH0 MSTORE PUSH1 0x20 MSTORE DUP1 PUSH1 0x40 PUSH0 KECCAK256 SSTORE PUSH1 0x40 MLOAD SWAP1 DUP2 MSTORE PUSH32 0x8C5BE1E5EBEC7D5BD14F71427D1E84F3DD0314C0F7B2291E5B200AC8C7C3B925 PUSH1 0x20 CALLER SWAP3 LOG3 PUSH1 0x20 PUSH1 0x40 MLOAD PUSH1 0x1 DUP2 MSTORE RETURN JUMPDEST CALLVALUE PUSH2 0x16D JUMPI PUSH0 CALLDATASIZE PUSH1 0x3 NOT ADD SLT PUSH2 0x16D JUMPI PUSH1 0x40 MLOAD PUSH0 PUSH1 0x3 SLOAD PUSH2 0x13BA DUP2 PUSH2 0x170D JUMP JUMPDEST DUP1 DUP5 MSTORE SWAP1 PUSH1 0x1 DUP2 AND SWAP1 DUP2 ISZERO PUSH2 0x720 JUMPI POP PUSH1 0x1 EQ PUSH2 0x13E1 JUMPI PUSH2 0x6BE DUP4 PUSH2 0x6AA DUP2 DUP6 SUB DUP3 PUSH2 0x16EB JUMP JUMPDEST PUSH1 0x3 PUSH0 SWAP1 DUP2 MSTORE PUSH32 0xC2575A0E9E593C00F959F8C92F12DB2869C3395A3B0502D05E2516446F71F85B SWAP4 SWAP3 POP SWAP1 JUMPDEST DUP1 DUP3 LT PUSH2 0x1425 JUMPI POP SWAP1 SWAP2 POP DUP2 ADD PUSH1 0x20 ADD PUSH2 0x6AA PUSH2 0x69A JUMP JUMPDEST SWAP2 SWAP3 PUSH1 0x1 DUP2 PUSH1 0x20 SWAP3 SLOAD DUP4 DUP6 DUP9 ADD ADD MSTORE ADD SWAP2 ADD SWAP1 SWAP3 SWAP2 PUSH2 0x140D JUMP JUMPDEST CALLVALUE PUSH2 0x16D JUMPI PUSH1 0x20 CALLDATASIZE PUSH1 0x3 NOT ADD SLT PUSH2 0x16D JUMPI PUSH2 0x160 DUP2 PUSH2 0x145F PUSH1 0x60 SWAP4 PUSH2 0x16CE JUMP JUMPDEST PUSH0 DUP2 MSTORE PUSH0 PUSH1 0x20 DUP3 ADD MSTORE PUSH0 PUSH1 0x40 DUP3 ADD MSTORE PUSH0 DUP4 DUP3 ADD MSTORE DUP3 PUSH1 0x80 DUP3 ADD MSTORE PUSH0 PUSH1 0xA0 DUP3 ADD MSTORE PUSH0 PUSH1 0xC0 DUP3 ADD MSTORE PUSH0 PUSH1 0xE0 DUP3 ADD MSTORE PUSH0 PUSH2 0x100 DUP3 ADD MSTORE PUSH0 PUSH2 0x120 DUP3 ADD MSTORE PUSH0 PUSH2 0x140 DUP3 ADD MSTORE ADD MSTORE PUSH1 0x4 CALLDATALOAD PUSH0 MSTORE PUSH1 0x8 PUSH1 0x20 MSTORE PUSH1 0x40 PUSH0 KECCAK256 PUSH1 0x40 MLOAD SWAP1 PUSH2 0x14BD DUP3 PUSH2 0x16CE JUMP JUMPDEST DUP1 SLOAD DUP3 MSTORE PUSH1 0x1 DUP2 ADD SLOAD SWAP1 PUSH1 0x20 DUP4 ADD SWAP1 PUSH1 0xFF DUP4 AND PUSH1 0x2 DUP2 LT ISZERO PUSH2 0x48E JUMPI DUP3 MSTORE PUSH1 0xFF DUP4 PUSH1 0x8 SHR AND PUSH1 0x40 DUP6 ADD SWAP1 PUSH1 0x3 DUP2 LT ISZERO PUSH2 0x48E JUMPI DUP2 MSTORE PUSH1 0x10 SWAP4 SWAP1 SWAP4 SHR PUSH1 0x1 PUSH1 0x1 PUSH1 0xA0 SHL SUB AND PUSH1 0x60 DUP6 ADD SWAP1 DUP2 MSTORE SWAP2 SWAP3 DUP5 SWAP3 SWAP2 PUSH2 0x1519 PUSH1 0x2 DUP3 ADD PUSH2 0x1745 JUMP JUMPDEST SWAP3 PUSH1 0x80 DUP6 ADD SWAP4 DUP5 MSTORE PUSH1 0x3 DUP3 ADD SLOAD SWAP4 PUSH1 0xA0 DUP7 ADD SWAP5 DUP6 MSTORE PUSH1 0x4 DUP4 ADD SLOAD PUSH1 0xC0 DUP8 ADD SWAP1 DUP2 MSTORE PUSH1 0x5 DUP5 ADD SLOAD SWAP1 PUSH1 0xE0 DUP9 ADD SWAP2 DUP3 MSTORE PUSH1 0x6 DUP6 ADD SLOAD SWAP3 PUSH2 0x100 DUP10 ADD SWAP4 DUP5 MSTORE PUSH1 0x7 DUP7 ADD SLOAD SWAP5 PUSH2 0x120 DUP11 ADD SWAP6 DUP7 MSTORE PUSH1 0x1 PUSH1 0xA0 SHL PUSH1 0x1 SWAP1 SUB PUSH1 0x8 DUP9 ADD SLOAD AND SWAP7 PUSH2 0x140 DUP12 ADD SWAP8 DUP9 MSTORE PUSH1 0x9 ADD PUSH2 0x1587 SWAP1 PUSH2 0x17E5 JUMP JUMPDEST SWAP8 PUSH2 0x160 DUP12 ADD SWAP9 DUP10 MSTORE PUSH1 0x40 MLOAD SWAP12 DUP13 SWAP12 PUSH1 0x20 DUP14 MSTORE MLOAD PUSH1 0x20 DUP14 ADD MSTORE MLOAD PUSH1 0x40 DUP13 ADD PUSH2 0x15AE SWAP2 PUSH2 0x1664 JUMP JUMPDEST MLOAD PUSH1 0x60 DUP12 ADD PUSH2 0x15BC SWAP2 PUSH2 0x1671 JUMP JUMPDEST MLOAD PUSH1 0x1 PUSH1 0x1 PUSH1 0xA0 SHL SUB AND PUSH1 0x80 DUP11 ADD MSTORE MLOAD PUSH2 0x180 PUSH1 0xA0 DUP11 ADD MSTORE PUSH2 0x15E3 SWAP1 PUSH2 0x1A0 DUP11 ADD SWAP1 PUSH2 0x167E JUMP JUMPDEST SWAP7 MLOAD PUSH1 0xC0 DUP10 ADD MSTORE MLOAD PUSH1 0xE0 DUP9 ADD MSTORE MLOAD PUSH2 0x100 DUP8 ADD MSTORE MLOAD PUSH2 0x120 DUP7 ADD MSTORE MLOAD PUSH2 0x140 DUP6 ADD MSTORE MLOAD PUSH1 0x1 PUSH1 0x1 PUSH1 0xA0 SHL SUB AND PUSH2 0x160 DUP5 ADD MSTORE MLOAD DUP3 DUP3 SUB PUSH1 0x1F NOT ADD PUSH2 0x180 DUP5 ADD MSTORE DUP1 MLOAD DUP1 DUP4 MSTORE PUSH1 0x20 SWAP3 DUP4 ADD SWAP3 SWAP1 SWAP2 ADD SWAP1 PUSH0 JUMPDEST DUP2 DUP2 LT PUSH2 0x1642 JUMPI POP POP POP SUB SWAP1 RETURN JUMPDEST DUP3 MLOAD PUSH1 0x1 PUSH1 0x1 PUSH1 0xA0 SHL SUB AND DUP5 MSTORE DUP6 SWAP5 POP PUSH1 0x20 SWAP4 DUP5 ADD SWAP4 SWAP1 SWAP3 ADD SWAP2 PUSH1 0x1 ADD PUSH2 0x1634 JUMP JUMPDEST SWAP1 PUSH1 0x2 DUP3 LT ISZERO PUSH2 0x48E JUMPI MSTORE JUMP JUMPDEST SWAP1 PUSH1 0x3 DUP3 LT ISZERO PUSH2 0x48E JUMPI MSTORE JUMP JUMPDEST DUP1 MLOAD DUP1 DUP4 MSTORE PUSH1 0x20 SWAP3 SWAP2 DUP2 SWAP1 DUP5 ADD DUP5 DUP5 ADD MCOPY PUSH0 DUP3 DUP3 ADD DUP5 ADD MSTORE PUSH1 0x1F ADD PUSH1 0x1F NOT AND ADD ADD SWAP1 JUMP JUMPDEST PUSH1 0x4 CALLDATALOAD SWAP1 PUSH1 0x1 PUSH1 0x1 PUSH1 0xA0 SHL SUB DUP3 AND DUP3 SUB PUSH2 0x16D JUMPI JUMP JUMPDEST PUSH1 0x24 CALLDATALOAD SWAP1 PUSH1 0x1 PUSH1 0x1 PUSH1 0xA0 SHL SUB DUP3 AND DUP3 SUB PUSH2 0x16D JUMPI JUMP JUMPDEST PUSH2 0x180 DUP2 ADD SWAP1 DUP2 LT PUSH8 0xFFFFFFFFFFFFFFFF DUP3 GT OR PUSH2 0xE77 JUMPI PUSH1 0x40 MSTORE JUMP JUMPDEST SWAP1 PUSH1 0x1F DUP1 NOT SWAP2 ADD AND DUP2 ADD SWAP1 DUP2 LT PUSH8 0xFFFFFFFFFFFFFFFF DUP3 GT OR PUSH2 0xE77 JUMPI PUSH1 0x40 MSTORE JUMP JUMPDEST SWAP1 PUSH1 0x1 DUP3 DUP2 SHR SWAP3 AND DUP1 ISZERO PUSH2 0x173B JUMPI JUMPDEST PUSH1 0x20 DUP4 LT EQ PUSH2 0x1727 JUMPI JUMP JUMPDEST PUSH4 0x4E487B71 PUSH1 0xE0 SHL PUSH0 MSTORE PUSH1 0x22 PUSH1 0x4 MSTORE PUSH1 0x24 PUSH0 REVERT JUMPDEST SWAP2 PUSH1 0x7F AND SWAP2 PUSH2 0x171C JUMP JUMPDEST SWAP1 PUSH1 0x40 MLOAD SWAP2 DUP3 PUSH0 DUP3 SLOAD SWAP3 PUSH2 0x1758 DUP5 PUSH2 0x170D JUMP JUMPDEST DUP1 DUP5 MSTORE SWAP4 PUSH1 0x1 DUP2 AND SWAP1 DUP2 ISZERO PUSH2 0x17C3 JUMPI POP PUSH1 0x1 EQ PUSH2 0x177F JUMPI JUMPDEST POP PUSH2 0x177D SWAP3 POP SUB DUP4 PUSH2 0x16EB JUMP JUMPDEST JUMP JUMPDEST SWAP1 POP PUSH0 SWAP3 SWAP2 SWAP3 MSTORE PUSH1 0x20 PUSH0 KECCAK256 SWAP1 PUSH0 SWAP2 JUMPDEST DUP2 DUP4 LT PUSH2 0x17A7 JUMPI POP POP SWAP1 PUSH1 0x20 PUSH2 0x177D SWAP3 DUP3 ADD ADD PUSH0 PUSH2 0x1770 JUMP JUMPDEST PUSH1 0x20 SWAP2 SWAP4 POP DUP1 PUSH1 0x1 SWAP2 SLOAD DUP4 DUP6 DUP10 ADD ADD MSTORE ADD SWAP2 ADD SWAP1 SWAP2 DUP5 SWAP3 PUSH2 0x178E JUMP JUMPDEST SWAP1 POP PUSH1 0x20 SWAP3 POP PUSH2 0x177D SWAP5 SWAP2 POP PUSH1 0xFF NOT AND DUP3 DUP5 ADD MSTORE ISZERO ISZERO PUSH1 0x5 SHL DUP3 ADD ADD PUSH0 PUSH2 0x1770 JUMP JUMPDEST SWAP1 PUSH1 0x40 MLOAD SWAP2 DUP3 DUP2 SLOAD SWAP2 DUP3 DUP3 MSTORE PUSH1 0x20 DUP3 ADD SWAP1 PUSH0 MSTORE PUSH1 0x20 PUSH0 KECCAK256 SWAP3 PUSH0 JUMPDEST DUP2 DUP2 LT PUSH2 0x1814 JUMPI POP POP PUSH2 0x177D SWAP3 POP SUB DUP4 PUSH2 0x16EB JUMP JUMPDEST DUP5 SLOAD PUSH1 0x1 PUSH1 0x1 PUSH1 0xA0 SHL SUB AND DUP4 MSTORE PUSH1 0x1 SWAP5 DUP6 ADD SWAP5 DUP8 SWAP5 POP PUSH1 0x20 SWAP1 SWAP4 ADD SWAP3 ADD PUSH2 0x17FF JUMP JUMPDEST ISZERO PUSH2 0x183D JUMPI JUMP JUMPDEST PUSH1 0x40 MLOAD PUSH3 0x461BCD PUSH1 0xE5 SHL DUP2 MSTORE PUSH1 0x20 PUSH1 0x4 DUP3 ADD MSTORE PUSH1 0xF PUSH1 0x24 DUP3 ADD MSTORE PUSH15 0x506F6F6C206E6F7420616374697665 PUSH1 0x88 SHL PUSH1 0x44 DUP3 ADD MSTORE PUSH1 0x64 SWAP1 REVERT JUMPDEST SWAP1 DUP2 PUSH1 0x20 SWAP2 SUB SLT PUSH2 0x16D JUMPI MLOAD DUP1 ISZERO ISZERO DUP2 SUB PUSH2 0x16D JUMPI SWAP1 JUMP JUMPDEST ISZERO PUSH2 0x1893 JUMPI JUMP JUMPDEST PUSH1 0x40 MLOAD PUSH3 0x461BCD PUSH1 0xE5 SHL DUP2 MSTORE PUSH1 0x20 PUSH1 0x4 DUP3 ADD MSTORE PUSH1 0x14 PUSH1 0x24 DUP3 ADD MSTORE PUSH20 0x1554D115081D1C985B9CD9995C8819985A5B1959 PUSH1 0x62 SHL PUSH1 0x44 DUP3 ADD MSTORE PUSH1 0x64 SWAP1 REVERT JUMPDEST DUP1 SLOAD DUP3 LT ISZERO PUSH2 0x18E4 JUMPI PUSH0 MSTORE PUSH1 0x20 PUSH0 KECCAK256 ADD SWAP1 PUSH0 SWAP1 JUMP JUMPDEST PUSH4 0x4E487B71 PUSH1 0xE0 SHL PUSH0 MSTORE PUSH1 0x32 PUSH1 0x4 MSTORE PUSH1 0x24 PUSH0 REVERT JUMPDEST SWAP2 SWAP1 DUP3 ADD DUP1 SWAP3 GT PUSH2 0xABB JUMPI JUMP JUMPDEST ISZERO PUSH2 0x190C JUMPI JUMP JUMPDEST PUSH1 0x40 MLOAD PUSH3 0x461BCD PUSH1 0xE5 SHL DUP2 MSTORE PUSH1 0x20 PUSH1 0x4 DUP3 ADD MSTORE PUSH1 0x13 PUSH1 0x24 DUP3 ADD MSTORE PUSH19 0x13585E081CDD5C1C1B1E48195E18D959591959 PUSH1 0x6A SHL PUSH1 0x44 DUP3 ADD MSTORE PUSH1 0x64 SWAP1 REVERT JUMPDEST SWAP1 DUP2 PUSH0 MSTORE PUSH1 0x8 PUSH1 0x20 MSTORE PUSH1 0x40 PUSH0 KECCAK256 SWAP1 PUSH1 0xFF PUSH1 0x1 DUP4 ADD SLOAD PUSH1 0x8 SHR AND PUSH1 0x3 DUP2 LT ISZERO PUSH2 0x48E JUMPI PUSH2 0x1973 SWAP1 ISZERO PUSH2 0x1836 JUMP JUMPDEST PUSH1 0x6 DUP3 ADD SLOAD TIMESTAMP LT PUSH2 0x1A58 JUMPI PUSH1 0x9 DUP3 ADD SWAP1 DUP2 SLOAD ISZERO PUSH2 0x1A21 JUMPI PUSH1 0x7 DUP4 ADD SLOAD PUSH1 0x4 DUP5 ADD SLOAD GT PUSH2 0x1A15 JUMPI DUP2 SLOAD SWAP2 DUP3 ISZERO PUSH2 0x1A01 JUMPI PUSH1 0x8 SWAP3 PUSH2 0x19B0 SWAP3 MOD SWAP1 PUSH2 0x18CF JUMP JUMPDEST SWAP1 SLOAD SWAP2 SWAP1 SWAP3 ADD DUP1 SLOAD PUSH1 0x1 PUSH1 0x1 PUSH1 0xA0 SHL SUB NOT AND PUSH1 0x3 SWAP4 SWAP1 SWAP4 SHL SWAP2 SWAP1 SWAP2 SHR PUSH1 0x1 PUSH1 0x1 PUSH1 0xA0 SHL SUB AND SWAP2 DUP3 OR SWAP1 SSTORE SWAP1 PUSH32 0x3FB57EB449654E24E1B240D3D06702CF79362A065D5C0323AEE642D4702FA4B PUSH0 DUP1 LOG3 JUMP JUMPDEST PUSH4 0x4E487B71 PUSH1 0xE0 SHL PUSH0 MSTORE PUSH1 0x12 PUSH1 0x4 MSTORE PUSH1 0x24 PUSH0 REVERT JUMPDEST POP POP POP PUSH2 0x177D SWAP1 PUSH2 0x1BEF JUMP JUMPDEST PUSH1 0x40 MLOAD PUSH3 0x461BCD PUSH1 0xE5 SHL DUP2 MSTORE PUSH1 0x20 PUSH1 0x4 DUP3 ADD MSTORE PUSH1 0xF PUSH1 0x24 DUP3 ADD MSTORE PUSH15 0x4E6F207061727469636970616E7473 PUSH1 0x88 SHL PUSH1 0x44 DUP3 ADD MSTORE PUSH1 0x64 SWAP1 REVERT JUMPDEST PUSH1 0x40 MLOAD PUSH3 0x461BCD PUSH1 0xE5 SHL DUP2 MSTORE PUSH1 0x20 PUSH1 0x4 DUP3 ADD MSTORE PUSH1 0xE PUSH1 0x24 DUP3 ADD MSTORE PUSH14 0x141BDBDB081B9BDD08195B991959 PUSH1 0x92 SHL PUSH1 0x44 DUP3 ADD MSTORE PUSH1 0x64 SWAP1 REVERT JUMPDEST PUSH1 0x1 PUSH1 0x1 PUSH1 0xA0 SHL SUB AND SWAP1 DUP2 ISZERO PUSH2 0x1B38 JUMPI PUSH1 0x1 PUSH1 0x1 PUSH1 0xA0 SHL SUB AND SWAP2 DUP3 ISZERO PUSH2 0x1B25 JUMPI DUP2 PUSH0 MSTORE PUSH0 PUSH1 0x20 MSTORE PUSH1 0x40 PUSH0 KECCAK256 SLOAD DUP2 DUP2 LT PUSH2 0x1B0C JUMPI DUP2 PUSH32 0xDDF252AD1BE2C89B69C2B068FC378DAA952BA7F163C4A11628F55A4DF523B3EF SWAP3 PUSH1 0x20 SWAP3 DUP6 PUSH0 MSTORE PUSH0 DUP5 MSTORE SUB PUSH1 0x40 PUSH0 KECCAK256 SSTORE DUP5 PUSH0 MSTORE PUSH0 DUP3 MSTORE PUSH1 0x40 PUSH0 KECCAK256 DUP2 DUP2 SLOAD ADD SWAP1 SSTORE PUSH1 0x40 MLOAD SWAP1 DUP2 MSTORE LOG3 JUMP JUMPDEST DUP3 PUSH4 0x391434E3 PUSH1 0xE2 SHL PUSH0 MSTORE PUSH1 0x4 MSTORE PUSH1 0x24 MSTORE PUSH1 0x44 MSTORE PUSH1 0x64 PUSH0 REVERT JUMPDEST PUSH4 0xEC442F05 PUSH1 0xE0 SHL PUSH0 MSTORE PUSH0 PUSH1 0x4 MSTORE PUSH1 0x24 PUSH0 REVERT JUMPDEST PUSH4 0x4B637E8F PUSH1 0xE1 SHL PUSH0 MSTORE PUSH0 PUSH1 0x4 MSTORE PUSH1 0x24 PUSH0 REVERT JUMPDEST PUSH1 0x2 PUSH1 0x6 SLOAD EQ PUSH2 0x1B5C JUMPI PUSH1 0x2 PUSH1 0x6 SSTORE JUMP JUMPDEST PUSH4 0x3EE5AEB5 PUSH1 0xE0 SHL PUSH0 MSTORE PUSH1 0x4 PUSH0 REVERT JUMPDEST PUSH1 0x1 PUSH1 0x1 PUSH1 0xA0 SHL SUB AND SWAP1 DUP2 ISZERO PUSH2 0x1B25 JUMPI PUSH32 0xDDF252AD1BE2C89B69C2B068FC378DAA952BA7F163C4A11628F55A4DF523B3EF PUSH1 0x20 DUP3 PUSH2 0x1BAC PUSH0 SWAP5 PUSH1 0x2 SLOAD PUSH2 0x18F8 JUMP JUMPDEST PUSH1 0x2 SSTORE DUP5 DUP5 MSTORE DUP4 DUP3 MSTORE PUSH1 0x40 DUP5 KECCAK256 DUP2 DUP2 SLOAD ADD SWAP1 SSTORE PUSH1 0x40 MLOAD SWAP1 DUP2 MSTORE LOG3 JUMP JUMPDEST PUSH1 0x5 SLOAD PUSH1 0x1 PUSH1 0x1 PUSH1 0xA0 SHL SUB AND CALLER SUB PUSH2 0x1BDC JUMPI JUMP JUMPDEST PUSH4 0x118CDAA7 PUSH1 0xE0 SHL PUSH0 MSTORE CALLER PUSH1 0x4 MSTORE PUSH1 0x24 PUSH0 REVERT JUMPDEST SWAP1 DUP2 PUSH0 MSTORE PUSH1 0x8 PUSH1 0x20 MSTORE PUSH1 0x40 PUSH0 KECCAK256 PUSH1 0x1 DUP2 ADD PUSH2 0x200 PUSH2 0xFF00 NOT DUP3 SLOAD AND OR SWAP1 SSTORE PUSH1 0x9 PUSH0 SWAP2 ADD SWAP1 JUMPDEST DUP2 SLOAD DUP2 LT ISZERO PUSH2 0x1D04 JUMPI PUSH2 0x1C27 DUP2 DUP4 PUSH2 0x18CF JUMP JUMPDEST SWAP1 SLOAD PUSH0 DUP7 DUP2 MSTORE PUSH1 0xA PUSH1 0x20 SWAP1 DUP2 MSTORE PUSH1 0x40 DUP1 DUP4 KECCAK256 PUSH1 0x3 SWAP6 SWAP1 SWAP6 SHL SWAP4 SWAP1 SWAP4 SHR PUSH1 0x1 PUSH1 0x1 PUSH1 0xA0 SHL SUB AND DUP1 DUP4 MSTORE SWAP4 SWAP1 MSTORE KECCAK256 SLOAD SWAP2 SWAP1 DUP3 PUSH2 0x1C67 JUMPI JUMPDEST POP PUSH1 0x1 SWAP2 POP ADD PUSH2 0x1C14 JUMP JUMPDEST PUSH0 DUP7 DUP2 MSTORE PUSH1 0xA PUSH1 0x20 SWAP1 DUP2 MSTORE PUSH1 0x40 DUP1 DUP4 KECCAK256 PUSH1 0x1 PUSH1 0x1 PUSH1 0xA0 SHL SUB SWAP5 DUP6 AND DUP1 DUP6 MSTORE SWAP1 DUP4 MSTORE DUP2 DUP5 KECCAK256 DUP5 SWAP1 SSTORE SWAP1 MLOAD PUSH4 0xA9059CBB PUSH1 0xE0 SHL DUP2 MSTORE PUSH1 0x4 DUP2 ADD SWAP2 SWAP1 SWAP2 MSTORE PUSH1 0x24 DUP2 ADD SWAP6 SWAP1 SWAP6 MSTORE SWAP2 DUP5 SWAP2 PUSH1 0x44 SWAP2 DUP4 SWAP2 SWAP1 PUSH32 0x0 AND GAS CALL SWAP2 DUP3 ISZERO PUSH2 0x449 JUMPI PUSH1 0x1 SWAP3 ISZERO PUSH2 0x1C5C JUMPI PUSH2 0x1CFD SWAP1 PUSH1 0x20 RETURNDATASIZE DUP2 GT PUSH2 0x442 JUMPI PUSH2 0x434 DUP2 DUP4 PUSH2 0x16EB JUMP JUMPDEST POP PUSH0 PUSH2 0x1C5C JUMP JUMPDEST POP POP SWAP1 PUSH32 0x3D229DD60FC64B0903758FEED58453F62E715F5D01DC0978C0A3A312DD2776C2 PUSH0 DUP1 LOG2 JUMP INVALID LOG2 PUSH5 0x6970667358 0x22 SLT KECCAK256 0xC5 0xB1 CALLDATASIZE DUP16 JUMPI 0xB1 0xD6 PUSH4 0x1B665625 0xEF 0xB1 0x2C 0xB1 RETURNDATASIZE AND RETURN 0xF7 PUSH3 0xF95501 CALLDATASIZE GAS SHL 0xC4 PUSH22 0x17C8EB64736F6C634300081C00330000000000000000 "},"methodIdentifiers":{"MAX_TLOOT_SUPPLY()":"cc936e77","allowance(address,address)":"dd62ed3e","approve(address,uint256)":"095ea7b3","balanceOf(address)":"70a08231","cancelPool(uint256)":"827c7889","completePayment(uint256)":"4f01c6f2","contributions(uint256,address)":"3d891f59","createPool(uint8,string,uint256,uint256,uint256,uint256)":"0e88d464","decimals()":"313ce567","finalizePool(uint256)":"c5a1f434","getParticipantCount(uint256)":"86ae5fec","getParticipants(uint256)":"c1e3bd3e","getPool(uint256)":"068bcd8d","hasCompletedPayment(uint256,address)":"ed476295","hasJoined(uint256,address)":"68194719","joinPool(uint256)":"34e7a19f","name()":"06fdde03","owner()":"8da5cb5b","poolCount()":"f525cb68","pools(uint256)":"ac4afa38","renounceOwnership()":"715018a6","selectWinner(uint256,uint256)":"e6fa0209","symbol()":"95d89b41","totalSupply()":"18160ddd","transfer(address,uint256)":"a9059cbb","transferFrom(address,address,uint256)":"23b872dd","transferOwnership(address)":"f2fde38b","usdtToken()":"a98ad46c"}}}}}