{"project/contracts/LuckyDrawFactory.sol":{"LuckyDrawFactory":{"abi":[{"inputs":[{"internalType":"address","name":"_usdtToken","type":"address"},{"internalType":"address","name":"_tlootToken","type":"address"},{"internalType":"address","name":"_supraRouter","type":"address"},{"internalType":"address","name":"_admin","type":"address"}],"stateMutability":"nonpayable","type":"constructor"},{"anonymous":false,"inputs":[{"indexed":true,"internalType":"address","name":"poolAddress","type":"address"},{"indexed":true,"internalType":"address","name":"creator","type":"address"},{"indexed":false,"internalType":"string","name":"eventName","type":"string"},{"indexed":false,"internalType":"uint256","name":"ticketPrice","type":"uint256"},{"indexed":false,"internalType":"uint256","name":"entryAmount","type":"uint256"},{"indexed":false,"internalType":"uint256","name":"maxParticipants","type":"uint256"}],"name":"PoolCreated","type":"event"},{"inputs":[],"name":"admin","outputs":[{"internalType":"address","name":"","type":"address"}],"stateMutability":"view","type":"function"},{"inputs":[{"internalType":"uint256","name":"","type":"uint256"}],"name":"allPools","outputs":[{"internalType":"address","name":"","type":"address"}],"stateMutability":"view","type":"function"},{"inputs":[{"internalType":"address","name":"creator","type":"address"},{"internalType":"string","name":"eventName","type":"string"},{"internalType":"uint256","name":"eventDate","type":"uint256"},{"internalType":"uint256","name":"ticketPrice","type":"uint256"},{"internalType":"uint256","name":"entryAmount","type":"uint256"},{"internalType":"uint256","name":"maxParticipants","type":"uint256"},{"internalType":"uint256","name":"poolDeadline","type":"uint256"}],"name":"createPool","outputs":[{"internalType":"address","name":"","type":"address"}],"stateMutability":"nonpayable","type":"function"},{"inputs":[],"name":"getAllPools","outputs":[{"internalType":"address[]","name":"","type":"address[]"}],"stateMutability":"view","type":"function"},{"inputs":[],"name":"getPoolCount","outputs":[{"internalType":"uint256","name":"","type":"uint256"}],"stateMutability":"view","type":"function"},{"inputs":[{"internalType":"address","name":"user","type":"address"}],"name":"getUserCreatedPools","outputs":[{"internalType":"address[]","name":"","type":"address[]"}],"stateMutability":"view","type":"function"},{"inputs":[{"internalType":"address","name":"","type":"address"}],"name":"isPool","outputs":[{"internalType":"bool","name":"","type":"bool"}],"stateMutability":"view","type":"function"},{"inputs":[{"internalType":"address","name":"newAdmin","type":"address"}],"name":"setAdmin","outputs":[],"stateMutability":"nonpayable","type":"function"},{"inputs":[],"name":"supraRouter","outputs":[{"internalType":"address","name":"","type":"address"}],"stateMutability":"view","type":"function"},{"inputs":[],"name":"tlootToken","outputs":[{"internalType":"address","name":"","type":"address"}],"stateMutability":"view","type":"function"},{"inputs":[],"name":"usdtToken","outputs":[{"internalType":"address","name":"","type":"address"}],"stateMutability":"view","type":"function"},{"inputs":[{"internalType":"address","name":"","type":"address"},{"internalType":"uint256","name":"","type":"uint256"}],"name":"userCreatedPools","outputs":[{"internalType":"address","name":"","type":"address"}],"stateMutability":"view","type":"function"}],"evm":{"bytecode":{"linkReferences":{},"object":"60e0346100d457601f6125d838819003918201601f19168301916001600160401b038311848410176100d8578084926080946040528339810103126100d457610047816100ec565b90610054602082016100ec565b61006c6060610065604085016100ec565b93016100ec565b60809390935260a05260c0525f80546001600160a01b0319166001600160a01b039092169190911790556040516124d7908161010182396080518181816102c801526104b8015260a0518181816102ed01526105cd015260c05181818160e001526103150152f35b5f80fd5b634e487b7160e01b5f52604160045260245ffd5b51906001600160a01b03821682036100d45756fe6080806040526004361015610012575f80fd5b5f3560e01c9081632d380cca146106b15750806341d1de97146106395780635b16ebb7146105fc5780636b0ce9ea146105b8578063704b6c02146105045780638eec5d70146104e7578063a98ad46c146104a3578063ae808e80146101fe578063bbef6f901461019c578063d88ff1f41461010f578063e621ff8a146100cb5763f851a440146100a0575f80fd5b346100c7575f3660031901126100c7575f546040516001600160a01b039091168152602090f35b5f80fd5b346100c7575f3660031901126100c7576040517f00000000000000000000000000000000000000000000000000000000000000006001600160a01b03168152602090f35b346100c7575f3660031901126100c75760405180602060015491828152019060015f527fb10e2d527612073b26eecdfd717e6a320cf44b4afac2b0732d9fcbe2b7fa0cf6905f5b81811061017d576101798561016d81870382610794565b6040519182918261073d565b0390f35b82546001600160a01b0316845260209093019260019283019201610156565b346100c75760403660031901126100c7576101b5610727565b6001600160a01b03165f908152600260205260409020805460243591908210156100c7576020916101e59161077f565b905460405160039290921b1c6001600160a01b03168152f35b346100c75760e03660031901126100c757610217610727565b6024359067ffffffffffffffff82116100c757366023830112156100c757816004013567ffffffffffffffff81116104845760405192610261601f8301601f191660200185610794565b81845236602483830101116100c757815f9260246020930183870137840101525f5460405160a43593606435926084359290611cc790818301906001600160a01b031667ffffffffffffffff8211848310176104845783926107db84396001600160a01b037f0000000000000000000000000000000000000000000000000000000000000000811683527f0000000000000000000000000000000000000000000000000000000000000000811660208401527f0000000000000000000000000000000000000000000000000000000000000000166040830152606082015261014060808201819052610355908201856107b6565b9060443560a08201528660c08201528560e08201528861010082015261012060c43591015203905ff080156104985760018060a01b031693600154600160401b811015610484578060016103ae9201600155600161077f565b81546001600160a01b0360039290921b82811b199091169088901b17909155165f81815260026020526040902080549194909290600160401b831015610484576020978795610427857fbb7692b5ccdf241714f597949c7d2c2148afc9532abbbf001ff1d28cb3310da797600161046a9801815561077f565b81549060031b9089821b9160018060a01b03901b1916179055865f5260038a5260405f20600160ff198254161790556040519485946080865260808601906107b6565b928a850152604084015260608301520390a3604051908152f35b634e487b7160e01b5f52604160045260245ffd5b6040513d5f823e3d90fd5b346100c7575f3660031901126100c7576040517f00000000000000000000000000000000000000000000000000000000000000006001600160a01b03168152602090f35b346100c7575f3660031901126100c7576020600154604051908152f35b346100c75760203660031901126100c75761051d610727565b5f54906001600160a01b0382163303610586576001600160a01b031690811561054f576001600160a01b031916175f55005b60405162461bcd60e51b815260206004820152600f60248201526e496e76616c6964206164647265737360881b6044820152606490fd5b60405162461bcd60e51b815260206004820152600a60248201526927b7363c9030b236b4b760b11b6044820152606490fd5b346100c7575f3660031901126100c7576040517f00000000000000000000000000000000000000000000000000000000000000006001600160a01b03168152602090f35b346100c75760203660031901126100c7576001600160a01b0361061d610727565b165f526003602052602060ff60405f2054166040519015158152f35b346100c75760203660031901126100c7576004356001548110156100c75760015481101561069d5760015f527fb10e2d527612073b26eecdfd717e6a320cf44b4afac2b0732d9fcbe2b7fa0cf601546040516001600160a01b039091168152602090f35b634e487b7160e01b5f52603260045260245ffd5b346100c75760203660031901126100c7576001600160a01b036106d2610727565b165f52600260205260405f20805480835260208301915f5260205f20905f5b818110610708576101798561016d81870382610794565b82546001600160a01b03168452602090930192600192830192016106f1565b600435906001600160a01b03821682036100c757565b60206040818301928281528451809452019201905f5b8181106107605750505090565b82516001600160a01b0316845260209384019390920191600101610753565b805482101561069d575f5260205f2001905f90565b90601f8019910116810190811067ffffffffffffffff82111761048457604052565b805180835260209291819084018484015e5f828201840152601f01601f191601019056fe6101206040523461036e57611cc78038038061001a81610372565b9283398101906101408183031261036e5761003481610397565b61004060208301610397565b61004c60408401610397565b61005860608501610397565b60808501519095906001600160401b03811161036e57850181601f8201121561036e578051906001600160401b0382116103475761009f601f8301601f1916602001610372565b928284526020838301011161036e57815f9260208093018386015e8301015260a08501519160c08601519360e08701519561012061010089015198015198331561035b575f8054336001600160a01b0319821681178355916001600160a01b03909116907f8be0079c531659141344cd1fd0a4f28419497f9722a3daafe3b4186f6b6457e09080a3600180553360e052610100526001600160a01b0390811660805290811660a0521660c0528051906001600160401b0382116103475760025490600182811c9216801561033d575b60208310146103295781601f8493116102bb575b50602090601f8311600114610255575f9261024a575b50508160011b915f199060031b1c1916176002555b6003556004556005556006556007554260085560405161191b90816103ac82396080518181816102d4015281816105d1015281816107c10152818161095601526117c9015260a051818181610a0c0152610f74015260c0518181816104fb01528181610d5401526115ef015260e0518161075e0152610100518181816101b4015281816101fd015281816102490152818161058901526111fc0152f35b015190505f80610198565b60025f9081528281209350601f198516905b8181106102a3575090846001959493921061028b575b505050811b016002556101ad565b01515f1960f88460031b161c191690555f808061027d565b92936020600181928786015181550195019301610267565b60025f529091507f405787fa12a823e0f2b7631cc41b3ba8828b3321ca811111fa75cd3aa3bb5ace601f840160051c8101916020851061031f575b90601f859493920160051c01905b8181106103115750610182565b5f8155849350600101610304565b90915081906102f6565b634e487b7160e01b5f52602260045260245ffd5b91607f169161016e565b634e487b7160e01b5f52604160045260245ffd5b631e4fbdf760e01b5f525f60045260245ffd5b5f80fd5b6040519190601f01601f191682016001600160401b0381118382101761034757604052565b51906001600160a01b038216820361036e5756fe6080806040526004361015610012575f80fd5b5f905f3560e01c9081630231141a146112c3575080631209b1f6146112a657806318a7ea5f146112895780631b55b2a8146111e657806324924bf7146111c957806335c1d3491461118757806342e94c901461114b5780634bfbe5df1461112e5780635aa68ac0146110665780635e098f051461104457806360246c8814610fa35780636b0ce9ea14610f5f5780636ec21cc814610f42578063715018a614610eeb5780637d183f3d14610cd65780638043c9c014610ca35780638371e6b4146108c3578063877f4e12146108815780638d4e40831461085b5780638da5cb5b1461083457806395ee12211461080e578063991def3c146107f0578063a98ad46c146107ab578063ad6057291461078d578063c45a015514610748578063ccbac9f51461072a578063cf09e0d01461070c578063db2e21bc14610576578063dfbf53ae1461054d578063e5b8bdac1461052a578063e621ff8a146104e5578063f2fde38b14610457578063f648b99e14610236578063f8413b07146101e65763f851a4401461019f575f80fd5b346101e357806003193601126101e3576040517f00000000000000000000000000000000000000000000000000000000000000006001600160a01b03168152602090f35b80fd5b50346101e357806003193601126101e35761022b337f00000000000000000000000000000000000000000000000000000000000000006001600160a01b03161461141d565b610233611536565b80f35b50346101e357806003193601126101e3577f000000000000000000000000000000000000000000000000000000000000000061027c336001600160a01b0383161461141d565b600c5461028f60ff8260a81c1615611496565b61029f60ff8260a01c1615611456565b6001600160a01b0381161561041c5760ff60a01b1916600160a01b17600c556040516370a0823160e01b8152306004820152907f00000000000000000000000000000000000000000000000000000000000000006001600160a01b031690602083602481855afa9283156104115784936103d6575b5060405163a9059cbb60e01b81526001600160a01b0391909116600482015260248101839052906020908290604490829087905af180156103cb5761036091849161039c575b506114f8565b600c546040519182526001600160a01b0316907f46905eac8cf77ffeea71d53ec1edfeff61d4de579fb9e1f58235a3397ef302d590602090a280f35b6103be915060203d6020116103c4575b6103b68183611319565b8101906114d3565b5f61035a565b503d6103ac565b6040513d85823e3d90fd5b909192506020813d602011610409575b816103f360209383611319565b81010312610405575191906020610314565b5f80fd5b3d91506103e6565b6040513d86823e3d90fd5b60405162461bcd60e51b815260206004820152601360248201527215da5b9b995c881b9bdd081cd95b1958dd1959606a1b6044820152606490fd5b50346101e35760203660031901126101e3576004356001600160a01b038116908190036104e1576104866118bf565b80156104cd5781546001600160a01b03198116821783556001600160a01b03167f8be0079c531659141344cd1fd0a4f28419497f9722a3daafe3b4186f6b6457e08380a380f35b631e4fbdf760e01b82526004829052602482fd5b5080fd5b50346101e357806003193601126101e3576040517f00000000000000000000000000000000000000000000000000000000000000006001600160a01b03168152602090f35b50346101e357806003193601126101e357602060ff601054166040519015158152f35b50346101e357806003193601126101e357600c546040516001600160a01b039091168152602090f35b50346101e357806003193601126101e3577f00000000000000000000000000000000000000000000000000000000000000006105bc336001600160a01b0383161461141d565b6040516370a0823160e01b81523060048201527f00000000000000000000000000000000000000000000000000000000000000006001600160a01b0316602082602481845afa9182156104115784926106d8575b5081156106a65760405163a9059cbb60e01b81526001600160a01b03939093166004840152602483018290526020908390604490829087905af19081156103cb576106856020927f8e9f10b004ce7e96c30b2445271dd45d41fcfacb742cf4843f1b790afa7a765794869161068f57506114f8565b604051908152a180f35b6103be9150843d86116103c4576103b68183611319565b60405162461bcd60e51b815260206004820152600a6024820152694e6f2062616c616e636560b01b6044820152606490fd5b9091506020813d602011610704575b816106f460209383611319565b810103126104055751905f610610565b3d91506106e7565b50346101e357806003193601126101e3576020600854604051908152f35b50346101e357806003193601126101e3576020600f54604051908152f35b50346101e357806003193601126101e3576040517f00000000000000000000000000000000000000000000000000000000000000006001600160a01b03168152602090f35b50346101e357806003193601126101e3576020600954604051908152f35b50346101e357806003193601126101e3576040517f00000000000000000000000000000000000000000000000000000000000000006001600160a01b03168152602090f35b50346101e357806003193601126101e3576020600554604051908152f35b50346101e357806003193601126101e357602060ff600c5460a81c166040519015158152f35b50346101e357806003193601126101e357546040516001600160a01b039091168152602090f35b50346101e357806003193601126101e357602060ff600c5460a01c166040519015158152f35b50346101e35760203660031901126101e3576004356001600160a01b038116908190036104e15760408260ff9260209452600b84522054166040519015158152f35b5034610405575f36600319011261040557600260015414610c9457600260015560ff600c546108f7828260a81c1615611496565b60a01c16610c5e57600754421015610c2a57335f52600b60205260ff60405f205416610bf4576009546006541115610bc3576005546040516323b872dd60e01b815233600482015230602482015260448101919091526020816064815f7f00000000000000000000000000000000000000000000000000000000000000006001600160a01b03165af1908115610b35575f91610ba4575b5015610b685760095468010000000000000000811015610b54578060016109b892016009556112dd565b81549060031b9033821b9160018060a01b03901b1916179055600554335f52600a60205260405f2055335f52600b60205260405f20600160ff19825416179055600554610a0781600d546114eb565b600d557f00000000000000000000000000000000000000000000000000000000000000006001600160a01b03169064e8d4a510008082029180159083049091141715610b4057813b15610405575f9160a4839260405194859384926334ff261960e21b8452336004850152602484015260606044840152601860648401527f4c75636b7920647261772070617274696369706174696f6e000000000000000060848401525af18015610b3557610b22575b5060055464e8d4a51000810281810464e8d4a510001482151715610b0e5760405191825260208201527f51b7edbaf76c2d4666bf0dea3cd5214e035cdaed9a6cfb5b0fb0dbc1ac698caa60403392a26001805580f35b634e487b7160e01b83526011600452602483fd5b610b2e91505f90611319565b5f5f610ab8565b6040513d5f823e3d90fd5b634e487b7160e01b5f52601160045260245ffd5b634e487b7160e01b5f52604160045260245ffd5b60405162461bcd60e51b81526020600482015260146024820152731554d115081d1c985b9cd9995c8819985a5b195960621b6044820152606490fd5b610bbd915060203d6020116103c4576103b68183611319565b5f61098e565b60405162461bcd60e51b8152602060048201526009602482015268141bdbdb08199d5b1b60ba1b6044820152606490fd5b60405162461bcd60e51b815260206004820152600e60248201526d105b1c9958591e481a9bda5b995960921b6044820152606490fd5b60405162461bcd60e51b815260206004820152600c60248201526b141bdbdb08195e1c1a5c995960a21b6044820152606490fd5b60405162461bcd60e51b815260206004820152600e60248201526d141bdbdb08199a5b985b1a5e995960921b6044820152606490fd5b633ee5aeb560e01b5f5260045ffd5b34610405575f36600319011261040557610cd2610cbe61133b565b6040519182916020835260208301906112f5565b0390f35b346104055760403660031901126104055760243567ffffffffffffffff8111610405573660238201121561040557806004013567ffffffffffffffff8111610b54578060051b9160405191610d2e6020850184611319565b825260208201602481948301019136831161040557602401905b828210610edb575050507f00000000000000000000000000000000000000000000000000000000000000006001600160a01b03163303610ea257600e5460043503610e6857805115610e30575115610e1c575180600f556009548015610e08576020610dd67f75060f9e79552df167b73353fee6237a75bb5ba8ea022f77224e32f152138bcb9284066112dd565b60018060a01b0391549060031b1c1692836bffffffffffffffffffffffff60a01b600c541617600c55604051908152a2005b634e487b7160e01b5f52601260045260245ffd5b634e487b7160e01b5f52603260045260245ffd5b60405162461bcd60e51b815260206004820152601060248201526f2737903930b73237b690373ab6b132b960811b6044820152606490fd5b60405162461bcd60e51b8152602060048201526012602482015271125b9d985b1a59081c995c5d595cdd08125160721b6044820152606490fd5b60405162461bcd60e51b815260206004820152601160248201527027b7363c9029bab83930902937baba32b960791b6044820152606490fd5b8135815260209182019101610d48565b34610405575f36600319011261040557610f036118bf565b5f80546001600160a01b0319811682556001600160a01b03167f8be0079c531659141344cd1fd0a4f28419497f9722a3daafe3b4186f6b6457e08280a3005b34610405575f366003190112610405576020600d54604051908152f35b34610405575f366003190112610405576040517f00000000000000000000000000000000000000000000000000000000000000006001600160a01b03168152602090f35b34610405575f36600319011261040557610ff36003546004549060ff600554600654600954600d549060075492600c5494610fdc61133b565b986040519a8b9a6101608c526101608c01906112f5565b9860208b015260408a01526060890152608088015260a087015260c086015260e085015260018060a01b038116610100850152818160a01c16151561012085015260a81c1615156101408301520390f35b34610405575f366003190112610405576020600d546004541115604051908152f35b34610405575f366003190112610405576040518060206009549283815201809260095f527f6e1540171b6c0c960b71a7020d9f60077f6af931a8bbf590da0223dacf75c7af905f5b81811061110f57505050816110c4910382611319565b604051918291602083019060208452518091526040830191905f5b8181106110ed575050500390f35b82516001600160a01b03168452859450602093840193909201916001016110df565b82546001600160a01b03168452602090930192600192830192016110ae565b34610405575f366003190112610405576020600354604051908152f35b34610405576020366003190112610405576004356001600160a01b03811690819003610405575f52600a602052602060405f2054604051908152f35b3461040557602036600319011261040557600435600954811015610405576111b06020916112dd565b905460405160039290921b1c6001600160a01b03168152f35b34610405575f366003190112610405576020600654604051908152f35b34610405575f3660031901126104055761122a337f00000000000000000000000000000000000000000000000000000000000000006001600160a01b03161461141d565b60ff600c5461123e828260a01c1615611456565b60a81c166112505761124e61172a565b005b60405162461bcd60e51b8152602060048201526011602482015270105b1c9958591e4818d85b98d95b1b1959607a1b6044820152606490fd5b34610405575f366003190112610405576020600e54604051908152f35b34610405575f366003190112610405576020600454604051908152f35b34610405575f366003190112610405576020906007548152f35b600954811015610e1c5760095f5260205f2001905f90565b805180835260209291819084018484015e5f828201840152601f01601f1916010190565b90601f8019910116810190811067ffffffffffffffff821117610b5457604052565b604051905f6002548060011c9160018216918215611413575b6020841083146113ff5783865285929081156113e05750600114611381575b61137f92500383611319565b565b5060025f90815290917f405787fa12a823e0f2b7631cc41b3ba8828b3321ca811111fa75cd3aa3bb5ace5b8183106113c457505090602061137f92820101611373565b60209193508060019154838589010152019101909184926113ac565b6020925061137f94915060ff191682840152151560051b820101611373565b634e487b7160e01b5f52602260045260245ffd5b92607f1692611354565b1561142457565b60405162461bcd60e51b815260206004820152600a60248201526927b7363c9030b236b4b760b11b6044820152606490fd5b1561145d57565b60405162461bcd60e51b8152602060048201526011602482015270105b1c9958591e48199a5b985b1a5e9959607a1b6044820152606490fd5b1561149d57565b60405162461bcd60e51b815260206004820152600e60248201526d141bdbdb0818d85b98d95b1b195960921b6044820152606490fd5b90816020910312610405575180151581036104055790565b91908201809211610b4057565b156114ff57565b60405162461bcd60e51b815260206004820152600f60248201526e151c985b9cd9995c8819985a5b1959608a1b6044820152606490fd5b61155760ff600c5461154d828260a81c1615611496565b60a01c1615611456565b60075442106116f457600954156116bd5760ff6010541661168457600d546004541161167c57600160ff19601054161760105560405163d291ba0960e01b815260806004820152601b60848201527f63616c6c6261636b2875696e743235362c75696e743235365b5d29000000000060a4820152600160248201526001604482015230606482015260208160c4815f60018060a01b037f0000000000000000000000000000000000000000000000000000000000000000165af1908115610b35575f9161164a575b5080600e557f9ac10fb18c93d33ad7b0a941897aef048d0f8d30756684e82b4552ba12764d455f80a2565b90506020813d602011611674575b8161166560209383611319565b8101031261040557515f61161f565b3d9150611658565b61137f61172a565b60405162461bcd60e51b8152602060048201526011602482015270105b1c9958591e481c995c5d595cdd1959607a1b6044820152606490fd5b60405162461bcd60e51b815260206004820152600f60248201526e4e6f207061727469636970616e747360881b6044820152606490fd5b60405162461bcd60e51b815260206004820152600e60248201526d141bdbdb081b9bdd08195b99195960921b6044820152606490fd5b600c805460ff60a81b1916600160a81b1790555f90815b60095481101561189057611754816112dd565b905460039190911b1c6001600160a01b03165f818152600a60205260409020549081611785575b5050600101611741565b5f818152600a602090815260408083208390555163a9059cbb60e01b81526001600160a01b03808516600483015260248201869052949795949092839160449183917f0000000000000000000000000000000000000000000000000000000000000000165af1908115610b35575f91611872575b501561183d577fd7dee2702d63ad89917b6a4da9981c90c4d24f8c2bdfd64c604ecae57d8d0651602061182e876001966114eb565b96604051908152a2905f61177b565b60405162461bcd60e51b815260206004820152600d60248201526c1499599d5b990819985a5b1959609a1b6044820152606490fd5b61188a915060203d81116103c4576103b68183611319565b5f6117f9565b509060207f3d229dd60fc64b0903758feed58453f62e715f5d01dc0978c0a3a312dd2776c291604051908152a1565b5f546001600160a01b031633036118d257565b63118cdaa760e01b5f523360045260245ffdfea2646970667358221220dacb538eefd2bc1751938cafe162b90177d956adfbc6dde27c70fec98c2e2a5464736f6c634300081c0033a26469706673582212202c365d14d59807ed4502754167a22fb52d20444b4bb28fc4b3b93c8405f58bc864736f6c634300081c0033","opcodes":"PUSH1 0xE0 CALLVALUE PUSH2 0xD4 JUMPI PUSH1 0x1F PUSH2 0x25D8 CODESIZE DUP2 SWAP1 SUB SWAP2 DUP3 ADD PUSH1 0x1F NOT AND DUP4 ADD SWAP2 PUSH1 0x1 PUSH1 0x1 PUSH1 0x40 SHL SUB DUP4 GT DUP5 DUP5 LT OR PUSH2 0xD8 JUMPI DUP1 DUP5 SWAP3 PUSH1 0x80 SWAP5 PUSH1 0x40 MSTORE DUP4 CODECOPY DUP2 ADD SUB SLT PUSH2 0xD4 JUMPI PUSH2 0x47 DUP2 PUSH2 0xEC JUMP JUMPDEST SWAP1 PUSH2 0x54 PUSH1 0x20 DUP3 ADD PUSH2 0xEC JUMP JUMPDEST PUSH2 0x6C PUSH1 0x60 PUSH2 0x65 PUSH1 0x40 DUP6 ADD PUSH2 0xEC JUMP JUMPDEST SWAP4 ADD PUSH2 0xEC JUMP JUMPDEST PUSH1 0x80 SWAP4 SWAP1 SWAP4 MSTORE PUSH1 0xA0 MSTORE PUSH1 0xC0 MSTORE PUSH0 DUP1 SLOAD PUSH1 0x1 PUSH1 0x1 PUSH1 0xA0 SHL SUB NOT AND PUSH1 0x1 PUSH1 0x1 PUSH1 0xA0 SHL SUB SWAP1 SWAP3 AND SWAP2 SWAP1 SWAP2 OR SWAP1 SSTORE PUSH1 0x40 MLOAD PUSH2 0x24D7 SWAP1 DUP2 PUSH2 0x101 DUP3 CODECOPY PUSH1 0x80 MLOAD DUP2 DUP2 DUP2 PUSH2 0x2C8 ADD MSTORE PUSH2 0x4B8 ADD MSTORE PUSH1 0xA0 MLOAD DUP2 DUP2 DUP2 PUSH2 0x2ED ADD MSTORE PUSH2 0x5CD ADD MSTORE PUSH1 0xC0 MLOAD DUP2 DUP2 DUP2 PUSH1 0xE0 ADD MSTORE PUSH2 0x315 ADD MSTORE RETURN JUMPDEST PUSH0 DUP1 REVERT JUMPDEST PUSH4 0x4E487B71 PUSH1 0xE0 SHL PUSH0 MSTORE PUSH1 0x41 PUSH1 0x4 MSTORE PUSH1 0x24 PUSH0 REVERT JUMPDEST MLOAD SWAP1 PUSH1 0x1 PUSH1 0x1 PUSH1 0xA0 SHL SUB DUP3 AND DUP3 SUB PUSH2 0xD4 JUMPI JUMP INVALID PUSH1 0x80 DUP1 PUSH1 0x40 MSTORE PUSH1 0x4 CALLDATASIZE LT ISZERO PUSH2 0x12 JUMPI PUSH0 DUP1 REVERT JUMPDEST PUSH0 CALLDATALOAD PUSH1 0xE0 SHR SWAP1 DUP2 PUSH4 0x2D380CCA EQ PUSH2 0x6B1 JUMPI POP DUP1 PUSH4 0x41D1DE97 EQ PUSH2 0x639 JUMPI DUP1 PUSH4 0x5B16EBB7 EQ PUSH2 0x5FC JUMPI DUP1 PUSH4 0x6B0CE9EA EQ PUSH2 0x5B8 JUMPI DUP1 PUSH4 0x704B6C02 EQ PUSH2 0x504 JUMPI DUP1 PUSH4 0x8EEC5D70 EQ PUSH2 0x4E7 JUMPI DUP1 PUSH4 0xA98AD46C EQ PUSH2 0x4A3 JUMPI DUP1 PUSH4 0xAE808E80 EQ PUSH2 0x1FE JUMPI DUP1 PUSH4 0xBBEF6F90 EQ PUSH2 0x19C JUMPI DUP1 PUSH4 0xD88FF1F4 EQ PUSH2 0x10F JUMPI DUP1 PUSH4 0xE621FF8A EQ PUSH2 0xCB JUMPI PUSH4 0xF851A440 EQ PUSH2 0xA0 JUMPI PUSH0 DUP1 REVERT JUMPDEST CALLVALUE PUSH2 0xC7 JUMPI PUSH0 CALLDATASIZE PUSH1 0x3 NOT ADD SLT PUSH2 0xC7 JUMPI PUSH0 SLOAD PUSH1 0x40 MLOAD PUSH1 0x1 PUSH1 0x1 PUSH1 0xA0 SHL SUB SWAP1 SWAP2 AND DUP2 MSTORE PUSH1 0x20 SWAP1 RETURN JUMPDEST PUSH0 DUP1 REVERT JUMPDEST CALLVALUE PUSH2 0xC7 JUMPI PUSH0 CALLDATASIZE PUSH1 0x3 NOT ADD SLT PUSH2 0xC7 JUMPI PUSH1 0x40 MLOAD PUSH32 0x0 PUSH1 0x1 PUSH1 0x1 PUSH1 0xA0 SHL SUB AND DUP2 MSTORE PUSH1 0x20 SWAP1 RETURN JUMPDEST CALLVALUE PUSH2 0xC7 JUMPI PUSH0 CALLDATASIZE PUSH1 0x3 NOT ADD SLT PUSH2 0xC7 JUMPI PUSH1 0x40 MLOAD DUP1 PUSH1 0x20 PUSH1 0x1 SLOAD SWAP2 DUP3 DUP2 MSTORE ADD SWAP1 PUSH1 0x1 PUSH0 MSTORE PUSH32 0xB10E2D527612073B26EECDFD717E6A320CF44B4AFAC2B0732D9FCBE2B7FA0CF6 SWAP1 PUSH0 JUMPDEST DUP2 DUP2 LT PUSH2 0x17D JUMPI PUSH2 0x179 DUP6 PUSH2 0x16D DUP2 DUP8 SUB DUP3 PUSH2 0x794 JUMP JUMPDEST PUSH1 0x40 MLOAD SWAP2 DUP3 SWAP2 DUP3 PUSH2 0x73D JUMP JUMPDEST SUB SWAP1 RETURN JUMPDEST DUP3 SLOAD PUSH1 0x1 PUSH1 0x1 PUSH1 0xA0 SHL SUB AND DUP5 MSTORE PUSH1 0x20 SWAP1 SWAP4 ADD SWAP3 PUSH1 0x1 SWAP3 DUP4 ADD SWAP3 ADD PUSH2 0x156 JUMP JUMPDEST CALLVALUE PUSH2 0xC7 JUMPI PUSH1 0x40 CALLDATASIZE PUSH1 0x3 NOT ADD SLT PUSH2 0xC7 JUMPI PUSH2 0x1B5 PUSH2 0x727 JUMP JUMPDEST PUSH1 0x1 PUSH1 0x1 PUSH1 0xA0 SHL SUB AND PUSH0 SWAP1 DUP2 MSTORE PUSH1 0x2 PUSH1 0x20 MSTORE PUSH1 0x40 SWAP1 KECCAK256 DUP1 SLOAD PUSH1 0x24 CALLDATALOAD SWAP2 SWAP1 DUP3 LT ISZERO PUSH2 0xC7 JUMPI PUSH1 0x20 SWAP2 PUSH2 0x1E5 SWAP2 PUSH2 0x77F JUMP JUMPDEST SWAP1 SLOAD PUSH1 0x40 MLOAD PUSH1 0x3 SWAP3 SWAP1 SWAP3 SHL SHR PUSH1 0x1 PUSH1 0x1 PUSH1 0xA0 SHL SUB AND DUP2 MSTORE RETURN JUMPDEST CALLVALUE PUSH2 0xC7 JUMPI PUSH1 0xE0 CALLDATASIZE PUSH1 0x3 NOT ADD SLT PUSH2 0xC7 JUMPI PUSH2 0x217 PUSH2 0x727 JUMP JUMPDEST PUSH1 0x24 CALLDATALOAD SWAP1 PUSH8 0xFFFFFFFFFFFFFFFF DUP3 GT PUSH2 0xC7 JUMPI CALLDATASIZE PUSH1 0x23 DUP4 ADD SLT ISZERO PUSH2 0xC7 JUMPI DUP2 PUSH1 0x4 ADD CALLDATALOAD PUSH8 0xFFFFFFFFFFFFFFFF DUP2 GT PUSH2 0x484 JUMPI PUSH1 0x40 MLOAD SWAP3 PUSH2 0x261 PUSH1 0x1F DUP4 ADD PUSH1 0x1F NOT AND PUSH1 0x20 ADD DUP6 PUSH2 0x794 JUMP JUMPDEST DUP2 DUP5 MSTORE CALLDATASIZE PUSH1 0x24 DUP4 DUP4 ADD ADD GT PUSH2 0xC7 JUMPI DUP2 PUSH0 SWAP3 PUSH1 0x24 PUSH1 0x20 SWAP4 ADD DUP4 DUP8 ADD CALLDATACOPY DUP5 ADD ADD MSTORE PUSH0 SLOAD PUSH1 0x40 MLOAD PUSH1 0xA4 CALLDATALOAD SWAP4 PUSH1 0x64 CALLDATALOAD SWAP3 PUSH1 0x84 CALLDATALOAD SWAP3 SWAP1 PUSH2 0x1CC7 SWAP1 DUP2 DUP4 ADD SWAP1 PUSH1 0x1 PUSH1 0x1 PUSH1 0xA0 SHL SUB AND PUSH8 0xFFFFFFFFFFFFFFFF DUP3 GT DUP5 DUP4 LT OR PUSH2 0x484 JUMPI DUP4 SWAP3 PUSH2 0x7DB DUP5 CODECOPY PUSH1 0x1 PUSH1 0x1 PUSH1 0xA0 SHL SUB PUSH32 0x0 DUP2 AND DUP4 MSTORE PUSH32 0x0 DUP2 AND PUSH1 0x20 DUP5 ADD MSTORE PUSH32 0x0 AND PUSH1 0x40 DUP4 ADD MSTORE PUSH1 0x60 DUP3 ADD MSTORE PUSH2 0x140 PUSH1 0x80 DUP3 ADD DUP2 SWAP1 MSTORE PUSH2 0x355 SWAP1 DUP3 ADD DUP6 PUSH2 0x7B6 JUMP JUMPDEST SWAP1 PUSH1 0x44 CALLDATALOAD PUSH1 0xA0 DUP3 ADD MSTORE DUP7 PUSH1 0xC0 DUP3 ADD MSTORE DUP6 PUSH1 0xE0 DUP3 ADD MSTORE DUP9 PUSH2 0x100 DUP3 ADD MSTORE PUSH2 0x120 PUSH1 0xC4 CALLDATALOAD SWAP2 ADD MSTORE SUB SWAP1 PUSH0 CREATE DUP1 ISZERO PUSH2 0x498 JUMPI PUSH1 0x1 DUP1 PUSH1 0xA0 SHL SUB AND SWAP4 PUSH1 0x1 SLOAD PUSH1 0x1 PUSH1 0x40 SHL DUP2 LT ISZERO PUSH2 0x484 JUMPI DUP1 PUSH1 0x1 PUSH2 0x3AE SWAP3 ADD PUSH1 0x1 SSTORE PUSH1 0x1 PUSH2 0x77F JUMP JUMPDEST DUP2 SLOAD PUSH1 0x1 PUSH1 0x1 PUSH1 0xA0 SHL SUB PUSH1 0x3 SWAP3 SWAP1 SWAP3 SHL DUP3 DUP2 SHL NOT SWAP1 SWAP2 AND SWAP1 DUP9 SWAP1 SHL OR SWAP1 SWAP2 SSTORE AND PUSH0 DUP2 DUP2 MSTORE PUSH1 0x2 PUSH1 0x20 MSTORE PUSH1 0x40 SWAP1 KECCAK256 DUP1 SLOAD SWAP2 SWAP5 SWAP1 SWAP3 SWAP1 PUSH1 0x1 PUSH1 0x40 SHL DUP4 LT ISZERO PUSH2 0x484 JUMPI PUSH1 0x20 SWAP8 DUP8 SWAP6 PUSH2 0x427 DUP6 PUSH32 0xBB7692B5CCDF241714F597949C7D2C2148AFC9532ABBBF001FF1D28CB3310DA7 SWAP8 PUSH1 0x1 PUSH2 0x46A SWAP9 ADD DUP2 SSTORE PUSH2 0x77F JUMP JUMPDEST DUP2 SLOAD SWAP1 PUSH1 0x3 SHL SWAP1 DUP10 DUP3 SHL SWAP2 PUSH1 0x1 DUP1 PUSH1 0xA0 SHL SUB SWAP1 SHL NOT AND OR SWAP1 SSTORE DUP7 PUSH0 MSTORE PUSH1 0x3 DUP11 MSTORE PUSH1 0x40 PUSH0 KECCAK256 PUSH1 0x1 PUSH1 0xFF NOT DUP3 SLOAD AND OR SWAP1 SSTORE PUSH1 0x40 MLOAD SWAP5 DUP6 SWAP5 PUSH1 0x80 DUP7 MSTORE PUSH1 0x80 DUP7 ADD SWAP1 PUSH2 0x7B6 JUMP JUMPDEST SWAP3 DUP11 DUP6 ADD MSTORE PUSH1 0x40 DUP5 ADD MSTORE PUSH1 0x60 DUP4 ADD MSTORE SUB SWAP1 LOG3 PUSH1 0x40 MLOAD SWAP1 DUP2 MSTORE RETURN JUMPDEST PUSH4 0x4E487B71 PUSH1 0xE0 SHL PUSH0 MSTORE PUSH1 0x41 PUSH1 0x4 MSTORE PUSH1 0x24 PUSH0 REVERT JUMPDEST PUSH1 0x40 MLOAD RETURNDATASIZE PUSH0 DUP3 RETURNDATACOPY RETURNDATASIZE SWAP1 REVERT JUMPDEST CALLVALUE PUSH2 0xC7 JUMPI PUSH0 CALLDATASIZE PUSH1 0x3 NOT ADD SLT PUSH2 0xC7 JUMPI PUSH1 0x40 MLOAD PUSH32 0x0 PUSH1 0x1 PUSH1 0x1 PUSH1 0xA0 SHL SUB AND DUP2 MSTORE PUSH1 0x20 SWAP1 RETURN JUMPDEST CALLVALUE PUSH2 0xC7 JUMPI PUSH0 CALLDATASIZE PUSH1 0x3 NOT ADD SLT PUSH2 0xC7 JUMPI PUSH1 0x20 PUSH1 0x1 SLOAD PUSH1 0x40 MLOAD SWAP1 DUP2 MSTORE RETURN JUMPDEST CALLVALUE PUSH2 0xC7 JUMPI PUSH1 0x20 CALLDATASIZE PUSH1 0x3 NOT ADD SLT PUSH2 0xC7 JUMPI PUSH2 0x51D PUSH2 0x727 JUMP JUMPDEST PUSH0 SLOAD SWAP1 PUSH1 0x1 PUSH1 0x1 PUSH1 0xA0 SHL SUB DUP3 AND CALLER SUB PUSH2 0x586 JUMPI PUSH1 0x1 PUSH1 0x1 PUSH1 0xA0 SHL SUB AND SWAP1 DUP2 ISZERO PUSH2 0x54F JUMPI PUSH1 0x1 PUSH1 0x1 PUSH1 0xA0 SHL SUB NOT AND OR PUSH0 SSTORE STOP JUMPDEST PUSH1 0x40 MLOAD PUSH3 0x461BCD PUSH1 0xE5 SHL DUP2 MSTORE PUSH1 0x20 PUSH1 0x4 DUP3 ADD MSTORE PUSH1 0xF PUSH1 0x24 DUP3 ADD MSTORE PUSH15 0x496E76616C69642061646472657373 PUSH1 0x88 SHL PUSH1 0x44 DUP3 ADD MSTORE PUSH1 0x64 SWAP1 REVERT JUMPDEST PUSH1 0x40 MLOAD PUSH3 0x461BCD PUSH1 0xE5 SHL DUP2 MSTORE PUSH1 0x20 PUSH1 0x4 DUP3 ADD MSTORE PUSH1 0xA PUSH1 0x24 DUP3 ADD MSTORE PUSH10 0x27B7363C9030B236B4B7 PUSH1 0xB1 SHL PUSH1 0x44 DUP3 ADD MSTORE PUSH1 0x64 SWAP1 REVERT JUMPDEST CALLVALUE PUSH2 0xC7 JUMPI PUSH0 CALLDATASIZE PUSH1 0x3 NOT ADD SLT PUSH2 0xC7 JUMPI PUSH1 0x40 MLOAD PUSH32 0x0 PUSH1 0x1 PUSH1 0x1 PUSH1 0xA0 SHL SUB AND DUP2 MSTORE PUSH1 0x20 SWAP1 RETURN JUMPDEST CALLVALUE PUSH2 0xC7 JUMPI PUSH1 0x20 CALLDATASIZE PUSH1 0x3 NOT ADD SLT PUSH2 0xC7 JUMPI PUSH1 0x1 PUSH1 0x1 PUSH1 0xA0 SHL SUB PUSH2 0x61D PUSH2 0x727 JUMP JUMPDEST AND PUSH0 MSTORE PUSH1 0x3 PUSH1 0x20 MSTORE PUSH1 0x20 PUSH1 0xFF PUSH1 0x40 PUSH0 KECCAK256 SLOAD AND PUSH1 0x40 MLOAD SWAP1 ISZERO ISZERO DUP2 MSTORE RETURN JUMPDEST CALLVALUE PUSH2 0xC7 JUMPI PUSH1 0x20 CALLDATASIZE PUSH1 0x3 NOT ADD SLT PUSH2 0xC7 JUMPI PUSH1 0x4 CALLDATALOAD PUSH1 0x1 SLOAD DUP2 LT ISZERO PUSH2 0xC7 JUMPI PUSH1 0x1 SLOAD DUP2 LT ISZERO PUSH2 0x69D JUMPI PUSH1 0x1 PUSH0 MSTORE PUSH32 0xB10E2D527612073B26EECDFD717E6A320CF44B4AFAC2B0732D9FCBE2B7FA0CF6 ADD SLOAD PUSH1 0x40 MLOAD PUSH1 0x1 PUSH1 0x1 PUSH1 0xA0 SHL SUB SWAP1 SWAP2 AND DUP2 MSTORE PUSH1 0x20 SWAP1 RETURN JUMPDEST PUSH4 0x4E487B71 PUSH1 0xE0 SHL PUSH0 MSTORE PUSH1 0x32 PUSH1 0x4 MSTORE PUSH1 0x24 PUSH0 REVERT JUMPDEST CALLVALUE PUSH2 0xC7 JUMPI PUSH1 0x20 CALLDATASIZE PUSH1 0x3 NOT ADD SLT PUSH2 0xC7 JUMPI PUSH1 0x1 PUSH1 0x1 PUSH1 0xA0 SHL SUB PUSH2 0x6D2 PUSH2 0x727 JUMP JUMPDEST AND PUSH0 MSTORE PUSH1 0x2 PUSH1 0x20 MSTORE PUSH1 0x40 PUSH0 KECCAK256 DUP1 SLOAD DUP1 DUP4 MSTORE PUSH1 0x20 DUP4 ADD SWAP2 PUSH0 MSTORE PUSH1 0x20 PUSH0 KECCAK256 SWAP1 PUSH0 JUMPDEST DUP2 DUP2 LT PUSH2 0x708 JUMPI PUSH2 0x179 DUP6 PUSH2 0x16D DUP2 DUP8 SUB DUP3 PUSH2 0x794 JUMP JUMPDEST DUP3 SLOAD PUSH1 0x1 PUSH1 0x1 PUSH1 0xA0 SHL SUB AND DUP5 MSTORE PUSH1 0x20 SWAP1 SWAP4 ADD SWAP3 PUSH1 0x1 SWAP3 DUP4 ADD SWAP3 ADD PUSH2 0x6F1 JUMP JUMPDEST PUSH1 0x4 CALLDATALOAD SWAP1 PUSH1 0x1 PUSH1 0x1 PUSH1 0xA0 SHL SUB DUP3 AND DUP3 SUB PUSH2 0xC7 JUMPI JUMP JUMPDEST PUSH1 0x20 PUSH1 0x40 DUP2 DUP4 ADD SWAP3 DUP3 DUP2 MSTORE DUP5 MLOAD DUP1 SWAP5 MSTORE ADD SWAP3 ADD SWAP1 PUSH0 JUMPDEST DUP2 DUP2 LT PUSH2 0x760 JUMPI POP POP POP SWAP1 JUMP JUMPDEST DUP3 MLOAD PUSH1 0x1 PUSH1 0x1 PUSH1 0xA0 SHL SUB AND DUP5 MSTORE PUSH1 0x20 SWAP4 DUP5 ADD SWAP4 SWAP1 SWAP3 ADD SWAP2 PUSH1 0x1 ADD PUSH2 0x753 JUMP JUMPDEST DUP1 SLOAD DUP3 LT ISZERO PUSH2 0x69D JUMPI PUSH0 MSTORE PUSH1 0x20 PUSH0 KECCAK256 ADD SWAP1 PUSH0 SWAP1 JUMP JUMPDEST SWAP1 PUSH1 0x1F DUP1 NOT SWAP2 ADD AND DUP2 ADD SWAP1 DUP2 LT PUSH8 0xFFFFFFFFFFFFFFFF DUP3 GT OR PUSH2 0x484 JUMPI PUSH1 0x40 MSTORE JUMP JUMPDEST DUP1 MLOAD DUP1 DUP4 MSTORE PUSH1 0x20 SWAP3 SWAP2 DUP2 SWAP1 DUP5 ADD DUP5 DUP5 ADD MCOPY PUSH0 DUP3 DUP3 ADD DUP5 ADD MSTORE PUSH1 0x1F ADD PUSH1 0x1F NOT AND ADD ADD SWAP1 JUMP INVALID PUSH2 0x120 PUSH1 0x40 MSTORE CALLVALUE PUSH2 0x36E JUMPI PUSH2 0x1CC7 DUP1 CODESIZE SUB DUP1 PUSH2 0x1A DUP2 PUSH2 0x372 JUMP JUMPDEST SWAP3 DUP4 CODECOPY DUP2 ADD SWAP1 PUSH2 0x140 DUP2 DUP4 SUB SLT PUSH2 0x36E JUMPI PUSH2 0x34 DUP2 PUSH2 0x397 JUMP JUMPDEST PUSH2 0x40 PUSH1 0x20 DUP4 ADD PUSH2 0x397 JUMP JUMPDEST PUSH2 0x4C PUSH1 0x40 DUP5 ADD PUSH2 0x397 JUMP JUMPDEST PUSH2 0x58 PUSH1 0x60 DUP6 ADD PUSH2 0x397 JUMP JUMPDEST PUSH1 0x80 DUP6 ADD MLOAD SWAP1 SWAP6 SWAP1 PUSH1 0x1 PUSH1 0x1 PUSH1 0x40 SHL SUB DUP2 GT PUSH2 0x36E JUMPI DUP6 ADD DUP2 PUSH1 0x1F DUP3 ADD SLT ISZERO PUSH2 0x36E JUMPI DUP1 MLOAD SWAP1 PUSH1 0x1 PUSH1 0x1 PUSH1 0x40 SHL SUB DUP3 GT PUSH2 0x347 JUMPI PUSH2 0x9F PUSH1 0x1F DUP4 ADD PUSH1 0x1F NOT AND PUSH1 0x20 ADD PUSH2 0x372 JUMP JUMPDEST SWAP3 DUP3 DUP5 MSTORE PUSH1 0x20 DUP4 DUP4 ADD ADD GT PUSH2 0x36E JUMPI DUP2 PUSH0 SWAP3 PUSH1 0x20 DUP1 SWAP4 ADD DUP4 DUP7 ADD MCOPY DUP4 ADD ADD MSTORE PUSH1 0xA0 DUP6 ADD MLOAD SWAP2 PUSH1 0xC0 DUP7 ADD MLOAD SWAP4 PUSH1 0xE0 DUP8 ADD MLOAD SWAP6 PUSH2 0x120 PUSH2 0x100 DUP10 ADD MLOAD SWAP9 ADD MLOAD SWAP9 CALLER ISZERO PUSH2 0x35B JUMPI PUSH0 DUP1 SLOAD CALLER PUSH1 0x1 PUSH1 0x1 PUSH1 0xA0 SHL SUB NOT DUP3 AND DUP2 OR DUP4 SSTORE SWAP2 PUSH1 0x1 PUSH1 0x1 PUSH1 0xA0 SHL SUB SWAP1 SWAP2 AND SWAP1 PUSH32 0x8BE0079C531659141344CD1FD0A4F28419497F9722A3DAAFE3B4186F6B6457E0 SWAP1 DUP1 LOG3 PUSH1 0x1 DUP1 SSTORE CALLER PUSH1 0xE0 MSTORE PUSH2 0x100 MSTORE PUSH1 0x1 PUSH1 0x1 PUSH1 0xA0 SHL SUB SWAP1 DUP2 AND PUSH1 0x80 MSTORE SWAP1 DUP2 AND PUSH1 0xA0 MSTORE AND PUSH1 0xC0 MSTORE DUP1 MLOAD SWAP1 PUSH1 0x1 PUSH1 0x1 PUSH1 0x40 SHL SUB DUP3 GT PUSH2 0x347 JUMPI PUSH1 0x2 SLOAD SWAP1 PUSH1 0x1 DUP3 DUP2 SHR SWAP3 AND DUP1 ISZERO PUSH2 0x33D JUMPI JUMPDEST PUSH1 0x20 DUP4 LT EQ PUSH2 0x329 JUMPI DUP2 PUSH1 0x1F DUP5 SWAP4 GT PUSH2 0x2BB JUMPI JUMPDEST POP PUSH1 0x20 SWAP1 PUSH1 0x1F DUP4 GT PUSH1 0x1 EQ PUSH2 0x255 JUMPI PUSH0 SWAP3 PUSH2 0x24A JUMPI JUMPDEST POP POP DUP2 PUSH1 0x1 SHL SWAP2 PUSH0 NOT SWAP1 PUSH1 0x3 SHL SHR NOT AND OR PUSH1 0x2 SSTORE JUMPDEST PUSH1 0x3 SSTORE PUSH1 0x4 SSTORE PUSH1 0x5 SSTORE PUSH1 0x6 SSTORE PUSH1 0x7 SSTORE TIMESTAMP PUSH1 0x8 SSTORE PUSH1 0x40 MLOAD PUSH2 0x191B SWAP1 DUP2 PUSH2 0x3AC DUP3 CODECOPY PUSH1 0x80 MLOAD DUP2 DUP2 DUP2 PUSH2 0x2D4 ADD MSTORE DUP2 DUP2 PUSH2 0x5D1 ADD MSTORE DUP2 DUP2 PUSH2 0x7C1 ADD MSTORE DUP2 DUP2 PUSH2 0x956 ADD MSTORE PUSH2 0x17C9 ADD MSTORE PUSH1 0xA0 MLOAD DUP2 DUP2 DUP2 PUSH2 0xA0C ADD MSTORE PUSH2 0xF74 ADD MSTORE PUSH1 0xC0 MLOAD DUP2 DUP2 DUP2 PUSH2 0x4FB ADD MSTORE DUP2 DUP2 PUSH2 0xD54 ADD MSTORE PUSH2 0x15EF ADD MSTORE PUSH1 0xE0 MLOAD DUP2 PUSH2 0x75E ADD MSTORE PUSH2 0x100 MLOAD DUP2 DUP2 DUP2 PUSH2 0x1B4 ADD MSTORE DUP2 DUP2 PUSH2 0x1FD ADD MSTORE DUP2 DUP2 PUSH2 0x249 ADD MSTORE DUP2 DUP2 PUSH2 0x589 ADD MSTORE PUSH2 0x11FC ADD MSTORE RETURN JUMPDEST ADD MLOAD SWAP1 POP PUSH0 DUP1 PUSH2 0x198 JUMP JUMPDEST PUSH1 0x2 PUSH0 SWAP1 DUP2 MSTORE DUP3 DUP2 KECCAK256 SWAP4 POP PUSH1 0x1F NOT DUP6 AND SWAP1 JUMPDEST DUP2 DUP2 LT PUSH2 0x2A3 JUMPI POP SWAP1 DUP5 PUSH1 0x1 SWAP6 SWAP5 SWAP4 SWAP3 LT PUSH2 0x28B JUMPI JUMPDEST POP POP POP DUP2 SHL ADD PUSH1 0x2 SSTORE PUSH2 0x1AD JUMP JUMPDEST ADD MLOAD PUSH0 NOT PUSH1 0xF8 DUP5 PUSH1 0x3 SHL AND SHR NOT AND SWAP1 SSTORE PUSH0 DUP1 DUP1 PUSH2 0x27D JUMP JUMPDEST SWAP3 SWAP4 PUSH1 0x20 PUSH1 0x1 DUP2 SWAP3 DUP8 DUP7 ADD MLOAD DUP2 SSTORE ADD SWAP6 ADD SWAP4 ADD PUSH2 0x267 JUMP JUMPDEST PUSH1 0x2 PUSH0 MSTORE SWAP1 SWAP2 POP PUSH32 0x405787FA12A823E0F2B7631CC41B3BA8828B3321CA811111FA75CD3AA3BB5ACE PUSH1 0x1F DUP5 ADD PUSH1 0x5 SHR DUP2 ADD SWAP2 PUSH1 0x20 DUP6 LT PUSH2 0x31F JUMPI JUMPDEST SWAP1 PUSH1 0x1F DUP6 SWAP5 SWAP4 SWAP3 ADD PUSH1 0x5 SHR ADD SWAP1 JUMPDEST DUP2 DUP2 LT PUSH2 0x311 JUMPI POP PUSH2 0x182 JUMP JUMPDEST PUSH0 DUP2 SSTORE DUP5 SWAP4 POP PUSH1 0x1 ADD PUSH2 0x304 JUMP JUMPDEST SWAP1 SWAP2 POP DUP2 SWAP1 PUSH2 0x2F6 JUMP JUMPDEST PUSH4 0x4E487B71 PUSH1 0xE0 SHL PUSH0 MSTORE PUSH1 0x22 PUSH1 0x4 MSTORE PUSH1 0x24 PUSH0 REVERT JUMPDEST SWAP2 PUSH1 0x7F AND SWAP2 PUSH2 0x16E JUMP JUMPDEST PUSH4 0x4E487B71 PUSH1 0xE0 SHL PUSH0 MSTORE PUSH1 0x41 PUSH1 0x4 MSTORE PUSH1 0x24 PUSH0 REVERT JUMPDEST PUSH4 0x1E4FBDF7 PUSH1 0xE0 SHL PUSH0 MSTORE PUSH0 PUSH1 0x4 MSTORE PUSH1 0x24 PUSH0 REVERT JUMPDEST PUSH0 DUP1 REVERT JUMPDEST PUSH1 0x40 MLOAD SWAP2 SWAP1 PUSH1 0x1F ADD PUSH1 0x1F NOT AND DUP3 ADD PUSH1 0x1 PUSH1 0x1 PUSH1 0x40 SHL SUB DUP2 GT DUP4 DUP3 LT OR PUSH2 0x347 JUMPI PUSH1 0x40 MSTORE JUMP JUMPDEST MLOAD SWAP1 PUSH1 0x1 PUSH1 0x1 PUSH1 0xA0 SHL SUB DUP3 AND DUP3 SUB PUSH2 0x36E JUMPI JUMP INVALID PUSH1 0x80 DUP1 PUSH1 0x40 MSTORE PUSH1 0x4 CALLDATASIZE LT ISZERO PUSH2 0x12 JUMPI PUSH0 DUP1 REVERT JUMPDEST PUSH0 SWAP1 PUSH0 CALLDATALOAD PUSH1 0xE0 SHR SWAP1 DUP2 PUSH4 0x231141A EQ PUSH2 0x12C3 JUMPI POP DUP1 PUSH4 0x1209B1F6 EQ PUSH2 0x12A6 JUMPI DUP1 PUSH4 0x18A7EA5F EQ PUSH2 0x1289 JUMPI DUP1 PUSH4 0x1B55B2A8 EQ PUSH2 0x11E6 JUMPI DUP1 PUSH4 0x24924BF7 EQ PUSH2 0x11C9 JUMPI DUP1 PUSH4 0x35C1D349 EQ PUSH2 0x1187 JUMPI DUP1 PUSH4 0x42E94C90 EQ PUSH2 0x114B JUMPI DUP1 PUSH4 0x4BFBE5DF EQ PUSH2 0x112E JUMPI DUP1 PUSH4 0x5AA68AC0 EQ PUSH2 0x1066 JUMPI DUP1 PUSH4 0x5E098F05 EQ PUSH2 0x1044 JUMPI DUP1 PUSH4 0x60246C88 EQ PUSH2 0xFA3 JUMPI DUP1 PUSH4 0x6B0CE9EA EQ PUSH2 0xF5F JUMPI DUP1 PUSH4 0x6EC21CC8 EQ PUSH2 0xF42 JUMPI DUP1 PUSH4 0x715018A6 EQ PUSH2 0xEEB JUMPI DUP1 PUSH4 0x7D183F3D EQ PUSH2 0xCD6 JUMPI DUP1 PUSH4 0x8043C9C0 EQ PUSH2 0xCA3 JUMPI DUP1 PUSH4 0x8371E6B4 EQ PUSH2 0x8C3 JUMPI DUP1 PUSH4 0x877F4E12 EQ PUSH2 0x881 JUMPI DUP1 PUSH4 0x8D4E4083 EQ PUSH2 0x85B JUMPI DUP1 PUSH4 0x8DA5CB5B EQ PUSH2 0x834 JUMPI DUP1 PUSH4 0x95EE1221 EQ PUSH2 0x80E JUMPI DUP1 PUSH4 0x991DEF3C EQ PUSH2 0x7F0 JUMPI DUP1 PUSH4 0xA98AD46C EQ PUSH2 0x7AB JUMPI DUP1 PUSH4 0xAD605729 EQ PUSH2 0x78D JUMPI DUP1 PUSH4 0xC45A0155 EQ PUSH2 0x748 JUMPI DUP1 PUSH4 0xCCBAC9F5 EQ PUSH2 0x72A JUMPI DUP1 PUSH4 0xCF09E0D0 EQ PUSH2 0x70C JUMPI DUP1 PUSH4 0xDB2E21BC EQ PUSH2 0x576 JUMPI DUP1 PUSH4 0xDFBF53AE EQ PUSH2 0x54D JUMPI DUP1 PUSH4 0xE5B8BDAC EQ PUSH2 0x52A JUMPI DUP1 PUSH4 0xE621FF8A EQ PUSH2 0x4E5 JUMPI DUP1 PUSH4 0xF2FDE38B EQ PUSH2 0x457 JUMPI DUP1 PUSH4 0xF648B99E EQ PUSH2 0x236 JUMPI DUP1 PUSH4 0xF8413B07 EQ PUSH2 0x1E6 JUMPI PUSH4 0xF851A440 EQ PUSH2 0x19F JUMPI PUSH0 DUP1 REVERT JUMPDEST CALLVALUE PUSH2 0x1E3 JUMPI DUP1 PUSH1 0x3 NOT CALLDATASIZE ADD SLT PUSH2 0x1E3 JUMPI PUSH1 0x40 MLOAD PUSH32 0x0 PUSH1 0x1 PUSH1 0x1 PUSH1 0xA0 SHL SUB AND DUP2 MSTORE PUSH1 0x20 SWAP1 RETURN JUMPDEST DUP1 REVERT JUMPDEST POP CALLVALUE PUSH2 0x1E3 JUMPI DUP1 PUSH1 0x3 NOT CALLDATASIZE ADD SLT PUSH2 0x1E3 JUMPI PUSH2 0x22B CALLER PUSH32 0x0 PUSH1 0x1 PUSH1 0x1 PUSH1 0xA0 SHL SUB AND EQ PUSH2 0x141D JUMP JUMPDEST PUSH2 0x233 PUSH2 0x1536 JUMP JUMPDEST DUP1 RETURN JUMPDEST POP CALLVALUE PUSH2 0x1E3 JUMPI DUP1 PUSH1 0x3 NOT CALLDATASIZE ADD SLT PUSH2 0x1E3 JUMPI PUSH32 0x0 PUSH2 0x27C CALLER PUSH1 0x1 PUSH1 0x1 PUSH1 0xA0 SHL SUB DUP4 AND EQ PUSH2 0x141D JUMP JUMPDEST PUSH1 0xC SLOAD PUSH2 0x28F PUSH1 0xFF DUP3 PUSH1 0xA8 SHR AND ISZERO PUSH2 0x1496 JUMP JUMPDEST PUSH2 0x29F PUSH1 0xFF DUP3 PUSH1 0xA0 SHR AND ISZERO PUSH2 0x1456 JUMP JUMPDEST PUSH1 0x1 PUSH1 0x1 PUSH1 0xA0 SHL SUB DUP2 AND ISZERO PUSH2 0x41C JUMPI PUSH1 0xFF PUSH1 0xA0 SHL NOT AND PUSH1 0x1 PUSH1 0xA0 SHL OR PUSH1 0xC SSTORE PUSH1 0x40 MLOAD PUSH4 0x70A08231 PUSH1 0xE0 SHL DUP2 MSTORE ADDRESS PUSH1 0x4 DUP3 ADD MSTORE SWAP1 PUSH32 0x0 PUSH1 0x1 PUSH1 0x1 PUSH1 0xA0 SHL SUB AND SWAP1 PUSH1 0x20 DUP4 PUSH1 0x24 DUP2 DUP6 GAS STATICCALL SWAP3 DUP4 ISZERO PUSH2 0x411 JUMPI DUP5 SWAP4 PUSH2 0x3D6 JUMPI JUMPDEST POP PUSH1 0x40 MLOAD PUSH4 0xA9059CBB PUSH1 0xE0 SHL DUP2 MSTORE PUSH1 0x1 PUSH1 0x1 PUSH1 0xA0 SHL SUB SWAP2 SWAP1 SWAP2 AND PUSH1 0x4 DUP3 ADD MSTORE PUSH1 0x24 DUP2 ADD DUP4 SWAP1 MSTORE SWAP1 PUSH1 0x20 SWAP1 DUP3 SWAP1 PUSH1 0x44 SWAP1 DUP3 SWAP1 DUP8 SWAP1 GAS CALL DUP1 ISZERO PUSH2 0x3CB JUMPI PUSH2 0x360 SWAP2 DUP5 SWAP2 PUSH2 0x39C JUMPI JUMPDEST POP PUSH2 0x14F8 JUMP JUMPDEST PUSH1 0xC SLOAD PUSH1 0x40 MLOAD SWAP2 DUP3 MSTORE PUSH1 0x1 PUSH1 0x1 PUSH1 0xA0 SHL SUB AND SWAP1 PUSH32 0x46905EAC8CF77FFEEA71D53EC1EDFEFF61D4DE579FB9E1F58235A3397EF302D5 SWAP1 PUSH1 0x20 SWAP1 LOG2 DUP1 RETURN JUMPDEST PUSH2 0x3BE SWAP2 POP PUSH1 0x20 RETURNDATASIZE PUSH1 0x20 GT PUSH2 0x3C4 JUMPI JUMPDEST PUSH2 0x3B6 DUP2 DUP4 PUSH2 0x1319 JUMP JUMPDEST DUP2 ADD SWAP1 PUSH2 0x14D3 JUMP JUMPDEST PUSH0 PUSH2 0x35A JUMP JUMPDEST POP RETURNDATASIZE PUSH2 0x3AC JUMP JUMPDEST PUSH1 0x40 MLOAD RETURNDATASIZE DUP6 DUP3 RETURNDATACOPY RETURNDATASIZE SWAP1 REVERT JUMPDEST SWAP1 SWAP2 SWAP3 POP PUSH1 0x20 DUP2 RETURNDATASIZE PUSH1 0x20 GT PUSH2 0x409 JUMPI JUMPDEST DUP2 PUSH2 0x3F3 PUSH1 0x20 SWAP4 DUP4 PUSH2 0x1319 JUMP JUMPDEST DUP2 ADD SUB SLT PUSH2 0x405 JUMPI MLOAD SWAP2 SWAP1 PUSH1 0x20 PUSH2 0x314 JUMP JUMPDEST PUSH0 DUP1 REVERT JUMPDEST RETURNDATASIZE SWAP2 POP PUSH2 0x3E6 JUMP JUMPDEST PUSH1 0x40 MLOAD RETURNDATASIZE DUP7 DUP3 RETURNDATACOPY RETURNDATASIZE SWAP1 REVERT JUMPDEST PUSH1 0x40 MLOAD PUSH3 0x461BCD PUSH1 0xE5 SHL DUP2 MSTORE PUSH1 0x20 PUSH1 0x4 DUP3 ADD MSTORE PUSH1 0x13 PUSH1 0x24 DUP3 ADD MSTORE PUSH19 0x15DA5B9B995C881B9BDD081CD95B1958DD1959 PUSH1 0x6A SHL PUSH1 0x44 DUP3 ADD MSTORE PUSH1 0x64 SWAP1 REVERT JUMPDEST POP CALLVALUE PUSH2 0x1E3 JUMPI PUSH1 0x20 CALLDATASIZE PUSH1 0x3 NOT ADD SLT PUSH2 0x1E3 JUMPI PUSH1 0x4 CALLDATALOAD PUSH1 0x1 PUSH1 0x1 PUSH1 0xA0 SHL SUB DUP2 AND SWAP1 DUP2 SWAP1 SUB PUSH2 0x4E1 JUMPI PUSH2 0x486 PUSH2 0x18BF JUMP JUMPDEST DUP1 ISZERO PUSH2 0x4CD JUMPI DUP2 SLOAD PUSH1 0x1 PUSH1 0x1 PUSH1 0xA0 SHL SUB NOT DUP2 AND DUP3 OR DUP4 SSTORE PUSH1 0x1 PUSH1 0x1 PUSH1 0xA0 SHL SUB AND PUSH32 0x8BE0079C531659141344CD1FD0A4F28419497F9722A3DAAFE3B4186F6B6457E0 DUP4 DUP1 LOG3 DUP1 RETURN JUMPDEST PUSH4 0x1E4FBDF7 PUSH1 0xE0 SHL DUP3 MSTORE PUSH1 0x4 DUP3 SWAP1 MSTORE PUSH1 0x24 DUP3 REVERT JUMPDEST POP DUP1 REVERT JUMPDEST POP CALLVALUE PUSH2 0x1E3 JUMPI DUP1 PUSH1 0x3 NOT CALLDATASIZE ADD SLT PUSH2 0x1E3 JUMPI PUSH1 0x40 MLOAD PUSH32 0x0 PUSH1 0x1 PUSH1 0x1 PUSH1 0xA0 SHL SUB AND DUP2 MSTORE PUSH1 0x20 SWAP1 RETURN JUMPDEST POP CALLVALUE PUSH2 0x1E3 JUMPI DUP1 PUSH1 0x3 NOT CALLDATASIZE ADD SLT PUSH2 0x1E3 JUMPI PUSH1 0x20 PUSH1 0xFF PUSH1 0x10 SLOAD AND PUSH1 0x40 MLOAD SWAP1 ISZERO ISZERO DUP2 MSTORE RETURN JUMPDEST POP CALLVALUE PUSH2 0x1E3 JUMPI DUP1 PUSH1 0x3 NOT CALLDATASIZE ADD SLT PUSH2 0x1E3 JUMPI PUSH1 0xC SLOAD PUSH1 0x40 MLOAD PUSH1 0x1 PUSH1 0x1 PUSH1 0xA0 SHL SUB SWAP1 SWAP2 AND DUP2 MSTORE PUSH1 0x20 SWAP1 RETURN JUMPDEST POP CALLVALUE PUSH2 0x1E3 JUMPI DUP1 PUSH1 0x3 NOT CALLDATASIZE ADD SLT PUSH2 0x1E3 JUMPI PUSH32 0x0 PUSH2 0x5BC CALLER PUSH1 0x1 PUSH1 0x1 PUSH1 0xA0 SHL SUB DUP4 AND EQ PUSH2 0x141D JUMP JUMPDEST PUSH1 0x40 MLOAD PUSH4 0x70A08231 PUSH1 0xE0 SHL DUP2 MSTORE ADDRESS PUSH1 0x4 DUP3 ADD MSTORE PUSH32 0x0 PUSH1 0x1 PUSH1 0x1 PUSH1 0xA0 SHL SUB AND PUSH1 0x20 DUP3 PUSH1 0x24 DUP2 DUP5 GAS STATICCALL SWAP2 DUP3 ISZERO PUSH2 0x411 JUMPI DUP5 SWAP3 PUSH2 0x6D8 JUMPI JUMPDEST POP DUP2 ISZERO PUSH2 0x6A6 JUMPI PUSH1 0x40 MLOAD PUSH4 0xA9059CBB PUSH1 0xE0 SHL DUP2 MSTORE PUSH1 0x1 PUSH1 0x1 PUSH1 0xA0 SHL SUB SWAP4 SWAP1 SWAP4 AND PUSH1 0x4 DUP5 ADD MSTORE PUSH1 0x24 DUP4 ADD DUP3 SWAP1 MSTORE PUSH1 0x20 SWAP1 DUP4 SWAP1 PUSH1 0x44 SWAP1 DUP3 SWAP1 DUP8 SWAP1 GAS CALL SWAP1 DUP2 ISZERO PUSH2 0x3CB JUMPI PUSH2 0x685 PUSH1 0x20 SWAP3 PUSH32 0x8E9F10B004CE7E96C30B2445271DD45D41FCFACB742CF4843F1B790AFA7A7657 SWAP5 DUP7 SWAP2 PUSH2 0x68F JUMPI POP PUSH2 0x14F8 JUMP JUMPDEST PUSH1 0x40 MLOAD SWAP1 DUP2 MSTORE LOG1 DUP1 RETURN JUMPDEST PUSH2 0x3BE SWAP2 POP DUP5 RETURNDATASIZE DUP7 GT PUSH2 0x3C4 JUMPI PUSH2 0x3B6 DUP2 DUP4 PUSH2 0x1319 JUMP JUMPDEST PUSH1 0x40 MLOAD PUSH3 0x461BCD PUSH1 0xE5 SHL DUP2 MSTORE PUSH1 0x20 PUSH1 0x4 DUP3 ADD MSTORE PUSH1 0xA PUSH1 0x24 DUP3 ADD MSTORE PUSH10 0x4E6F2062616C616E6365 PUSH1 0xB0 SHL PUSH1 0x44 DUP3 ADD MSTORE PUSH1 0x64 SWAP1 REVERT JUMPDEST SWAP1 SWAP2 POP PUSH1 0x20 DUP2 RETURNDATASIZE PUSH1 0x20 GT PUSH2 0x704 JUMPI JUMPDEST DUP2 PUSH2 0x6F4 PUSH1 0x20 SWAP4 DUP4 PUSH2 0x1319 JUMP JUMPDEST DUP2 ADD SUB SLT PUSH2 0x405 JUMPI MLOAD SWAP1 PUSH0 PUSH2 0x610 JUMP JUMPDEST RETURNDATASIZE SWAP2 POP PUSH2 0x6E7 JUMP JUMPDEST POP CALLVALUE PUSH2 0x1E3 JUMPI DUP1 PUSH1 0x3 NOT CALLDATASIZE ADD SLT PUSH2 0x1E3 JUMPI PUSH1 0x20 PUSH1 0x8 SLOAD PUSH1 0x40 MLOAD SWAP1 DUP2 MSTORE RETURN JUMPDEST POP CALLVALUE PUSH2 0x1E3 JUMPI DUP1 PUSH1 0x3 NOT CALLDATASIZE ADD SLT PUSH2 0x1E3 JUMPI PUSH1 0x20 PUSH1 0xF SLOAD PUSH1 0x40 MLOAD SWAP1 DUP2 MSTORE RETURN JUMPDEST POP CALLVALUE PUSH2 0x1E3 JUMPI DUP1 PUSH1 0x3 NOT CALLDATASIZE ADD SLT PUSH2 0x1E3 JUMPI PUSH1 0x40 MLOAD PUSH32 0x0 PUSH1 0x1 PUSH1 0x1 PUSH1 0xA0 SHL SUB AND DUP2 MSTORE PUSH1 0x20 SWAP1 RETURN JUMPDEST POP CALLVALUE PUSH2 0x1E3 JUMPI DUP1 PUSH1 0x3 NOT CALLDATASIZE ADD SLT PUSH2 0x1E3 JUMPI PUSH1 0x20 PUSH1 0x9 SLOAD PUSH1 0x40 MLOAD SWAP1 DUP2 MSTORE RETURN JUMPDEST POP CALLVALUE PUSH2 0x1E3 JUMPI DUP1 PUSH1 0x3 NOT CALLDATASIZE ADD SLT PUSH2 0x1E3 JUMPI PUSH1 0x40 MLOAD PUSH32 0x0 PUSH1 0x1 PUSH1 0x1 PUSH1 0xA0 SHL SUB AND DUP2 MSTORE PUSH1 0x20 SWAP1 RETURN JUMPDEST POP CALLVALUE PUSH2 0x1E3 JUMPI DUP1 PUSH1 0x3 NOT CALLDATASIZE ADD SLT PUSH2 0x1E3 JUMPI PUSH1 0x20 PUSH1 0x5 SLOAD PUSH1 0x40 MLOAD SWAP1 DUP2 MSTORE RETURN JUMPDEST POP CALLVALUE PUSH2 0x1E3 JUMPI DUP1 PUSH1 0x3 NOT CALLDATASIZE ADD SLT PUSH2 0x1E3 JUMPI PUSH1 0x20 PUSH1 0xFF PUSH1 0xC SLOAD PUSH1 0xA8 SHR AND PUSH1 0x40 MLOAD SWAP1 ISZERO ISZERO DUP2 MSTORE RETURN JUMPDEST POP CALLVALUE PUSH2 0x1E3 JUMPI DUP1 PUSH1 0x3 NOT CALLDATASIZE ADD SLT PUSH2 0x1E3 JUMPI SLOAD PUSH1 0x40 MLOAD PUSH1 0x1 PUSH1 0x1 PUSH1 0xA0 SHL SUB SWAP1 SWAP2 AND DUP2 MSTORE PUSH1 0x20 SWAP1 RETURN JUMPDEST POP CALLVALUE PUSH2 0x1E3 JUMPI DUP1 PUSH1 0x3 NOT CALLDATASIZE ADD SLT PUSH2 0x1E3 JUMPI PUSH1 0x20 PUSH1 0xFF PUSH1 0xC SLOAD PUSH1 0xA0 SHR AND PUSH1 0x40 MLOAD SWAP1 ISZERO ISZERO DUP2 MSTORE RETURN JUMPDEST POP CALLVALUE PUSH2 0x1E3 JUMPI PUSH1 0x20 CALLDATASIZE PUSH1 0x3 NOT ADD SLT PUSH2 0x1E3 JUMPI PUSH1 0x4 CALLDATALOAD PUSH1 0x1 PUSH1 0x1 PUSH1 0xA0 SHL SUB DUP2 AND SWAP1 DUP2 SWAP1 SUB PUSH2 0x4E1 JUMPI PUSH1 0x40 DUP3 PUSH1 0xFF SWAP3 PUSH1 0x20 SWAP5 MSTORE PUSH1 0xB DUP5 MSTORE KECCAK256 SLOAD AND PUSH1 0x40 MLOAD SWAP1 ISZERO ISZERO DUP2 MSTORE RETURN JUMPDEST POP CALLVALUE PUSH2 0x405 JUMPI PUSH0 CALLDATASIZE PUSH1 0x3 NOT ADD SLT PUSH2 0x405 JUMPI PUSH1 0x2 PUSH1 0x1 SLOAD EQ PUSH2 0xC94 JUMPI PUSH1 0x2 PUSH1 0x1 SSTORE PUSH1 0xFF PUSH1 0xC SLOAD PUSH2 0x8F7 DUP3 DUP3 PUSH1 0xA8 SHR AND ISZERO PUSH2 0x1496 JUMP JUMPDEST PUSH1 0xA0 SHR AND PUSH2 0xC5E JUMPI PUSH1 0x7 SLOAD TIMESTAMP LT ISZERO PUSH2 0xC2A JUMPI CALLER PUSH0 MSTORE PUSH1 0xB PUSH1 0x20 MSTORE PUSH1 0xFF PUSH1 0x40 PUSH0 KECCAK256 SLOAD AND PUSH2 0xBF4 JUMPI PUSH1 0x9 SLOAD PUSH1 0x6 SLOAD GT ISZERO PUSH2 0xBC3 JUMPI PUSH1 0x5 SLOAD PUSH1 0x40 MLOAD PUSH4 0x23B872DD PUSH1 0xE0 SHL DUP2 MSTORE CALLER PUSH1 0x4 DUP3 ADD MSTORE ADDRESS PUSH1 0x24 DUP3 ADD MSTORE PUSH1 0x44 DUP2 ADD SWAP2 SWAP1 SWAP2 MSTORE PUSH1 0x20 DUP2 PUSH1 0x64 DUP2 PUSH0 PUSH32 0x0 PUSH1 0x1 PUSH1 0x1 PUSH1 0xA0 SHL SUB AND GAS CALL SWAP1 DUP2 ISZERO PUSH2 0xB35 JUMPI PUSH0 SWAP2 PUSH2 0xBA4 JUMPI JUMPDEST POP ISZERO PUSH2 0xB68 JUMPI PUSH1 0x9 SLOAD PUSH9 0x10000000000000000 DUP2 LT ISZERO PUSH2 0xB54 JUMPI DUP1 PUSH1 0x1 PUSH2 0x9B8 SWAP3 ADD PUSH1 0x9 SSTORE PUSH2 0x12DD JUMP JUMPDEST DUP2 SLOAD SWAP1 PUSH1 0x3 SHL SWAP1 CALLER DUP3 SHL SWAP2 PUSH1 0x1 DUP1 PUSH1 0xA0 SHL SUB SWAP1 SHL NOT AND OR SWAP1 SSTORE PUSH1 0x5 SLOAD CALLER PUSH0 MSTORE PUSH1 0xA PUSH1 0x20 MSTORE PUSH1 0x40 PUSH0 KECCAK256 SSTORE CALLER PUSH0 MSTORE PUSH1 0xB PUSH1 0x20 MSTORE PUSH1 0x40 PUSH0 KECCAK256 PUSH1 0x1 PUSH1 0xFF NOT DUP3 SLOAD AND OR SWAP1 SSTORE PUSH1 0x5 SLOAD PUSH2 0xA07 DUP2 PUSH1 0xD SLOAD PUSH2 0x14EB JUMP JUMPDEST PUSH1 0xD SSTORE PUSH32 0x0 PUSH1 0x1 PUSH1 0x1 PUSH1 0xA0 SHL SUB AND SWAP1 PUSH5 0xE8D4A51000 DUP1 DUP3 MUL SWAP2 DUP1 ISZERO SWAP1 DUP4 DIV SWAP1 SWAP2 EQ OR ISZERO PUSH2 0xB40 JUMPI DUP2 EXTCODESIZE ISZERO PUSH2 0x405 JUMPI PUSH0 SWAP2 PUSH1 0xA4 DUP4 SWAP3 PUSH1 0x40 MLOAD SWAP5 DUP6 SWAP4 DUP5 SWAP3 PUSH4 0x34FF2619 PUSH1 0xE2 SHL DUP5 MSTORE CALLER PUSH1 0x4 DUP6 ADD MSTORE PUSH1 0x24 DUP5 ADD MSTORE PUSH1 0x60 PUSH1 0x44 DUP5 ADD MSTORE PUSH1 0x18 PUSH1 0x64 DUP5 ADD MSTORE PUSH32 0x4C75636B7920647261772070617274696369706174696F6E0000000000000000 PUSH1 0x84 DUP5 ADD MSTORE GAS CALL DUP1 ISZERO PUSH2 0xB35 JUMPI PUSH2 0xB22 JUMPI JUMPDEST POP PUSH1 0x5 SLOAD PUSH5 0xE8D4A51000 DUP2 MUL DUP2 DUP2 DIV PUSH5 0xE8D4A51000 EQ DUP3 ISZERO OR ISZERO PUSH2 0xB0E JUMPI PUSH1 0x40 MLOAD SWAP2 DUP3 MSTORE PUSH1 0x20 DUP3 ADD MSTORE PUSH32 0x51B7EDBAF76C2D4666BF0DEA3CD5214E035CDAED9A6CFB5B0FB0DBC1AC698CAA PUSH1 0x40 CALLER SWAP3 LOG2 PUSH1 0x1 DUP1 SSTORE DUP1 RETURN JUMPDEST PUSH4 0x4E487B71 PUSH1 0xE0 SHL DUP4 MSTORE PUSH1 0x11 PUSH1 0x4 MSTORE PUSH1 0x24 DUP4 REVERT JUMPDEST PUSH2 0xB2E SWAP2 POP PUSH0 SWAP1 PUSH2 0x1319 JUMP JUMPDEST PUSH0 PUSH0 PUSH2 0xAB8 JUMP JUMPDEST PUSH1 0x40 MLOAD RETURNDATASIZE PUSH0 DUP3 RETURNDATACOPY RETURNDATASIZE SWAP1 REVERT JUMPDEST PUSH4 0x4E487B71 PUSH1 0xE0 SHL PUSH0 MSTORE PUSH1 0x11 PUSH1 0x4 MSTORE PUSH1 0x24 PUSH0 REVERT JUMPDEST PUSH4 0x4E487B71 PUSH1 0xE0 SHL PUSH0 MSTORE PUSH1 0x41 PUSH1 0x4 MSTORE PUSH1 0x24 PUSH0 REVERT JUMPDEST PUSH1 0x40 MLOAD PUSH3 0x461BCD PUSH1 0xE5 SHL DUP2 MSTORE PUSH1 0x20 PUSH1 0x4 DUP3 ADD MSTORE PUSH1 0x14 PUSH1 0x24 DUP3 ADD MSTORE PUSH20 0x1554D115081D1C985B9CD9995C8819985A5B1959 PUSH1 0x62 SHL PUSH1 0x44 DUP3 ADD MSTORE PUSH1 0x64 SWAP1 REVERT JUMPDEST PUSH2 0xBBD SWAP2 POP PUSH1 0x20 RETURNDATASIZE PUSH1 0x20 GT PUSH2 0x3C4 JUMPI PUSH2 0x3B6 DUP2 DUP4 PUSH2 0x1319 JUMP JUMPDEST PUSH0 PUSH2 0x98E JUMP JUMPDEST PUSH1 0x40 MLOAD PUSH3 0x461BCD PUSH1 0xE5 SHL DUP2 MSTORE PUSH1 0x20 PUSH1 0x4 DUP3 ADD MSTORE PUSH1 0x9 PUSH1 0x24 DUP3 ADD MSTORE PUSH9 0x141BDBDB08199D5B1B PUSH1 0xBA SHL PUSH1 0x44 DUP3 ADD MSTORE PUSH1 0x64 SWAP1 REVERT JUMPDEST PUSH1 0x40 MLOAD PUSH3 0x461BCD PUSH1 0xE5 SHL DUP2 MSTORE PUSH1 0x20 PUSH1 0x4 DUP3 ADD MSTORE PUSH1 0xE PUSH1 0x24 DUP3 ADD MSTORE PUSH14 0x105B1C9958591E481A9BDA5B9959 PUSH1 0x92 SHL PUSH1 0x44 DUP3 ADD MSTORE PUSH1 0x64 SWAP1 REVERT JUMPDEST PUSH1 0x40 MLOAD PUSH3 0x461BCD PUSH1 0xE5 SHL DUP2 MSTORE PUSH1 0x20 PUSH1 0x4 DUP3 ADD MSTORE PUSH1 0xC PUSH1 0x24 DUP3 ADD MSTORE PUSH12 0x141BDBDB08195E1C1A5C9959 PUSH1 0xA2 SHL PUSH1 0x44 DUP3 ADD MSTORE PUSH1 0x64 SWAP1 REVERT JUMPDEST PUSH1 0x40 MLOAD PUSH3 0x461BCD PUSH1 0xE5 SHL DUP2 MSTORE PUSH1 0x20 PUSH1 0x4 DUP3 ADD MSTORE PUSH1 0xE PUSH1 0x24 DUP3 ADD MSTORE PUSH14 0x141BDBDB08199A5B985B1A5E9959 PUSH1 0x92 SHL PUSH1 0x44 DUP3 ADD MSTORE PUSH1 0x64 SWAP1 REVERT JUMPDEST PUSH4 0x3EE5AEB5 PUSH1 0xE0 SHL PUSH0 MSTORE PUSH1 0x4 PUSH0 REVERT JUMPDEST CALLVALUE PUSH2 0x405 JUMPI PUSH0 CALLDATASIZE PUSH1 0x3 NOT ADD SLT PUSH2 0x405 JUMPI PUSH2 0xCD2 PUSH2 0xCBE PUSH2 0x133B JUMP JUMPDEST PUSH1 0x40 MLOAD SWAP2 DUP3 SWAP2 PUSH1 0x20 DUP4 MSTORE PUSH1 0x20 DUP4 ADD SWAP1 PUSH2 0x12F5 JUMP JUMPDEST SUB SWAP1 RETURN JUMPDEST CALLVALUE PUSH2 0x405 JUMPI PUSH1 0x40 CALLDATASIZE PUSH1 0x3 NOT ADD SLT PUSH2 0x405 JUMPI PUSH1 0x24 CALLDATALOAD PUSH8 0xFFFFFFFFFFFFFFFF DUP2 GT PUSH2 0x405 JUMPI CALLDATASIZE PUSH1 0x23 DUP3 ADD SLT ISZERO PUSH2 0x405 JUMPI DUP1 PUSH1 0x4 ADD CALLDATALOAD PUSH8 0xFFFFFFFFFFFFFFFF DUP2 GT PUSH2 0xB54 JUMPI DUP1 PUSH1 0x5 SHL SWAP2 PUSH1 0x40 MLOAD SWAP2 PUSH2 0xD2E PUSH1 0x20 DUP6 ADD DUP5 PUSH2 0x1319 JUMP JUMPDEST DUP3 MSTORE PUSH1 0x20 DUP3 ADD PUSH1 0x24 DUP2 SWAP5 DUP4 ADD ADD SWAP2 CALLDATASIZE DUP4 GT PUSH2 0x405 JUMPI PUSH1 0x24 ADD SWAP1 JUMPDEST DUP3 DUP3 LT PUSH2 0xEDB JUMPI POP POP POP PUSH32 0x0 PUSH1 0x1 PUSH1 0x1 PUSH1 0xA0 SHL SUB AND CALLER SUB PUSH2 0xEA2 JUMPI PUSH1 0xE SLOAD PUSH1 0x4 CALLDATALOAD SUB PUSH2 0xE68 JUMPI DUP1 MLOAD ISZERO PUSH2 0xE30 JUMPI MLOAD ISZERO PUSH2 0xE1C JUMPI MLOAD DUP1 PUSH1 0xF SSTORE PUSH1 0x9 SLOAD DUP1 ISZERO PUSH2 0xE08 JUMPI PUSH1 0x20 PUSH2 0xDD6 PUSH32 0x75060F9E79552DF167B73353FEE6237A75BB5BA8EA022F77224E32F152138BCB SWAP3 DUP5 MOD PUSH2 0x12DD JUMP JUMPDEST PUSH1 0x1 DUP1 PUSH1 0xA0 SHL SUB SWAP2 SLOAD SWAP1 PUSH1 0x3 SHL SHR AND SWAP3 DUP4 PUSH12 0xFFFFFFFFFFFFFFFFFFFFFFFF PUSH1 0xA0 SHL PUSH1 0xC SLOAD AND OR PUSH1 0xC SSTORE PUSH1 0x40 MLOAD SWAP1 DUP2 MSTORE LOG2 STOP JUMPDEST PUSH4 0x4E487B71 PUSH1 0xE0 SHL PUSH0 MSTORE PUSH1 0x12 PUSH1 0x4 MSTORE PUSH1 0x24 PUSH0 REVERT JUMPDEST PUSH4 0x4E487B71 PUSH1 0xE0 SHL PUSH0 MSTORE PUSH1 0x32 PUSH1 0x4 MSTORE PUSH1 0x24 PUSH0 REVERT JUMPDEST PUSH1 0x40 MLOAD PUSH3 0x461BCD PUSH1 0xE5 SHL DUP2 MSTORE PUSH1 0x20 PUSH1 0x4 DUP3 ADD MSTORE PUSH1 0x10 PUSH1 0x24 DUP3 ADD MSTORE PUSH16 0x2737903930B73237B690373AB6B132B9 PUSH1 0x81 SHL PUSH1 0x44 DUP3 ADD MSTORE PUSH1 0x64 SWAP1 REVERT JUMPDEST PUSH1 0x40 MLOAD PUSH3 0x461BCD PUSH1 0xE5 SHL DUP2 MSTORE PUSH1 0x20 PUSH1 0x4 DUP3 ADD MSTORE PUSH1 0x12 PUSH1 0x24 DUP3 ADD MSTORE PUSH18 0x125B9D985B1A59081C995C5D595CDD081251 PUSH1 0x72 SHL PUSH1 0x44 DUP3 ADD MSTORE PUSH1 0x64 SWAP1 REVERT JUMPDEST PUSH1 0x40 MLOAD PUSH3 0x461BCD PUSH1 0xE5 SHL DUP2 MSTORE PUSH1 0x20 PUSH1 0x4 DUP3 ADD MSTORE PUSH1 0x11 PUSH1 0x24 DUP3 ADD MSTORE PUSH17 0x27B7363C9029BAB83930902937BABA32B9 PUSH1 0x79 SHL PUSH1 0x44 DUP3 ADD MSTORE PUSH1 0x64 SWAP1 REVERT JUMPDEST DUP2 CALLDATALOAD DUP2 MSTORE PUSH1 0x20 SWAP2 DUP3 ADD SWAP2 ADD PUSH2 0xD48 JUMP JUMPDEST CALLVALUE PUSH2 0x405 JUMPI PUSH0 CALLDATASIZE PUSH1 0x3 NOT ADD SLT PUSH2 0x405 JUMPI PUSH2 0xF03 PUSH2 0x18BF JUMP JUMPDEST PUSH0 DUP1 SLOAD PUSH1 0x1 PUSH1 0x1 PUSH1 0xA0 SHL SUB NOT DUP2 AND DUP3 SSTORE PUSH1 0x1 PUSH1 0x1 PUSH1 0xA0 SHL SUB AND PUSH32 0x8BE0079C531659141344CD1FD0A4F28419497F9722A3DAAFE3B4186F6B6457E0 DUP3 DUP1 LOG3 STOP JUMPDEST CALLVALUE PUSH2 0x405 JUMPI PUSH0 CALLDATASIZE PUSH1 0x3 NOT ADD SLT PUSH2 0x405 JUMPI PUSH1 0x20 PUSH1 0xD SLOAD PUSH1 0x40 MLOAD SWAP1 DUP2 MSTORE RETURN JUMPDEST CALLVALUE PUSH2 0x405 JUMPI PUSH0 CALLDATASIZE PUSH1 0x3 NOT ADD SLT PUSH2 0x405 JUMPI PUSH1 0x40 MLOAD PUSH32 0x0 PUSH1 0x1 PUSH1 0x1 PUSH1 0xA0 SHL SUB AND DUP2 MSTORE PUSH1 0x20 SWAP1 RETURN JUMPDEST CALLVALUE PUSH2 0x405 JUMPI PUSH0 CALLDATASIZE PUSH1 0x3 NOT ADD SLT PUSH2 0x405 JUMPI PUSH2 0xFF3 PUSH1 0x3 SLOAD PUSH1 0x4 SLOAD SWAP1 PUSH1 0xFF PUSH1 0x5 SLOAD PUSH1 0x6 SLOAD PUSH1 0x9 SLOAD PUSH1 0xD SLOAD SWAP1 PUSH1 0x7 SLOAD SWAP3 PUSH1 0xC SLOAD SWAP5 PUSH2 0xFDC PUSH2 0x133B JUMP JUMPDEST SWAP9 PUSH1 0x40 MLOAD SWAP11 DUP12 SWAP11 PUSH2 0x160 DUP13 MSTORE PUSH2 0x160 DUP13 ADD SWAP1 PUSH2 0x12F5 JUMP JUMPDEST SWAP9 PUSH1 0x20 DUP12 ADD MSTORE PUSH1 0x40 DUP11 ADD MSTORE PUSH1 0x60 DUP10 ADD MSTORE PUSH1 0x80 DUP9 ADD MSTORE PUSH1 0xA0 DUP8 ADD MSTORE PUSH1 0xC0 DUP7 ADD MSTORE PUSH1 0xE0 DUP6 ADD MSTORE PUSH1 0x1 DUP1 PUSH1 0xA0 SHL SUB DUP2 AND PUSH2 0x100 DUP6 ADD MSTORE DUP2 DUP2 PUSH1 0xA0 SHR AND ISZERO ISZERO PUSH2 0x120 DUP6 ADD MSTORE PUSH1 0xA8 SHR AND ISZERO ISZERO PUSH2 0x140 DUP4 ADD MSTORE SUB SWAP1 RETURN JUMPDEST CALLVALUE PUSH2 0x405 JUMPI PUSH0 CALLDATASIZE PUSH1 0x3 NOT ADD SLT PUSH2 0x405 JUMPI PUSH1 0x20 PUSH1 0xD SLOAD PUSH1 0x4 SLOAD GT ISZERO PUSH1 0x40 MLOAD SWAP1 DUP2 MSTORE RETURN JUMPDEST CALLVALUE PUSH2 0x405 JUMPI PUSH0 CALLDATASIZE PUSH1 0x3 NOT ADD SLT PUSH2 0x405 JUMPI PUSH1 0x40 MLOAD DUP1 PUSH1 0x20 PUSH1 0x9 SLOAD SWAP3 DUP4 DUP2 MSTORE ADD DUP1 SWAP3 PUSH1 0x9 PUSH0 MSTORE PUSH32 0x6E1540171B6C0C960B71A7020D9F60077F6AF931A8BBF590DA0223DACF75C7AF SWAP1 PUSH0 JUMPDEST DUP2 DUP2 LT PUSH2 0x110F JUMPI POP POP POP DUP2 PUSH2 0x10C4 SWAP2 SUB DUP3 PUSH2 0x1319 JUMP JUMPDEST PUSH1 0x40 MLOAD SWAP2 DUP3 SWAP2 PUSH1 0x20 DUP4 ADD SWAP1 PUSH1 0x20 DUP5 MSTORE MLOAD DUP1 SWAP2 MSTORE PUSH1 0x40 DUP4 ADD SWAP2 SWAP1 PUSH0 JUMPDEST DUP2 DUP2 LT PUSH2 0x10ED JUMPI POP POP POP SUB SWAP1 RETURN JUMPDEST DUP3 MLOAD PUSH1 0x1 PUSH1 0x1 PUSH1 0xA0 SHL SUB AND DUP5 MSTORE DUP6 SWAP5 POP PUSH1 0x20 SWAP4 DUP5 ADD SWAP4 SWAP1 SWAP3 ADD SWAP2 PUSH1 0x1 ADD PUSH2 0x10DF JUMP JUMPDEST DUP3 SLOAD PUSH1 0x1 PUSH1 0x1 PUSH1 0xA0 SHL SUB AND DUP5 MSTORE PUSH1 0x20 SWAP1 SWAP4 ADD SWAP3 PUSH1 0x1 SWAP3 DUP4 ADD SWAP3 ADD PUSH2 0x10AE JUMP JUMPDEST CALLVALUE PUSH2 0x405 JUMPI PUSH0 CALLDATASIZE PUSH1 0x3 NOT ADD SLT PUSH2 0x405 JUMPI PUSH1 0x20 PUSH1 0x3 SLOAD PUSH1 0x40 MLOAD SWAP1 DUP2 MSTORE RETURN JUMPDEST CALLVALUE PUSH2 0x405 JUMPI PUSH1 0x20 CALLDATASIZE PUSH1 0x3 NOT ADD SLT PUSH2 0x405 JUMPI PUSH1 0x4 CALLDATALOAD PUSH1 0x1 PUSH1 0x1 PUSH1 0xA0 SHL SUB DUP2 AND SWAP1 DUP2 SWAP1 SUB PUSH2 0x405 JUMPI PUSH0 MSTORE PUSH1 0xA PUSH1 0x20 MSTORE PUSH1 0x20 PUSH1 0x40 PUSH0 KECCAK256 SLOAD PUSH1 0x40 MLOAD SWAP1 DUP2 MSTORE RETURN JUMPDEST CALLVALUE PUSH2 0x405 JUMPI PUSH1 0x20 CALLDATASIZE PUSH1 0x3 NOT ADD SLT PUSH2 0x405 JUMPI PUSH1 0x4 CALLDATALOAD PUSH1 0x9 SLOAD DUP2 LT ISZERO PUSH2 0x405 JUMPI PUSH2 0x11B0 PUSH1 0x20 SWAP2 PUSH2 0x12DD JUMP JUMPDEST SWAP1 SLOAD PUSH1 0x40 MLOAD PUSH1 0x3 SWAP3 SWAP1 SWAP3 SHL SHR PUSH1 0x1 PUSH1 0x1 PUSH1 0xA0 SHL SUB AND DUP2 MSTORE RETURN JUMPDEST CALLVALUE PUSH2 0x405 JUMPI PUSH0 CALLDATASIZE PUSH1 0x3 NOT ADD SLT PUSH2 0x405 JUMPI PUSH1 0x20 PUSH1 0x6 SLOAD PUSH1 0x40 MLOAD SWAP1 DUP2 MSTORE RETURN JUMPDEST CALLVALUE PUSH2 0x405 JUMPI PUSH0 CALLDATASIZE PUSH1 0x3 NOT ADD SLT PUSH2 0x405 JUMPI PUSH2 0x122A CALLER PUSH32 0x0 PUSH1 0x1 PUSH1 0x1 PUSH1 0xA0 SHL SUB AND EQ PUSH2 0x141D JUMP JUMPDEST PUSH1 0xFF PUSH1 0xC SLOAD PUSH2 0x123E DUP3 DUP3 PUSH1 0xA0 SHR AND ISZERO PUSH2 0x1456 JUMP JUMPDEST PUSH1 0xA8 SHR AND PUSH2 0x1250 JUMPI PUSH2 0x124E PUSH2 0x172A JUMP JUMPDEST STOP JUMPDEST PUSH1 0x40 MLOAD PUSH3 0x461BCD PUSH1 0xE5 SHL DUP2 MSTORE PUSH1 0x20 PUSH1 0x4 DUP3 ADD MSTORE PUSH1 0x11 PUSH1 0x24 DUP3 ADD MSTORE PUSH17 0x105B1C9958591E4818D85B98D95B1B1959 PUSH1 0x7A SHL PUSH1 0x44 DUP3 ADD MSTORE PUSH1 0x64 SWAP1 REVERT JUMPDEST CALLVALUE PUSH2 0x405 JUMPI PUSH0 CALLDATASIZE PUSH1 0x3 NOT ADD SLT PUSH2 0x405 JUMPI PUSH1 0x20 PUSH1 0xE SLOAD PUSH1 0x40 MLOAD SWAP1 DUP2 MSTORE RETURN JUMPDEST CALLVALUE PUSH2 0x405 JUMPI PUSH0 CALLDATASIZE PUSH1 0x3 NOT ADD SLT PUSH2 0x405 JUMPI PUSH1 0x20 PUSH1 0x4 SLOAD PUSH1 0x40 MLOAD SWAP1 DUP2 MSTORE RETURN JUMPDEST CALLVALUE PUSH2 0x405 JUMPI PUSH0 CALLDATASIZE PUSH1 0x3 NOT ADD SLT PUSH2 0x405 JUMPI PUSH1 0x20 SWAP1 PUSH1 0x7 SLOAD DUP2 MSTORE RETURN JUMPDEST PUSH1 0x9 SLOAD DUP2 LT ISZERO PUSH2 0xE1C JUMPI PUSH1 0x9 PUSH0 MSTORE PUSH1 0x20 PUSH0 KECCAK256 ADD SWAP1 PUSH0 SWAP1 JUMP JUMPDEST DUP1 MLOAD DUP1 DUP4 MSTORE PUSH1 0x20 SWAP3 SWAP2 DUP2 SWAP1 DUP5 ADD DUP5 DUP5 ADD MCOPY PUSH0 DUP3 DUP3 ADD DUP5 ADD MSTORE PUSH1 0x1F ADD PUSH1 0x1F NOT AND ADD ADD SWAP1 JUMP JUMPDEST SWAP1 PUSH1 0x1F DUP1 NOT SWAP2 ADD AND DUP2 ADD SWAP1 DUP2 LT PUSH8 0xFFFFFFFFFFFFFFFF DUP3 GT OR PUSH2 0xB54 JUMPI PUSH1 0x40 MSTORE JUMP JUMPDEST PUSH1 0x40 MLOAD SWAP1 PUSH0 PUSH1 0x2 SLOAD DUP1 PUSH1 0x1 SHR SWAP2 PUSH1 0x1 DUP3 AND SWAP2 DUP3 ISZERO PUSH2 0x1413 JUMPI JUMPDEST PUSH1 0x20 DUP5 LT DUP4 EQ PUSH2 0x13FF JUMPI DUP4 DUP7 MSTORE DUP6 SWAP3 SWAP1 DUP2 ISZERO PUSH2 0x13E0 JUMPI POP PUSH1 0x1 EQ PUSH2 0x1381 JUMPI JUMPDEST PUSH2 0x137F SWAP3 POP SUB DUP4 PUSH2 0x1319 JUMP JUMPDEST JUMP JUMPDEST POP PUSH1 0x2 PUSH0 SWAP1 DUP2 MSTORE SWAP1 SWAP2 PUSH32 0x405787FA12A823E0F2B7631CC41B3BA8828B3321CA811111FA75CD3AA3BB5ACE JUMPDEST DUP2 DUP4 LT PUSH2 0x13C4 JUMPI POP POP SWAP1 PUSH1 0x20 PUSH2 0x137F SWAP3 DUP3 ADD ADD PUSH2 0x1373 JUMP JUMPDEST PUSH1 0x20 SWAP2 SWAP4 POP DUP1 PUSH1 0x1 SWAP2 SLOAD DUP4 DUP6 DUP10 ADD ADD MSTORE ADD SWAP2 ADD SWAP1 SWAP2 DUP5 SWAP3 PUSH2 0x13AC JUMP JUMPDEST PUSH1 0x20 SWAP3 POP PUSH2 0x137F SWAP5 SWAP2 POP PUSH1 0xFF NOT AND DUP3 DUP5 ADD MSTORE ISZERO ISZERO PUSH1 0x5 SHL DUP3 ADD ADD PUSH2 0x1373 JUMP JUMPDEST PUSH4 0x4E487B71 PUSH1 0xE0 SHL PUSH0 MSTORE PUSH1 0x22 PUSH1 0x4 MSTORE PUSH1 0x24 PUSH0 REVERT JUMPDEST SWAP3 PUSH1 0x7F AND SWAP3 PUSH2 0x1354 JUMP JUMPDEST ISZERO PUSH2 0x1424 JUMPI JUMP JUMPDEST PUSH1 0x40 MLOAD PUSH3 0x461BCD PUSH1 0xE5 SHL DUP2 MSTORE PUSH1 0x20 PUSH1 0x4 DUP3 ADD MSTORE PUSH1 0xA PUSH1 0x24 DUP3 ADD MSTORE PUSH10 0x27B7363C9030B236B4B7 PUSH1 0xB1 SHL PUSH1 0x44 DUP3 ADD MSTORE PUSH1 0x64 SWAP1 REVERT JUMPDEST ISZERO PUSH2 0x145D JUMPI JUMP JUMPDEST PUSH1 0x40 MLOAD PUSH3 0x461BCD PUSH1 0xE5 SHL DUP2 MSTORE PUSH1 0x20 PUSH1 0x4 DUP3 ADD MSTORE PUSH1 0x11 PUSH1 0x24 DUP3 ADD MSTORE PUSH17 0x105B1C9958591E48199A5B985B1A5E9959 PUSH1 0x7A SHL PUSH1 0x44 DUP3 ADD MSTORE PUSH1 0x64 SWAP1 REVERT JUMPDEST ISZERO PUSH2 0x149D JUMPI JUMP JUMPDEST PUSH1 0x40 MLOAD PUSH3 0x461BCD PUSH1 0xE5 SHL DUP2 MSTORE PUSH1 0x20 PUSH1 0x4 DUP3 ADD MSTORE PUSH1 0xE PUSH1 0x24 DUP3 ADD MSTORE PUSH14 0x141BDBDB0818D85B98D95B1B1959 PUSH1 0x92 SHL PUSH1 0x44 DUP3 ADD MSTORE PUSH1 0x64 SWAP1 REVERT JUMPDEST SWAP1 DUP2 PUSH1 0x20 SWAP2 SUB SLT PUSH2 0x405 JUMPI MLOAD DUP1 ISZERO ISZERO DUP2 SUB PUSH2 0x405 JUMPI SWAP1 JUMP JUMPDEST SWAP2 SWAP1 DUP3 ADD DUP1 SWAP3 GT PUSH2 0xB40 JUMPI JUMP JUMPDEST ISZERO PUSH2 0x14FF JUMPI JUMP JUMPDEST PUSH1 0x40 MLOAD PUSH3 0x461BCD PUSH1 0xE5 SHL DUP2 MSTORE PUSH1 0x20 PUSH1 0x4 DUP3 ADD MSTORE PUSH1 0xF PUSH1 0x24 DUP3 ADD MSTORE PUSH15 0x151C985B9CD9995C8819985A5B1959 PUSH1 0x8A SHL PUSH1 0x44 DUP3 ADD MSTORE PUSH1 0x64 SWAP1 REVERT JUMPDEST PUSH2 0x1557 PUSH1 0xFF PUSH1 0xC SLOAD PUSH2 0x154D DUP3 DUP3 PUSH1 0xA8 SHR AND ISZERO PUSH2 0x1496 JUMP JUMPDEST PUSH1 0xA0 SHR AND ISZERO PUSH2 0x1456 JUMP JUMPDEST PUSH1 0x7 SLOAD TIMESTAMP LT PUSH2 0x16F4 JUMPI PUSH1 0x9 SLOAD ISZERO PUSH2 0x16BD JUMPI PUSH1 0xFF PUSH1 0x10 SLOAD AND PUSH2 0x1684 JUMPI PUSH1 0xD SLOAD PUSH1 0x4 SLOAD GT PUSH2 0x167C JUMPI PUSH1 0x1 PUSH1 0xFF NOT PUSH1 0x10 SLOAD AND OR PUSH1 0x10 SSTORE PUSH1 0x40 MLOAD PUSH4 0xD291BA09 PUSH1 0xE0 SHL DUP2 MSTORE PUSH1 0x80 PUSH1 0x4 DUP3 ADD MSTORE PUSH1 0x1B PUSH1 0x84 DUP3 ADD MSTORE PUSH32 0x63616C6C6261636B2875696E743235362C75696E743235365B5D290000000000 PUSH1 0xA4 DUP3 ADD MSTORE PUSH1 0x1 PUSH1 0x24 DUP3 ADD MSTORE PUSH1 0x1 PUSH1 0x44 DUP3 ADD MSTORE ADDRESS PUSH1 0x64 DUP3 ADD MSTORE PUSH1 0x20 DUP2 PUSH1 0xC4 DUP2 PUSH0 PUSH1 0x1 DUP1 PUSH1 0xA0 SHL SUB PUSH32 0x0 AND GAS CALL SWAP1 DUP2 ISZERO PUSH2 0xB35 JUMPI PUSH0 SWAP2 PUSH2 0x164A JUMPI JUMPDEST POP DUP1 PUSH1 0xE SSTORE PUSH32 0x9AC10FB18C93D33AD7B0A941897AEF048D0F8D30756684E82B4552BA12764D45 PUSH0 DUP1 LOG2 JUMP JUMPDEST SWAP1 POP PUSH1 0x20 DUP2 RETURNDATASIZE PUSH1 0x20 GT PUSH2 0x1674 JUMPI JUMPDEST DUP2 PUSH2 0x1665 PUSH1 0x20 SWAP4 DUP4 PUSH2 0x1319 JUMP JUMPDEST DUP2 ADD SUB SLT PUSH2 0x405 JUMPI MLOAD PUSH0 PUSH2 0x161F JUMP JUMPDEST RETURNDATASIZE SWAP2 POP PUSH2 0x1658 JUMP JUMPDEST PUSH2 0x137F PUSH2 0x172A JUMP JUMPDEST PUSH1 0x40 MLOAD PUSH3 0x461BCD PUSH1 0xE5 SHL DUP2 MSTORE PUSH1 0x20 PUSH1 0x4 DUP3 ADD MSTORE PUSH1 0x11 PUSH1 0x24 DUP3 ADD MSTORE PUSH17 0x105B1C9958591E481C995C5D595CDD1959 PUSH1 0x7A SHL PUSH1 0x44 DUP3 ADD MSTORE PUSH1 0x64 SWAP1 REVERT JUMPDEST PUSH1 0x40 MLOAD PUSH3 0x461BCD PUSH1 0xE5 SHL DUP2 MSTORE PUSH1 0x20 PUSH1 0x4 DUP3 ADD MSTORE PUSH1 0xF PUSH1 0x24 DUP3 ADD MSTORE PUSH15 0x4E6F207061727469636970616E7473 PUSH1 0x88 SHL PUSH1 0x44 DUP3 ADD MSTORE PUSH1 0x64 SWAP1 REVERT JUMPDEST PUSH1 0x40 MLOAD PUSH3 0x461BCD PUSH1 0xE5 SHL DUP2 MSTORE PUSH1 0x20 PUSH1 0x4 DUP3 ADD MSTORE PUSH1 0xE PUSH1 0x24 DUP3 ADD MSTORE PUSH14 0x141BDBDB081B9BDD08195B991959 PUSH1 0x92 SHL PUSH1 0x44 DUP3 ADD MSTORE PUSH1 0x64 SWAP1 REVERT JUMPDEST PUSH1 0xC DUP1 SLOAD PUSH1 0xFF PUSH1 0xA8 SHL NOT AND PUSH1 0x1 PUSH1 0xA8 SHL OR SWAP1 SSTORE PUSH0 SWAP1 DUP2 JUMPDEST PUSH1 0x9 SLOAD DUP2 LT ISZERO PUSH2 0x1890 JUMPI PUSH2 0x1754 DUP2 PUSH2 0x12DD JUMP JUMPDEST SWAP1 SLOAD PUSH1 0x3 SWAP2 SWAP1 SWAP2 SHL SHR PUSH1 0x1 PUSH1 0x1 PUSH1 0xA0 SHL SUB AND PUSH0 DUP2 DUP2 MSTORE PUSH1 0xA PUSH1 0x20 MSTORE PUSH1 0x40 SWAP1 KECCAK256 SLOAD SWAP1 DUP2 PUSH2 0x1785 JUMPI JUMPDEST POP POP PUSH1 0x1 ADD PUSH2 0x1741 JUMP JUMPDEST PUSH0 DUP2 DUP2 MSTORE PUSH1 0xA PUSH1 0x20 SWAP1 DUP2 MSTORE PUSH1 0x40 DUP1 DUP4 KECCAK256 DUP4 SWAP1 SSTORE MLOAD PUSH4 0xA9059CBB PUSH1 0xE0 SHL DUP2 MSTORE PUSH1 0x1 PUSH1 0x1 PUSH1 0xA0 SHL SUB DUP1 DUP6 AND PUSH1 0x4 DUP4 ADD MSTORE PUSH1 0x24 DUP3 ADD DUP7 SWAP1 MSTORE SWAP5 SWAP8 SWAP6 SWAP5 SWAP1 SWAP3 DUP4 SWAP2 PUSH1 0x44 SWAP2 DUP4 SWAP2 PUSH32 0x0 AND GAS CALL SWAP1 DUP2 ISZERO PUSH2 0xB35 JUMPI PUSH0 SWAP2 PUSH2 0x1872 JUMPI JUMPDEST POP ISZERO PUSH2 0x183D JUMPI PUSH32 0xD7DEE2702D63AD89917B6A4DA9981C90C4D24F8C2BDFD64C604ECAE57D8D0651 PUSH1 0x20 PUSH2 0x182E DUP8 PUSH1 0x1 SWAP7 PUSH2 0x14EB JUMP JUMPDEST SWAP7 PUSH1 0x40 MLOAD SWAP1 DUP2 MSTORE LOG2 SWAP1 PUSH0 PUSH2 0x177B JUMP JUMPDEST PUSH1 0x40 MLOAD PUSH3 0x461BCD PUSH1 0xE5 SHL DUP2 MSTORE PUSH1 0x20 PUSH1 0x4 DUP3 ADD MSTORE PUSH1 0xD PUSH1 0x24 DUP3 ADD MSTORE PUSH13 0x1499599D5B990819985A5B1959 PUSH1 0x9A SHL PUSH1 0x44 DUP3 ADD MSTORE PUSH1 0x64 SWAP1 REVERT JUMPDEST PUSH2 0x188A SWAP2 POP PUSH1 0x20 RETURNDATASIZE DUP2 GT PUSH2 0x3C4 JUMPI PUSH2 0x3B6 DUP2 DUP4 PUSH2 0x1319 JUMP JUMPDEST PUSH0 PUSH2 0x17F9 JUMP JUMPDEST POP SWAP1 PUSH1 0x20 PUSH32 0x3D229DD60FC64B0903758FEED58453F62E715F5D01DC0978C0A3A312DD2776C2 SWAP2 PUSH1 0x40 MLOAD SWAP1 DUP2 MSTORE LOG1 JUMP JUMPDEST PUSH0 SLOAD PUSH1 0x1 PUSH1 0x1 PUSH1 0xA0 SHL SUB AND CALLER SUB PUSH2 0x18D2 JUMPI JUMP JUMPDEST PUSH4 0x118CDAA7 PUSH1 0xE0 SHL PUSH0 MSTORE CALLER PUSH1 0x4 MSTORE PUSH1 0x24 PUSH0 REVERT INVALID LOG2 PUSH5 0x6970667358 0x22 SLT KECCAK256 0xDA 0xCB MSTORE8 DUP15 0xEF 0xD2 0xBC OR MLOAD SWAP4 DUP13 0xAF 0xE1 PUSH3 0xB90177 0xD9 JUMP 0xAD 0xFB 0xC6 0xDD 0xE2 PUSH29 0x70FEC98C2E2A5464736F6C634300081C0033A26469706673582212202C CALLDATASIZE TSTORE EQ 0xD5 SWAP9 SMOD 0xED GASLIMIT MUL PUSH22 0x4167A22FB52D20444B4BB28FC4B3B93C8405F58BC864 PUSH20 0x6F6C634300081C00330000000000000000000000 "},"methodIdentifiers":{"admin()":"f851a440","allPools(uint256)":"41d1de97","createPool(address,string,uint256,uint256,uint256,uint256,uint256)":"ae808e80","getAllPools()":"d88ff1f4","getPoolCount()":"8eec5d70","getUserCreatedPools(address)":"2d380cca","isPool(address)":"5b16ebb7","setAdmin(address)":"704b6c02","supraRouter()":"e621ff8a","tlootToken()":"6b0ce9ea","usdtToken()":"a98ad46c","userCreatedPools(address,uint256)":"bbef6f90"}}}}}