{"project/contracts/PoolManager.sol":{"PoolManager":{"abi":[{"inputs":[{"internalType":"address","name":"_platformToken","type":"address"},{"internalType":"address","name":"_paymentToken","type":"address"}],"stateMutability":"nonpayable","type":"constructor"},{"inputs":[{"internalType":"address","name":"owner","type":"address"}],"name":"OwnableInvalidOwner","type":"error"},{"inputs":[{"internalType":"address","name":"account","type":"address"}],"name":"OwnableUnauthorizedAccount","type":"error"},{"inputs":[],"name":"ReentrancyGuardReentrantCall","type":"error"},{"anonymous":false,"inputs":[{"indexed":true,"internalType":"address","name":"previousOwner","type":"address"},{"indexed":true,"internalType":"address","name":"newOwner","type":"address"}],"name":"OwnershipTransferred","type":"event"},{"anonymous":false,"inputs":[{"indexed":true,"internalType":"uint256","name":"poolId","type":"uint256"},{"indexed":false,"internalType":"uint256","name":"refundAmount","type":"uint256"}],"name":"PoolCancelled","type":"event"},{"anonymous":false,"inputs":[{"indexed":true,"internalType":"uint256","name":"poolId","type":"uint256"},{"indexed":false,"internalType":"string","name":"eventName","type":"string"},{"indexed":false,"internalType":"uint256","name":"ticketPrice","type":"uint256"},{"indexed":false,"internalType":"uint256","name":"entryAmount","type":"uint256"},{"indexed":false,"internalType":"uint256","name":"maxParticipants","type":"uint256"},{"indexed":false,"internalType":"uint256","name":"winnerCount","type":"uint256"}],"name":"PoolCreated","type":"event"},{"anonymous":false,"inputs":[{"indexed":true,"internalType":"uint256","name":"poolId","type":"uint256"},{"indexed":false,"internalType":"uint256","name":"totalPooled","type":"uint256"},{"indexed":false,"internalType":"uint256","name":"winnerCount","type":"uint256"}],"name":"PoolFinalized","type":"event"},{"anonymous":false,"inputs":[{"indexed":true,"internalType":"uint256","name":"poolId","type":"uint256"},{"indexed":true,"internalType":"address","name":"recipient","type":"address"},{"indexed":false,"internalType":"uint256","name":"amount","type":"uint256"},{"indexed":false,"internalType":"string","name":"reason","type":"string"}],"name":"RewardsDistributed","type":"event"},{"anonymous":false,"inputs":[{"indexed":true,"internalType":"uint256","name":"poolId","type":"uint256"},{"indexed":true,"internalType":"address","name":"winner","type":"address"},{"indexed":false,"internalType":"uint256","name":"claimFee","type":"uint256"}],"name":"TicketClaimed","type":"event"},{"anonymous":false,"inputs":[{"indexed":true,"internalType":"uint256","name":"poolId","type":"uint256"},{"indexed":true,"internalType":"address","name":"user","type":"address"},{"indexed":false,"internalType":"uint256","name":"amount","type":"uint256"},{"indexed":false,"internalType":"uint256","name":"totalParticipants","type":"uint256"}],"name":"UserJoinedPool","type":"event"},{"anonymous":false,"inputs":[{"indexed":true,"internalType":"uint256","name":"poolId","type":"uint256"},{"indexed":true,"internalType":"address","name":"winner","type":"address"},{"indexed":false,"internalType":"uint256","name":"winnerIndex","type":"uint256"}],"name":"WinnerSelected","type":"event"},{"inputs":[{"internalType":"uint256","name":"poolId","type":"uint256"}],"name":"cancelPool","outputs":[],"stateMutability":"nonpayable","type":"function"},{"inputs":[],"name":"claimFeePercentage","outputs":[{"internalType":"uint256","name":"","type":"uint256"}],"stateMutability":"view","type":"function"},{"inputs":[{"internalType":"uint256","name":"poolId","type":"uint256"}],"name":"claimTicket","outputs":[],"stateMutability":"nonpayable","type":"function"},{"inputs":[{"internalType":"string","name":"eventName","type":"string"},{"internalType":"uint256","name":"eventDate","type":"uint256"},{"internalType":"uint256","name":"ticketPrice","type":"uint256"},{"internalType":"uint256","name":"entryAmount","type":"uint256"},{"internalType":"uint256","name":"maxParticipants","type":"uint256"},{"internalType":"uint256","name":"winnerCount","type":"uint256"},{"internalType":"uint256","name":"daysUntilDeadline","type":"uint256"}],"name":"createPool","outputs":[{"internalType":"uint256","name":"","type":"uint256"}],"stateMutability":"nonpayable","type":"function"},{"inputs":[{"internalType":"address","name":"token","type":"address"},{"internalType":"uint256","name":"amount","type":"uint256"}],"name":"emergencyWithdraw","outputs":[],"stateMutability":"nonpayable","type":"function"},{"inputs":[{"internalType":"uint256","name":"poolId","type":"uint256"}],"name":"finalizePool","outputs":[],"stateMutability":"nonpayable","type":"function"},{"inputs":[{"internalType":"uint256","name":"poolId","type":"uint256"},{"internalType":"address","name":"user","type":"address"}],"name":"getParticipation","outputs":[{"components":[{"internalType":"address","name":"participant","type":"address"},{"internalType":"uint256","name":"poolId","type":"uint256"},{"internalType":"uint256","name":"amount","type":"uint256"},{"internalType":"bool","name":"isWinner","type":"bool"},{"internalType":"bool","name":"hasClaimed","type":"bool"},{"internalType":"bool","name":"hasReceivedReward","type":"bool"},{"internalType":"uint256","name":"joinedAt","type":"uint256"}],"internalType":"struct PoolManager.Participation","name":"","type":"tuple"}],"stateMutability":"view","type":"function"},{"inputs":[{"internalType":"uint256","name":"poolId","type":"uint256"}],"name":"getPool","outputs":[{"components":[{"internalType":"uint256","name":"id","type":"uint256"},{"internalType":"string","name":"eventName","type":"string"},{"internalType":"uint256","name":"eventDate","type":"uint256"},{"internalType":"uint256","name":"ticketPrice","type":"uint256"},{"internalType":"uint256","name":"entryAmount","type":"uint256"},{"internalType":"uint256","name":"maxParticipants","type":"uint256"},{"internalType":"uint256","name":"totalParticipants","type":"uint256"},{"internalType":"uint256","name":"winnerCount","type":"uint256"},{"internalType":"uint256","name":"poolDeadline","type":"uint256"},{"internalType":"uint256","name":"claimDeadline","type":"uint256"},{"internalType":"enum PoolManager.PoolType","name":"poolType","type":"uint8"},{"internalType":"enum PoolManager.PoolStatus","name":"status","type":"uint8"},{"internalType":"uint256","name":"totalPooled","type":"uint256"},{"internalType":"bool","name":"finalized","type":"bool"},{"internalType":"uint256[]","name":"winnerIndices","type":"uint256[]"},{"internalType":"uint256","name":"createdAt","type":"uint256"}],"internalType":"struct PoolManager.Pool","name":"","type":"tuple"}],"stateMutability":"view","type":"function"},{"inputs":[{"internalType":"uint256","name":"poolId","type":"uint256"}],"name":"getPoolParticipants","outputs":[{"internalType":"address[]","name":"","type":"address[]"}],"stateMutability":"view","type":"function"},{"inputs":[{"internalType":"uint256","name":"poolId","type":"uint256"}],"name":"getPoolWinners","outputs":[{"internalType":"address[]","name":"","type":"address[]"}],"stateMutability":"view","type":"function"},{"inputs":[{"internalType":"address","name":"user","type":"address"}],"name":"getUserPools","outputs":[{"internalType":"uint256[]","name":"","type":"uint256[]"}],"stateMutability":"view","type":"function"},{"inputs":[{"internalType":"uint256","name":"","type":"uint256"},{"internalType":"address","name":"","type":"address"}],"name":"hasJoined","outputs":[{"internalType":"bool","name":"","type":"bool"}],"stateMutability":"view","type":"function"},{"inputs":[{"internalType":"uint256","name":"poolId","type":"uint256"},{"internalType":"address","name":"user","type":"address"}],"name":"isWinner","outputs":[{"internalType":"bool","name":"","type":"bool"}],"stateMutability":"view","type":"function"},{"inputs":[{"internalType":"uint256","name":"poolId","type":"uint256"}],"name":"joinPool","outputs":[],"stateMutability":"nonpayable","type":"function"},{"inputs":[],"name":"nextPoolId","outputs":[{"internalType":"uint256","name":"","type":"uint256"}],"stateMutability":"view","type":"function"},{"inputs":[],"name":"owner","outputs":[{"internalType":"address","name":"","type":"address"}],"stateMutability":"view","type":"function"},{"inputs":[],"name":"participationReward","outputs":[{"internalType":"uint256","name":"","type":"uint256"}],"stateMutability":"view","type":"function"},{"inputs":[{"internalType":"uint256","name":"","type":"uint256"},{"internalType":"address","name":"","type":"address"}],"name":"participations","outputs":[{"internalType":"address","name":"participant","type":"address"},{"internalType":"uint256","name":"poolId","type":"uint256"},{"internalType":"uint256","name":"amount","type":"uint256"},{"internalType":"bool","name":"isWinner","type":"bool"},{"internalType":"bool","name":"hasClaimed","type":"bool"},{"internalType":"bool","name":"hasReceivedReward","type":"bool"},{"internalType":"uint256","name":"joinedAt","type":"uint256"}],"stateMutability":"view","type":"function"},{"inputs":[],"name":"paymentToken","outputs":[{"internalType":"contract IERC20","name":"","type":"address"}],"stateMutability":"view","type":"function"},{"inputs":[],"name":"platformFeePercentage","outputs":[{"internalType":"uint256","name":"","type":"uint256"}],"stateMutability":"view","type":"function"},{"inputs":[],"name":"platformToken","outputs":[{"internalType":"contract PlatformToken","name":"","type":"address"}],"stateMutability":"view","type":"function"},{"inputs":[{"internalType":"uint256","name":"","type":"uint256"},{"internalType":"uint256","name":"","type":"uint256"}],"name":"poolParticipants","outputs":[{"internalType":"address","name":"","type":"address"}],"stateMutability":"view","type":"function"},{"inputs":[{"internalType":"uint256","name":"","type":"uint256"}],"name":"pools","outputs":[{"internalType":"uint256","name":"id","type":"uint256"},{"internalType":"string","name":"eventName","type":"string"},{"internalType":"uint256","name":"eventDate","type":"uint256"},{"internalType":"uint256","name":"ticketPrice","type":"uint256"},{"internalType":"uint256","name":"entryAmount","type":"uint256"},{"internalType":"uint256","name":"maxParticipants","type":"uint256"},{"internalType":"uint256","name":"totalParticipants","type":"uint256"},{"internalType":"uint256","name":"winnerCount","type":"uint256"},{"internalType":"uint256","name":"poolDeadline","type":"uint256"},{"internalType":"uint256","name":"claimDeadline","type":"uint256"},{"internalType":"enum PoolManager.PoolType","name":"poolType","type":"uint8"},{"internalType":"enum PoolManager.PoolStatus","name":"status","type":"uint8"},{"internalType":"uint256","name":"totalPooled","type":"uint256"},{"internalType":"bool","name":"finalized","type":"bool"},{"internalType":"uint256","name":"createdAt","type":"uint256"}],"stateMutability":"view","type":"function"},{"inputs":[],"name":"renounceOwnership","outputs":[],"stateMutability":"nonpayable","type":"function"},{"inputs":[{"internalType":"address","name":"newOwner","type":"address"}],"name":"transferOwnership","outputs":[],"stateMutability":"nonpayable","type":"function"},{"inputs":[{"internalType":"uint256","name":"_claimFeePercentage","type":"uint256"},{"internalType":"uint256","name":"_platformFeePercentage","type":"uint256"},{"internalType":"uint256","name":"_participationReward","type":"uint256"},{"internalType":"uint256","name":"_yieldMultiplier","type":"uint256"}],"name":"updateRewardParameters","outputs":[],"stateMutability":"nonpayable","type":"function"},{"inputs":[{"internalType":"address","name":"","type":"address"},{"internalType":"uint256","name":"","type":"uint256"}],"name":"userPools","outputs":[{"internalType":"uint256","name":"","type":"uint256"}],"stateMutability":"view","type":"function"},{"inputs":[],"name":"yieldMultiplier","outputs":[{"internalType":"uint256","name":"","type":"uint256"}],"stateMutability":"view","type":"function"}],"evm":{"bytecode":{"linkReferences":{},"object":"60803461011157601f6127d538819003918201601f19168301916001600160401b0383118484101761011557808492604094855283398101031261011157610052602061004b83610129565b9201610129565b33156100fe575f8054336001600160a01b0319821681178355604051949290916001600160a01b0316907f8be0079c531659141344cd1fd0a4f28419497f9722a3daafe3b4186f6b6457e09080a36001808055600455601460059081556032600655678ac7230489e80000600755600855600280546001600160a01b039283166001600160a01b03199182161790915560038054939092169216919091179055612697908161013e8239f35b631e4fbdf760e01b5f525f60045260245ffd5b5f80fd5b634e487b7160e01b5f52604160045260245ffd5b51906001600160a01b03821682036101115756fe6080806040526004361015610012575f80fd5b5f3560e01c908163068bcd8d1461207b575080630fb116d214611c135780631064aa5514611bbb57806318e5613114611b9e5780633013ce2914611b76578063339646ac14611abe57806334e7a19f146115a15780634b64218b1461150a5780634d7c0f5b146113805780635315cc641461133057806368194719146112e7578063715018a614611290578063827c78891461104357806389afec6d146110265780638da5cb5b14610fff57806395ccea6714610f0e5780639816af5814610e95578063a166a201146109cd578063ac4afa38146108cd578063bdd415af14610881578063c5a1f434146103e5578063cdd78cfc146103c8578063cf80bfe51461034b578063d1b812cd14610323578063d27e364514610306578063e9c21a15146101f6578063f2fde38b146101715763f468fba814610150575f80fd5b3461016d575f36600319011261016d576020600554604051908152f35b5f80fd5b3461016d57602036600319011261016d5761018a612321565b61019261263b565b6001600160a01b031680156101e3575f80546001600160a01b03198116831782556001600160a01b0316907f8be0079c531659141344cd1fd0a4f28419497f9722a3daafe3b4186f6b6457e09080a3005b631e4fbdf760e01b5f525f60045260245ffd5b3461016d57604036600319011261016d5761020f612337565b5f60c060405161021e816123d5565b8281528260208201528260408201528260608201528260808201528260a082015201526004355f52600d60205260405f209060018060a01b03165f5260205260e060405f2060405161026f816123d5565b60018060a01b03825416918282526001810154906020830191825260028101549160408401928352600382015492606085019160ff85161515835260c06004608088019560ff8860081c161515875260ff60a08a019860101c1615158852015496019586526040519687525160208701525160408601525115156060850152511515608084015251151560a08301525160c0820152f35b3461016d575f36600319011261016d576020600854604051908152f35b3461016d575f36600319011261016d576002546040516001600160a01b039091168152602090f35b3461016d57602036600319011261016d576004355f52600a60205260405f206040519081602082549182815201915f5260205f20905f5b8181106103a9576103a585610399818703826123f1565b60405191829182612376565b0390f35b82546001600160a01b0316845260209093019260019283019201610382565b3461016d575f36600319011261016d576020600654604051908152f35b3461016d57602036600319011261016d5760043561040161263b565b61040961261b565b805f52600960205260405f206104218154151561255e565b600c8101805460ff81166108435760068301546005840154148015610835575b156107f05760019060ff1916179055600a810161020061ff0019825416179055815f52600a60205260405f20548015806107b9576007830154828110156107b2575b600d8401925f5b828110610690575050505f848152600a602090815260408083209051815480825291845282842090959450928592830191905b81811061066e5750506104d2925003836123f1565b5f5b8251811015610631576001600160a01b036104ef8285612607565b511690855f52600d60205260405f2060018060a01b0383165f52602052610520600260405f20015460085490612533565b670de0b6b3a7640000810290808204670de0b6b3a7640000149015171561061d576064620f42409104049160018060a01b0360025416803b1561016d576001935f808a9360a4604051809481936334ff261960e21b835289600484015287602484015260606044840152600c60648401526b165a595b19081c995dd85c9960a21b60848401525af1908161060d575b506105be575b505050016104d4565b60807fa4ac4f52503c1a3d8fbfecbf4e407e779e161fb7ecbe9fb795087963514e07c591604051908152604060208201526005604082015264165a595b1960da1b6060820152a38686816105b5565b5f610617916123f1565b8a6105af565b634e487b7160e01b5f52601160045260245ffd5b847f948d276f99b2a2c8aab331fce72671d5ce62be7409623629e7e42685709e36aa604084600b880154905482519182526020820152a260018055005b84546001600160a01b03168352600194850194879450602090930192016104bd565b836040516020810190428252446040820152896060820152836080820152608081526106bd60a0826123f1565b5190209061079e578290065f5f8754905b818110610771575b50509060019291156106ea575b500161048a565b6106f481886125a0565b885f52600a602052887ffee5b04775e1cd2311ed22cd00f5d2403aff38ff6f71d6d393f51854ed6bc986602061072d8460405f2061234d565b878060a01b0391549060031b1c1693835f52600d825260405f20878060a01b0386165f528252600360405f20018760ff19825416179055604051908152a3886106e3565b8361077c828b61234d565b90549060031b1c14610790576001016106ce565b50600191508190508a6106d6565b634e487b7160e01b5f52601260045260245ffd5b5081610483565b60405162461bcd60e51b815260206004820152600f60248201526e4e6f207061727469636970616e747360881b6044820152606490fd5b60405162461bcd60e51b815260206004820152601a60248201527f506f6f6c206e6f7420726561647920746f2066696e616c697a650000000000006044820152606490fd5b506008830154421015610441565b60405162461bcd60e51b8152602060048201526016602482015275141bdbdb08185b1c9958591e48199a5b985b1a5e995960521b6044820152606490fd5b3461016d57604036600319011261016d5761089a612337565b6004355f52600d60205260405f209060018060a01b03165f52602052602060ff600360405f200154166040519015158152f35b3461016d57602036600319011261016d576004355f52600960205260405f208054600182016108fb9061244b565b906002830154926003810154906004810154600582015460068301546007840154600885015490600986015492600a87015494600b88015496600c89015460ff1698600e0154996040519d8e9d8e9d8e528d602081016101e090526101e001610963916122e3565b6040909d015260608d015260808c015260a08b015260c08a015260e089015261010088015261012087015261099f610140870160ff8316612307565b61016086019060081c60ff16906109b591612314565b61018085015215156101a08401526101c08301520390f35b3461016d5760e036600319011261016d5760043567ffffffffffffffff811161016d573660238201121561016d57806004013567ffffffffffffffff8111610cec5760405191610a27601f8301601f1916602001846123f1565b818352366024838301011161016d57815f92602460209301838601378301015260c43560443560a435608435606435602435610a6161263b565b865115610e5a5742811115610e15578415610dd0578115610d8b578215610d465783151580610d3c575b15610d005760045495610a9d876125d4565b6004556201518081029080820462015180149015171561061d57610ac190426125e2565b6201517f1982019082821161061d57875f52600960205260405f2092888455600184018a5167ffffffffffffffff8111610cec57610aff8254612413565b601f8111610ca7575b50918a999795939160209c999795938d601f8211600114610bee5791817f6e5e7253378d7bf26e3255760f922e5cb740835abeaa670c4d42f136ccb544679c9a98969492610bc49c9a9896945f91610be3575b508160011b915f199060031b1c19161790555b600284015586600384015583600484015584600584015585600784015560088301556009820155600a810160ff19815416815561ff00198154169055600e4291015560405195869560a0875260a08701906122e3565b938a8601526040850152606084015260808301520390a2604051908152f35b90508b01515f610b5b565b9b9a99989796959493929190601f198116825f528d5f20905f5b818110610c705750916001917f6e5e7253378d7bf26e3255760f922e5cb740835abeaa670c4d42f136ccb544679e9f82610bc49f9e9d9c9b9a999897969510610c58575b5050811b019055610b6e565b8d01515f1960f88460031b161c191690555f80610c4c565b929496989a9c9e939597999b9d509060208f819286600192015181550194019201908f9d9b99979593919e9c9a989694929e610c08565b825f5260205f20601f830160051c81019160208410610ce2575b601f0160051c01905b818110610cd75750610b08565b5f8155600101610cca565b9091508190610cc1565b634e487b7160e01b5f52604160045260245ffd5b60405162461bcd60e51b8152602060048201526014602482015273125b9d985b1a59081dda5b9b995c8818dbdd5b9d60621b6044820152606490fd5b5082841115610a8b565b60405162461bcd60e51b815260206004820152601c60248201527f4d6178207061727469636970616e7473206d757374206265203e2030000000006044820152606490fd5b60405162461bcd60e51b815260206004820152601860248201527f456e74727920616d6f756e74206d757374206265203e203000000000000000006044820152606490fd5b60405162461bcd60e51b815260206004820152601860248201527f5469636b6574207072696365206d757374206265203e203000000000000000006044820152606490fd5b60405162461bcd60e51b815260206004820152601760248201527f4576656e74206d75737420626520696e206675747572650000000000000000006044820152606490fd5b60405162461bcd60e51b8152602060048201526013602482015272115d995b9d081b985b59481c995c5d5a5c9959606a1b6044820152606490fd5b3461016d57602036600319011261016d576001600160a01b03610eb6612321565b165f52600c602052610eca60405f206124eb565b6040518091602082016020835281518091526020604084019201905f5b818110610ef5575050500390f35b8251845285945060209384019390920191600101610ee7565b3461016d57604036600319011261016d575f6020610f6b610f2d612321565b610f3561263b565b835460405163a9059cbb60e01b81526001600160a01b039091166004820152602480359082015293849283919082906044820190565b03926001600160a01b03165af1908115610ff4575f91610fc5575b5015610f8e57005b60405162461bcd60e51b815260206004820152600f60248201526e15da5d1a191c985dc819985a5b1959608a1b6044820152606490fd5b610fe7915060203d602011610fed575b610fdf81836123f1565b810190612546565b81610f86565b503d610fd5565b6040513d5f823e3d90fd5b3461016d575f36600319011261016d575f546040516001600160a01b039091168152602090f35b3461016d575f36600319011261016d576020600754604051908152f35b3461016d57602036600319011261016d5760043561105f61263b565b61106761261b565b805f52600960205260405f2061107f8154151561255e565b60ff600c8201541661124b57600a810160ff815460081c166005811015611237576004146111fe5761040061ff0019825416179055815f52600a60205260405f20604051808260208294549384815201905f5260205f20925f5b8181106111dc5750506110ee925003826123f1565b5f5b81518110156111a6576001600160a01b0361110b8284612607565b511690845f52600d60205260405f2060018060a01b0383165f52602052600260405f2001549182611142575b5060019150016110f0565b60035460405163a9059cbb60e01b81526001600160a01b0392831660048201526024810194909452602091849160449183915f91165af1918215610ff457600192156111375761119f9060203d8111610fed57610fdf81836123f1565b5085611137565b837fcb217dc5cde7608105c5fa8af63d961a4210e06dc3c3dafa9396d05251952f856020600b860154604051908152a260018055005b84546001600160a01b03168352600194850194869450602090930192016110d9565b60405162461bcd60e51b8152602060048201526011602482015270105b1c9958591e4818d85b98d95b1b1959607a1b6044820152606490fd5b634e487b7160e01b5f52602160045260245ffd5b60405162461bcd60e51b815260206004820152601c60248201527f43616e6e6f742063616e63656c2066696e616c697a656420706f6f6c000000006044820152606490fd5b3461016d575f36600319011261016d576112a861263b565b5f80546001600160a01b0319811682556001600160a01b03167f8be0079c531659141344cd1fd0a4f28419497f9722a3daafe3b4186f6b6457e08280a3005b3461016d57604036600319011261016d57611300612337565b6004355f52600b60205260405f209060018060a01b03165f52602052602060ff60405f2054166040519015158152f35b3461016d57604036600319011261016d576024356004355f52600a60205260405f20805482101561016d576020916113679161234d565b905460405160039290921b1c6001600160a01b03168152f35b3461016d57602036600319011261016d57600435805f52600960205260405f20906040516113ad816123b8565b825481526113bd6001840161244b565b6020820152600283015460408201526003830154606082015260048301546080820152600583015460a0820152600683015460c0820152600783015460e082015260088301546101008201526009830154610120820152600a83015460ff81169060028210156112375760ff9161014084015260081c16600581101561123757610160820152600b83015461018082015260ff600c8401541615156101a082015261146a600d84016124eb565b906101e0600e6101c083019584875201549101525191611489836125ef565b9261149760405194856123f1565b8084526114a6601f19916125ef565b013660208501375f5b8151518110156114fc57600190835f52600a6020526114dd60405f206114d6838651612607565b519061234d565b838060a01b0391549060031b1c166114f58287612607565b52016114af565b604051806103a58682612376565b3461016d57604036600319011261016d57611523612337565b6004355f52600d60205260405f209060018060a01b03165f5260205260e060405f2060018060a01b038154169060ff600182015491600281015460046003830154920154936040519586526020860152604085015281811615156060850152818160081c161515608085015260101c16151560a083015260c0820152f35b3461016d57602036600319011261016d576004356115bd61261b565b805f52600960205260405f20906115d68254151561255e565b600a82019160ff835460081c166005811015611237578015908115611ab3575b5015611a6e575f828152600b6020908152604080832033845290915290205460ff16611a295760068101928354916005810192835411156119f55760088101544210156119b957600354600482810180546040516323b872dd60e01b8152339381019390935230602484015260448301529491602090829060649082905f906001600160a01b03165af1908115610ff4575f9161199a575b501561195e575f858152600b602090815260408083203384528252808320805460ff19166001179055878352600a90915290208054600160401b811015610cec576116de9160018201815561234d565b81549060031b9033821b9160018060a01b03901b1916179055335f52600c60205261170c8560405f206125a0565b835460046040519161171d836123d5565b33835260208301908882526040840190815260608401905f8252608085015f815260a08601915f835260c08701944286528c5f52600d60205260405f2060018060a01b0333165f5260205260405f209760018060a01b039051166bffffffffffffffffffffffff60a01b895416178855516001880155516002870155600386019251151560ff8019855416911617835551151561ff0083549160081b169061ff00191617825551151562ff000082549160101b169062ff00001916179055519101556117e986546125d4565b918287556117fe600b865492019182546125e2565b9055541461194b575b5060018060a01b0360025416600754813b1561016d575f9160a4839260405194859384926334ff261960e21b845233600485015260248401526060604484015260126064840152712837b7b6103830b93a34b1b4b830ba34b7b760711b60848401525af1908161193b575b506118b2575b54915460405192835260208301527ff5853fd7eead7386334fc4ac2ba4c05b034116dc0f013df3d12f2c50219ac99f60403393a360018055005b815f52600d60205260405f2060018060a01b0333165f52602052600360405f20016201000062ff00001982541617905560075460405190815260406020820152600d60408201526c2830b93a34b1b4b830ba34b7b760991b6060820152827fa4ac4f52503c1a3d8fbfecbf4e407e779e161fb7ecbe9fb795087963514e07c560803393a3611878565b5f611945916123f1565b84611872565b805461ff00191661010017905583611807565b60405162461bcd60e51b81526020600482015260146024820152731554d115081d1c985b9cd9995c8819985a5b195960621b6044820152606490fd5b6119b3915060203d602011610fed57610fdf81836123f1565b8761168e565b60405162461bcd60e51b8152602060048201526014602482015273141bdbdb08191958591b1a5b99481c185cdcd95960621b6044820152606490fd5b60405162461bcd60e51b815260206004820152600c60248201526b141bdbdb081a5cc8199d5b1b60a21b6044820152606490fd5b60405162461bcd60e51b815260206004820152601860248201527f416c7265616479206a6f696e6564207468697320706f6f6c00000000000000006044820152606490fd5b60405162461bcd60e51b815260206004820152601f60248201527f506f6f6c206e6f7420616363657074696e67207061727469636970616e7473006044820152606490fd5b6001915014846115f6565b3461016d57608036600319011261016d57602435600435611add61263b565b60648111611b3d5760648211611b0157600555600655604435600755606435600855005b60405162461bcd60e51b8152602060048201526014602482015273496e76616c696420706c6174666f726d2066656560601b6044820152606490fd5b60405162461bcd60e51b8152602060048201526011602482015270496e76616c696420636c61696d2066656560781b6044820152606490fd5b3461016d575f36600319011261016d576003546040516001600160a01b039091168152602090f35b3461016d575f36600319011261016d576020600454604051908152f35b3461016d57604036600319011261016d57611bd4612321565b6001600160a01b03165f908152600c602052604090208054602435919082101561016d57602091611c049161234d565b90549060031b1c604051908152f35b3461016d57602036600319011261016d57600435611c2f61261b565b5f818152600960209081526040808320600d8352818420338552909252909120600c82015460ff16156120415760030190815460ff81161561200d5760081c60ff16611fd6576009810154421015611f9957611c946003606492015460055490612533565b6003546040516323b872dd60e01b81523360048201523060248201529290910460448301819052929190602090829060649082905f906001600160a01b03165af1908115610ff4575f91611f7a575b5015611f355761010061ff00198254161790556064611d0460065483612533565b049182820382811161061d576003545f805460405163a9059cbb60e01b81526001600160a01b03918216600482015260248101889052926020928492604492849291165af18015610ff457611f18575b50815f52600a60205260405f2093604051808660208298549384815201905f5260205f20925f5b818110611ef6575050611d90925003866123f1565b670de0b6b3a76400008202918204670de0b6b3a764000014908414171561061d578351801561079e57620f4240910404905f5b8451811015611ec2576002546001600160a01b039081169190611de68288612607565b511691803b1561016d575f809160a460019560405194859384926334ff261960e21b845260048401528a602484015260606044840152601060648401526f10db185a5b48199959481c995dd85c9960821b60848401525af19081611eb2575b50611e51575b01611dc3565b818060a01b03611e618288612607565b5116837fa4ac4f52503c1a3d8fbfecbf4e407e779e161fb7ecbe9fb795087963514e07c56080604051888152604060208201526008604082015267436c61696d46656560c01b6060820152a3611e4b565b5f611ebc916123f1565b87611e45565b83826040519182527f32f4bbf1cadf836f12eaa6b063a4012d2357ef9bfb64d52c0b752fd32612fe2a60203393a360018055005b84546001600160a01b031683526001948501948a945060209093019201611d7b565b611f309060203d602011610fed57610fdf81836123f1565b611d54565b60405162461bcd60e51b815260206004820152601860248201527f436c61696d20666565207061796d656e74206661696c656400000000000000006044820152606490fd5b611f93915060203d602011610fed57610fdf81836123f1565b84611ce3565b60405162461bcd60e51b815260206004820152601560248201527410db185a5b48191958591b1a5b99481c185cdcd959605a1b6044820152606490fd5b60405162461bcd60e51b815260206004820152600f60248201526e105b1c9958591e4818db185a5b5959608a1b6044820152606490fd5b60405162461bcd60e51b815260206004820152600c60248201526b2737ba1030903bb4b73732b960a11b6044820152606490fd5b60405162461bcd60e51b8152602060048201526012602482015271141bdbdb081b9bdd08199a5b985b1a5e995960721b6044820152606490fd5b3461016d57602036600319011261016d576101e08161209a5f936123b8565b828152606060208201528260408201528260608201528260808201528260a08201528260c08201528260e08201528261010082015282610120820152826101408201528261016082015282610180820152826101a082015260606101c082015201526004355f52600960205260405f20604051612116816123b8565b815481526121266001830161244b565b90602081019182526002830154926040820193845260038101549160608101928352600482015460808201908152600583015460a08301908152600684015460c08401908152600785015460e08501908152600886015461010086019081526009870154916101208701928352600a8801549360ff851661014089019560028210156112375760ff91875260081c16956101608901966005811015611237578752600b8a0154976101808a01988952600c8b015460ff16996101a081019a15158b52600d8c016121f5906124eb565b9b6101c082019c8d52600e01549c6101e082019d8e526040519e8f9260208452516020840152516040830161020090526102208301612233916122e3565b9f5160608301525190608001525160a08d01525160c08c01525160e08b0152516101008a0152516101208901525161014088015251610160870161227691612307565b51610180860161228591612314565b516101a08501525115156101c08401525190601f19838503016101e0840152815193848152602001916020015f945b8086106122cb575050829350516102008301520390f35b909260208060019286518152019401950194906122b4565b805180835260209291819084018484015e5f828201840152601f01601f1916010190565b9060028210156112375752565b9060058210156112375752565b600435906001600160a01b038216820361016d57565b602435906001600160a01b038216820361016d57565b8054821015612362575f5260205f2001905f90565b634e487b7160e01b5f52603260045260245ffd5b60206040818301928281528451809452019201905f5b8181106123995750505090565b82516001600160a01b031684526020938401939092019160010161238c565b610200810190811067ffffffffffffffff821117610cec57604052565b60e0810190811067ffffffffffffffff821117610cec57604052565b90601f8019910116810190811067ffffffffffffffff821117610cec57604052565b90600182811c92168015612441575b602083101461242d57565b634e487b7160e01b5f52602260045260245ffd5b91607f1691612422565b9060405191825f82549261245e84612413565b80845293600181169081156124c95750600114612485575b50612483925003836123f1565b565b90505f9291925260205f20905f915b8183106124ad575050906020612483928201015f612476565b6020919350806001915483858901015201910190918492612494565b90506020925061248394915060ff191682840152151560051b8201015f612476565b90604051918281549182825260208201905f5260205f20925f5b81811061251a575050612483925003836123f1565b8454835260019485019487945060209093019201612505565b8181029291811591840414171561061d57565b9081602091031261016d5751801515810361016d5790565b1561256557565b60405162461bcd60e51b8152602060048201526013602482015272141bdbdb08191bd95cc81b9bdd08195e1a5cdd606a1b6044820152606490fd5b8054600160401b811015610cec576125bd9160018201815561234d565b819291549060031b91821b915f19901b1916179055565b5f19811461061d5760010190565b9190820180921161061d57565b67ffffffffffffffff8111610cec5760051b60200190565b80518210156123625760209160051b010190565b60026001541461262c576002600155565b633ee5aeb560e01b5f5260045ffd5b5f546001600160a01b0316330361264e57565b63118cdaa760e01b5f523360045260245ffdfea2646970667358221220584fdced694d945e8817a41caf227c1e1f40f9d0a13f4c8ef7b781eea865598464736f6c634300081c0033","opcodes":"PUSH1 0x80 CALLVALUE PUSH2 0x111 JUMPI PUSH1 0x1F PUSH2 0x27D5 CODESIZE DUP2 SWAP1 SUB SWAP2 DUP3 ADD PUSH1 0x1F NOT AND DUP4 ADD SWAP2 PUSH1 0x1 PUSH1 0x1 PUSH1 0x40 SHL SUB DUP4 GT DUP5 DUP5 LT OR PUSH2 0x115 JUMPI DUP1 DUP5 SWAP3 PUSH1 0x40 SWAP5 DUP6 MSTORE DUP4 CODECOPY DUP2 ADD SUB SLT PUSH2 0x111 JUMPI PUSH2 0x52 PUSH1 0x20 PUSH2 0x4B DUP4 PUSH2 0x129 JUMP JUMPDEST SWAP3 ADD PUSH2 0x129 JUMP JUMPDEST CALLER ISZERO PUSH2 0xFE JUMPI PUSH0 DUP1 SLOAD CALLER PUSH1 0x1 PUSH1 0x1 PUSH1 0xA0 SHL SUB NOT DUP3 AND DUP2 OR DUP4 SSTORE PUSH1 0x40 MLOAD SWAP5 SWAP3 SWAP1 SWAP2 PUSH1 0x1 PUSH1 0x1 PUSH1 0xA0 SHL SUB AND SWAP1 PUSH32 0x8BE0079C531659141344CD1FD0A4F28419497F9722A3DAAFE3B4186F6B6457E0 SWAP1 DUP1 LOG3 PUSH1 0x1 DUP1 DUP1 SSTORE PUSH1 0x4 SSTORE PUSH1 0x14 PUSH1 0x5 SWAP1 DUP2 SSTORE PUSH1 0x32 PUSH1 0x6 SSTORE PUSH8 0x8AC7230489E80000 PUSH1 0x7 SSTORE PUSH1 0x8 SSTORE PUSH1 0x2 DUP1 SLOAD PUSH1 0x1 PUSH1 0x1 PUSH1 0xA0 SHL SUB SWAP3 DUP4 AND PUSH1 0x1 PUSH1 0x1 PUSH1 0xA0 SHL SUB NOT SWAP2 DUP3 AND OR SWAP1 SWAP2 SSTORE PUSH1 0x3 DUP1 SLOAD SWAP4 SWAP1 SWAP3 AND SWAP3 AND SWAP2 SWAP1 SWAP2 OR SWAP1 SSTORE PUSH2 0x2697 SWAP1 DUP2 PUSH2 0x13E DUP3 CODECOPY RETURN JUMPDEST PUSH4 0x1E4FBDF7 PUSH1 0xE0 SHL PUSH0 MSTORE PUSH0 PUSH1 0x4 MSTORE PUSH1 0x24 PUSH0 REVERT JUMPDEST PUSH0 DUP1 REVERT JUMPDEST PUSH4 0x4E487B71 PUSH1 0xE0 SHL PUSH0 MSTORE PUSH1 0x41 PUSH1 0x4 MSTORE PUSH1 0x24 PUSH0 REVERT JUMPDEST MLOAD SWAP1 PUSH1 0x1 PUSH1 0x1 PUSH1 0xA0 SHL SUB DUP3 AND DUP3 SUB PUSH2 0x111 JUMPI JUMP INVALID PUSH1 0x80 DUP1 PUSH1 0x40 MSTORE PUSH1 0x4 CALLDATASIZE LT ISZERO PUSH2 0x12 JUMPI PUSH0 DUP1 REVERT JUMPDEST PUSH0 CALLDATALOAD PUSH1 0xE0 SHR SWAP1 DUP2 PUSH4 0x68BCD8D EQ PUSH2 0x207B JUMPI POP DUP1 PUSH4 0xFB116D2 EQ PUSH2 0x1C13 JUMPI DUP1 PUSH4 0x1064AA55 EQ PUSH2 0x1BBB JUMPI DUP1 PUSH4 0x18E56131 EQ PUSH2 0x1B9E JUMPI DUP1 PUSH4 0x3013CE29 EQ PUSH2 0x1B76 JUMPI DUP1 PUSH4 0x339646AC EQ PUSH2 0x1ABE JUMPI DUP1 PUSH4 0x34E7A19F EQ PUSH2 0x15A1 JUMPI DUP1 PUSH4 0x4B64218B EQ PUSH2 0x150A JUMPI DUP1 PUSH4 0x4D7C0F5B EQ PUSH2 0x1380 JUMPI DUP1 PUSH4 0x5315CC64 EQ PUSH2 0x1330 JUMPI DUP1 PUSH4 0x68194719 EQ PUSH2 0x12E7 JUMPI DUP1 PUSH4 0x715018A6 EQ PUSH2 0x1290 JUMPI DUP1 PUSH4 0x827C7889 EQ PUSH2 0x1043 JUMPI DUP1 PUSH4 0x89AFEC6D EQ PUSH2 0x1026 JUMPI DUP1 PUSH4 0x8DA5CB5B EQ PUSH2 0xFFF JUMPI DUP1 PUSH4 0x95CCEA67 EQ PUSH2 0xF0E JUMPI DUP1 PUSH4 0x9816AF58 EQ PUSH2 0xE95 JUMPI DUP1 PUSH4 0xA166A201 EQ PUSH2 0x9CD JUMPI DUP1 PUSH4 0xAC4AFA38 EQ PUSH2 0x8CD JUMPI DUP1 PUSH4 0xBDD415AF EQ PUSH2 0x881 JUMPI DUP1 PUSH4 0xC5A1F434 EQ PUSH2 0x3E5 JUMPI DUP1 PUSH4 0xCDD78CFC EQ PUSH2 0x3C8 JUMPI DUP1 PUSH4 0xCF80BFE5 EQ PUSH2 0x34B JUMPI DUP1 PUSH4 0xD1B812CD EQ PUSH2 0x323 JUMPI DUP1 PUSH4 0xD27E3645 EQ PUSH2 0x306 JUMPI DUP1 PUSH4 0xE9C21A15 EQ PUSH2 0x1F6 JUMPI DUP1 PUSH4 0xF2FDE38B EQ PUSH2 0x171 JUMPI PUSH4 0xF468FBA8 EQ PUSH2 0x150 JUMPI PUSH0 DUP1 REVERT JUMPDEST CALLVALUE PUSH2 0x16D JUMPI PUSH0 CALLDATASIZE PUSH1 0x3 NOT ADD SLT PUSH2 0x16D JUMPI PUSH1 0x20 PUSH1 0x5 SLOAD PUSH1 0x40 MLOAD SWAP1 DUP2 MSTORE RETURN JUMPDEST PUSH0 DUP1 REVERT JUMPDEST CALLVALUE PUSH2 0x16D JUMPI PUSH1 0x20 CALLDATASIZE PUSH1 0x3 NOT ADD SLT PUSH2 0x16D JUMPI PUSH2 0x18A PUSH2 0x2321 JUMP JUMPDEST PUSH2 0x192 PUSH2 0x263B JUMP JUMPDEST PUSH1 0x1 PUSH1 0x1 PUSH1 0xA0 SHL SUB AND DUP1 ISZERO PUSH2 0x1E3 JUMPI PUSH0 DUP1 SLOAD PUSH1 0x1 PUSH1 0x1 PUSH1 0xA0 SHL SUB NOT DUP2 AND DUP4 OR DUP3 SSTORE PUSH1 0x1 PUSH1 0x1 PUSH1 0xA0 SHL SUB AND SWAP1 PUSH32 0x8BE0079C531659141344CD1FD0A4F28419497F9722A3DAAFE3B4186F6B6457E0 SWAP1 DUP1 LOG3 STOP JUMPDEST PUSH4 0x1E4FBDF7 PUSH1 0xE0 SHL PUSH0 MSTORE PUSH0 PUSH1 0x4 MSTORE PUSH1 0x24 PUSH0 REVERT JUMPDEST CALLVALUE PUSH2 0x16D JUMPI PUSH1 0x40 CALLDATASIZE PUSH1 0x3 NOT ADD SLT PUSH2 0x16D JUMPI PUSH2 0x20F PUSH2 0x2337 JUMP JUMPDEST PUSH0 PUSH1 0xC0 PUSH1 0x40 MLOAD PUSH2 0x21E DUP2 PUSH2 0x23D5 JUMP JUMPDEST DUP3 DUP2 MSTORE DUP3 PUSH1 0x20 DUP3 ADD MSTORE DUP3 PUSH1 0x40 DUP3 ADD MSTORE DUP3 PUSH1 0x60 DUP3 ADD MSTORE DUP3 PUSH1 0x80 DUP3 ADD MSTORE DUP3 PUSH1 0xA0 DUP3 ADD MSTORE ADD MSTORE PUSH1 0x4 CALLDATALOAD PUSH0 MSTORE PUSH1 0xD PUSH1 0x20 MSTORE PUSH1 0x40 PUSH0 KECCAK256 SWAP1 PUSH1 0x1 DUP1 PUSH1 0xA0 SHL SUB AND PUSH0 MSTORE PUSH1 0x20 MSTORE PUSH1 0xE0 PUSH1 0x40 PUSH0 KECCAK256 PUSH1 0x40 MLOAD PUSH2 0x26F DUP2 PUSH2 0x23D5 JUMP JUMPDEST PUSH1 0x1 DUP1 PUSH1 0xA0 SHL SUB DUP3 SLOAD AND SWAP2 DUP3 DUP3 MSTORE PUSH1 0x1 DUP2 ADD SLOAD SWAP1 PUSH1 0x20 DUP4 ADD SWAP2 DUP3 MSTORE PUSH1 0x2 DUP2 ADD SLOAD SWAP2 PUSH1 0x40 DUP5 ADD SWAP3 DUP4 MSTORE PUSH1 0x3 DUP3 ADD SLOAD SWAP3 PUSH1 0x60 DUP6 ADD SWAP2 PUSH1 0xFF DUP6 AND ISZERO ISZERO DUP4 MSTORE PUSH1 0xC0 PUSH1 0x4 PUSH1 0x80 DUP9 ADD SWAP6 PUSH1 0xFF DUP9 PUSH1 0x8 SHR AND ISZERO ISZERO DUP8 MSTORE PUSH1 0xFF PUSH1 0xA0 DUP11 ADD SWAP9 PUSH1 0x10 SHR AND ISZERO ISZERO DUP9 MSTORE ADD SLOAD SWAP7 ADD SWAP6 DUP7 MSTORE PUSH1 0x40 MLOAD SWAP7 DUP8 MSTORE MLOAD PUSH1 0x20 DUP8 ADD MSTORE MLOAD PUSH1 0x40 DUP7 ADD MSTORE MLOAD ISZERO ISZERO PUSH1 0x60 DUP6 ADD MSTORE MLOAD ISZERO ISZERO PUSH1 0x80 DUP5 ADD MSTORE MLOAD ISZERO ISZERO PUSH1 0xA0 DUP4 ADD MSTORE MLOAD PUSH1 0xC0 DUP3 ADD MSTORE RETURN JUMPDEST CALLVALUE PUSH2 0x16D JUMPI PUSH0 CALLDATASIZE PUSH1 0x3 NOT ADD SLT PUSH2 0x16D JUMPI PUSH1 0x20 PUSH1 0x8 SLOAD PUSH1 0x40 MLOAD SWAP1 DUP2 MSTORE RETURN JUMPDEST CALLVALUE PUSH2 0x16D JUMPI PUSH0 CALLDATASIZE PUSH1 0x3 NOT ADD SLT PUSH2 0x16D JUMPI PUSH1 0x2 SLOAD PUSH1 0x40 MLOAD PUSH1 0x1 PUSH1 0x1 PUSH1 0xA0 SHL SUB SWAP1 SWAP2 AND DUP2 MSTORE PUSH1 0x20 SWAP1 RETURN JUMPDEST CALLVALUE PUSH2 0x16D JUMPI PUSH1 0x20 CALLDATASIZE PUSH1 0x3 NOT ADD SLT PUSH2 0x16D JUMPI PUSH1 0x4 CALLDATALOAD PUSH0 MSTORE PUSH1 0xA PUSH1 0x20 MSTORE PUSH1 0x40 PUSH0 KECCAK256 PUSH1 0x40 MLOAD SWAP1 DUP2 PUSH1 0x20 DUP3 SLOAD SWAP2 DUP3 DUP2 MSTORE ADD SWAP2 PUSH0 MSTORE PUSH1 0x20 PUSH0 KECCAK256 SWAP1 PUSH0 JUMPDEST DUP2 DUP2 LT PUSH2 0x3A9 JUMPI PUSH2 0x3A5 DUP6 PUSH2 0x399 DUP2 DUP8 SUB DUP3 PUSH2 0x23F1 JUMP JUMPDEST PUSH1 0x40 MLOAD SWAP2 DUP3 SWAP2 DUP3 PUSH2 0x2376 JUMP JUMPDEST SUB SWAP1 RETURN JUMPDEST DUP3 SLOAD PUSH1 0x1 PUSH1 0x1 PUSH1 0xA0 SHL SUB AND DUP5 MSTORE PUSH1 0x20 SWAP1 SWAP4 ADD SWAP3 PUSH1 0x1 SWAP3 DUP4 ADD SWAP3 ADD PUSH2 0x382 JUMP JUMPDEST CALLVALUE PUSH2 0x16D JUMPI PUSH0 CALLDATASIZE PUSH1 0x3 NOT ADD SLT PUSH2 0x16D JUMPI PUSH1 0x20 PUSH1 0x6 SLOAD PUSH1 0x40 MLOAD SWAP1 DUP2 MSTORE RETURN JUMPDEST CALLVALUE PUSH2 0x16D JUMPI PUSH1 0x20 CALLDATASIZE PUSH1 0x3 NOT ADD SLT PUSH2 0x16D JUMPI PUSH1 0x4 CALLDATALOAD PUSH2 0x401 PUSH2 0x263B JUMP JUMPDEST PUSH2 0x409 PUSH2 0x261B JUMP JUMPDEST DUP1 PUSH0 MSTORE PUSH1 0x9 PUSH1 0x20 MSTORE PUSH1 0x40 PUSH0 KECCAK256 PUSH2 0x421 DUP2 SLOAD ISZERO ISZERO PUSH2 0x255E JUMP JUMPDEST PUSH1 0xC DUP2 ADD DUP1 SLOAD PUSH1 0xFF DUP2 AND PUSH2 0x843 JUMPI PUSH1 0x6 DUP4 ADD SLOAD PUSH1 0x5 DUP5 ADD SLOAD EQ DUP1 ISZERO PUSH2 0x835 JUMPI JUMPDEST ISZERO PUSH2 0x7F0 JUMPI PUSH1 0x1 SWAP1 PUSH1 0xFF NOT AND OR SWAP1 SSTORE PUSH1 0xA DUP2 ADD PUSH2 0x200 PUSH2 0xFF00 NOT DUP3 SLOAD AND OR SWAP1 SSTORE DUP2 PUSH0 MSTORE PUSH1 0xA PUSH1 0x20 MSTORE PUSH1 0x40 PUSH0 KECCAK256 SLOAD DUP1 ISZERO DUP1 PUSH2 0x7B9 JUMPI PUSH1 0x7 DUP4 ADD SLOAD DUP3 DUP2 LT ISZERO PUSH2 0x7B2 JUMPI JUMPDEST PUSH1 0xD DUP5 ADD SWAP3 PUSH0 JUMPDEST DUP3 DUP2 LT PUSH2 0x690 JUMPI POP POP POP PUSH0 DUP5 DUP2 MSTORE PUSH1 0xA PUSH1 0x20 SWAP1 DUP2 MSTORE PUSH1 0x40 DUP1 DUP4 KECCAK256 SWAP1 MLOAD DUP2 SLOAD DUP1 DUP3 MSTORE SWAP2 DUP5 MSTORE DUP3 DUP5 KECCAK256 SWAP1 SWAP6 SWAP5 POP SWAP3 DUP6 SWAP3 DUP4 ADD SWAP2 SWAP1 JUMPDEST DUP2 DUP2 LT PUSH2 0x66E JUMPI POP POP PUSH2 0x4D2 SWAP3 POP SUB DUP4 PUSH2 0x23F1 JUMP JUMPDEST PUSH0 JUMPDEST DUP3 MLOAD DUP2 LT ISZERO PUSH2 0x631 JUMPI PUSH1 0x1 PUSH1 0x1 PUSH1 0xA0 SHL SUB PUSH2 0x4EF DUP3 DUP6 PUSH2 0x2607 JUMP JUMPDEST MLOAD AND SWAP1 DUP6 PUSH0 MSTORE PUSH1 0xD PUSH1 0x20 MSTORE PUSH1 0x40 PUSH0 KECCAK256 PUSH1 0x1 DUP1 PUSH1 0xA0 SHL SUB DUP4 AND PUSH0 MSTORE PUSH1 0x20 MSTORE PUSH2 0x520 PUSH1 0x2 PUSH1 0x40 PUSH0 KECCAK256 ADD SLOAD PUSH1 0x8 SLOAD SWAP1 PUSH2 0x2533 JUMP JUMPDEST PUSH8 0xDE0B6B3A7640000 DUP2 MUL SWAP1 DUP1 DUP3 DIV PUSH8 0xDE0B6B3A7640000 EQ SWAP1 ISZERO OR ISZERO PUSH2 0x61D JUMPI PUSH1 0x64 PUSH3 0xF4240 SWAP2 DIV DIV SWAP2 PUSH1 0x1 DUP1 PUSH1 0xA0 SHL SUB PUSH1 0x2 SLOAD AND DUP1 EXTCODESIZE ISZERO PUSH2 0x16D JUMPI PUSH1 0x1 SWAP4 PUSH0 DUP1 DUP11 SWAP4 PUSH1 0xA4 PUSH1 0x40 MLOAD DUP1 SWAP5 DUP2 SWAP4 PUSH4 0x34FF2619 PUSH1 0xE2 SHL DUP4 MSTORE DUP10 PUSH1 0x4 DUP5 ADD MSTORE DUP8 PUSH1 0x24 DUP5 ADD MSTORE PUSH1 0x60 PUSH1 0x44 DUP5 ADD MSTORE PUSH1 0xC PUSH1 0x64 DUP5 ADD MSTORE PUSH12 0x165A595B19081C995DD85C99 PUSH1 0xA2 SHL PUSH1 0x84 DUP5 ADD MSTORE GAS CALL SWAP1 DUP2 PUSH2 0x60D JUMPI JUMPDEST POP PUSH2 0x5BE JUMPI JUMPDEST POP POP POP ADD PUSH2 0x4D4 JUMP JUMPDEST PUSH1 0x80 PUSH32 0xA4AC4F52503C1A3D8FBFECBF4E407E779E161FB7ECBE9FB795087963514E07C5 SWAP2 PUSH1 0x40 MLOAD SWAP1 DUP2 MSTORE PUSH1 0x40 PUSH1 0x20 DUP3 ADD MSTORE PUSH1 0x5 PUSH1 0x40 DUP3 ADD MSTORE PUSH5 0x165A595B19 PUSH1 0xDA SHL PUSH1 0x60 DUP3 ADD MSTORE LOG3 DUP7 DUP7 DUP2 PUSH2 0x5B5 JUMP JUMPDEST PUSH0 PUSH2 0x617 SWAP2 PUSH2 0x23F1 JUMP JUMPDEST DUP11 PUSH2 0x5AF JUMP JUMPDEST PUSH4 0x4E487B71 PUSH1 0xE0 SHL PUSH0 MSTORE PUSH1 0x11 PUSH1 0x4 MSTORE PUSH1 0x24 PUSH0 REVERT JUMPDEST DUP5 PUSH32 0x948D276F99B2A2C8AAB331FCE72671D5CE62BE7409623629E7E42685709E36AA PUSH1 0x40 DUP5 PUSH1 0xB DUP9 ADD SLOAD SWAP1 SLOAD DUP3 MLOAD SWAP2 DUP3 MSTORE PUSH1 0x20 DUP3 ADD MSTORE LOG2 PUSH1 0x1 DUP1 SSTORE STOP JUMPDEST DUP5 SLOAD PUSH1 0x1 PUSH1 0x1 PUSH1 0xA0 SHL SUB AND DUP4 MSTORE PUSH1 0x1 SWAP5 DUP6 ADD SWAP5 DUP8 SWAP5 POP PUSH1 0x20 SWAP1 SWAP4 ADD SWAP3 ADD PUSH2 0x4BD JUMP JUMPDEST DUP4 PUSH1 0x40 MLOAD PUSH1 0x20 DUP2 ADD SWAP1 TIMESTAMP DUP3 MSTORE PREVRANDAO PUSH1 0x40 DUP3 ADD MSTORE DUP10 PUSH1 0x60 DUP3 ADD MSTORE DUP4 PUSH1 0x80 DUP3 ADD MSTORE PUSH1 0x80 DUP2 MSTORE PUSH2 0x6BD PUSH1 0xA0 DUP3 PUSH2 0x23F1 JUMP JUMPDEST MLOAD SWAP1 KECCAK256 SWAP1 PUSH2 0x79E JUMPI DUP3 SWAP1 MOD PUSH0 PUSH0 DUP8 SLOAD SWAP1 JUMPDEST DUP2 DUP2 LT PUSH2 0x771 JUMPI JUMPDEST POP POP SWAP1 PUSH1 0x1 SWAP3 SWAP2 ISZERO PUSH2 0x6EA JUMPI JUMPDEST POP ADD PUSH2 0x48A JUMP JUMPDEST PUSH2 0x6F4 DUP2 DUP9 PUSH2 0x25A0 JUMP JUMPDEST DUP9 PUSH0 MSTORE PUSH1 0xA PUSH1 0x20 MSTORE DUP9 PUSH32 0xFEE5B04775E1CD2311ED22CD00F5D2403AFF38FF6F71D6D393F51854ED6BC986 PUSH1 0x20 PUSH2 0x72D DUP5 PUSH1 0x40 PUSH0 KECCAK256 PUSH2 0x234D JUMP JUMPDEST DUP8 DUP1 PUSH1 0xA0 SHL SUB SWAP2 SLOAD SWAP1 PUSH1 0x3 SHL SHR AND SWAP4 DUP4 PUSH0 MSTORE PUSH1 0xD DUP3 MSTORE PUSH1 0x40 PUSH0 KECCAK256 DUP8 DUP1 PUSH1 0xA0 SHL SUB DUP7 AND PUSH0 MSTORE DUP3 MSTORE PUSH1 0x3 PUSH1 0x40 PUSH0 KECCAK256 ADD DUP8 PUSH1 0xFF NOT DUP3 SLOAD AND OR SWAP1 SSTORE PUSH1 0x40 MLOAD SWAP1 DUP2 MSTORE LOG3 DUP9 PUSH2 0x6E3 JUMP JUMPDEST DUP4 PUSH2 0x77C DUP3 DUP12 PUSH2 0x234D JUMP JUMPDEST SWAP1 SLOAD SWAP1 PUSH1 0x3 SHL SHR EQ PUSH2 0x790 JUMPI PUSH1 0x1 ADD PUSH2 0x6CE JUMP JUMPDEST POP PUSH1 0x1 SWAP2 POP DUP2 SWAP1 POP DUP11 PUSH2 0x6D6 JUMP JUMPDEST PUSH4 0x4E487B71 PUSH1 0xE0 SHL PUSH0 MSTORE PUSH1 0x12 PUSH1 0x4 MSTORE PUSH1 0x24 PUSH0 REVERT JUMPDEST POP DUP2 PUSH2 0x483 JUMP JUMPDEST PUSH1 0x40 MLOAD PUSH3 0x461BCD PUSH1 0xE5 SHL DUP2 MSTORE PUSH1 0x20 PUSH1 0x4 DUP3 ADD MSTORE PUSH1 0xF PUSH1 0x24 DUP3 ADD MSTORE PUSH15 0x4E6F207061727469636970616E7473 PUSH1 0x88 SHL PUSH1 0x44 DUP3 ADD MSTORE PUSH1 0x64 SWAP1 REVERT JUMPDEST PUSH1 0x40 MLOAD PUSH3 0x461BCD PUSH1 0xE5 SHL DUP2 MSTORE PUSH1 0x20 PUSH1 0x4 DUP3 ADD MSTORE PUSH1 0x1A PUSH1 0x24 DUP3 ADD MSTORE PUSH32 0x506F6F6C206E6F7420726561647920746F2066696E616C697A65000000000000 PUSH1 0x44 DUP3 ADD MSTORE PUSH1 0x64 SWAP1 REVERT JUMPDEST POP PUSH1 0x8 DUP4 ADD SLOAD TIMESTAMP LT ISZERO PUSH2 0x441 JUMP JUMPDEST PUSH1 0x40 MLOAD PUSH3 0x461BCD PUSH1 0xE5 SHL DUP2 MSTORE PUSH1 0x20 PUSH1 0x4 DUP3 ADD MSTORE PUSH1 0x16 PUSH1 0x24 DUP3 ADD MSTORE PUSH22 0x141BDBDB08185B1C9958591E48199A5B985B1A5E9959 PUSH1 0x52 SHL PUSH1 0x44 DUP3 ADD MSTORE PUSH1 0x64 SWAP1 REVERT JUMPDEST CALLVALUE PUSH2 0x16D JUMPI PUSH1 0x40 CALLDATASIZE PUSH1 0x3 NOT ADD SLT PUSH2 0x16D JUMPI PUSH2 0x89A PUSH2 0x2337 JUMP JUMPDEST PUSH1 0x4 CALLDATALOAD PUSH0 MSTORE PUSH1 0xD PUSH1 0x20 MSTORE PUSH1 0x40 PUSH0 KECCAK256 SWAP1 PUSH1 0x1 DUP1 PUSH1 0xA0 SHL SUB AND PUSH0 MSTORE PUSH1 0x20 MSTORE PUSH1 0x20 PUSH1 0xFF PUSH1 0x3 PUSH1 0x40 PUSH0 KECCAK256 ADD SLOAD AND PUSH1 0x40 MLOAD SWAP1 ISZERO ISZERO DUP2 MSTORE RETURN JUMPDEST CALLVALUE PUSH2 0x16D JUMPI PUSH1 0x20 CALLDATASIZE PUSH1 0x3 NOT ADD SLT PUSH2 0x16D JUMPI PUSH1 0x4 CALLDATALOAD PUSH0 MSTORE PUSH1 0x9 PUSH1 0x20 MSTORE PUSH1 0x40 PUSH0 KECCAK256 DUP1 SLOAD PUSH1 0x1 DUP3 ADD PUSH2 0x8FB SWAP1 PUSH2 0x244B JUMP JUMPDEST SWAP1 PUSH1 0x2 DUP4 ADD SLOAD SWAP3 PUSH1 0x3 DUP2 ADD SLOAD SWAP1 PUSH1 0x4 DUP2 ADD SLOAD PUSH1 0x5 DUP3 ADD SLOAD PUSH1 0x6 DUP4 ADD SLOAD PUSH1 0x7 DUP5 ADD SLOAD PUSH1 0x8 DUP6 ADD SLOAD SWAP1 PUSH1 0x9 DUP7 ADD SLOAD SWAP3 PUSH1 0xA DUP8 ADD SLOAD SWAP5 PUSH1 0xB DUP9 ADD SLOAD SWAP7 PUSH1 0xC DUP10 ADD SLOAD PUSH1 0xFF AND SWAP9 PUSH1 0xE ADD SLOAD SWAP10 PUSH1 0x40 MLOAD SWAP14 DUP15 SWAP14 DUP15 SWAP14 DUP15 MSTORE DUP14 PUSH1 0x20 DUP2 ADD PUSH2 0x1E0 SWAP1 MSTORE PUSH2 0x1E0 ADD PUSH2 0x963 SWAP2 PUSH2 0x22E3 JUMP JUMPDEST PUSH1 0x40 SWAP1 SWAP14 ADD MSTORE PUSH1 0x60 DUP14 ADD MSTORE PUSH1 0x80 DUP13 ADD MSTORE PUSH1 0xA0 DUP12 ADD MSTORE PUSH1 0xC0 DUP11 ADD MSTORE PUSH1 0xE0 DUP10 ADD MSTORE PUSH2 0x100 DUP9 ADD MSTORE PUSH2 0x120 DUP8 ADD MSTORE PUSH2 0x99F PUSH2 0x140 DUP8 ADD PUSH1 0xFF DUP4 AND PUSH2 0x2307 JUMP JUMPDEST PUSH2 0x160 DUP7 ADD SWAP1 PUSH1 0x8 SHR PUSH1 0xFF AND SWAP1 PUSH2 0x9B5 SWAP2 PUSH2 0x2314 JUMP JUMPDEST PUSH2 0x180 DUP6 ADD MSTORE ISZERO ISZERO PUSH2 0x1A0 DUP5 ADD MSTORE PUSH2 0x1C0 DUP4 ADD MSTORE SUB SWAP1 RETURN JUMPDEST CALLVALUE PUSH2 0x16D JUMPI PUSH1 0xE0 CALLDATASIZE PUSH1 0x3 NOT ADD SLT PUSH2 0x16D JUMPI PUSH1 0x4 CALLDATALOAD PUSH8 0xFFFFFFFFFFFFFFFF DUP2 GT PUSH2 0x16D JUMPI CALLDATASIZE PUSH1 0x23 DUP3 ADD SLT ISZERO PUSH2 0x16D JUMPI DUP1 PUSH1 0x4 ADD CALLDATALOAD PUSH8 0xFFFFFFFFFFFFFFFF DUP2 GT PUSH2 0xCEC JUMPI PUSH1 0x40 MLOAD SWAP2 PUSH2 0xA27 PUSH1 0x1F DUP4 ADD PUSH1 0x1F NOT AND PUSH1 0x20 ADD DUP5 PUSH2 0x23F1 JUMP JUMPDEST DUP2 DUP4 MSTORE CALLDATASIZE PUSH1 0x24 DUP4 DUP4 ADD ADD GT PUSH2 0x16D JUMPI DUP2 PUSH0 SWAP3 PUSH1 0x24 PUSH1 0x20 SWAP4 ADD DUP4 DUP7 ADD CALLDATACOPY DUP4 ADD ADD MSTORE PUSH1 0xC4 CALLDATALOAD PUSH1 0x44 CALLDATALOAD PUSH1 0xA4 CALLDATALOAD PUSH1 0x84 CALLDATALOAD PUSH1 0x64 CALLDATALOAD PUSH1 0x24 CALLDATALOAD PUSH2 0xA61 PUSH2 0x263B JUMP JUMPDEST DUP7 MLOAD ISZERO PUSH2 0xE5A JUMPI TIMESTAMP DUP2 GT ISZERO PUSH2 0xE15 JUMPI DUP5 ISZERO PUSH2 0xDD0 JUMPI DUP2 ISZERO PUSH2 0xD8B JUMPI DUP3 ISZERO PUSH2 0xD46 JUMPI DUP4 ISZERO ISZERO DUP1 PUSH2 0xD3C JUMPI JUMPDEST ISZERO PUSH2 0xD00 JUMPI PUSH1 0x4 SLOAD SWAP6 PUSH2 0xA9D DUP8 PUSH2 0x25D4 JUMP JUMPDEST PUSH1 0x4 SSTORE PUSH3 0x15180 DUP2 MUL SWAP1 DUP1 DUP3 DIV PUSH3 0x15180 EQ SWAP1 ISZERO OR ISZERO PUSH2 0x61D JUMPI PUSH2 0xAC1 SWAP1 TIMESTAMP PUSH2 0x25E2 JUMP JUMPDEST PUSH3 0x1517F NOT DUP3 ADD SWAP1 DUP3 DUP3 GT PUSH2 0x61D JUMPI DUP8 PUSH0 MSTORE PUSH1 0x9 PUSH1 0x20 MSTORE PUSH1 0x40 PUSH0 KECCAK256 SWAP3 DUP9 DUP5 SSTORE PUSH1 0x1 DUP5 ADD DUP11 MLOAD PUSH8 0xFFFFFFFFFFFFFFFF DUP2 GT PUSH2 0xCEC JUMPI PUSH2 0xAFF DUP3 SLOAD PUSH2 0x2413 JUMP JUMPDEST PUSH1 0x1F DUP2 GT PUSH2 0xCA7 JUMPI JUMPDEST POP SWAP2 DUP11 SWAP10 SWAP8 SWAP6 SWAP4 SWAP2 PUSH1 0x20 SWAP13 SWAP10 SWAP8 SWAP6 SWAP4 DUP14 PUSH1 0x1F DUP3 GT PUSH1 0x1 EQ PUSH2 0xBEE JUMPI SWAP2 DUP2 PUSH32 0x6E5E7253378D7BF26E3255760F922E5CB740835ABEAA670C4D42F136CCB54467 SWAP13 SWAP11 SWAP9 SWAP7 SWAP5 SWAP3 PUSH2 0xBC4 SWAP13 SWAP11 SWAP9 SWAP7 SWAP5 PUSH0 SWAP2 PUSH2 0xBE3 JUMPI JUMPDEST POP DUP2 PUSH1 0x1 SHL SWAP2 PUSH0 NOT SWAP1 PUSH1 0x3 SHL SHR NOT AND OR SWAP1 SSTORE JUMPDEST PUSH1 0x2 DUP5 ADD SSTORE DUP7 PUSH1 0x3 DUP5 ADD SSTORE DUP4 PUSH1 0x4 DUP5 ADD SSTORE DUP5 PUSH1 0x5 DUP5 ADD SSTORE DUP6 PUSH1 0x7 DUP5 ADD SSTORE PUSH1 0x8 DUP4 ADD SSTORE PUSH1 0x9 DUP3 ADD SSTORE PUSH1 0xA DUP2 ADD PUSH1 0xFF NOT DUP2 SLOAD AND DUP2 SSTORE PUSH2 0xFF00 NOT DUP2 SLOAD AND SWAP1 SSTORE PUSH1 0xE TIMESTAMP SWAP2 ADD SSTORE PUSH1 0x40 MLOAD SWAP6 DUP7 SWAP6 PUSH1 0xA0 DUP8 MSTORE PUSH1 0xA0 DUP8 ADD SWAP1 PUSH2 0x22E3 JUMP JUMPDEST SWAP4 DUP11 DUP7 ADD MSTORE PUSH1 0x40 DUP6 ADD MSTORE PUSH1 0x60 DUP5 ADD MSTORE PUSH1 0x80 DUP4 ADD MSTORE SUB SWAP1 LOG2 PUSH1 0x40 MLOAD SWAP1 DUP2 MSTORE RETURN JUMPDEST SWAP1 POP DUP12 ADD MLOAD PUSH0 PUSH2 0xB5B JUMP JUMPDEST SWAP12 SWAP11 SWAP10 SWAP9 SWAP8 SWAP7 SWAP6 SWAP5 SWAP4 SWAP3 SWAP2 SWAP1 PUSH1 0x1F NOT DUP2 AND DUP3 PUSH0 MSTORE DUP14 PUSH0 KECCAK256 SWAP1 PUSH0 JUMPDEST DUP2 DUP2 LT PUSH2 0xC70 JUMPI POP SWAP2 PUSH1 0x1 SWAP2 PUSH32 0x6E5E7253378D7BF26E3255760F922E5CB740835ABEAA670C4D42F136CCB54467 SWAP15 SWAP16 DUP3 PUSH2 0xBC4 SWAP16 SWAP15 SWAP14 SWAP13 SWAP12 SWAP11 SWAP10 SWAP9 SWAP8 SWAP7 SWAP6 LT PUSH2 0xC58 JUMPI JUMPDEST POP POP DUP2 SHL ADD SWAP1 SSTORE PUSH2 0xB6E JUMP JUMPDEST DUP14 ADD MLOAD PUSH0 NOT PUSH1 0xF8 DUP5 PUSH1 0x3 SHL AND SHR NOT AND SWAP1 SSTORE PUSH0 DUP1 PUSH2 0xC4C JUMP JUMPDEST SWAP3 SWAP5 SWAP7 SWAP9 SWAP11 SWAP13 SWAP15 SWAP4 SWAP6 SWAP8 SWAP10 SWAP12 SWAP14 POP SWAP1 PUSH1 0x20 DUP16 DUP2 SWAP3 DUP7 PUSH1 0x1 SWAP3 ADD MLOAD DUP2 SSTORE ADD SWAP5 ADD SWAP3 ADD SWAP1 DUP16 SWAP14 SWAP12 SWAP10 SWAP8 SWAP6 SWAP4 SWAP2 SWAP15 SWAP13 SWAP11 SWAP9 SWAP7 SWAP5 SWAP3 SWAP15 PUSH2 0xC08 JUMP JUMPDEST DUP3 PUSH0 MSTORE PUSH1 0x20 PUSH0 KECCAK256 PUSH1 0x1F DUP4 ADD PUSH1 0x5 SHR DUP2 ADD SWAP2 PUSH1 0x20 DUP5 LT PUSH2 0xCE2 JUMPI JUMPDEST PUSH1 0x1F ADD PUSH1 0x5 SHR ADD SWAP1 JUMPDEST DUP2 DUP2 LT PUSH2 0xCD7 JUMPI POP PUSH2 0xB08 JUMP JUMPDEST PUSH0 DUP2 SSTORE PUSH1 0x1 ADD PUSH2 0xCCA JUMP JUMPDEST SWAP1 SWAP2 POP DUP2 SWAP1 PUSH2 0xCC1 JUMP JUMPDEST PUSH4 0x4E487B71 PUSH1 0xE0 SHL PUSH0 MSTORE PUSH1 0x41 PUSH1 0x4 MSTORE PUSH1 0x24 PUSH0 REVERT JUMPDEST PUSH1 0x40 MLOAD PUSH3 0x461BCD PUSH1 0xE5 SHL DUP2 MSTORE PUSH1 0x20 PUSH1 0x4 DUP3 ADD MSTORE PUSH1 0x14 PUSH1 0x24 DUP3 ADD MSTORE PUSH20 0x125B9D985B1A59081DDA5B9B995C8818DBDD5B9D PUSH1 0x62 SHL PUSH1 0x44 DUP3 ADD MSTORE PUSH1 0x64 SWAP1 REVERT JUMPDEST POP DUP3 DUP5 GT ISZERO PUSH2 0xA8B JUMP JUMPDEST PUSH1 0x40 MLOAD PUSH3 0x461BCD PUSH1 0xE5 SHL DUP2 MSTORE PUSH1 0x20 PUSH1 0x4 DUP3 ADD MSTORE PUSH1 0x1C PUSH1 0x24 DUP3 ADD MSTORE PUSH32 0x4D6178207061727469636970616E7473206D757374206265203E203000000000 PUSH1 0x44 DUP3 ADD MSTORE PUSH1 0x64 SWAP1 REVERT JUMPDEST PUSH1 0x40 MLOAD PUSH3 0x461BCD PUSH1 0xE5 SHL DUP2 MSTORE PUSH1 0x20 PUSH1 0x4 DUP3 ADD MSTORE PUSH1 0x18 PUSH1 0x24 DUP3 ADD MSTORE PUSH32 0x456E74727920616D6F756E74206D757374206265203E20300000000000000000 PUSH1 0x44 DUP3 ADD MSTORE PUSH1 0x64 SWAP1 REVERT JUMPDEST PUSH1 0x40 MLOAD PUSH3 0x461BCD PUSH1 0xE5 SHL DUP2 MSTORE PUSH1 0x20 PUSH1 0x4 DUP3 ADD MSTORE PUSH1 0x18 PUSH1 0x24 DUP3 ADD MSTORE PUSH32 0x5469636B6574207072696365206D757374206265203E20300000000000000000 PUSH1 0x44 DUP3 ADD MSTORE PUSH1 0x64 SWAP1 REVERT JUMPDEST PUSH1 0x40 MLOAD PUSH3 0x461BCD PUSH1 0xE5 SHL DUP2 MSTORE PUSH1 0x20 PUSH1 0x4 DUP3 ADD MSTORE PUSH1 0x17 PUSH1 0x24 DUP3 ADD MSTORE PUSH32 0x4576656E74206D75737420626520696E20667574757265000000000000000000 PUSH1 0x44 DUP3 ADD MSTORE PUSH1 0x64 SWAP1 REVERT JUMPDEST PUSH1 0x40 MLOAD PUSH3 0x461BCD PUSH1 0xE5 SHL DUP2 MSTORE PUSH1 0x20 PUSH1 0x4 DUP3 ADD MSTORE PUSH1 0x13 PUSH1 0x24 DUP3 ADD MSTORE PUSH19 0x115D995B9D081B985B59481C995C5D5A5C9959 PUSH1 0x6A SHL PUSH1 0x44 DUP3 ADD MSTORE PUSH1 0x64 SWAP1 REVERT JUMPDEST CALLVALUE PUSH2 0x16D JUMPI PUSH1 0x20 CALLDATASIZE PUSH1 0x3 NOT ADD SLT PUSH2 0x16D JUMPI PUSH1 0x1 PUSH1 0x1 PUSH1 0xA0 SHL SUB PUSH2 0xEB6 PUSH2 0x2321 JUMP JUMPDEST AND PUSH0 MSTORE PUSH1 0xC PUSH1 0x20 MSTORE PUSH2 0xECA PUSH1 0x40 PUSH0 KECCAK256 PUSH2 0x24EB JUMP JUMPDEST PUSH1 0x40 MLOAD DUP1 SWAP2 PUSH1 0x20 DUP3 ADD PUSH1 0x20 DUP4 MSTORE DUP2 MLOAD DUP1 SWAP2 MSTORE PUSH1 0x20 PUSH1 0x40 DUP5 ADD SWAP3 ADD SWAP1 PUSH0 JUMPDEST DUP2 DUP2 LT PUSH2 0xEF5 JUMPI POP POP POP SUB SWAP1 RETURN JUMPDEST DUP3 MLOAD DUP5 MSTORE DUP6 SWAP5 POP PUSH1 0x20 SWAP4 DUP5 ADD SWAP4 SWAP1 SWAP3 ADD SWAP2 PUSH1 0x1 ADD PUSH2 0xEE7 JUMP JUMPDEST CALLVALUE PUSH2 0x16D JUMPI PUSH1 0x40 CALLDATASIZE PUSH1 0x3 NOT ADD SLT PUSH2 0x16D JUMPI PUSH0 PUSH1 0x20 PUSH2 0xF6B PUSH2 0xF2D PUSH2 0x2321 JUMP JUMPDEST PUSH2 0xF35 PUSH2 0x263B JUMP JUMPDEST DUP4 SLOAD PUSH1 0x40 MLOAD PUSH4 0xA9059CBB PUSH1 0xE0 SHL DUP2 MSTORE PUSH1 0x1 PUSH1 0x1 PUSH1 0xA0 SHL SUB SWAP1 SWAP2 AND PUSH1 0x4 DUP3 ADD MSTORE PUSH1 0x24 DUP1 CALLDATALOAD SWAP1 DUP3 ADD MSTORE SWAP4 DUP5 SWAP3 DUP4 SWAP2 SWAP1 DUP3 SWAP1 PUSH1 0x44 DUP3 ADD SWAP1 JUMP JUMPDEST SUB SWAP3 PUSH1 0x1 PUSH1 0x1 PUSH1 0xA0 SHL SUB AND GAS CALL SWAP1 DUP2 ISZERO PUSH2 0xFF4 JUMPI PUSH0 SWAP2 PUSH2 0xFC5 JUMPI JUMPDEST POP ISZERO PUSH2 0xF8E JUMPI STOP JUMPDEST PUSH1 0x40 MLOAD PUSH3 0x461BCD PUSH1 0xE5 SHL DUP2 MSTORE PUSH1 0x20 PUSH1 0x4 DUP3 ADD MSTORE PUSH1 0xF PUSH1 0x24 DUP3 ADD MSTORE PUSH15 0x15DA5D1A191C985DC819985A5B1959 PUSH1 0x8A SHL PUSH1 0x44 DUP3 ADD MSTORE PUSH1 0x64 SWAP1 REVERT JUMPDEST PUSH2 0xFE7 SWAP2 POP PUSH1 0x20 RETURNDATASIZE PUSH1 0x20 GT PUSH2 0xFED JUMPI JUMPDEST PUSH2 0xFDF DUP2 DUP4 PUSH2 0x23F1 JUMP JUMPDEST DUP2 ADD SWAP1 PUSH2 0x2546 JUMP JUMPDEST DUP2 PUSH2 0xF86 JUMP JUMPDEST POP RETURNDATASIZE PUSH2 0xFD5 JUMP JUMPDEST PUSH1 0x40 MLOAD RETURNDATASIZE PUSH0 DUP3 RETURNDATACOPY RETURNDATASIZE SWAP1 REVERT JUMPDEST CALLVALUE PUSH2 0x16D JUMPI PUSH0 CALLDATASIZE PUSH1 0x3 NOT ADD SLT PUSH2 0x16D JUMPI PUSH0 SLOAD PUSH1 0x40 MLOAD PUSH1 0x1 PUSH1 0x1 PUSH1 0xA0 SHL SUB SWAP1 SWAP2 AND DUP2 MSTORE PUSH1 0x20 SWAP1 RETURN JUMPDEST CALLVALUE PUSH2 0x16D JUMPI PUSH0 CALLDATASIZE PUSH1 0x3 NOT ADD SLT PUSH2 0x16D JUMPI PUSH1 0x20 PUSH1 0x7 SLOAD PUSH1 0x40 MLOAD SWAP1 DUP2 MSTORE RETURN JUMPDEST CALLVALUE PUSH2 0x16D JUMPI PUSH1 0x20 CALLDATASIZE PUSH1 0x3 NOT ADD SLT PUSH2 0x16D JUMPI PUSH1 0x4 CALLDATALOAD PUSH2 0x105F PUSH2 0x263B JUMP JUMPDEST PUSH2 0x1067 PUSH2 0x261B JUMP JUMPDEST DUP1 PUSH0 MSTORE PUSH1 0x9 PUSH1 0x20 MSTORE PUSH1 0x40 PUSH0 KECCAK256 PUSH2 0x107F DUP2 SLOAD ISZERO ISZERO PUSH2 0x255E JUMP JUMPDEST PUSH1 0xFF PUSH1 0xC DUP3 ADD SLOAD AND PUSH2 0x124B JUMPI PUSH1 0xA DUP2 ADD PUSH1 0xFF DUP2 SLOAD PUSH1 0x8 SHR AND PUSH1 0x5 DUP2 LT ISZERO PUSH2 0x1237 JUMPI PUSH1 0x4 EQ PUSH2 0x11FE JUMPI PUSH2 0x400 PUSH2 0xFF00 NOT DUP3 SLOAD AND OR SWAP1 SSTORE DUP2 PUSH0 MSTORE PUSH1 0xA PUSH1 0x20 MSTORE PUSH1 0x40 PUSH0 KECCAK256 PUSH1 0x40 MLOAD DUP1 DUP3 PUSH1 0x20 DUP3 SWAP5 SLOAD SWAP4 DUP5 DUP2 MSTORE ADD SWAP1 PUSH0 MSTORE PUSH1 0x20 PUSH0 KECCAK256 SWAP3 PUSH0 JUMPDEST DUP2 DUP2 LT PUSH2 0x11DC JUMPI POP POP PUSH2 0x10EE SWAP3 POP SUB DUP3 PUSH2 0x23F1 JUMP JUMPDEST PUSH0 JUMPDEST DUP2 MLOAD DUP2 LT ISZERO PUSH2 0x11A6 JUMPI PUSH1 0x1 PUSH1 0x1 PUSH1 0xA0 SHL SUB PUSH2 0x110B DUP3 DUP5 PUSH2 0x2607 JUMP JUMPDEST MLOAD AND SWAP1 DUP5 PUSH0 MSTORE PUSH1 0xD PUSH1 0x20 MSTORE PUSH1 0x40 PUSH0 KECCAK256 PUSH1 0x1 DUP1 PUSH1 0xA0 SHL SUB DUP4 AND PUSH0 MSTORE PUSH1 0x20 MSTORE PUSH1 0x2 PUSH1 0x40 PUSH0 KECCAK256 ADD SLOAD SWAP2 DUP3 PUSH2 0x1142 JUMPI JUMPDEST POP PUSH1 0x1 SWAP2 POP ADD PUSH2 0x10F0 JUMP JUMPDEST PUSH1 0x3 SLOAD PUSH1 0x40 MLOAD PUSH4 0xA9059CBB PUSH1 0xE0 SHL DUP2 MSTORE PUSH1 0x1 PUSH1 0x1 PUSH1 0xA0 SHL SUB SWAP3 DUP4 AND PUSH1 0x4 DUP3 ADD MSTORE PUSH1 0x24 DUP2 ADD SWAP5 SWAP1 SWAP5 MSTORE PUSH1 0x20 SWAP2 DUP5 SWAP2 PUSH1 0x44 SWAP2 DUP4 SWAP2 PUSH0 SWAP2 AND GAS CALL SWAP2 DUP3 ISZERO PUSH2 0xFF4 JUMPI PUSH1 0x1 SWAP3 ISZERO PUSH2 0x1137 JUMPI PUSH2 0x119F SWAP1 PUSH1 0x20 RETURNDATASIZE DUP2 GT PUSH2 0xFED JUMPI PUSH2 0xFDF DUP2 DUP4 PUSH2 0x23F1 JUMP JUMPDEST POP DUP6 PUSH2 0x1137 JUMP JUMPDEST DUP4 PUSH32 0xCB217DC5CDE7608105C5FA8AF63D961A4210E06DC3C3DAFA9396D05251952F85 PUSH1 0x20 PUSH1 0xB DUP7 ADD SLOAD PUSH1 0x40 MLOAD SWAP1 DUP2 MSTORE LOG2 PUSH1 0x1 DUP1 SSTORE STOP JUMPDEST DUP5 SLOAD PUSH1 0x1 PUSH1 0x1 PUSH1 0xA0 SHL SUB AND DUP4 MSTORE PUSH1 0x1 SWAP5 DUP6 ADD SWAP5 DUP7 SWAP5 POP PUSH1 0x20 SWAP1 SWAP4 ADD SWAP3 ADD PUSH2 0x10D9 JUMP JUMPDEST PUSH1 0x40 MLOAD PUSH3 0x461BCD PUSH1 0xE5 SHL DUP2 MSTORE PUSH1 0x20 PUSH1 0x4 DUP3 ADD MSTORE PUSH1 0x11 PUSH1 0x24 DUP3 ADD MSTORE PUSH17 0x105B1C9958591E4818D85B98D95B1B1959 PUSH1 0x7A SHL PUSH1 0x44 DUP3 ADD MSTORE PUSH1 0x64 SWAP1 REVERT JUMPDEST PUSH4 0x4E487B71 PUSH1 0xE0 SHL PUSH0 MSTORE PUSH1 0x21 PUSH1 0x4 MSTORE PUSH1 0x24 PUSH0 REVERT JUMPDEST PUSH1 0x40 MLOAD PUSH3 0x461BCD PUSH1 0xE5 SHL DUP2 MSTORE PUSH1 0x20 PUSH1 0x4 DUP3 ADD MSTORE PUSH1 0x1C PUSH1 0x24 DUP3 ADD MSTORE PUSH32 0x43616E6E6F742063616E63656C2066696E616C697A656420706F6F6C00000000 PUSH1 0x44 DUP3 ADD MSTORE PUSH1 0x64 SWAP1 REVERT JUMPDEST CALLVALUE PUSH2 0x16D JUMPI PUSH0 CALLDATASIZE PUSH1 0x3 NOT ADD SLT PUSH2 0x16D JUMPI PUSH2 0x12A8 PUSH2 0x263B JUMP JUMPDEST PUSH0 DUP1 SLOAD PUSH1 0x1 PUSH1 0x1 PUSH1 0xA0 SHL SUB NOT DUP2 AND DUP3 SSTORE PUSH1 0x1 PUSH1 0x1 PUSH1 0xA0 SHL SUB AND PUSH32 0x8BE0079C531659141344CD1FD0A4F28419497F9722A3DAAFE3B4186F6B6457E0 DUP3 DUP1 LOG3 STOP JUMPDEST CALLVALUE PUSH2 0x16D JUMPI PUSH1 0x40 CALLDATASIZE PUSH1 0x3 NOT ADD SLT PUSH2 0x16D JUMPI PUSH2 0x1300 PUSH2 0x2337 JUMP JUMPDEST PUSH1 0x4 CALLDATALOAD PUSH0 MSTORE PUSH1 0xB PUSH1 0x20 MSTORE PUSH1 0x40 PUSH0 KECCAK256 SWAP1 PUSH1 0x1 DUP1 PUSH1 0xA0 SHL SUB AND PUSH0 MSTORE PUSH1 0x20 MSTORE PUSH1 0x20 PUSH1 0xFF PUSH1 0x40 PUSH0 KECCAK256 SLOAD AND PUSH1 0x40 MLOAD SWAP1 ISZERO ISZERO DUP2 MSTORE RETURN JUMPDEST CALLVALUE PUSH2 0x16D JUMPI PUSH1 0x40 CALLDATASIZE PUSH1 0x3 NOT ADD SLT PUSH2 0x16D JUMPI PUSH1 0x24 CALLDATALOAD PUSH1 0x4 CALLDATALOAD PUSH0 MSTORE PUSH1 0xA PUSH1 0x20 MSTORE PUSH1 0x40 PUSH0 KECCAK256 DUP1 SLOAD DUP3 LT ISZERO PUSH2 0x16D JUMPI PUSH1 0x20 SWAP2 PUSH2 0x1367 SWAP2 PUSH2 0x234D JUMP JUMPDEST SWAP1 SLOAD PUSH1 0x40 MLOAD PUSH1 0x3 SWAP3 SWAP1 SWAP3 SHL SHR PUSH1 0x1 PUSH1 0x1 PUSH1 0xA0 SHL SUB AND DUP2 MSTORE RETURN JUMPDEST CALLVALUE PUSH2 0x16D JUMPI PUSH1 0x20 CALLDATASIZE PUSH1 0x3 NOT ADD SLT PUSH2 0x16D JUMPI PUSH1 0x4 CALLDATALOAD DUP1 PUSH0 MSTORE PUSH1 0x9 PUSH1 0x20 MSTORE PUSH1 0x40 PUSH0 KECCAK256 SWAP1 PUSH1 0x40 MLOAD PUSH2 0x13AD DUP2 PUSH2 0x23B8 JUMP JUMPDEST DUP3 SLOAD DUP2 MSTORE PUSH2 0x13BD PUSH1 0x1 DUP5 ADD PUSH2 0x244B JUMP JUMPDEST PUSH1 0x20 DUP3 ADD MSTORE PUSH1 0x2 DUP4 ADD SLOAD PUSH1 0x40 DUP3 ADD MSTORE PUSH1 0x3 DUP4 ADD SLOAD PUSH1 0x60 DUP3 ADD MSTORE PUSH1 0x4 DUP4 ADD SLOAD PUSH1 0x80 DUP3 ADD MSTORE PUSH1 0x5 DUP4 ADD SLOAD PUSH1 0xA0 DUP3 ADD MSTORE PUSH1 0x6 DUP4 ADD SLOAD PUSH1 0xC0 DUP3 ADD MSTORE PUSH1 0x7 DUP4 ADD SLOAD PUSH1 0xE0 DUP3 ADD MSTORE PUSH1 0x8 DUP4 ADD SLOAD PUSH2 0x100 DUP3 ADD MSTORE PUSH1 0x9 DUP4 ADD SLOAD PUSH2 0x120 DUP3 ADD MSTORE PUSH1 0xA DUP4 ADD SLOAD PUSH1 0xFF DUP2 AND SWAP1 PUSH1 0x2 DUP3 LT ISZERO PUSH2 0x1237 JUMPI PUSH1 0xFF SWAP2 PUSH2 0x140 DUP5 ADD MSTORE PUSH1 0x8 SHR AND PUSH1 0x5 DUP2 LT ISZERO PUSH2 0x1237 JUMPI PUSH2 0x160 DUP3 ADD MSTORE PUSH1 0xB DUP4 ADD SLOAD PUSH2 0x180 DUP3 ADD MSTORE PUSH1 0xFF PUSH1 0xC DUP5 ADD SLOAD AND ISZERO ISZERO PUSH2 0x1A0 DUP3 ADD MSTORE PUSH2 0x146A PUSH1 0xD DUP5 ADD PUSH2 0x24EB JUMP JUMPDEST SWAP1 PUSH2 0x1E0 PUSH1 0xE PUSH2 0x1C0 DUP4 ADD SWAP6 DUP5 DUP8 MSTORE ADD SLOAD SWAP2 ADD MSTORE MLOAD SWAP2 PUSH2 0x1489 DUP4 PUSH2 0x25EF JUMP JUMPDEST SWAP3 PUSH2 0x1497 PUSH1 0x40 MLOAD SWAP5 DUP6 PUSH2 0x23F1 JUMP JUMPDEST DUP1 DUP5 MSTORE PUSH2 0x14A6 PUSH1 0x1F NOT SWAP2 PUSH2 0x25EF JUMP JUMPDEST ADD CALLDATASIZE PUSH1 0x20 DUP6 ADD CALLDATACOPY PUSH0 JUMPDEST DUP2 MLOAD MLOAD DUP2 LT ISZERO PUSH2 0x14FC JUMPI PUSH1 0x1 SWAP1 DUP4 PUSH0 MSTORE PUSH1 0xA PUSH1 0x20 MSTORE PUSH2 0x14DD PUSH1 0x40 PUSH0 KECCAK256 PUSH2 0x14D6 DUP4 DUP7 MLOAD PUSH2 0x2607 JUMP JUMPDEST MLOAD SWAP1 PUSH2 0x234D JUMP JUMPDEST DUP4 DUP1 PUSH1 0xA0 SHL SUB SWAP2 SLOAD SWAP1 PUSH1 0x3 SHL SHR AND PUSH2 0x14F5 DUP3 DUP8 PUSH2 0x2607 JUMP JUMPDEST MSTORE ADD PUSH2 0x14AF JUMP JUMPDEST PUSH1 0x40 MLOAD DUP1 PUSH2 0x3A5 DUP7 DUP3 PUSH2 0x2376 JUMP JUMPDEST CALLVALUE PUSH2 0x16D JUMPI PUSH1 0x40 CALLDATASIZE PUSH1 0x3 NOT ADD SLT PUSH2 0x16D JUMPI PUSH2 0x1523 PUSH2 0x2337 JUMP JUMPDEST PUSH1 0x4 CALLDATALOAD PUSH0 MSTORE PUSH1 0xD PUSH1 0x20 MSTORE PUSH1 0x40 PUSH0 KECCAK256 SWAP1 PUSH1 0x1 DUP1 PUSH1 0xA0 SHL SUB AND PUSH0 MSTORE PUSH1 0x20 MSTORE PUSH1 0xE0 PUSH1 0x40 PUSH0 KECCAK256 PUSH1 0x1 DUP1 PUSH1 0xA0 SHL SUB DUP2 SLOAD AND SWAP1 PUSH1 0xFF PUSH1 0x1 DUP3 ADD SLOAD SWAP2 PUSH1 0x2 DUP2 ADD SLOAD PUSH1 0x4 PUSH1 0x3 DUP4 ADD SLOAD SWAP3 ADD SLOAD SWAP4 PUSH1 0x40 MLOAD SWAP6 DUP7 MSTORE PUSH1 0x20 DUP7 ADD MSTORE PUSH1 0x40 DUP6 ADD MSTORE DUP2 DUP2 AND ISZERO ISZERO PUSH1 0x60 DUP6 ADD MSTORE DUP2 DUP2 PUSH1 0x8 SHR AND ISZERO ISZERO PUSH1 0x80 DUP6 ADD MSTORE PUSH1 0x10 SHR AND ISZERO ISZERO PUSH1 0xA0 DUP4 ADD MSTORE PUSH1 0xC0 DUP3 ADD MSTORE RETURN JUMPDEST CALLVALUE PUSH2 0x16D JUMPI PUSH1 0x20 CALLDATASIZE PUSH1 0x3 NOT ADD SLT PUSH2 0x16D JUMPI PUSH1 0x4 CALLDATALOAD PUSH2 0x15BD PUSH2 0x261B JUMP JUMPDEST DUP1 PUSH0 MSTORE PUSH1 0x9 PUSH1 0x20 MSTORE PUSH1 0x40 PUSH0 KECCAK256 SWAP1 PUSH2 0x15D6 DUP3 SLOAD ISZERO ISZERO PUSH2 0x255E JUMP JUMPDEST PUSH1 0xA DUP3 ADD SWAP2 PUSH1 0xFF DUP4 SLOAD PUSH1 0x8 SHR AND PUSH1 0x5 DUP2 LT ISZERO PUSH2 0x1237 JUMPI DUP1 ISZERO SWAP1 DUP2 ISZERO PUSH2 0x1AB3 JUMPI JUMPDEST POP ISZERO PUSH2 0x1A6E JUMPI PUSH0 DUP3 DUP2 MSTORE PUSH1 0xB PUSH1 0x20 SWAP1 DUP2 MSTORE PUSH1 0x40 DUP1 DUP4 KECCAK256 CALLER DUP5 MSTORE SWAP1 SWAP2 MSTORE SWAP1 KECCAK256 SLOAD PUSH1 0xFF AND PUSH2 0x1A29 JUMPI PUSH1 0x6 DUP2 ADD SWAP3 DUP4 SLOAD SWAP2 PUSH1 0x5 DUP2 ADD SWAP3 DUP4 SLOAD GT ISZERO PUSH2 0x19F5 JUMPI PUSH1 0x8 DUP2 ADD SLOAD TIMESTAMP LT ISZERO PUSH2 0x19B9 JUMPI PUSH1 0x3 SLOAD PUSH1 0x4 DUP3 DUP2 ADD DUP1 SLOAD PUSH1 0x40 MLOAD PUSH4 0x23B872DD PUSH1 0xE0 SHL DUP2 MSTORE CALLER SWAP4 DUP2 ADD SWAP4 SWAP1 SWAP4 MSTORE ADDRESS PUSH1 0x24 DUP5 ADD MSTORE PUSH1 0x44 DUP4 ADD MSTORE SWAP5 SWAP2 PUSH1 0x20 SWAP1 DUP3 SWAP1 PUSH1 0x64 SWAP1 DUP3 SWAP1 PUSH0 SWAP1 PUSH1 0x1 PUSH1 0x1 PUSH1 0xA0 SHL SUB AND GAS CALL SWAP1 DUP2 ISZERO PUSH2 0xFF4 JUMPI PUSH0 SWAP2 PUSH2 0x199A JUMPI JUMPDEST POP ISZERO PUSH2 0x195E JUMPI PUSH0 DUP6 DUP2 MSTORE PUSH1 0xB PUSH1 0x20 SWAP1 DUP2 MSTORE PUSH1 0x40 DUP1 DUP4 KECCAK256 CALLER DUP5 MSTORE DUP3 MSTORE DUP1 DUP4 KECCAK256 DUP1 SLOAD PUSH1 0xFF NOT AND PUSH1 0x1 OR SWAP1 SSTORE DUP8 DUP4 MSTORE PUSH1 0xA SWAP1 SWAP2 MSTORE SWAP1 KECCAK256 DUP1 SLOAD PUSH1 0x1 PUSH1 0x40 SHL DUP2 LT ISZERO PUSH2 0xCEC JUMPI PUSH2 0x16DE SWAP2 PUSH1 0x1 DUP3 ADD DUP2 SSTORE PUSH2 0x234D JUMP JUMPDEST DUP2 SLOAD SWAP1 PUSH1 0x3 SHL SWAP1 CALLER DUP3 SHL SWAP2 PUSH1 0x1 DUP1 PUSH1 0xA0 SHL SUB SWAP1 SHL NOT AND OR SWAP1 SSTORE CALLER PUSH0 MSTORE PUSH1 0xC PUSH1 0x20 MSTORE PUSH2 0x170C DUP6 PUSH1 0x40 PUSH0 KECCAK256 PUSH2 0x25A0 JUMP JUMPDEST DUP4 SLOAD PUSH1 0x4 PUSH1 0x40 MLOAD SWAP2 PUSH2 0x171D DUP4 PUSH2 0x23D5 JUMP JUMPDEST CALLER DUP4 MSTORE PUSH1 0x20 DUP4 ADD SWAP1 DUP9 DUP3 MSTORE PUSH1 0x40 DUP5 ADD SWAP1 DUP2 MSTORE PUSH1 0x60 DUP5 ADD SWAP1 PUSH0 DUP3 MSTORE PUSH1 0x80 DUP6 ADD PUSH0 DUP2 MSTORE PUSH1 0xA0 DUP7 ADD SWAP2 PUSH0 DUP4 MSTORE PUSH1 0xC0 DUP8 ADD SWAP5 TIMESTAMP DUP7 MSTORE DUP13 PUSH0 MSTORE PUSH1 0xD PUSH1 0x20 MSTORE PUSH1 0x40 PUSH0 KECCAK256 PUSH1 0x1 DUP1 PUSH1 0xA0 SHL SUB CALLER AND PUSH0 MSTORE PUSH1 0x20 MSTORE PUSH1 0x40 PUSH0 KECCAK256 SWAP8 PUSH1 0x1 DUP1 PUSH1 0xA0 SHL SUB SWAP1 MLOAD AND PUSH12 0xFFFFFFFFFFFFFFFFFFFFFFFF PUSH1 0xA0 SHL DUP10 SLOAD AND OR DUP9 SSTORE MLOAD PUSH1 0x1 DUP9 ADD SSTORE MLOAD PUSH1 0x2 DUP8 ADD SSTORE PUSH1 0x3 DUP7 ADD SWAP3 MLOAD ISZERO ISZERO PUSH1 0xFF DUP1 NOT DUP6 SLOAD AND SWAP2 AND OR DUP4 SSTORE MLOAD ISZERO ISZERO PUSH2 0xFF00 DUP4 SLOAD SWAP2 PUSH1 0x8 SHL AND SWAP1 PUSH2 0xFF00 NOT AND OR DUP3 SSTORE MLOAD ISZERO ISZERO PUSH3 0xFF0000 DUP3 SLOAD SWAP2 PUSH1 0x10 SHL AND SWAP1 PUSH3 0xFF0000 NOT AND OR SWAP1 SSTORE MLOAD SWAP2 ADD SSTORE PUSH2 0x17E9 DUP7 SLOAD PUSH2 0x25D4 JUMP JUMPDEST SWAP2 DUP3 DUP8 SSTORE PUSH2 0x17FE PUSH1 0xB DUP7 SLOAD SWAP3 ADD SWAP2 DUP3 SLOAD PUSH2 0x25E2 JUMP JUMPDEST SWAP1 SSTORE SLOAD EQ PUSH2 0x194B JUMPI JUMPDEST POP PUSH1 0x1 DUP1 PUSH1 0xA0 SHL SUB PUSH1 0x2 SLOAD AND PUSH1 0x7 SLOAD DUP2 EXTCODESIZE ISZERO PUSH2 0x16D JUMPI PUSH0 SWAP2 PUSH1 0xA4 DUP4 SWAP3 PUSH1 0x40 MLOAD SWAP5 DUP6 SWAP4 DUP5 SWAP3 PUSH4 0x34FF2619 PUSH1 0xE2 SHL DUP5 MSTORE CALLER PUSH1 0x4 DUP6 ADD MSTORE PUSH1 0x24 DUP5 ADD MSTORE PUSH1 0x60 PUSH1 0x44 DUP5 ADD MSTORE PUSH1 0x12 PUSH1 0x64 DUP5 ADD MSTORE PUSH18 0x2837B7B6103830B93A34B1B4B830BA34B7B7 PUSH1 0x71 SHL PUSH1 0x84 DUP5 ADD MSTORE GAS CALL SWAP1 DUP2 PUSH2 0x193B JUMPI JUMPDEST POP PUSH2 0x18B2 JUMPI JUMPDEST SLOAD SWAP2 SLOAD PUSH1 0x40 MLOAD SWAP3 DUP4 MSTORE PUSH1 0x20 DUP4 ADD MSTORE PUSH32 0xF5853FD7EEAD7386334FC4AC2BA4C05B034116DC0F013DF3D12F2C50219AC99F PUSH1 0x40 CALLER SWAP4 LOG3 PUSH1 0x1 DUP1 SSTORE STOP JUMPDEST DUP2 PUSH0 MSTORE PUSH1 0xD PUSH1 0x20 MSTORE PUSH1 0x40 PUSH0 KECCAK256 PUSH1 0x1 DUP1 PUSH1 0xA0 SHL SUB CALLER AND PUSH0 MSTORE PUSH1 0x20 MSTORE PUSH1 0x3 PUSH1 0x40 PUSH0 KECCAK256 ADD PUSH3 0x10000 PUSH3 0xFF0000 NOT DUP3 SLOAD AND OR SWAP1 SSTORE PUSH1 0x7 SLOAD PUSH1 0x40 MLOAD SWAP1 DUP2 MSTORE PUSH1 0x40 PUSH1 0x20 DUP3 ADD MSTORE PUSH1 0xD PUSH1 0x40 DUP3 ADD MSTORE PUSH13 0x2830B93A34B1B4B830BA34B7B7 PUSH1 0x99 SHL PUSH1 0x60 DUP3 ADD MSTORE DUP3 PUSH32 0xA4AC4F52503C1A3D8FBFECBF4E407E779E161FB7ECBE9FB795087963514E07C5 PUSH1 0x80 CALLER SWAP4 LOG3 PUSH2 0x1878 JUMP JUMPDEST PUSH0 PUSH2 0x1945 SWAP2 PUSH2 0x23F1 JUMP JUMPDEST DUP5 PUSH2 0x1872 JUMP JUMPDEST DUP1 SLOAD PUSH2 0xFF00 NOT AND PUSH2 0x100 OR SWAP1 SSTORE DUP4 PUSH2 0x1807 JUMP JUMPDEST PUSH1 0x40 MLOAD PUSH3 0x461BCD PUSH1 0xE5 SHL DUP2 MSTORE PUSH1 0x20 PUSH1 0x4 DUP3 ADD MSTORE PUSH1 0x14 PUSH1 0x24 DUP3 ADD MSTORE PUSH20 0x1554D115081D1C985B9CD9995C8819985A5B1959 PUSH1 0x62 SHL PUSH1 0x44 DUP3 ADD MSTORE PUSH1 0x64 SWAP1 REVERT JUMPDEST PUSH2 0x19B3 SWAP2 POP PUSH1 0x20 RETURNDATASIZE PUSH1 0x20 GT PUSH2 0xFED JUMPI PUSH2 0xFDF DUP2 DUP4 PUSH2 0x23F1 JUMP JUMPDEST DUP8 PUSH2 0x168E JUMP JUMPDEST PUSH1 0x40 MLOAD PUSH3 0x461BCD PUSH1 0xE5 SHL DUP2 MSTORE PUSH1 0x20 PUSH1 0x4 DUP3 ADD MSTORE PUSH1 0x14 PUSH1 0x24 DUP3 ADD MSTORE PUSH20 0x141BDBDB08191958591B1A5B99481C185CDCD959 PUSH1 0x62 SHL PUSH1 0x44 DUP3 ADD MSTORE PUSH1 0x64 SWAP1 REVERT JUMPDEST PUSH1 0x40 MLOAD PUSH3 0x461BCD PUSH1 0xE5 SHL DUP2 MSTORE PUSH1 0x20 PUSH1 0x4 DUP3 ADD MSTORE PUSH1 0xC PUSH1 0x24 DUP3 ADD MSTORE PUSH12 0x141BDBDB081A5CC8199D5B1B PUSH1 0xA2 SHL PUSH1 0x44 DUP3 ADD MSTORE PUSH1 0x64 SWAP1 REVERT JUMPDEST PUSH1 0x40 MLOAD PUSH3 0x461BCD PUSH1 0xE5 SHL DUP2 MSTORE PUSH1 0x20 PUSH1 0x4 DUP3 ADD MSTORE PUSH1 0x18 PUSH1 0x24 DUP3 ADD MSTORE PUSH32 0x416C7265616479206A6F696E6564207468697320706F6F6C0000000000000000 PUSH1 0x44 DUP3 ADD MSTORE PUSH1 0x64 SWAP1 REVERT JUMPDEST PUSH1 0x40 MLOAD PUSH3 0x461BCD PUSH1 0xE5 SHL DUP2 MSTORE PUSH1 0x20 PUSH1 0x4 DUP3 ADD MSTORE PUSH1 0x1F PUSH1 0x24 DUP3 ADD MSTORE PUSH32 0x506F6F6C206E6F7420616363657074696E67207061727469636970616E747300 PUSH1 0x44 DUP3 ADD MSTORE PUSH1 0x64 SWAP1 REVERT JUMPDEST PUSH1 0x1 SWAP2 POP EQ DUP5 PUSH2 0x15F6 JUMP JUMPDEST CALLVALUE PUSH2 0x16D JUMPI PUSH1 0x80 CALLDATASIZE PUSH1 0x3 NOT ADD SLT PUSH2 0x16D JUMPI PUSH1 0x24 CALLDATALOAD PUSH1 0x4 CALLDATALOAD PUSH2 0x1ADD PUSH2 0x263B JUMP JUMPDEST PUSH1 0x64 DUP2 GT PUSH2 0x1B3D JUMPI PUSH1 0x64 DUP3 GT PUSH2 0x1B01 JUMPI PUSH1 0x5 SSTORE PUSH1 0x6 SSTORE PUSH1 0x44 CALLDATALOAD PUSH1 0x7 SSTORE PUSH1 0x64 CALLDATALOAD PUSH1 0x8 SSTORE STOP JUMPDEST PUSH1 0x40 MLOAD PUSH3 0x461BCD PUSH1 0xE5 SHL DUP2 MSTORE PUSH1 0x20 PUSH1 0x4 DUP3 ADD MSTORE PUSH1 0x14 PUSH1 0x24 DUP3 ADD MSTORE PUSH20 0x496E76616C696420706C6174666F726D20666565 PUSH1 0x60 SHL PUSH1 0x44 DUP3 ADD MSTORE PUSH1 0x64 SWAP1 REVERT JUMPDEST PUSH1 0x40 MLOAD PUSH3 0x461BCD PUSH1 0xE5 SHL DUP2 MSTORE PUSH1 0x20 PUSH1 0x4 DUP3 ADD MSTORE PUSH1 0x11 PUSH1 0x24 DUP3 ADD MSTORE PUSH17 0x496E76616C696420636C61696D20666565 PUSH1 0x78 SHL PUSH1 0x44 DUP3 ADD MSTORE PUSH1 0x64 SWAP1 REVERT JUMPDEST CALLVALUE PUSH2 0x16D JUMPI PUSH0 CALLDATASIZE PUSH1 0x3 NOT ADD SLT PUSH2 0x16D JUMPI PUSH1 0x3 SLOAD PUSH1 0x40 MLOAD PUSH1 0x1 PUSH1 0x1 PUSH1 0xA0 SHL SUB SWAP1 SWAP2 AND DUP2 MSTORE PUSH1 0x20 SWAP1 RETURN JUMPDEST CALLVALUE PUSH2 0x16D JUMPI PUSH0 CALLDATASIZE PUSH1 0x3 NOT ADD SLT PUSH2 0x16D JUMPI PUSH1 0x20 PUSH1 0x4 SLOAD PUSH1 0x40 MLOAD SWAP1 DUP2 MSTORE RETURN JUMPDEST CALLVALUE PUSH2 0x16D JUMPI PUSH1 0x40 CALLDATASIZE PUSH1 0x3 NOT ADD SLT PUSH2 0x16D JUMPI PUSH2 0x1BD4 PUSH2 0x2321 JUMP JUMPDEST PUSH1 0x1 PUSH1 0x1 PUSH1 0xA0 SHL SUB AND PUSH0 SWAP1 DUP2 MSTORE PUSH1 0xC PUSH1 0x20 MSTORE PUSH1 0x40 SWAP1 KECCAK256 DUP1 SLOAD PUSH1 0x24 CALLDATALOAD SWAP2 SWAP1 DUP3 LT ISZERO PUSH2 0x16D JUMPI PUSH1 0x20 SWAP2 PUSH2 0x1C04 SWAP2 PUSH2 0x234D JUMP JUMPDEST SWAP1 SLOAD SWAP1 PUSH1 0x3 SHL SHR PUSH1 0x40 MLOAD SWAP1 DUP2 MSTORE RETURN JUMPDEST CALLVALUE PUSH2 0x16D JUMPI PUSH1 0x20 CALLDATASIZE PUSH1 0x3 NOT ADD SLT PUSH2 0x16D JUMPI PUSH1 0x4 CALLDATALOAD PUSH2 0x1C2F PUSH2 0x261B JUMP JUMPDEST PUSH0 DUP2 DUP2 MSTORE PUSH1 0x9 PUSH1 0x20 SWAP1 DUP2 MSTORE PUSH1 0x40 DUP1 DUP4 KECCAK256 PUSH1 0xD DUP4 MSTORE DUP2 DUP5 KECCAK256 CALLER DUP6 MSTORE SWAP1 SWAP3 MSTORE SWAP1 SWAP2 KECCAK256 PUSH1 0xC DUP3 ADD SLOAD PUSH1 0xFF AND ISZERO PUSH2 0x2041 JUMPI PUSH1 0x3 ADD SWAP1 DUP2 SLOAD PUSH1 0xFF DUP2 AND ISZERO PUSH2 0x200D JUMPI PUSH1 0x8 SHR PUSH1 0xFF AND PUSH2 0x1FD6 JUMPI PUSH1 0x9 DUP2 ADD SLOAD TIMESTAMP LT ISZERO PUSH2 0x1F99 JUMPI PUSH2 0x1C94 PUSH1 0x3 PUSH1 0x64 SWAP3 ADD SLOAD PUSH1 0x5 SLOAD SWAP1 PUSH2 0x2533 JUMP JUMPDEST PUSH1 0x3 SLOAD PUSH1 0x40 MLOAD PUSH4 0x23B872DD PUSH1 0xE0 SHL DUP2 MSTORE CALLER PUSH1 0x4 DUP3 ADD MSTORE ADDRESS PUSH1 0x24 DUP3 ADD MSTORE SWAP3 SWAP1 SWAP2 DIV PUSH1 0x44 DUP4 ADD DUP2 SWAP1 MSTORE SWAP3 SWAP2 SWAP1 PUSH1 0x20 SWAP1 DUP3 SWAP1 PUSH1 0x64 SWAP1 DUP3 SWAP1 PUSH0 SWAP1 PUSH1 0x1 PUSH1 0x1 PUSH1 0xA0 SHL SUB AND GAS CALL SWAP1 DUP2 ISZERO PUSH2 0xFF4 JUMPI PUSH0 SWAP2 PUSH2 0x1F7A JUMPI JUMPDEST POP ISZERO PUSH2 0x1F35 JUMPI PUSH2 0x100 PUSH2 0xFF00 NOT DUP3 SLOAD AND OR SWAP1 SSTORE PUSH1 0x64 PUSH2 0x1D04 PUSH1 0x6 SLOAD DUP4 PUSH2 0x2533 JUMP JUMPDEST DIV SWAP2 DUP3 DUP3 SUB DUP3 DUP2 GT PUSH2 0x61D JUMPI PUSH1 0x3 SLOAD PUSH0 DUP1 SLOAD PUSH1 0x40 MLOAD PUSH4 0xA9059CBB PUSH1 0xE0 SHL DUP2 MSTORE PUSH1 0x1 PUSH1 0x1 PUSH1 0xA0 SHL SUB SWAP2 DUP3 AND PUSH1 0x4 DUP3 ADD MSTORE PUSH1 0x24 DUP2 ADD DUP9 SWAP1 MSTORE SWAP3 PUSH1 0x20 SWAP3 DUP5 SWAP3 PUSH1 0x44 SWAP3 DUP5 SWAP3 SWAP2 AND GAS CALL DUP1 ISZERO PUSH2 0xFF4 JUMPI PUSH2 0x1F18 JUMPI JUMPDEST POP DUP2 PUSH0 MSTORE PUSH1 0xA PUSH1 0x20 MSTORE PUSH1 0x40 PUSH0 KECCAK256 SWAP4 PUSH1 0x40 MLOAD DUP1 DUP7 PUSH1 0x20 DUP3 SWAP9 SLOAD SWAP4 DUP5 DUP2 MSTORE ADD SWAP1 PUSH0 MSTORE PUSH1 0x20 PUSH0 KECCAK256 SWAP3 PUSH0 JUMPDEST DUP2 DUP2 LT PUSH2 0x1EF6 JUMPI POP POP PUSH2 0x1D90 SWAP3 POP SUB DUP7 PUSH2 0x23F1 JUMP JUMPDEST PUSH8 0xDE0B6B3A7640000 DUP3 MUL SWAP2 DUP3 DIV PUSH8 0xDE0B6B3A7640000 EQ SWAP1 DUP5 EQ OR ISZERO PUSH2 0x61D JUMPI DUP4 MLOAD DUP1 ISZERO PUSH2 0x79E JUMPI PUSH3 0xF4240 SWAP2 DIV DIV SWAP1 PUSH0 JUMPDEST DUP5 MLOAD DUP2 LT ISZERO PUSH2 0x1EC2 JUMPI PUSH1 0x2 SLOAD PUSH1 0x1 PUSH1 0x1 PUSH1 0xA0 SHL SUB SWAP1 DUP2 AND SWAP2 SWAP1 PUSH2 0x1DE6 DUP3 DUP9 PUSH2 0x2607 JUMP JUMPDEST MLOAD AND SWAP2 DUP1 EXTCODESIZE ISZERO PUSH2 0x16D JUMPI PUSH0 DUP1 SWAP2 PUSH1 0xA4 PUSH1 0x1 SWAP6 PUSH1 0x40 MLOAD SWAP5 DUP6 SWAP4 DUP5 SWAP3 PUSH4 0x34FF2619 PUSH1 0xE2 SHL DUP5 MSTORE PUSH1 0x4 DUP5 ADD MSTORE DUP11 PUSH1 0x24 DUP5 ADD MSTORE PUSH1 0x60 PUSH1 0x44 DUP5 ADD MSTORE PUSH1 0x10 PUSH1 0x64 DUP5 ADD MSTORE PUSH16 0x10DB185A5B48199959481C995DD85C99 PUSH1 0x82 SHL PUSH1 0x84 DUP5 ADD MSTORE GAS CALL SWAP1 DUP2 PUSH2 0x1EB2 JUMPI JUMPDEST POP PUSH2 0x1E51 JUMPI JUMPDEST ADD PUSH2 0x1DC3 JUMP JUMPDEST DUP2 DUP1 PUSH1 0xA0 SHL SUB PUSH2 0x1E61 DUP3 DUP9 PUSH2 0x2607 JUMP JUMPDEST MLOAD AND DUP4 PUSH32 0xA4AC4F52503C1A3D8FBFECBF4E407E779E161FB7ECBE9FB795087963514E07C5 PUSH1 0x80 PUSH1 0x40 MLOAD DUP9 DUP2 MSTORE PUSH1 0x40 PUSH1 0x20 DUP3 ADD MSTORE PUSH1 0x8 PUSH1 0x40 DUP3 ADD MSTORE PUSH8 0x436C61696D466565 PUSH1 0xC0 SHL PUSH1 0x60 DUP3 ADD MSTORE LOG3 PUSH2 0x1E4B JUMP JUMPDEST PUSH0 PUSH2 0x1EBC SWAP2 PUSH2 0x23F1 JUMP JUMPDEST DUP8 PUSH2 0x1E45 JUMP JUMPDEST DUP4 DUP3 PUSH1 0x40 MLOAD SWAP2 DUP3 MSTORE PUSH32 0x32F4BBF1CADF836F12EAA6B063A4012D2357EF9BFB64D52C0B752FD32612FE2A PUSH1 0x20 CALLER SWAP4 LOG3 PUSH1 0x1 DUP1 SSTORE STOP JUMPDEST DUP5 SLOAD PUSH1 0x1 PUSH1 0x1 PUSH1 0xA0 SHL SUB AND DUP4 MSTORE PUSH1 0x1 SWAP5 DUP6 ADD SWAP5 DUP11 SWAP5 POP PUSH1 0x20 SWAP1 SWAP4 ADD SWAP3 ADD PUSH2 0x1D7B JUMP JUMPDEST PUSH2 0x1F30 SWAP1 PUSH1 0x20 RETURNDATASIZE PUSH1 0x20 GT PUSH2 0xFED JUMPI PUSH2 0xFDF DUP2 DUP4 PUSH2 0x23F1 JUMP JUMPDEST PUSH2 0x1D54 JUMP JUMPDEST PUSH1 0x40 MLOAD PUSH3 0x461BCD PUSH1 0xE5 SHL DUP2 MSTORE PUSH1 0x20 PUSH1 0x4 DUP3 ADD MSTORE PUSH1 0x18 PUSH1 0x24 DUP3 ADD MSTORE PUSH32 0x436C61696D20666565207061796D656E74206661696C65640000000000000000 PUSH1 0x44 DUP3 ADD MSTORE PUSH1 0x64 SWAP1 REVERT JUMPDEST PUSH2 0x1F93 SWAP2 POP PUSH1 0x20 RETURNDATASIZE PUSH1 0x20 GT PUSH2 0xFED JUMPI PUSH2 0xFDF DUP2 DUP4 PUSH2 0x23F1 JUMP JUMPDEST DUP5 PUSH2 0x1CE3 JUMP JUMPDEST PUSH1 0x40 MLOAD PUSH3 0x461BCD PUSH1 0xE5 SHL DUP2 MSTORE PUSH1 0x20 PUSH1 0x4 DUP3 ADD MSTORE PUSH1 0x15 PUSH1 0x24 DUP3 ADD MSTORE PUSH21 0x10DB185A5B48191958591B1A5B99481C185CDCD959 PUSH1 0x5A SHL PUSH1 0x44 DUP3 ADD MSTORE PUSH1 0x64 SWAP1 REVERT JUMPDEST PUSH1 0x40 MLOAD PUSH3 0x461BCD PUSH1 0xE5 SHL DUP2 MSTORE PUSH1 0x20 PUSH1 0x4 DUP3 ADD MSTORE PUSH1 0xF PUSH1 0x24 DUP3 ADD MSTORE PUSH15 0x105B1C9958591E4818DB185A5B5959 PUSH1 0x8A SHL PUSH1 0x44 DUP3 ADD MSTORE PUSH1 0x64 SWAP1 REVERT JUMPDEST PUSH1 0x40 MLOAD PUSH3 0x461BCD PUSH1 0xE5 SHL DUP2 MSTORE PUSH1 0x20 PUSH1 0x4 DUP3 ADD MSTORE PUSH1 0xC PUSH1 0x24 DUP3 ADD MSTORE PUSH12 0x2737BA1030903BB4B73732B9 PUSH1 0xA1 SHL PUSH1 0x44 DUP3 ADD MSTORE PUSH1 0x64 SWAP1 REVERT JUMPDEST PUSH1 0x40 MLOAD PUSH3 0x461BCD PUSH1 0xE5 SHL DUP2 MSTORE PUSH1 0x20 PUSH1 0x4 DUP3 ADD MSTORE PUSH1 0x12 PUSH1 0x24 DUP3 ADD MSTORE PUSH18 0x141BDBDB081B9BDD08199A5B985B1A5E9959 PUSH1 0x72 SHL PUSH1 0x44 DUP3 ADD MSTORE PUSH1 0x64 SWAP1 REVERT JUMPDEST CALLVALUE PUSH2 0x16D JUMPI PUSH1 0x20 CALLDATASIZE PUSH1 0x3 NOT ADD SLT PUSH2 0x16D JUMPI PUSH2 0x1E0 DUP2 PUSH2 0x209A PUSH0 SWAP4 PUSH2 0x23B8 JUMP JUMPDEST DUP3 DUP2 MSTORE PUSH1 0x60 PUSH1 0x20 DUP3 ADD MSTORE DUP3 PUSH1 0x40 DUP3 ADD MSTORE DUP3 PUSH1 0x60 DUP3 ADD MSTORE DUP3 PUSH1 0x80 DUP3 ADD MSTORE DUP3 PUSH1 0xA0 DUP3 ADD MSTORE DUP3 PUSH1 0xC0 DUP3 ADD MSTORE DUP3 PUSH1 0xE0 DUP3 ADD MSTORE DUP3 PUSH2 0x100 DUP3 ADD MSTORE DUP3 PUSH2 0x120 DUP3 ADD MSTORE DUP3 PUSH2 0x140 DUP3 ADD MSTORE DUP3 PUSH2 0x160 DUP3 ADD MSTORE DUP3 PUSH2 0x180 DUP3 ADD MSTORE DUP3 PUSH2 0x1A0 DUP3 ADD MSTORE PUSH1 0x60 PUSH2 0x1C0 DUP3 ADD MSTORE ADD MSTORE PUSH1 0x4 CALLDATALOAD PUSH0 MSTORE PUSH1 0x9 PUSH1 0x20 MSTORE PUSH1 0x40 PUSH0 KECCAK256 PUSH1 0x40 MLOAD PUSH2 0x2116 DUP2 PUSH2 0x23B8 JUMP JUMPDEST DUP2 SLOAD DUP2 MSTORE PUSH2 0x2126 PUSH1 0x1 DUP4 ADD PUSH2 0x244B JUMP JUMPDEST SWAP1 PUSH1 0x20 DUP2 ADD SWAP2 DUP3 MSTORE PUSH1 0x2 DUP4 ADD SLOAD SWAP3 PUSH1 0x40 DUP3 ADD SWAP4 DUP5 MSTORE PUSH1 0x3 DUP2 ADD SLOAD SWAP2 PUSH1 0x60 DUP2 ADD SWAP3 DUP4 MSTORE PUSH1 0x4 DUP3 ADD SLOAD PUSH1 0x80 DUP3 ADD SWAP1 DUP2 MSTORE PUSH1 0x5 DUP4 ADD SLOAD PUSH1 0xA0 DUP4 ADD SWAP1 DUP2 MSTORE PUSH1 0x6 DUP5 ADD SLOAD PUSH1 0xC0 DUP5 ADD SWAP1 DUP2 MSTORE PUSH1 0x7 DUP6 ADD SLOAD PUSH1 0xE0 DUP6 ADD SWAP1 DUP2 MSTORE PUSH1 0x8 DUP7 ADD SLOAD PUSH2 0x100 DUP7 ADD SWAP1 DUP2 MSTORE PUSH1 0x9 DUP8 ADD SLOAD SWAP2 PUSH2 0x120 DUP8 ADD SWAP3 DUP4 MSTORE PUSH1 0xA DUP9 ADD SLOAD SWAP4 PUSH1 0xFF DUP6 AND PUSH2 0x140 DUP10 ADD SWAP6 PUSH1 0x2 DUP3 LT ISZERO PUSH2 0x1237 JUMPI PUSH1 0xFF SWAP2 DUP8 MSTORE PUSH1 0x8 SHR AND SWAP6 PUSH2 0x160 DUP10 ADD SWAP7 PUSH1 0x5 DUP2 LT ISZERO PUSH2 0x1237 JUMPI DUP8 MSTORE PUSH1 0xB DUP11 ADD SLOAD SWAP8 PUSH2 0x180 DUP11 ADD SWAP9 DUP10 MSTORE PUSH1 0xC DUP12 ADD SLOAD PUSH1 0xFF AND SWAP10 PUSH2 0x1A0 DUP2 ADD SWAP11 ISZERO ISZERO DUP12 MSTORE PUSH1 0xD DUP13 ADD PUSH2 0x21F5 SWAP1 PUSH2 0x24EB JUMP JUMPDEST SWAP12 PUSH2 0x1C0 DUP3 ADD SWAP13 DUP14 MSTORE PUSH1 0xE ADD SLOAD SWAP13 PUSH2 0x1E0 DUP3 ADD SWAP14 DUP15 MSTORE PUSH1 0x40 MLOAD SWAP15 DUP16 SWAP3 PUSH1 0x20 DUP5 MSTORE MLOAD PUSH1 0x20 DUP5 ADD MSTORE MLOAD PUSH1 0x40 DUP4 ADD PUSH2 0x200 SWAP1 MSTORE PUSH2 0x220 DUP4 ADD PUSH2 0x2233 SWAP2 PUSH2 0x22E3 JUMP JUMPDEST SWAP16 MLOAD PUSH1 0x60 DUP4 ADD MSTORE MLOAD SWAP1 PUSH1 0x80 ADD MSTORE MLOAD PUSH1 0xA0 DUP14 ADD MSTORE MLOAD PUSH1 0xC0 DUP13 ADD MSTORE MLOAD PUSH1 0xE0 DUP12 ADD MSTORE MLOAD PUSH2 0x100 DUP11 ADD MSTORE MLOAD PUSH2 0x120 DUP10 ADD MSTORE MLOAD PUSH2 0x140 DUP9 ADD MSTORE MLOAD PUSH2 0x160 DUP8 ADD PUSH2 0x2276 SWAP2 PUSH2 0x2307 JUMP JUMPDEST MLOAD PUSH2 0x180 DUP7 ADD PUSH2 0x2285 SWAP2 PUSH2 0x2314 JUMP JUMPDEST MLOAD PUSH2 0x1A0 DUP6 ADD MSTORE MLOAD ISZERO ISZERO PUSH2 0x1C0 DUP5 ADD MSTORE MLOAD SWAP1 PUSH1 0x1F NOT DUP4 DUP6 SUB ADD PUSH2 0x1E0 DUP5 ADD MSTORE DUP2 MLOAD SWAP4 DUP5 DUP2 MSTORE PUSH1 0x20 ADD SWAP2 PUSH1 0x20 ADD PUSH0 SWAP5 JUMPDEST DUP1 DUP7 LT PUSH2 0x22CB JUMPI POP POP DUP3 SWAP4 POP MLOAD PUSH2 0x200 DUP4 ADD MSTORE SUB SWAP1 RETURN JUMPDEST SWAP1 SWAP3 PUSH1 0x20 DUP1 PUSH1 0x1 SWAP3 DUP7 MLOAD DUP2 MSTORE ADD SWAP5 ADD SWAP6 ADD SWAP5 SWAP1 PUSH2 0x22B4 JUMP JUMPDEST DUP1 MLOAD DUP1 DUP4 MSTORE PUSH1 0x20 SWAP3 SWAP2 DUP2 SWAP1 DUP5 ADD DUP5 DUP5 ADD MCOPY PUSH0 DUP3 DUP3 ADD DUP5 ADD MSTORE PUSH1 0x1F ADD PUSH1 0x1F NOT AND ADD ADD SWAP1 JUMP JUMPDEST SWAP1 PUSH1 0x2 DUP3 LT ISZERO PUSH2 0x1237 JUMPI MSTORE JUMP JUMPDEST SWAP1 PUSH1 0x5 DUP3 LT ISZERO PUSH2 0x1237 JUMPI MSTORE JUMP JUMPDEST PUSH1 0x4 CALLDATALOAD SWAP1 PUSH1 0x1 PUSH1 0x1 PUSH1 0xA0 SHL SUB DUP3 AND DUP3 SUB PUSH2 0x16D JUMPI JUMP JUMPDEST PUSH1 0x24 CALLDATALOAD SWAP1 PUSH1 0x1 PUSH1 0x1 PUSH1 0xA0 SHL SUB DUP3 AND DUP3 SUB PUSH2 0x16D JUMPI JUMP JUMPDEST DUP1 SLOAD DUP3 LT ISZERO PUSH2 0x2362 JUMPI PUSH0 MSTORE PUSH1 0x20 PUSH0 KECCAK256 ADD SWAP1 PUSH0 SWAP1 JUMP JUMPDEST PUSH4 0x4E487B71 PUSH1 0xE0 SHL PUSH0 MSTORE PUSH1 0x32 PUSH1 0x4 MSTORE PUSH1 0x24 PUSH0 REVERT JUMPDEST PUSH1 0x20 PUSH1 0x40 DUP2 DUP4 ADD SWAP3 DUP3 DUP2 MSTORE DUP5 MLOAD DUP1 SWAP5 MSTORE ADD SWAP3 ADD SWAP1 PUSH0 JUMPDEST DUP2 DUP2 LT PUSH2 0x2399 JUMPI POP POP POP SWAP1 JUMP JUMPDEST DUP3 MLOAD PUSH1 0x1 PUSH1 0x1 PUSH1 0xA0 SHL SUB AND DUP5 MSTORE PUSH1 0x20 SWAP4 DUP5 ADD SWAP4 SWAP1 SWAP3 ADD SWAP2 PUSH1 0x1 ADD PUSH2 0x238C JUMP JUMPDEST PUSH2 0x200 DUP2 ADD SWAP1 DUP2 LT PUSH8 0xFFFFFFFFFFFFFFFF DUP3 GT OR PUSH2 0xCEC JUMPI PUSH1 0x40 MSTORE JUMP JUMPDEST PUSH1 0xE0 DUP2 ADD SWAP1 DUP2 LT PUSH8 0xFFFFFFFFFFFFFFFF DUP3 GT OR PUSH2 0xCEC JUMPI PUSH1 0x40 MSTORE JUMP JUMPDEST SWAP1 PUSH1 0x1F DUP1 NOT SWAP2 ADD AND DUP2 ADD SWAP1 DUP2 LT PUSH8 0xFFFFFFFFFFFFFFFF DUP3 GT OR PUSH2 0xCEC JUMPI PUSH1 0x40 MSTORE JUMP JUMPDEST SWAP1 PUSH1 0x1 DUP3 DUP2 SHR SWAP3 AND DUP1 ISZERO PUSH2 0x2441 JUMPI JUMPDEST PUSH1 0x20 DUP4 LT EQ PUSH2 0x242D JUMPI JUMP JUMPDEST PUSH4 0x4E487B71 PUSH1 0xE0 SHL PUSH0 MSTORE PUSH1 0x22 PUSH1 0x4 MSTORE PUSH1 0x24 PUSH0 REVERT JUMPDEST SWAP2 PUSH1 0x7F AND SWAP2 PUSH2 0x2422 JUMP JUMPDEST SWAP1 PUSH1 0x40 MLOAD SWAP2 DUP3 PUSH0 DUP3 SLOAD SWAP3 PUSH2 0x245E DUP5 PUSH2 0x2413 JUMP JUMPDEST DUP1 DUP5 MSTORE SWAP4 PUSH1 0x1 DUP2 AND SWAP1 DUP2 ISZERO PUSH2 0x24C9 JUMPI POP PUSH1 0x1 EQ PUSH2 0x2485 JUMPI JUMPDEST POP PUSH2 0x2483 SWAP3 POP SUB DUP4 PUSH2 0x23F1 JUMP JUMPDEST JUMP JUMPDEST SWAP1 POP PUSH0 SWAP3 SWAP2 SWAP3 MSTORE PUSH1 0x20 PUSH0 KECCAK256 SWAP1 PUSH0 SWAP2 JUMPDEST DUP2 DUP4 LT PUSH2 0x24AD JUMPI POP POP SWAP1 PUSH1 0x20 PUSH2 0x2483 SWAP3 DUP3 ADD ADD PUSH0 PUSH2 0x2476 JUMP JUMPDEST PUSH1 0x20 SWAP2 SWAP4 POP DUP1 PUSH1 0x1 SWAP2 SLOAD DUP4 DUP6 DUP10 ADD ADD MSTORE ADD SWAP2 ADD SWAP1 SWAP2 DUP5 SWAP3 PUSH2 0x2494 JUMP JUMPDEST SWAP1 POP PUSH1 0x20 SWAP3 POP PUSH2 0x2483 SWAP5 SWAP2 POP PUSH1 0xFF NOT AND DUP3 DUP5 ADD MSTORE ISZERO ISZERO PUSH1 0x5 SHL DUP3 ADD ADD PUSH0 PUSH2 0x2476 JUMP JUMPDEST SWAP1 PUSH1 0x40 MLOAD SWAP2 DUP3 DUP2 SLOAD SWAP2 DUP3 DUP3 MSTORE PUSH1 0x20 DUP3 ADD SWAP1 PUSH0 MSTORE PUSH1 0x20 PUSH0 KECCAK256 SWAP3 PUSH0 JUMPDEST DUP2 DUP2 LT PUSH2 0x251A JUMPI POP POP PUSH2 0x2483 SWAP3 POP SUB DUP4 PUSH2 0x23F1 JUMP JUMPDEST DUP5 SLOAD DUP4 MSTORE PUSH1 0x1 SWAP5 DUP6 ADD SWAP5 DUP8 SWAP5 POP PUSH1 0x20 SWAP1 SWAP4 ADD SWAP3 ADD PUSH2 0x2505 JUMP JUMPDEST DUP2 DUP2 MUL SWAP3 SWAP2 DUP2 ISZERO SWAP2 DUP5 DIV EQ OR ISZERO PUSH2 0x61D JUMPI JUMP JUMPDEST SWAP1 DUP2 PUSH1 0x20 SWAP2 SUB SLT PUSH2 0x16D JUMPI MLOAD DUP1 ISZERO ISZERO DUP2 SUB PUSH2 0x16D JUMPI SWAP1 JUMP JUMPDEST ISZERO PUSH2 0x2565 JUMPI JUMP JUMPDEST PUSH1 0x40 MLOAD PUSH3 0x461BCD PUSH1 0xE5 SHL DUP2 MSTORE PUSH1 0x20 PUSH1 0x4 DUP3 ADD MSTORE PUSH1 0x13 PUSH1 0x24 DUP3 ADD MSTORE PUSH19 0x141BDBDB08191BD95CC81B9BDD08195E1A5CDD PUSH1 0x6A SHL PUSH1 0x44 DUP3 ADD MSTORE PUSH1 0x64 SWAP1 REVERT JUMPDEST DUP1 SLOAD PUSH1 0x1 PUSH1 0x40 SHL DUP2 LT ISZERO PUSH2 0xCEC JUMPI PUSH2 0x25BD SWAP2 PUSH1 0x1 DUP3 ADD DUP2 SSTORE PUSH2 0x234D JUMP JUMPDEST DUP2 SWAP3 SWAP2 SLOAD SWAP1 PUSH1 0x3 SHL SWAP2 DUP3 SHL SWAP2 PUSH0 NOT SWAP1 SHL NOT AND OR SWAP1 SSTORE JUMP JUMPDEST PUSH0 NOT DUP2 EQ PUSH2 0x61D JUMPI PUSH1 0x1 ADD SWAP1 JUMP JUMPDEST SWAP2 SWAP1 DUP3 ADD DUP1 SWAP3 GT PUSH2 0x61D JUMPI JUMP JUMPDEST PUSH8 0xFFFFFFFFFFFFFFFF DUP2 GT PUSH2 0xCEC JUMPI PUSH1 0x5 SHL PUSH1 0x20 ADD SWAP1 JUMP JUMPDEST DUP1 MLOAD DUP3 LT ISZERO PUSH2 0x2362 JUMPI PUSH1 0x20 SWAP2 PUSH1 0x5 SHL ADD ADD SWAP1 JUMP JUMPDEST PUSH1 0x2 PUSH1 0x1 SLOAD EQ PUSH2 0x262C JUMPI PUSH1 0x2 PUSH1 0x1 SSTORE JUMP JUMPDEST PUSH4 0x3EE5AEB5 PUSH1 0xE0 SHL PUSH0 MSTORE PUSH1 0x4 PUSH0 REVERT JUMPDEST PUSH0 SLOAD PUSH1 0x1 PUSH1 0x1 PUSH1 0xA0 SHL SUB AND CALLER SUB PUSH2 0x264E JUMPI JUMP JUMPDEST PUSH4 0x118CDAA7 PUSH1 0xE0 SHL PUSH0 MSTORE CALLER PUSH1 0x4 MSTORE PUSH1 0x24 PUSH0 REVERT INVALID LOG2 PUSH5 0x6970667358 0x22 SLT KECCAK256 PC 0x4F 0xDC 0xED PUSH10 0x4D945E8817A41CAF227C 0x1E 0x1F BLOCKHASH 0xF9 0xD0 LOG1 EXTCODEHASH 0x4C DUP15 0xF7 0xB7 DUP2 0xEE 0xA8 PUSH6 0x598464736F6C PUSH4 0x4300081C STOP CALLER "},"methodIdentifiers":{"cancelPool(uint256)":"827c7889","claimFeePercentage()":"f468fba8","claimTicket(uint256)":"0fb116d2","createPool(string,uint256,uint256,uint256,uint256,uint256,uint256)":"a166a201","emergencyWithdraw(address,uint256)":"95ccea67","finalizePool(uint256)":"c5a1f434","getParticipation(uint256,address)":"e9c21a15","getPool(uint256)":"068bcd8d","getPoolParticipants(uint256)":"cf80bfe5","getPoolWinners(uint256)":"4d7c0f5b","getUserPools(address)":"9816af58","hasJoined(uint256,address)":"68194719","isWinner(uint256,address)":"bdd415af","joinPool(uint256)":"34e7a19f","nextPoolId()":"18e56131","owner()":"8da5cb5b","participationReward()":"89afec6d","participations(uint256,address)":"4b64218b","paymentToken()":"3013ce29","platformFeePercentage()":"cdd78cfc","platformToken()":"d1b812cd","poolParticipants(uint256,uint256)":"5315cc64","pools(uint256)":"ac4afa38","renounceOwnership()":"715018a6","transferOwnership(address)":"f2fde38b","updateRewardParameters(uint256,uint256,uint256,uint256)":"339646ac","userPools(address,uint256)":"1064aa55","yieldMultiplier()":"d27e3645"}}}}}