{"project/contracts/CommitToClaimFactory.sol":{"CommitToClaimFactory":{"abi":[{"inputs":[{"internalType":"address","name":"_usdtToken","type":"address"},{"internalType":"address","name":"_tlootToken","type":"address"},{"internalType":"address","name":"_admin","type":"address"}],"stateMutability":"nonpayable","type":"constructor"},{"anonymous":false,"inputs":[{"indexed":true,"internalType":"address","name":"poolAddress","type":"address"},{"indexed":true,"internalType":"address","name":"creator","type":"address"},{"indexed":false,"internalType":"string","name":"eventName","type":"string"},{"indexed":false,"internalType":"uint256","name":"ticketPrice","type":"uint256"},{"indexed":false,"internalType":"uint256","name":"paymentDeadline","type":"uint256"}],"name":"PoolCreated","type":"event"},{"inputs":[],"name":"admin","outputs":[{"internalType":"address","name":"","type":"address"}],"stateMutability":"view","type":"function"},{"inputs":[{"internalType":"uint256","name":"","type":"uint256"}],"name":"allPools","outputs":[{"internalType":"address","name":"","type":"address"}],"stateMutability":"view","type":"function"},{"inputs":[{"internalType":"address","name":"creator","type":"address"},{"internalType":"string","name":"eventName","type":"string"},{"internalType":"uint256","name":"eventDate","type":"uint256"},{"internalType":"uint256","name":"ticketPrice","type":"uint256"},{"internalType":"uint256","name":"paymentDeadline","type":"uint256"}],"name":"createPool","outputs":[{"internalType":"address","name":"","type":"address"}],"stateMutability":"nonpayable","type":"function"},{"inputs":[],"name":"getAllPools","outputs":[{"internalType":"address[]","name":"","type":"address[]"}],"stateMutability":"view","type":"function"},{"inputs":[],"name":"getPoolCount","outputs":[{"internalType":"uint256","name":"","type":"uint256"}],"stateMutability":"view","type":"function"},{"inputs":[{"internalType":"address","name":"user","type":"address"}],"name":"getUserCreatedPools","outputs":[{"internalType":"address[]","name":"","type":"address[]"}],"stateMutability":"view","type":"function"},{"inputs":[{"internalType":"address","name":"","type":"address"}],"name":"isPool","outputs":[{"internalType":"bool","name":"","type":"bool"}],"stateMutability":"view","type":"function"},{"inputs":[{"internalType":"address","name":"newAdmin","type":"address"}],"name":"setAdmin","outputs":[],"stateMutability":"nonpayable","type":"function"},{"inputs":[],"name":"tlootToken","outputs":[{"internalType":"address","name":"","type":"address"}],"stateMutability":"view","type":"function"},{"inputs":[],"name":"usdtToken","outputs":[{"internalType":"address","name":"","type":"address"}],"stateMutability":"view","type":"function"},{"inputs":[{"internalType":"address","name":"","type":"address"},{"internalType":"uint256","name":"","type":"uint256"}],"name":"userCreatedPools","outputs":[{"internalType":"address","name":"","type":"address"}],"stateMutability":"view","type":"function"}],"evm":{"bytecode":{"linkReferences":{},"object":"60c0346100b657601f6122e038819003918201601f19168301916001600160401b038311848410176100ba578084926060946040528339810103126100b657610047816100ce565b906100606040610059602084016100ce565b92016100ce565b60809290925260a0525f80546001600160a01b0319166001600160a01b039092169190911790556040516121fd90816100e382396080518181816101c4015261040a015260a0518181816102d9015261042f0152f35b5f80fd5b634e487b7160e01b5f52604160045260245ffd5b51906001600160a01b03821682036100b65756fe6080806040526004361015610012575f80fd5b5f3560e01c9081632d380cca146106295750806341d1de97146105b15780635a192731146103455780635b16ebb7146103085780636b0ce9ea146102c4578063704b6c02146102105780638eec5d70146101f3578063a98ad46c146101af578063bbef6f901461014d578063d88ff1f4146100c05763f851a44014610095575f80fd5b346100bc575f3660031901126100bc575f546040516001600160a01b039091168152602090f35b5f80fd5b346100bc575f3660031901126100bc5760405180602060015491828152019060015f527fb10e2d527612073b26eecdfd717e6a320cf44b4afac2b0732d9fcbe2b7fa0cf6905f5b81811061012e5761012a8561011e8187038261070c565b604051918291826106b5565b0390f35b82546001600160a01b0316845260209093019260019283019201610107565b346100bc5760403660031901126100bc5761016661069f565b6001600160a01b03165f908152600260205260409020805460243591908210156100bc57602091610196916106f7565b905460405160039290921b1c6001600160a01b03168152f35b346100bc575f3660031901126100bc576040517f00000000000000000000000000000000000000000000000000000000000000006001600160a01b03168152602090f35b346100bc575f3660031901126100bc576020600154604051908152f35b346100bc5760203660031901126100bc5761022961069f565b5f54906001600160a01b0382163303610292576001600160a01b031690811561025b576001600160a01b031916175f55005b60405162461bcd60e51b815260206004820152600f60248201526e496e76616c6964206164647265737360881b6044820152606490fd5b60405162461bcd60e51b815260206004820152600a60248201526927b7363c9030b236b4b760b11b6044820152606490fd5b346100bc575f3660031901126100bc576040517f00000000000000000000000000000000000000000000000000000000000000006001600160a01b03168152602090f35b346100bc5760203660031901126100bc576001600160a01b0361032961069f565b165f526003602052602060ff60405f2054166040519015158152f35b346100bc5760a03660031901126100bc5761035e61069f565b60243567ffffffffffffffff81116100bc57366023820112156100bc57806004013567ffffffffffffffff811161059257604051916103a7601f8301601f19166020018461070c565b81835236602483830101116100bc57815f9260246020930183860137830101525f5460405160643593611a75808301936084359392906001600160a01b031667ffffffffffffffff86118487101761059257839261075384396001600160a01b037f0000000000000000000000000000000000000000000000000000000000000000811687527f0000000000000000000000000000000000000000000000000000000000000000811660208801526040870191909152166060850181905261010060808601819052909490849060e0906104839084018961072e565b9260443560a08201528960c0820152015203905ff080156105a65760018060a01b031692600154600160401b811015610592578060016104c8920160015560016106f7565b81546001600160a01b0360039290921b91821b19169086901b1790555f83815260026020526040902080549091600160401b82101561059257602096869461053a847f30578cd4b484d762140b5b2ae791be98b66a4edc506f87d89c8edae65722962296600161057d970181556106f7565b81549060031b9088821b9160018060a01b03901b1916179055855f526003895260405f20600160ff1982541617905560405193849360608552606085019061072e565b918984015260408301520390a3604051908152f35b634e487b7160e01b5f52604160045260245ffd5b6040513d5f823e3d90fd5b346100bc5760203660031901126100bc576004356001548110156100bc576001548110156106155760015f527fb10e2d527612073b26eecdfd717e6a320cf44b4afac2b0732d9fcbe2b7fa0cf601546040516001600160a01b039091168152602090f35b634e487b7160e01b5f52603260045260245ffd5b346100bc5760203660031901126100bc576001600160a01b0361064a61069f565b165f52600260205260405f20805480835260208301915f5260205f20905f5b8181106106805761012a8561011e8187038261070c565b82546001600160a01b0316845260209093019260019283019201610669565b600435906001600160a01b03821682036100bc57565b60206040818301928281528451809452019201905f5b8181106106d85750505090565b82516001600160a01b03168452602093840193909201916001016106cb565b8054821015610615575f5260205f2001905f90565b90601f8019910116810190811067ffffffffffffffff82111761059257604052565b805180835260209291819084018484015e5f828201840152601f01601f191601019056fe6101206040523461039e57611a758038038061001a816103a2565b9283398101906101008183031261039e57610034816103c7565b90610041602082016103c7565b9161004e604083016103c7565b9261005b606084016103c7565b60808401519092906001600160401b03811161039e57840186601f8201121561039e578051906001600160401b038211610377576100a2601f8301601f19166020016103a2565b978289526020838301011161039e57815f926020809301838b015e8801015260a08401519260e060c086015195015195331561038b575f8054336001600160a01b0319821681178355916001600160a01b03909116907f8be0079c531659141344cd1fd0a4f28419497f9722a3daafe3b4186f6b6457e09080a3600180553360c05260e052610100526001600160a01b039081166080521660a05283516001600160401b03811161037757600254600181811c9116801561036d575b602082101461035957601f81116102f6575b50602094601f8211600114610293579481929394955f92610288575b50508160011b915f199060031b1c1916176002555b6003558060045560148102818104601414821517156102745760649004806005558103908111610274576006556007554260085560405161169990816103dc823960805181818161023401528181610545015281816107330152818161099801528181610a9a0152611137015260a051818181610af201528181610df90152611181015260c05181610953015260e051818181610167015281816101ac015281816106eb0152610f530152610100518181816104940152818161090e015281816109fc01528181610ea701526110a60152f35b634e487b7160e01b5f52601160045260245ffd5b015190505f8061018c565b601f1982169560025f52805f20915f5b8881106102de575083600195969798106102c6575b505050811b016002556101a1565b01515f1960f88460031b161c191690555f80806102b8565b919260206001819286850151815501940192016102a3565b60025f527f405787fa12a823e0f2b7631cc41b3ba8828b3321ca811111fa75cd3aa3bb5ace601f830160051c8101916020841061034f575b601f0160051c01905b8181106103445750610170565b5f8155600101610337565b909150819061032e565b634e487b7160e01b5f52602260045260245ffd5b90607f169061015e565b634e487b7160e01b5f52604160045260245ffd5b631e4fbdf760e01b5f525f60045260245ffd5b5f80fd5b6040519190601f01601f191682016001600160401b0381118382101761037757604052565b51906001600160a01b038216820361039e5756fe6080806040526004361015610012575f80fd5b5f905f3560e01c9081631209b1f6146112f1575080631af30ffa1461108f5780631b55b2a814610f3c5780633a4d093514610f1e5780634bfbe5df14610f0057806360246c8814610e4b57806368fd96c314610e285780636b0ce9ea14610de35780636d929f2314610dc5578063715018a614610d6b5780638043c9c014610d375780638d4e408314610d115780638da5cb5b14610cea57806395ee122114610cc4578063986a31d714610c9e5780639cb812df146109e5578063a50a1fe6146109c7578063a98ad46c14610982578063c45a01551461093d578063c6c1decd146108f8578063c6ccdc091461086b578063cf09e0d01461084d578063db2e21bc146106d8578063e1dd9dc41461047d578063e4d7e2cf14610443578063f2fde38b146103b5578063f648b99e146101995763f851a44014610152575f80fd5b346101965780600319360112610196576040517f00000000000000000000000000000000000000000000000000000000000000006001600160a01b03168152602090f35b80fd5b50346101965780600319360112610196577f00000000000000000000000000000000000000000000000000000000000000006101df336001600160a01b03831614611566565b6009546101f260ff8260181c1615611482565b61020260ff8260101c161561159f565b60ff8116806103a8575b1561036c5762ff0000191662010000176009556040516370a0823160e01b81523060048201527f00000000000000000000000000000000000000000000000000000000000000006001600160a01b0316602082602481845afa918215610361578492610327575b5060405163a9059cbb60e01b81526001600160a01b039093166004840152602483018290526020908390818681604481015b03925af190811561031c576102e56020927f7ed2d5bdf35d4cb790f65d053de7890f1b4a687ac689ca56c23730833531deb09486916102ef575b506115df565b604051908152a180f35b61030f9150843d8611610315575b610307818361132f565b81019061150b565b5f6102df565b503d6102fd565b6040513d85823e3d90fd5b9091506020813d602011610359575b816103436020938361132f565b810103126103555751906102a5610273565b5f80fd5b3d9150610336565b6040513d86823e3d90fd5b60405162461bcd60e51b81526020600482015260146024820152735061796d656e74206e6f7420636f6d706c65746560601b6044820152606490fd5b5060ff8160081c1661020c565b5034610196576020366003190112610196576004356001600160a01b0381169081900361043f576103e461163d565b801561042b5781546001600160a01b03198116821783556001600160a01b03167f8be0079c531659141344cd1fd0a4f28419497f9722a3daafe3b4186f6b6457e08380a380f35b631e4fbdf760e01b82526004829052602482fd5b5080fd5b5034610196578060031936011261019657602060095460ff8116908161046f575b506040519015158152f35b60ff915060081c1682610464565b50346101965780600319360112610196576104c2337f00000000000000000000000000000000000000000000000000000000000000006001600160a01b031614611447565b6104ca61161d565b6009546104dd60ff8260181c1615611482565b60ff81161561069e5760ff8160081c1661065a5760075462093a7f198101908111610646574210156106095760055463ff0000ff1990911663010000001760095560405163a9059cbb60e01b81523360048201526024810182905260208180604481010381867f00000000000000000000000000000000000000000000000000000000000000006001600160a01b03165af190811561031c5783916105ea575b50156105b55760207f3d229dd60fc64b0903758feed58453f62e715f5d01dc0978c0a3a312dd2776c291604051908152a16001805580f35b60405162461bcd60e51b815260206004820152600d60248201526c1499599d5b990819985a5b1959609a1b6044820152606490fd5b610603915060203d60201161031557610307818361132f565b5f61057d565b60405162461bcd60e51b8152602060048201526015602482015274546f6f20636c6f736520746f20646561646c696e6560581b6044820152606490fd5b634e487b7160e01b83526011600452602483fd5b606460405162461bcd60e51b815260206004820152602060248201527f43616e6e6f7420726566756e642061667465722066756c6c207061796d656e746044820152fd5b60405162461bcd60e51b8152602060048201526012602482015271139bc81d5c199c9bdb9d081c185e5b595b9d60721b6044820152606490fd5b50346101965780600319360112610196577f000000000000000000000000000000000000000000000000000000000000000061071e336001600160a01b03831614611566565b6040516370a0823160e01b81523060048201527f00000000000000000000000000000000000000000000000000000000000000006001600160a01b0316602082602481845afa918215610361578492610819575b5081156107e75760405163a9059cbb60e01b81526001600160a01b03939093166004840152602483018290526020908390604490829087905af190811561031c576102e56020927f8e9f10b004ce7e96c30b2445271dd45d41fcfacb742cf4843f1b790afa7a76579486916102ef57506115df565b60405162461bcd60e51b815260206004820152600a6024820152694e6f2062616c616e636560b01b6044820152606490fd5b9091506020813d602011610845575b816108356020938361132f565b810103126103555751905f610772565b3d9150610828565b50346101965780600319360112610196576020600854604051908152f35b5034610196578060031936011261019657806009549060ff821691826108ee575b60081c60ff16806108c3575b60a0935060055460065491604051941515855215156020850152604084015260608301526080820152f35b9060065481018091116108da5760a0935090610898565b634e487b7160e01b84526011600452602484fd5b600554915061088c565b50346101965780600319360112610196576040517f00000000000000000000000000000000000000000000000000000000000000006001600160a01b03168152602090f35b50346101965780600319360112610196576040517f00000000000000000000000000000000000000000000000000000000000000006001600160a01b03168152602090f35b50346101965780600319360112610196576040517f00000000000000000000000000000000000000000000000000000000000000006001600160a01b03168152602090f35b50346101965780600319360112610196576020600654604051908152f35b5034610196578060031936011261019657610a2a337f00000000000000000000000000000000000000000000000000000000000000006001600160a01b031614611447565b610a3261161d565b600954610a4560ff8260181c1615611482565b60ff811615610c605760081c60ff16610c2257610a6560075442106114bf565b6006546040516323b872dd60e01b81523360048201523060248201526044810191909152602081606481856001600160a01b037f0000000000000000000000000000000000000000000000000000000000000000165af18015610be057610ad3918391610c03575b50611523565b6009805461ff00191661010017905560065464e8d4a5100080820292917f00000000000000000000000000000000000000000000000000000000000000006001600160a01b0316918115918504141715610bef578192813b15610beb57829160a4839260405194859384926334ff261960e21b8452336004850152602484015260606044840152601a60648401527f436f6d6d69742d746f2d636c61696d20636f6d706c6574696f6e00000000000060848401525af18015610be057610bcb575b506006546040519081527f03561664bcf5b0920598b902e441e5f811d63ff1947b7d1f739cbc72cc65903e60203392a26001805580f35b81610bd59161132f565b61019657805f610b94565b6040513d84823e3d90fd5b5050fd5b634e487b7160e01b82526011600452602482fd5b610c1c915060203d60201161031557610307818361132f565b5f610acd565b60405162461bcd60e51b8152602060048201526016602482015275416c726561647920706169642072656d61696e696e6760501b6044820152606490fd5b60405162461bcd60e51b8152602060048201526016602482015275135d5cdd081c185e481d5c199c9bdb9d08199a5c9cdd60521b6044820152606490fd5b5034610196578060031936011261019657602060ff60095460081c166040519015158152f35b5034610196578060031936011261019657602060ff60095460181c166040519015158152f35b5034610196578060031936011261019657546040516001600160a01b039091168152602090f35b5034610196578060031936011261019657602060ff60095460101c166040519015158152f35b5034610196578060031936011261019657610d67610d53611365565b60405191829160208352602083019061130b565b0390f35b5034610196578060031936011261019657610d8461163d565b80546001600160a01b03198116825581906001600160a01b03167f8be0079c531659141344cd1fd0a4f28419497f9722a3daafe3b4186f6b6457e08280a380f35b50346101965780600319360112610196576020600754604051908152f35b50346101965780600319360112610196576040517f00000000000000000000000000000000000000000000000000000000000000006001600160a01b03168152602090f35b5034610196578060031936011261019657602060ff600954166040519015158152f35b5034610196578060031936011261019657610e8e6003546004549060ff60075460095490610e77611365565b94604051968796610120885261012088019061130b565b9460208701526040860152606085015260018060a01b037f0000000000000000000000000000000000000000000000000000000000000000166080850152818116151560a0850152818160081c16151560c0850152818160101c16151560e085015260181c1615156101008301520390f35b50346101965780600319360112610196576020600354604051908152f35b50346101965780600319360112610196576020600554604051908152f35b5034610196578060031936011261019657610f81337f00000000000000000000000000000000000000000000000000000000000000006001600160a01b031614611566565b600954610f9460ff8260101c161561159f565b60075442106110535760ff8160081c1661101a5763ff00000019811663010000001760095560ff1615610ff1577f3d229dd60fc64b0903758feed58453f62e715f5d01dc0978c0a3a312dd2776c26020600554604051908152a180f35b7f3d229dd60fc64b0903758feed58453f62e715f5d01dc0978c0a3a312dd2776c26020826102e5565b60405162461bcd60e51b815260206004820152601160248201527014185e5b595b9d0818dbdb5c1b195d1959607a1b6044820152606490fd5b60405162461bcd60e51b8152602060048201526014602482015273111958591b1a5b99481b9bdd081c995858da195960621b6044820152606490fd5b5034610355575f366003190112610355576110d4337f00000000000000000000000000000000000000000000000000000000000000006001600160a01b031614611447565b6110dc61161d565b60ff6009546110f0828260181c1615611482565b166112b55761110260075442106114bf565b6005546040516323b872dd60e01b815233600482015230602482015260448101919091526020816064815f6001600160a01b037f0000000000000000000000000000000000000000000000000000000000000000165af180156112965761116f915f91610c035750611523565b6009805460ff191660011790556005547f00000000000000000000000000000000000000000000000000000000000000006001600160a01b03169064e8d4a5100080820291801590830490911417156112a157813b15610355575f9160a4839260405194859384926334ff261960e21b8452336004850152602484015260606044840152601760648401527f436f6d6d69742d746f2d636c61696d20757066726f6e7400000000000000000060848401525af1801561129657611283575b5060055464e8d4a51000810281810464e8d4a5100014821517156106465760405191825260208201527f82992e65df7d497daef0942d0653c2b1ad9d8341971c65f460b254f1d709521d60403392a26001805580f35b61128f91505f9061132f565b5f5f61122d565b6040513d5f823e3d90fd5b634e487b7160e01b5f52601160045260245ffd5b60405162461bcd60e51b8152602060048201526014602482015273105b1c9958591e481c185a59081d5c199c9bdb9d60621b6044820152606490fd5b34610355575f366003190112610355576020906004548152f35b805180835260209291819084018484015e5f828201840152601f01601f1916010190565b90601f8019910116810190811067ffffffffffffffff82111761135157604052565b634e487b7160e01b5f52604160045260245ffd5b604051905f6002548060011c916001821691821561143d575b60208410831461142957838652859290811561140a57506001146113ab575b6113a99250038361132f565b565b5060025f90815290917f405787fa12a823e0f2b7631cc41b3ba8828b3321ca811111fa75cd3aa3bb5ace5b8183106113ee5750509060206113a99282010161139d565b60209193508060019154838589010152019101909184926113d6565b602092506113a994915060ff191682840152151560051b82010161139d565b634e487b7160e01b5f52602260045260245ffd5b92607f169261137e565b1561144e57565b60405162461bcd60e51b815260206004820152600c60248201526b27b7363c9031b932b0ba37b960a11b6044820152606490fd5b1561148957565b60405162461bcd60e51b815260206004820152600e60248201526d141bdbdb0818d85b98d95b1b195960921b6044820152606490fd5b156114c657565b60405162461bcd60e51b815260206004820152601760248201527f5061796d656e7420646561646c696e65207061737365640000000000000000006044820152606490fd5b90816020910312610355575180151581036103555790565b1561152a57565b60405162461bcd60e51b81526020600482015260146024820152731554d115081d1c985b9cd9995c8819985a5b195960621b6044820152606490fd5b1561156d57565b60405162461bcd60e51b815260206004820152600a60248201526927b7363c9030b236b4b760b11b6044820152606490fd5b156115a657565b60405162461bcd60e51b8152602060048201526011602482015270105b1c9958591e48199a5b985b1a5e9959607a1b6044820152606490fd5b156115e657565b60405162461bcd60e51b815260206004820152600f60248201526e151c985b9cd9995c8819985a5b1959608a1b6044820152606490fd5b60026001541461162e576002600155565b633ee5aeb560e01b5f5260045ffd5b5f546001600160a01b0316330361165057565b63118cdaa760e01b5f523360045260245ffdfea26469706673582212201001b4bdf12551d90fe3074a2af9425492cd68dd652129560f62783b57fe55ba64736f6c634300081c0033a2646970667358221220c39ee3a8887be7dafe71dd5f06b36994dd6dce35bdefb09ad79091dd2385606164736f6c634300081c0033","opcodes":"PUSH1 0xC0 CALLVALUE PUSH2 0xB6 JUMPI PUSH1 0x1F PUSH2 0x22E0 CODESIZE DUP2 SWAP1 SUB SWAP2 DUP3 ADD PUSH1 0x1F NOT AND DUP4 ADD SWAP2 PUSH1 0x1 PUSH1 0x1 PUSH1 0x40 SHL SUB DUP4 GT DUP5 DUP5 LT OR PUSH2 0xBA JUMPI DUP1 DUP5 SWAP3 PUSH1 0x60 SWAP5 PUSH1 0x40 MSTORE DUP4 CODECOPY DUP2 ADD SUB SLT PUSH2 0xB6 JUMPI PUSH2 0x47 DUP2 PUSH2 0xCE JUMP JUMPDEST SWAP1 PUSH2 0x60 PUSH1 0x40 PUSH2 0x59 PUSH1 0x20 DUP5 ADD PUSH2 0xCE JUMP JUMPDEST SWAP3 ADD PUSH2 0xCE JUMP JUMPDEST PUSH1 0x80 SWAP3 SWAP1 SWAP3 MSTORE PUSH1 0xA0 MSTORE PUSH0 DUP1 SLOAD PUSH1 0x1 PUSH1 0x1 PUSH1 0xA0 SHL SUB NOT AND PUSH1 0x1 PUSH1 0x1 PUSH1 0xA0 SHL SUB SWAP1 SWAP3 AND SWAP2 SWAP1 SWAP2 OR SWAP1 SSTORE PUSH1 0x40 MLOAD PUSH2 0x21FD SWAP1 DUP2 PUSH2 0xE3 DUP3 CODECOPY PUSH1 0x80 MLOAD DUP2 DUP2 DUP2 PUSH2 0x1C4 ADD MSTORE PUSH2 0x40A ADD MSTORE PUSH1 0xA0 MLOAD DUP2 DUP2 DUP2 PUSH2 0x2D9 ADD MSTORE PUSH2 0x42F ADD MSTORE RETURN JUMPDEST PUSH0 DUP1 REVERT JUMPDEST PUSH4 0x4E487B71 PUSH1 0xE0 SHL PUSH0 MSTORE PUSH1 0x41 PUSH1 0x4 MSTORE PUSH1 0x24 PUSH0 REVERT JUMPDEST MLOAD SWAP1 PUSH1 0x1 PUSH1 0x1 PUSH1 0xA0 SHL SUB DUP3 AND DUP3 SUB PUSH2 0xB6 JUMPI JUMP INVALID PUSH1 0x80 DUP1 PUSH1 0x40 MSTORE PUSH1 0x4 CALLDATASIZE LT ISZERO PUSH2 0x12 JUMPI PUSH0 DUP1 REVERT JUMPDEST PUSH0 CALLDATALOAD PUSH1 0xE0 SHR SWAP1 DUP2 PUSH4 0x2D380CCA EQ PUSH2 0x629 JUMPI POP DUP1 PUSH4 0x41D1DE97 EQ PUSH2 0x5B1 JUMPI DUP1 PUSH4 0x5A192731 EQ PUSH2 0x345 JUMPI DUP1 PUSH4 0x5B16EBB7 EQ PUSH2 0x308 JUMPI DUP1 PUSH4 0x6B0CE9EA EQ PUSH2 0x2C4 JUMPI DUP1 PUSH4 0x704B6C02 EQ PUSH2 0x210 JUMPI DUP1 PUSH4 0x8EEC5D70 EQ PUSH2 0x1F3 JUMPI DUP1 PUSH4 0xA98AD46C EQ PUSH2 0x1AF JUMPI DUP1 PUSH4 0xBBEF6F90 EQ PUSH2 0x14D JUMPI DUP1 PUSH4 0xD88FF1F4 EQ PUSH2 0xC0 JUMPI PUSH4 0xF851A440 EQ PUSH2 0x95 JUMPI PUSH0 DUP1 REVERT JUMPDEST CALLVALUE PUSH2 0xBC JUMPI PUSH0 CALLDATASIZE PUSH1 0x3 NOT ADD SLT PUSH2 0xBC JUMPI PUSH0 SLOAD PUSH1 0x40 MLOAD PUSH1 0x1 PUSH1 0x1 PUSH1 0xA0 SHL SUB SWAP1 SWAP2 AND DUP2 MSTORE PUSH1 0x20 SWAP1 RETURN JUMPDEST PUSH0 DUP1 REVERT JUMPDEST CALLVALUE PUSH2 0xBC JUMPI PUSH0 CALLDATASIZE PUSH1 0x3 NOT ADD SLT PUSH2 0xBC JUMPI PUSH1 0x40 MLOAD DUP1 PUSH1 0x20 PUSH1 0x1 SLOAD SWAP2 DUP3 DUP2 MSTORE ADD SWAP1 PUSH1 0x1 PUSH0 MSTORE PUSH32 0xB10E2D527612073B26EECDFD717E6A320CF44B4AFAC2B0732D9FCBE2B7FA0CF6 SWAP1 PUSH0 JUMPDEST DUP2 DUP2 LT PUSH2 0x12E JUMPI PUSH2 0x12A DUP6 PUSH2 0x11E DUP2 DUP8 SUB DUP3 PUSH2 0x70C JUMP JUMPDEST PUSH1 0x40 MLOAD SWAP2 DUP3 SWAP2 DUP3 PUSH2 0x6B5 JUMP JUMPDEST SUB SWAP1 RETURN JUMPDEST DUP3 SLOAD PUSH1 0x1 PUSH1 0x1 PUSH1 0xA0 SHL SUB AND DUP5 MSTORE PUSH1 0x20 SWAP1 SWAP4 ADD SWAP3 PUSH1 0x1 SWAP3 DUP4 ADD SWAP3 ADD PUSH2 0x107 JUMP JUMPDEST CALLVALUE PUSH2 0xBC JUMPI PUSH1 0x40 CALLDATASIZE PUSH1 0x3 NOT ADD SLT PUSH2 0xBC JUMPI PUSH2 0x166 PUSH2 0x69F JUMP JUMPDEST PUSH1 0x1 PUSH1 0x1 PUSH1 0xA0 SHL SUB AND PUSH0 SWAP1 DUP2 MSTORE PUSH1 0x2 PUSH1 0x20 MSTORE PUSH1 0x40 SWAP1 KECCAK256 DUP1 SLOAD PUSH1 0x24 CALLDATALOAD SWAP2 SWAP1 DUP3 LT ISZERO PUSH2 0xBC JUMPI PUSH1 0x20 SWAP2 PUSH2 0x196 SWAP2 PUSH2 0x6F7 JUMP JUMPDEST SWAP1 SLOAD PUSH1 0x40 MLOAD PUSH1 0x3 SWAP3 SWAP1 SWAP3 SHL SHR PUSH1 0x1 PUSH1 0x1 PUSH1 0xA0 SHL SUB AND DUP2 MSTORE RETURN JUMPDEST CALLVALUE PUSH2 0xBC JUMPI PUSH0 CALLDATASIZE PUSH1 0x3 NOT ADD SLT PUSH2 0xBC JUMPI PUSH1 0x40 MLOAD PUSH32 0x0 PUSH1 0x1 PUSH1 0x1 PUSH1 0xA0 SHL SUB AND DUP2 MSTORE PUSH1 0x20 SWAP1 RETURN JUMPDEST CALLVALUE PUSH2 0xBC JUMPI PUSH0 CALLDATASIZE PUSH1 0x3 NOT ADD SLT PUSH2 0xBC JUMPI PUSH1 0x20 PUSH1 0x1 SLOAD PUSH1 0x40 MLOAD SWAP1 DUP2 MSTORE RETURN JUMPDEST CALLVALUE PUSH2 0xBC JUMPI PUSH1 0x20 CALLDATASIZE PUSH1 0x3 NOT ADD SLT PUSH2 0xBC JUMPI PUSH2 0x229 PUSH2 0x69F JUMP JUMPDEST PUSH0 SLOAD SWAP1 PUSH1 0x1 PUSH1 0x1 PUSH1 0xA0 SHL SUB DUP3 AND CALLER SUB PUSH2 0x292 JUMPI PUSH1 0x1 PUSH1 0x1 PUSH1 0xA0 SHL SUB AND SWAP1 DUP2 ISZERO PUSH2 0x25B JUMPI PUSH1 0x1 PUSH1 0x1 PUSH1 0xA0 SHL SUB NOT AND OR PUSH0 SSTORE STOP JUMPDEST PUSH1 0x40 MLOAD PUSH3 0x461BCD PUSH1 0xE5 SHL DUP2 MSTORE PUSH1 0x20 PUSH1 0x4 DUP3 ADD MSTORE PUSH1 0xF PUSH1 0x24 DUP3 ADD MSTORE PUSH15 0x496E76616C69642061646472657373 PUSH1 0x88 SHL PUSH1 0x44 DUP3 ADD MSTORE PUSH1 0x64 SWAP1 REVERT JUMPDEST PUSH1 0x40 MLOAD PUSH3 0x461BCD PUSH1 0xE5 SHL DUP2 MSTORE PUSH1 0x20 PUSH1 0x4 DUP3 ADD MSTORE PUSH1 0xA PUSH1 0x24 DUP3 ADD MSTORE PUSH10 0x27B7363C9030B236B4B7 PUSH1 0xB1 SHL PUSH1 0x44 DUP3 ADD MSTORE PUSH1 0x64 SWAP1 REVERT JUMPDEST CALLVALUE PUSH2 0xBC JUMPI PUSH0 CALLDATASIZE PUSH1 0x3 NOT ADD SLT PUSH2 0xBC JUMPI PUSH1 0x40 MLOAD PUSH32 0x0 PUSH1 0x1 PUSH1 0x1 PUSH1 0xA0 SHL SUB AND DUP2 MSTORE PUSH1 0x20 SWAP1 RETURN JUMPDEST CALLVALUE PUSH2 0xBC JUMPI PUSH1 0x20 CALLDATASIZE PUSH1 0x3 NOT ADD SLT PUSH2 0xBC JUMPI PUSH1 0x1 PUSH1 0x1 PUSH1 0xA0 SHL SUB PUSH2 0x329 PUSH2 0x69F JUMP JUMPDEST AND PUSH0 MSTORE PUSH1 0x3 PUSH1 0x20 MSTORE PUSH1 0x20 PUSH1 0xFF PUSH1 0x40 PUSH0 KECCAK256 SLOAD AND PUSH1 0x40 MLOAD SWAP1 ISZERO ISZERO DUP2 MSTORE RETURN JUMPDEST CALLVALUE PUSH2 0xBC JUMPI PUSH1 0xA0 CALLDATASIZE PUSH1 0x3 NOT ADD SLT PUSH2 0xBC JUMPI PUSH2 0x35E PUSH2 0x69F JUMP JUMPDEST PUSH1 0x24 CALLDATALOAD PUSH8 0xFFFFFFFFFFFFFFFF DUP2 GT PUSH2 0xBC JUMPI CALLDATASIZE PUSH1 0x23 DUP3 ADD SLT ISZERO PUSH2 0xBC JUMPI DUP1 PUSH1 0x4 ADD CALLDATALOAD PUSH8 0xFFFFFFFFFFFFFFFF DUP2 GT PUSH2 0x592 JUMPI PUSH1 0x40 MLOAD SWAP2 PUSH2 0x3A7 PUSH1 0x1F DUP4 ADD PUSH1 0x1F NOT AND PUSH1 0x20 ADD DUP5 PUSH2 0x70C JUMP JUMPDEST DUP2 DUP4 MSTORE CALLDATASIZE PUSH1 0x24 DUP4 DUP4 ADD ADD GT PUSH2 0xBC JUMPI DUP2 PUSH0 SWAP3 PUSH1 0x24 PUSH1 0x20 SWAP4 ADD DUP4 DUP7 ADD CALLDATACOPY DUP4 ADD ADD MSTORE PUSH0 SLOAD PUSH1 0x40 MLOAD PUSH1 0x64 CALLDATALOAD SWAP4 PUSH2 0x1A75 DUP1 DUP4 ADD SWAP4 PUSH1 0x84 CALLDATALOAD SWAP4 SWAP3 SWAP1 PUSH1 0x1 PUSH1 0x1 PUSH1 0xA0 SHL SUB AND PUSH8 0xFFFFFFFFFFFFFFFF DUP7 GT DUP5 DUP8 LT OR PUSH2 0x592 JUMPI DUP4 SWAP3 PUSH2 0x753 DUP5 CODECOPY PUSH1 0x1 PUSH1 0x1 PUSH1 0xA0 SHL SUB PUSH32 0x0 DUP2 AND DUP8 MSTORE PUSH32 0x0 DUP2 AND PUSH1 0x20 DUP9 ADD MSTORE PUSH1 0x40 DUP8 ADD SWAP2 SWAP1 SWAP2 MSTORE AND PUSH1 0x60 DUP6 ADD DUP2 SWAP1 MSTORE PUSH2 0x100 PUSH1 0x80 DUP7 ADD DUP2 SWAP1 MSTORE SWAP1 SWAP5 SWAP1 DUP5 SWAP1 PUSH1 0xE0 SWAP1 PUSH2 0x483 SWAP1 DUP5 ADD DUP10 PUSH2 0x72E JUMP JUMPDEST SWAP3 PUSH1 0x44 CALLDATALOAD PUSH1 0xA0 DUP3 ADD MSTORE DUP10 PUSH1 0xC0 DUP3 ADD MSTORE ADD MSTORE SUB SWAP1 PUSH0 CREATE DUP1 ISZERO PUSH2 0x5A6 JUMPI PUSH1 0x1 DUP1 PUSH1 0xA0 SHL SUB AND SWAP3 PUSH1 0x1 SLOAD PUSH1 0x1 PUSH1 0x40 SHL DUP2 LT ISZERO PUSH2 0x592 JUMPI DUP1 PUSH1 0x1 PUSH2 0x4C8 SWAP3 ADD PUSH1 0x1 SSTORE PUSH1 0x1 PUSH2 0x6F7 JUMP JUMPDEST DUP2 SLOAD PUSH1 0x1 PUSH1 0x1 PUSH1 0xA0 SHL SUB PUSH1 0x3 SWAP3 SWAP1 SWAP3 SHL SWAP2 DUP3 SHL NOT AND SWAP1 DUP7 SWAP1 SHL OR SWAP1 SSTORE PUSH0 DUP4 DUP2 MSTORE PUSH1 0x2 PUSH1 0x20 MSTORE PUSH1 0x40 SWAP1 KECCAK256 DUP1 SLOAD SWAP1 SWAP2 PUSH1 0x1 PUSH1 0x40 SHL DUP3 LT ISZERO PUSH2 0x592 JUMPI PUSH1 0x20 SWAP7 DUP7 SWAP5 PUSH2 0x53A DUP5 PUSH32 0x30578CD4B484D762140B5B2AE791BE98B66A4EDC506F87D89C8EDAE657229622 SWAP7 PUSH1 0x1 PUSH2 0x57D SWAP8 ADD DUP2 SSTORE PUSH2 0x6F7 JUMP JUMPDEST DUP2 SLOAD SWAP1 PUSH1 0x3 SHL SWAP1 DUP9 DUP3 SHL SWAP2 PUSH1 0x1 DUP1 PUSH1 0xA0 SHL SUB SWAP1 SHL NOT AND OR SWAP1 SSTORE DUP6 PUSH0 MSTORE PUSH1 0x3 DUP10 MSTORE PUSH1 0x40 PUSH0 KECCAK256 PUSH1 0x1 PUSH1 0xFF NOT DUP3 SLOAD AND OR SWAP1 SSTORE PUSH1 0x40 MLOAD SWAP4 DUP5 SWAP4 PUSH1 0x60 DUP6 MSTORE PUSH1 0x60 DUP6 ADD SWAP1 PUSH2 0x72E JUMP JUMPDEST SWAP2 DUP10 DUP5 ADD MSTORE PUSH1 0x40 DUP4 ADD MSTORE SUB SWAP1 LOG3 PUSH1 0x40 MLOAD SWAP1 DUP2 MSTORE RETURN JUMPDEST PUSH4 0x4E487B71 PUSH1 0xE0 SHL PUSH0 MSTORE PUSH1 0x41 PUSH1 0x4 MSTORE PUSH1 0x24 PUSH0 REVERT JUMPDEST PUSH1 0x40 MLOAD RETURNDATASIZE PUSH0 DUP3 RETURNDATACOPY RETURNDATASIZE SWAP1 REVERT JUMPDEST CALLVALUE PUSH2 0xBC JUMPI PUSH1 0x20 CALLDATASIZE PUSH1 0x3 NOT ADD SLT PUSH2 0xBC JUMPI PUSH1 0x4 CALLDATALOAD PUSH1 0x1 SLOAD DUP2 LT ISZERO PUSH2 0xBC JUMPI PUSH1 0x1 SLOAD DUP2 LT ISZERO PUSH2 0x615 JUMPI PUSH1 0x1 PUSH0 MSTORE PUSH32 0xB10E2D527612073B26EECDFD717E6A320CF44B4AFAC2B0732D9FCBE2B7FA0CF6 ADD SLOAD PUSH1 0x40 MLOAD PUSH1 0x1 PUSH1 0x1 PUSH1 0xA0 SHL SUB SWAP1 SWAP2 AND DUP2 MSTORE PUSH1 0x20 SWAP1 RETURN JUMPDEST PUSH4 0x4E487B71 PUSH1 0xE0 SHL PUSH0 MSTORE PUSH1 0x32 PUSH1 0x4 MSTORE PUSH1 0x24 PUSH0 REVERT JUMPDEST CALLVALUE PUSH2 0xBC JUMPI PUSH1 0x20 CALLDATASIZE PUSH1 0x3 NOT ADD SLT PUSH2 0xBC JUMPI PUSH1 0x1 PUSH1 0x1 PUSH1 0xA0 SHL SUB PUSH2 0x64A PUSH2 0x69F JUMP JUMPDEST AND PUSH0 MSTORE PUSH1 0x2 PUSH1 0x20 MSTORE PUSH1 0x40 PUSH0 KECCAK256 DUP1 SLOAD DUP1 DUP4 MSTORE PUSH1 0x20 DUP4 ADD SWAP2 PUSH0 MSTORE PUSH1 0x20 PUSH0 KECCAK256 SWAP1 PUSH0 JUMPDEST DUP2 DUP2 LT PUSH2 0x680 JUMPI PUSH2 0x12A DUP6 PUSH2 0x11E DUP2 DUP8 SUB DUP3 PUSH2 0x70C JUMP JUMPDEST DUP3 SLOAD PUSH1 0x1 PUSH1 0x1 PUSH1 0xA0 SHL SUB AND DUP5 MSTORE PUSH1 0x20 SWAP1 SWAP4 ADD SWAP3 PUSH1 0x1 SWAP3 DUP4 ADD SWAP3 ADD PUSH2 0x669 JUMP JUMPDEST PUSH1 0x4 CALLDATALOAD SWAP1 PUSH1 0x1 PUSH1 0x1 PUSH1 0xA0 SHL SUB DUP3 AND DUP3 SUB PUSH2 0xBC JUMPI JUMP JUMPDEST PUSH1 0x20 PUSH1 0x40 DUP2 DUP4 ADD SWAP3 DUP3 DUP2 MSTORE DUP5 MLOAD DUP1 SWAP5 MSTORE ADD SWAP3 ADD SWAP1 PUSH0 JUMPDEST DUP2 DUP2 LT PUSH2 0x6D8 JUMPI POP POP POP SWAP1 JUMP JUMPDEST DUP3 MLOAD PUSH1 0x1 PUSH1 0x1 PUSH1 0xA0 SHL SUB AND DUP5 MSTORE PUSH1 0x20 SWAP4 DUP5 ADD SWAP4 SWAP1 SWAP3 ADD SWAP2 PUSH1 0x1 ADD PUSH2 0x6CB JUMP JUMPDEST DUP1 SLOAD DUP3 LT ISZERO PUSH2 0x615 JUMPI PUSH0 MSTORE PUSH1 0x20 PUSH0 KECCAK256 ADD SWAP1 PUSH0 SWAP1 JUMP JUMPDEST SWAP1 PUSH1 0x1F DUP1 NOT SWAP2 ADD AND DUP2 ADD SWAP1 DUP2 LT PUSH8 0xFFFFFFFFFFFFFFFF DUP3 GT OR PUSH2 0x592 JUMPI PUSH1 0x40 MSTORE JUMP JUMPDEST DUP1 MLOAD DUP1 DUP4 MSTORE PUSH1 0x20 SWAP3 SWAP2 DUP2 SWAP1 DUP5 ADD DUP5 DUP5 ADD MCOPY PUSH0 DUP3 DUP3 ADD DUP5 ADD MSTORE PUSH1 0x1F ADD PUSH1 0x1F NOT AND ADD ADD SWAP1 JUMP INVALID PUSH2 0x120 PUSH1 0x40 MSTORE CALLVALUE PUSH2 0x39E JUMPI PUSH2 0x1A75 DUP1 CODESIZE SUB DUP1 PUSH2 0x1A DUP2 PUSH2 0x3A2 JUMP JUMPDEST SWAP3 DUP4 CODECOPY DUP2 ADD SWAP1 PUSH2 0x100 DUP2 DUP4 SUB SLT PUSH2 0x39E JUMPI PUSH2 0x34 DUP2 PUSH2 0x3C7 JUMP JUMPDEST SWAP1 PUSH2 0x41 PUSH1 0x20 DUP3 ADD PUSH2 0x3C7 JUMP JUMPDEST SWAP2 PUSH2 0x4E PUSH1 0x40 DUP4 ADD PUSH2 0x3C7 JUMP JUMPDEST SWAP3 PUSH2 0x5B PUSH1 0x60 DUP5 ADD PUSH2 0x3C7 JUMP JUMPDEST PUSH1 0x80 DUP5 ADD MLOAD SWAP1 SWAP3 SWAP1 PUSH1 0x1 PUSH1 0x1 PUSH1 0x40 SHL SUB DUP2 GT PUSH2 0x39E JUMPI DUP5 ADD DUP7 PUSH1 0x1F DUP3 ADD SLT ISZERO PUSH2 0x39E JUMPI DUP1 MLOAD SWAP1 PUSH1 0x1 PUSH1 0x1 PUSH1 0x40 SHL SUB DUP3 GT PUSH2 0x377 JUMPI PUSH2 0xA2 PUSH1 0x1F DUP4 ADD PUSH1 0x1F NOT AND PUSH1 0x20 ADD PUSH2 0x3A2 JUMP JUMPDEST SWAP8 DUP3 DUP10 MSTORE PUSH1 0x20 DUP4 DUP4 ADD ADD GT PUSH2 0x39E JUMPI DUP2 PUSH0 SWAP3 PUSH1 0x20 DUP1 SWAP4 ADD DUP4 DUP12 ADD MCOPY DUP9 ADD ADD MSTORE PUSH1 0xA0 DUP5 ADD MLOAD SWAP3 PUSH1 0xE0 PUSH1 0xC0 DUP7 ADD MLOAD SWAP6 ADD MLOAD SWAP6 CALLER ISZERO PUSH2 0x38B JUMPI PUSH0 DUP1 SLOAD CALLER PUSH1 0x1 PUSH1 0x1 PUSH1 0xA0 SHL SUB NOT DUP3 AND DUP2 OR DUP4 SSTORE SWAP2 PUSH1 0x1 PUSH1 0x1 PUSH1 0xA0 SHL SUB SWAP1 SWAP2 AND SWAP1 PUSH32 0x8BE0079C531659141344CD1FD0A4F28419497F9722A3DAAFE3B4186F6B6457E0 SWAP1 DUP1 LOG3 PUSH1 0x1 DUP1 SSTORE CALLER PUSH1 0xC0 MSTORE PUSH1 0xE0 MSTORE PUSH2 0x100 MSTORE PUSH1 0x1 PUSH1 0x1 PUSH1 0xA0 SHL SUB SWAP1 DUP2 AND PUSH1 0x80 MSTORE AND PUSH1 0xA0 MSTORE DUP4 MLOAD PUSH1 0x1 PUSH1 0x1 PUSH1 0x40 SHL SUB DUP2 GT PUSH2 0x377 JUMPI PUSH1 0x2 SLOAD PUSH1 0x1 DUP2 DUP2 SHR SWAP2 AND DUP1 ISZERO PUSH2 0x36D JUMPI JUMPDEST PUSH1 0x20 DUP3 LT EQ PUSH2 0x359 JUMPI PUSH1 0x1F DUP2 GT PUSH2 0x2F6 JUMPI JUMPDEST POP PUSH1 0x20 SWAP5 PUSH1 0x1F DUP3 GT PUSH1 0x1 EQ PUSH2 0x293 JUMPI SWAP5 DUP2 SWAP3 SWAP4 SWAP5 SWAP6 PUSH0 SWAP3 PUSH2 0x288 JUMPI JUMPDEST POP POP DUP2 PUSH1 0x1 SHL SWAP2 PUSH0 NOT SWAP1 PUSH1 0x3 SHL SHR NOT AND OR PUSH1 0x2 SSTORE JUMPDEST PUSH1 0x3 SSTORE DUP1 PUSH1 0x4 SSTORE PUSH1 0x14 DUP2 MUL DUP2 DUP2 DIV PUSH1 0x14 EQ DUP3 ISZERO OR ISZERO PUSH2 0x274 JUMPI PUSH1 0x64 SWAP1 DIV DUP1 PUSH1 0x5 SSTORE DUP2 SUB SWAP1 DUP2 GT PUSH2 0x274 JUMPI PUSH1 0x6 SSTORE PUSH1 0x7 SSTORE TIMESTAMP PUSH1 0x8 SSTORE PUSH1 0x40 MLOAD PUSH2 0x1699 SWAP1 DUP2 PUSH2 0x3DC DUP3 CODECOPY PUSH1 0x80 MLOAD DUP2 DUP2 DUP2 PUSH2 0x234 ADD MSTORE DUP2 DUP2 PUSH2 0x545 ADD MSTORE DUP2 DUP2 PUSH2 0x733 ADD MSTORE DUP2 DUP2 PUSH2 0x998 ADD MSTORE DUP2 DUP2 PUSH2 0xA9A ADD MSTORE PUSH2 0x1137 ADD MSTORE PUSH1 0xA0 MLOAD DUP2 DUP2 DUP2 PUSH2 0xAF2 ADD MSTORE DUP2 DUP2 PUSH2 0xDF9 ADD MSTORE PUSH2 0x1181 ADD MSTORE PUSH1 0xC0 MLOAD DUP2 PUSH2 0x953 ADD MSTORE PUSH1 0xE0 MLOAD DUP2 DUP2 DUP2 PUSH2 0x167 ADD MSTORE DUP2 DUP2 PUSH2 0x1AC ADD MSTORE DUP2 DUP2 PUSH2 0x6EB ADD MSTORE PUSH2 0xF53 ADD MSTORE PUSH2 0x100 MLOAD DUP2 DUP2 DUP2 PUSH2 0x494 ADD MSTORE DUP2 DUP2 PUSH2 0x90E ADD MSTORE DUP2 DUP2 PUSH2 0x9FC ADD MSTORE DUP2 DUP2 PUSH2 0xEA7 ADD MSTORE PUSH2 0x10A6 ADD MSTORE RETURN JUMPDEST PUSH4 0x4E487B71 PUSH1 0xE0 SHL PUSH0 MSTORE PUSH1 0x11 PUSH1 0x4 MSTORE PUSH1 0x24 PUSH0 REVERT JUMPDEST ADD MLOAD SWAP1 POP PUSH0 DUP1 PUSH2 0x18C JUMP JUMPDEST PUSH1 0x1F NOT DUP3 AND SWAP6 PUSH1 0x2 PUSH0 MSTORE DUP1 PUSH0 KECCAK256 SWAP2 PUSH0 JUMPDEST DUP9 DUP2 LT PUSH2 0x2DE JUMPI POP DUP4 PUSH1 0x1 SWAP6 SWAP7 SWAP8 SWAP9 LT PUSH2 0x2C6 JUMPI JUMPDEST POP POP POP DUP2 SHL ADD PUSH1 0x2 SSTORE PUSH2 0x1A1 JUMP JUMPDEST ADD MLOAD PUSH0 NOT PUSH1 0xF8 DUP5 PUSH1 0x3 SHL AND SHR NOT AND SWAP1 SSTORE PUSH0 DUP1 DUP1 PUSH2 0x2B8 JUMP JUMPDEST SWAP2 SWAP3 PUSH1 0x20 PUSH1 0x1 DUP2 SWAP3 DUP7 DUP6 ADD MLOAD DUP2 SSTORE ADD SWAP5 ADD SWAP3 ADD PUSH2 0x2A3 JUMP JUMPDEST PUSH1 0x2 PUSH0 MSTORE PUSH32 0x405787FA12A823E0F2B7631CC41B3BA8828B3321CA811111FA75CD3AA3BB5ACE PUSH1 0x1F DUP4 ADD PUSH1 0x5 SHR DUP2 ADD SWAP2 PUSH1 0x20 DUP5 LT PUSH2 0x34F JUMPI JUMPDEST PUSH1 0x1F ADD PUSH1 0x5 SHR ADD SWAP1 JUMPDEST DUP2 DUP2 LT PUSH2 0x344 JUMPI POP PUSH2 0x170 JUMP JUMPDEST PUSH0 DUP2 SSTORE PUSH1 0x1 ADD PUSH2 0x337 JUMP JUMPDEST SWAP1 SWAP2 POP DUP2 SWAP1 PUSH2 0x32E JUMP JUMPDEST PUSH4 0x4E487B71 PUSH1 0xE0 SHL PUSH0 MSTORE PUSH1 0x22 PUSH1 0x4 MSTORE PUSH1 0x24 PUSH0 REVERT JUMPDEST SWAP1 PUSH1 0x7F AND SWAP1 PUSH2 0x15E JUMP JUMPDEST PUSH4 0x4E487B71 PUSH1 0xE0 SHL PUSH0 MSTORE PUSH1 0x41 PUSH1 0x4 MSTORE PUSH1 0x24 PUSH0 REVERT JUMPDEST PUSH4 0x1E4FBDF7 PUSH1 0xE0 SHL PUSH0 MSTORE PUSH0 PUSH1 0x4 MSTORE PUSH1 0x24 PUSH0 REVERT JUMPDEST PUSH0 DUP1 REVERT JUMPDEST PUSH1 0x40 MLOAD SWAP2 SWAP1 PUSH1 0x1F ADD PUSH1 0x1F NOT AND DUP3 ADD PUSH1 0x1 PUSH1 0x1 PUSH1 0x40 SHL SUB DUP2 GT DUP4 DUP3 LT OR PUSH2 0x377 JUMPI PUSH1 0x40 MSTORE JUMP JUMPDEST MLOAD SWAP1 PUSH1 0x1 PUSH1 0x1 PUSH1 0xA0 SHL SUB DUP3 AND DUP3 SUB PUSH2 0x39E JUMPI JUMP INVALID PUSH1 0x80 DUP1 PUSH1 0x40 MSTORE PUSH1 0x4 CALLDATASIZE LT ISZERO PUSH2 0x12 JUMPI PUSH0 DUP1 REVERT JUMPDEST PUSH0 SWAP1 PUSH0 CALLDATALOAD PUSH1 0xE0 SHR SWAP1 DUP2 PUSH4 0x1209B1F6 EQ PUSH2 0x12F1 JUMPI POP DUP1 PUSH4 0x1AF30FFA EQ PUSH2 0x108F JUMPI DUP1 PUSH4 0x1B55B2A8 EQ PUSH2 0xF3C JUMPI DUP1 PUSH4 0x3A4D0935 EQ PUSH2 0xF1E JUMPI DUP1 PUSH4 0x4BFBE5DF EQ PUSH2 0xF00 JUMPI DUP1 PUSH4 0x60246C88 EQ PUSH2 0xE4B JUMPI DUP1 PUSH4 0x68FD96C3 EQ PUSH2 0xE28 JUMPI DUP1 PUSH4 0x6B0CE9EA EQ PUSH2 0xDE3 JUMPI DUP1 PUSH4 0x6D929F23 EQ PUSH2 0xDC5 JUMPI DUP1 PUSH4 0x715018A6 EQ PUSH2 0xD6B JUMPI DUP1 PUSH4 0x8043C9C0 EQ PUSH2 0xD37 JUMPI DUP1 PUSH4 0x8D4E4083 EQ PUSH2 0xD11 JUMPI DUP1 PUSH4 0x8DA5CB5B EQ PUSH2 0xCEA JUMPI DUP1 PUSH4 0x95EE1221 EQ PUSH2 0xCC4 JUMPI DUP1 PUSH4 0x986A31D7 EQ PUSH2 0xC9E JUMPI DUP1 PUSH4 0x9CB812DF EQ PUSH2 0x9E5 JUMPI DUP1 PUSH4 0xA50A1FE6 EQ PUSH2 0x9C7 JUMPI DUP1 PUSH4 0xA98AD46C EQ PUSH2 0x982 JUMPI DUP1 PUSH4 0xC45A0155 EQ PUSH2 0x93D JUMPI DUP1 PUSH4 0xC6C1DECD EQ PUSH2 0x8F8 JUMPI DUP1 PUSH4 0xC6CCDC09 EQ PUSH2 0x86B JUMPI DUP1 PUSH4 0xCF09E0D0 EQ PUSH2 0x84D JUMPI DUP1 PUSH4 0xDB2E21BC EQ PUSH2 0x6D8 JUMPI DUP1 PUSH4 0xE1DD9DC4 EQ PUSH2 0x47D JUMPI DUP1 PUSH4 0xE4D7E2CF EQ PUSH2 0x443 JUMPI DUP1 PUSH4 0xF2FDE38B EQ PUSH2 0x3B5 JUMPI DUP1 PUSH4 0xF648B99E EQ PUSH2 0x199 JUMPI PUSH4 0xF851A440 EQ PUSH2 0x152 JUMPI PUSH0 DUP1 REVERT JUMPDEST CALLVALUE PUSH2 0x196 JUMPI DUP1 PUSH1 0x3 NOT CALLDATASIZE ADD SLT PUSH2 0x196 JUMPI PUSH1 0x40 MLOAD PUSH32 0x0 PUSH1 0x1 PUSH1 0x1 PUSH1 0xA0 SHL SUB AND DUP2 MSTORE PUSH1 0x20 SWAP1 RETURN JUMPDEST DUP1 REVERT JUMPDEST POP CALLVALUE PUSH2 0x196 JUMPI DUP1 PUSH1 0x3 NOT CALLDATASIZE ADD SLT PUSH2 0x196 JUMPI PUSH32 0x0 PUSH2 0x1DF CALLER PUSH1 0x1 PUSH1 0x1 PUSH1 0xA0 SHL SUB DUP4 AND EQ PUSH2 0x1566 JUMP JUMPDEST PUSH1 0x9 SLOAD PUSH2 0x1F2 PUSH1 0xFF DUP3 PUSH1 0x18 SHR AND ISZERO PUSH2 0x1482 JUMP JUMPDEST PUSH2 0x202 PUSH1 0xFF DUP3 PUSH1 0x10 SHR AND ISZERO PUSH2 0x159F JUMP JUMPDEST PUSH1 0xFF DUP2 AND DUP1 PUSH2 0x3A8 JUMPI JUMPDEST ISZERO PUSH2 0x36C JUMPI PUSH3 0xFF0000 NOT AND PUSH3 0x10000 OR PUSH1 0x9 SSTORE PUSH1 0x40 MLOAD PUSH4 0x70A08231 PUSH1 0xE0 SHL DUP2 MSTORE ADDRESS PUSH1 0x4 DUP3 ADD MSTORE PUSH32 0x0 PUSH1 0x1 PUSH1 0x1 PUSH1 0xA0 SHL SUB AND PUSH1 0x20 DUP3 PUSH1 0x24 DUP2 DUP5 GAS STATICCALL SWAP2 DUP3 ISZERO PUSH2 0x361 JUMPI DUP5 SWAP3 PUSH2 0x327 JUMPI JUMPDEST POP PUSH1 0x40 MLOAD PUSH4 0xA9059CBB PUSH1 0xE0 SHL DUP2 MSTORE PUSH1 0x1 PUSH1 0x1 PUSH1 0xA0 SHL SUB SWAP1 SWAP4 AND PUSH1 0x4 DUP5 ADD MSTORE PUSH1 0x24 DUP4 ADD DUP3 SWAP1 MSTORE PUSH1 0x20 SWAP1 DUP4 SWAP1 DUP2 DUP7 DUP2 PUSH1 0x44 DUP2 ADD JUMPDEST SUB SWAP3 GAS CALL SWAP1 DUP2 ISZERO PUSH2 0x31C JUMPI PUSH2 0x2E5 PUSH1 0x20 SWAP3 PUSH32 0x7ED2D5BDF35D4CB790F65D053DE7890F1B4A687AC689CA56C23730833531DEB0 SWAP5 DUP7 SWAP2 PUSH2 0x2EF JUMPI JUMPDEST POP PUSH2 0x15DF JUMP JUMPDEST PUSH1 0x40 MLOAD SWAP1 DUP2 MSTORE LOG1 DUP1 RETURN JUMPDEST PUSH2 0x30F SWAP2 POP DUP5 RETURNDATASIZE DUP7 GT PUSH2 0x315 JUMPI JUMPDEST PUSH2 0x307 DUP2 DUP4 PUSH2 0x132F JUMP JUMPDEST DUP2 ADD SWAP1 PUSH2 0x150B JUMP JUMPDEST PUSH0 PUSH2 0x2DF JUMP JUMPDEST POP RETURNDATASIZE PUSH2 0x2FD JUMP JUMPDEST PUSH1 0x40 MLOAD RETURNDATASIZE DUP6 DUP3 RETURNDATACOPY RETURNDATASIZE SWAP1 REVERT JUMPDEST SWAP1 SWAP2 POP PUSH1 0x20 DUP2 RETURNDATASIZE PUSH1 0x20 GT PUSH2 0x359 JUMPI JUMPDEST DUP2 PUSH2 0x343 PUSH1 0x20 SWAP4 DUP4 PUSH2 0x132F JUMP JUMPDEST DUP2 ADD SUB SLT PUSH2 0x355 JUMPI MLOAD SWAP1 PUSH2 0x2A5 PUSH2 0x273 JUMP JUMPDEST PUSH0 DUP1 REVERT JUMPDEST RETURNDATASIZE SWAP2 POP PUSH2 0x336 JUMP JUMPDEST PUSH1 0x40 MLOAD RETURNDATASIZE DUP7 DUP3 RETURNDATACOPY RETURNDATASIZE SWAP1 REVERT JUMPDEST PUSH1 0x40 MLOAD PUSH3 0x461BCD PUSH1 0xE5 SHL DUP2 MSTORE PUSH1 0x20 PUSH1 0x4 DUP3 ADD MSTORE PUSH1 0x14 PUSH1 0x24 DUP3 ADD MSTORE PUSH20 0x5061796D656E74206E6F7420636F6D706C657465 PUSH1 0x60 SHL PUSH1 0x44 DUP3 ADD MSTORE PUSH1 0x64 SWAP1 REVERT JUMPDEST POP PUSH1 0xFF DUP2 PUSH1 0x8 SHR AND PUSH2 0x20C JUMP JUMPDEST POP CALLVALUE PUSH2 0x196 JUMPI PUSH1 0x20 CALLDATASIZE PUSH1 0x3 NOT ADD SLT PUSH2 0x196 JUMPI PUSH1 0x4 CALLDATALOAD PUSH1 0x1 PUSH1 0x1 PUSH1 0xA0 SHL SUB DUP2 AND SWAP1 DUP2 SWAP1 SUB PUSH2 0x43F JUMPI PUSH2 0x3E4 PUSH2 0x163D JUMP JUMPDEST DUP1 ISZERO PUSH2 0x42B JUMPI DUP2 SLOAD PUSH1 0x1 PUSH1 0x1 PUSH1 0xA0 SHL SUB NOT DUP2 AND DUP3 OR DUP4 SSTORE PUSH1 0x1 PUSH1 0x1 PUSH1 0xA0 SHL SUB AND PUSH32 0x8BE0079C531659141344CD1FD0A4F28419497F9722A3DAAFE3B4186F6B6457E0 DUP4 DUP1 LOG3 DUP1 RETURN JUMPDEST PUSH4 0x1E4FBDF7 PUSH1 0xE0 SHL DUP3 MSTORE PUSH1 0x4 DUP3 SWAP1 MSTORE PUSH1 0x24 DUP3 REVERT JUMPDEST POP DUP1 REVERT JUMPDEST POP CALLVALUE PUSH2 0x196 JUMPI DUP1 PUSH1 0x3 NOT CALLDATASIZE ADD SLT PUSH2 0x196 JUMPI PUSH1 0x20 PUSH1 0x9 SLOAD PUSH1 0xFF DUP2 AND SWAP1 DUP2 PUSH2 0x46F JUMPI JUMPDEST POP PUSH1 0x40 MLOAD SWAP1 ISZERO ISZERO DUP2 MSTORE RETURN JUMPDEST PUSH1 0xFF SWAP2 POP PUSH1 0x8 SHR AND DUP3 PUSH2 0x464 JUMP JUMPDEST POP CALLVALUE PUSH2 0x196 JUMPI DUP1 PUSH1 0x3 NOT CALLDATASIZE ADD SLT PUSH2 0x196 JUMPI PUSH2 0x4C2 CALLER PUSH32 0x0 PUSH1 0x1 PUSH1 0x1 PUSH1 0xA0 SHL SUB AND EQ PUSH2 0x1447 JUMP JUMPDEST PUSH2 0x4CA PUSH2 0x161D JUMP JUMPDEST PUSH1 0x9 SLOAD PUSH2 0x4DD PUSH1 0xFF DUP3 PUSH1 0x18 SHR AND ISZERO PUSH2 0x1482 JUMP JUMPDEST PUSH1 0xFF DUP2 AND ISZERO PUSH2 0x69E JUMPI PUSH1 0xFF DUP2 PUSH1 0x8 SHR AND PUSH2 0x65A JUMPI PUSH1 0x7 SLOAD PUSH3 0x93A7F NOT DUP2 ADD SWAP1 DUP2 GT PUSH2 0x646 JUMPI TIMESTAMP LT ISZERO PUSH2 0x609 JUMPI PUSH1 0x5 SLOAD PUSH4 0xFF0000FF NOT SWAP1 SWAP2 AND PUSH4 0x1000000 OR PUSH1 0x9 SSTORE PUSH1 0x40 MLOAD PUSH4 0xA9059CBB PUSH1 0xE0 SHL DUP2 MSTORE CALLER PUSH1 0x4 DUP3 ADD MSTORE PUSH1 0x24 DUP2 ADD DUP3 SWAP1 MSTORE PUSH1 0x20 DUP2 DUP1 PUSH1 0x44 DUP2 ADD SUB DUP2 DUP7 PUSH32 0x0 PUSH1 0x1 PUSH1 0x1 PUSH1 0xA0 SHL SUB AND GAS CALL SWAP1 DUP2 ISZERO PUSH2 0x31C JUMPI DUP4 SWAP2 PUSH2 0x5EA JUMPI JUMPDEST POP ISZERO PUSH2 0x5B5 JUMPI PUSH1 0x20 PUSH32 0x3D229DD60FC64B0903758FEED58453F62E715F5D01DC0978C0A3A312DD2776C2 SWAP2 PUSH1 0x40 MLOAD SWAP1 DUP2 MSTORE LOG1 PUSH1 0x1 DUP1 SSTORE DUP1 RETURN JUMPDEST PUSH1 0x40 MLOAD PUSH3 0x461BCD PUSH1 0xE5 SHL DUP2 MSTORE PUSH1 0x20 PUSH1 0x4 DUP3 ADD MSTORE PUSH1 0xD PUSH1 0x24 DUP3 ADD MSTORE PUSH13 0x1499599D5B990819985A5B1959 PUSH1 0x9A SHL PUSH1 0x44 DUP3 ADD MSTORE PUSH1 0x64 SWAP1 REVERT JUMPDEST PUSH2 0x603 SWAP2 POP PUSH1 0x20 RETURNDATASIZE PUSH1 0x20 GT PUSH2 0x315 JUMPI PUSH2 0x307 DUP2 DUP4 PUSH2 0x132F JUMP JUMPDEST PUSH0 PUSH2 0x57D JUMP JUMPDEST PUSH1 0x40 MLOAD PUSH3 0x461BCD PUSH1 0xE5 SHL DUP2 MSTORE PUSH1 0x20 PUSH1 0x4 DUP3 ADD MSTORE PUSH1 0x15 PUSH1 0x24 DUP3 ADD MSTORE PUSH21 0x546F6F20636C6F736520746F20646561646C696E65 PUSH1 0x58 SHL PUSH1 0x44 DUP3 ADD MSTORE PUSH1 0x64 SWAP1 REVERT JUMPDEST PUSH4 0x4E487B71 PUSH1 0xE0 SHL DUP4 MSTORE PUSH1 0x11 PUSH1 0x4 MSTORE PUSH1 0x24 DUP4 REVERT JUMPDEST PUSH1 0x64 PUSH1 0x40 MLOAD PUSH3 0x461BCD PUSH1 0xE5 SHL DUP2 MSTORE PUSH1 0x20 PUSH1 0x4 DUP3 ADD MSTORE PUSH1 0x20 PUSH1 0x24 DUP3 ADD MSTORE PUSH32 0x43616E6E6F7420726566756E642061667465722066756C6C207061796D656E74 PUSH1 0x44 DUP3 ADD MSTORE REVERT JUMPDEST PUSH1 0x40 MLOAD PUSH3 0x461BCD PUSH1 0xE5 SHL DUP2 MSTORE PUSH1 0x20 PUSH1 0x4 DUP3 ADD MSTORE PUSH1 0x12 PUSH1 0x24 DUP3 ADD MSTORE PUSH18 0x139BC81D5C199C9BDB9D081C185E5B595B9D PUSH1 0x72 SHL PUSH1 0x44 DUP3 ADD MSTORE PUSH1 0x64 SWAP1 REVERT JUMPDEST POP CALLVALUE PUSH2 0x196 JUMPI DUP1 PUSH1 0x3 NOT CALLDATASIZE ADD SLT PUSH2 0x196 JUMPI PUSH32 0x0 PUSH2 0x71E CALLER PUSH1 0x1 PUSH1 0x1 PUSH1 0xA0 SHL SUB DUP4 AND EQ PUSH2 0x1566 JUMP JUMPDEST PUSH1 0x40 MLOAD PUSH4 0x70A08231 PUSH1 0xE0 SHL DUP2 MSTORE ADDRESS PUSH1 0x4 DUP3 ADD MSTORE PUSH32 0x0 PUSH1 0x1 PUSH1 0x1 PUSH1 0xA0 SHL SUB AND PUSH1 0x20 DUP3 PUSH1 0x24 DUP2 DUP5 GAS STATICCALL SWAP2 DUP3 ISZERO PUSH2 0x361 JUMPI DUP5 SWAP3 PUSH2 0x819 JUMPI JUMPDEST POP DUP2 ISZERO PUSH2 0x7E7 JUMPI PUSH1 0x40 MLOAD PUSH4 0xA9059CBB PUSH1 0xE0 SHL DUP2 MSTORE PUSH1 0x1 PUSH1 0x1 PUSH1 0xA0 SHL SUB SWAP4 SWAP1 SWAP4 AND PUSH1 0x4 DUP5 ADD MSTORE PUSH1 0x24 DUP4 ADD DUP3 SWAP1 MSTORE PUSH1 0x20 SWAP1 DUP4 SWAP1 PUSH1 0x44 SWAP1 DUP3 SWAP1 DUP8 SWAP1 GAS CALL SWAP1 DUP2 ISZERO PUSH2 0x31C JUMPI PUSH2 0x2E5 PUSH1 0x20 SWAP3 PUSH32 0x8E9F10B004CE7E96C30B2445271DD45D41FCFACB742CF4843F1B790AFA7A7657 SWAP5 DUP7 SWAP2 PUSH2 0x2EF JUMPI POP PUSH2 0x15DF JUMP JUMPDEST PUSH1 0x40 MLOAD PUSH3 0x461BCD PUSH1 0xE5 SHL DUP2 MSTORE PUSH1 0x20 PUSH1 0x4 DUP3 ADD MSTORE PUSH1 0xA PUSH1 0x24 DUP3 ADD MSTORE PUSH10 0x4E6F2062616C616E6365 PUSH1 0xB0 SHL PUSH1 0x44 DUP3 ADD MSTORE PUSH1 0x64 SWAP1 REVERT JUMPDEST SWAP1 SWAP2 POP PUSH1 0x20 DUP2 RETURNDATASIZE PUSH1 0x20 GT PUSH2 0x845 JUMPI JUMPDEST DUP2 PUSH2 0x835 PUSH1 0x20 SWAP4 DUP4 PUSH2 0x132F JUMP JUMPDEST DUP2 ADD SUB SLT PUSH2 0x355 JUMPI MLOAD SWAP1 PUSH0 PUSH2 0x772 JUMP JUMPDEST RETURNDATASIZE SWAP2 POP PUSH2 0x828 JUMP JUMPDEST POP CALLVALUE PUSH2 0x196 JUMPI DUP1 PUSH1 0x3 NOT CALLDATASIZE ADD SLT PUSH2 0x196 JUMPI PUSH1 0x20 PUSH1 0x8 SLOAD PUSH1 0x40 MLOAD SWAP1 DUP2 MSTORE RETURN JUMPDEST POP CALLVALUE PUSH2 0x196 JUMPI DUP1 PUSH1 0x3 NOT CALLDATASIZE ADD SLT PUSH2 0x196 JUMPI DUP1 PUSH1 0x9 SLOAD SWAP1 PUSH1 0xFF DUP3 AND SWAP2 DUP3 PUSH2 0x8EE JUMPI JUMPDEST PUSH1 0x8 SHR PUSH1 0xFF AND DUP1 PUSH2 0x8C3 JUMPI JUMPDEST PUSH1 0xA0 SWAP4 POP PUSH1 0x5 SLOAD PUSH1 0x6 SLOAD SWAP2 PUSH1 0x40 MLOAD SWAP5 ISZERO ISZERO DUP6 MSTORE ISZERO ISZERO PUSH1 0x20 DUP6 ADD MSTORE PUSH1 0x40 DUP5 ADD MSTORE PUSH1 0x60 DUP4 ADD MSTORE PUSH1 0x80 DUP3 ADD MSTORE RETURN JUMPDEST SWAP1 PUSH1 0x6 SLOAD DUP2 ADD DUP1 SWAP2 GT PUSH2 0x8DA JUMPI PUSH1 0xA0 SWAP4 POP SWAP1 PUSH2 0x898 JUMP JUMPDEST PUSH4 0x4E487B71 PUSH1 0xE0 SHL DUP5 MSTORE PUSH1 0x11 PUSH1 0x4 MSTORE PUSH1 0x24 DUP5 REVERT JUMPDEST PUSH1 0x5 SLOAD SWAP2 POP PUSH2 0x88C JUMP JUMPDEST POP CALLVALUE PUSH2 0x196 JUMPI DUP1 PUSH1 0x3 NOT CALLDATASIZE ADD SLT PUSH2 0x196 JUMPI PUSH1 0x40 MLOAD PUSH32 0x0 PUSH1 0x1 PUSH1 0x1 PUSH1 0xA0 SHL SUB AND DUP2 MSTORE PUSH1 0x20 SWAP1 RETURN JUMPDEST POP CALLVALUE PUSH2 0x196 JUMPI DUP1 PUSH1 0x3 NOT CALLDATASIZE ADD SLT PUSH2 0x196 JUMPI PUSH1 0x40 MLOAD PUSH32 0x0 PUSH1 0x1 PUSH1 0x1 PUSH1 0xA0 SHL SUB AND DUP2 MSTORE PUSH1 0x20 SWAP1 RETURN JUMPDEST POP CALLVALUE PUSH2 0x196 JUMPI DUP1 PUSH1 0x3 NOT CALLDATASIZE ADD SLT PUSH2 0x196 JUMPI PUSH1 0x40 MLOAD PUSH32 0x0 PUSH1 0x1 PUSH1 0x1 PUSH1 0xA0 SHL SUB AND DUP2 MSTORE PUSH1 0x20 SWAP1 RETURN JUMPDEST POP CALLVALUE PUSH2 0x196 JUMPI DUP1 PUSH1 0x3 NOT CALLDATASIZE ADD SLT PUSH2 0x196 JUMPI PUSH1 0x20 PUSH1 0x6 SLOAD PUSH1 0x40 MLOAD SWAP1 DUP2 MSTORE RETURN JUMPDEST POP CALLVALUE PUSH2 0x196 JUMPI DUP1 PUSH1 0x3 NOT CALLDATASIZE ADD SLT PUSH2 0x196 JUMPI PUSH2 0xA2A CALLER PUSH32 0x0 PUSH1 0x1 PUSH1 0x1 PUSH1 0xA0 SHL SUB AND EQ PUSH2 0x1447 JUMP JUMPDEST PUSH2 0xA32 PUSH2 0x161D JUMP JUMPDEST PUSH1 0x9 SLOAD PUSH2 0xA45 PUSH1 0xFF DUP3 PUSH1 0x18 SHR AND ISZERO PUSH2 0x1482 JUMP JUMPDEST PUSH1 0xFF DUP2 AND ISZERO PUSH2 0xC60 JUMPI PUSH1 0x8 SHR PUSH1 0xFF AND PUSH2 0xC22 JUMPI PUSH2 0xA65 PUSH1 0x7 SLOAD TIMESTAMP LT PUSH2 0x14BF JUMP JUMPDEST PUSH1 0x6 SLOAD PUSH1 0x40 MLOAD PUSH4 0x23B872DD PUSH1 0xE0 SHL DUP2 MSTORE CALLER PUSH1 0x4 DUP3 ADD MSTORE ADDRESS PUSH1 0x24 DUP3 ADD MSTORE PUSH1 0x44 DUP2 ADD SWAP2 SWAP1 SWAP2 MSTORE PUSH1 0x20 DUP2 PUSH1 0x64 DUP2 DUP6 PUSH1 0x1 PUSH1 0x1 PUSH1 0xA0 SHL SUB PUSH32 0x0 AND GAS CALL DUP1 ISZERO PUSH2 0xBE0 JUMPI PUSH2 0xAD3 SWAP2 DUP4 SWAP2 PUSH2 0xC03 JUMPI JUMPDEST POP PUSH2 0x1523 JUMP JUMPDEST PUSH1 0x9 DUP1 SLOAD PUSH2 0xFF00 NOT AND PUSH2 0x100 OR SWAP1 SSTORE PUSH1 0x6 SLOAD PUSH5 0xE8D4A51000 DUP1 DUP3 MUL SWAP3 SWAP2 PUSH32 0x0 PUSH1 0x1 PUSH1 0x1 PUSH1 0xA0 SHL SUB AND SWAP2 DUP2 ISZERO SWAP2 DUP6 DIV EQ OR ISZERO PUSH2 0xBEF JUMPI DUP2 SWAP3 DUP2 EXTCODESIZE ISZERO PUSH2 0xBEB JUMPI DUP3 SWAP2 PUSH1 0xA4 DUP4 SWAP3 PUSH1 0x40 MLOAD SWAP5 DUP6 SWAP4 DUP5 SWAP3 PUSH4 0x34FF2619 PUSH1 0xE2 SHL DUP5 MSTORE CALLER PUSH1 0x4 DUP6 ADD MSTORE PUSH1 0x24 DUP5 ADD MSTORE PUSH1 0x60 PUSH1 0x44 DUP5 ADD MSTORE PUSH1 0x1A PUSH1 0x64 DUP5 ADD MSTORE PUSH32 0x436F6D6D69742D746F2D636C61696D20636F6D706C6574696F6E000000000000 PUSH1 0x84 DUP5 ADD MSTORE GAS CALL DUP1 ISZERO PUSH2 0xBE0 JUMPI PUSH2 0xBCB JUMPI JUMPDEST POP PUSH1 0x6 SLOAD PUSH1 0x40 MLOAD SWAP1 DUP2 MSTORE PUSH32 0x3561664BCF5B0920598B902E441E5F811D63FF1947B7D1F739CBC72CC65903E PUSH1 0x20 CALLER SWAP3 LOG2 PUSH1 0x1 DUP1 SSTORE DUP1 RETURN JUMPDEST DUP2 PUSH2 0xBD5 SWAP2 PUSH2 0x132F JUMP JUMPDEST PUSH2 0x196 JUMPI DUP1 PUSH0 PUSH2 0xB94 JUMP JUMPDEST PUSH1 0x40 MLOAD RETURNDATASIZE DUP5 DUP3 RETURNDATACOPY RETURNDATASIZE SWAP1 REVERT JUMPDEST POP POP REVERT JUMPDEST PUSH4 0x4E487B71 PUSH1 0xE0 SHL DUP3 MSTORE PUSH1 0x11 PUSH1 0x4 MSTORE PUSH1 0x24 DUP3 REVERT JUMPDEST PUSH2 0xC1C SWAP2 POP PUSH1 0x20 RETURNDATASIZE PUSH1 0x20 GT PUSH2 0x315 JUMPI PUSH2 0x307 DUP2 DUP4 PUSH2 0x132F JUMP JUMPDEST PUSH0 PUSH2 0xACD JUMP JUMPDEST PUSH1 0x40 MLOAD PUSH3 0x461BCD PUSH1 0xE5 SHL DUP2 MSTORE PUSH1 0x20 PUSH1 0x4 DUP3 ADD MSTORE PUSH1 0x16 PUSH1 0x24 DUP3 ADD MSTORE PUSH22 0x416C726561647920706169642072656D61696E696E67 PUSH1 0x50 SHL PUSH1 0x44 DUP3 ADD MSTORE PUSH1 0x64 SWAP1 REVERT JUMPDEST PUSH1 0x40 MLOAD PUSH3 0x461BCD PUSH1 0xE5 SHL DUP2 MSTORE PUSH1 0x20 PUSH1 0x4 DUP3 ADD MSTORE PUSH1 0x16 PUSH1 0x24 DUP3 ADD MSTORE PUSH22 0x135D5CDD081C185E481D5C199C9BDB9D08199A5C9CDD PUSH1 0x52 SHL PUSH1 0x44 DUP3 ADD MSTORE PUSH1 0x64 SWAP1 REVERT JUMPDEST POP CALLVALUE PUSH2 0x196 JUMPI DUP1 PUSH1 0x3 NOT CALLDATASIZE ADD SLT PUSH2 0x196 JUMPI PUSH1 0x20 PUSH1 0xFF PUSH1 0x9 SLOAD PUSH1 0x8 SHR AND PUSH1 0x40 MLOAD SWAP1 ISZERO ISZERO DUP2 MSTORE RETURN JUMPDEST POP CALLVALUE PUSH2 0x196 JUMPI DUP1 PUSH1 0x3 NOT CALLDATASIZE ADD SLT PUSH2 0x196 JUMPI PUSH1 0x20 PUSH1 0xFF PUSH1 0x9 SLOAD PUSH1 0x18 SHR AND PUSH1 0x40 MLOAD SWAP1 ISZERO ISZERO DUP2 MSTORE RETURN JUMPDEST POP CALLVALUE PUSH2 0x196 JUMPI DUP1 PUSH1 0x3 NOT CALLDATASIZE ADD SLT PUSH2 0x196 JUMPI SLOAD PUSH1 0x40 MLOAD PUSH1 0x1 PUSH1 0x1 PUSH1 0xA0 SHL SUB SWAP1 SWAP2 AND DUP2 MSTORE PUSH1 0x20 SWAP1 RETURN JUMPDEST POP CALLVALUE PUSH2 0x196 JUMPI DUP1 PUSH1 0x3 NOT CALLDATASIZE ADD SLT PUSH2 0x196 JUMPI PUSH1 0x20 PUSH1 0xFF PUSH1 0x9 SLOAD PUSH1 0x10 SHR AND PUSH1 0x40 MLOAD SWAP1 ISZERO ISZERO DUP2 MSTORE RETURN JUMPDEST POP CALLVALUE PUSH2 0x196 JUMPI DUP1 PUSH1 0x3 NOT CALLDATASIZE ADD SLT PUSH2 0x196 JUMPI PUSH2 0xD67 PUSH2 0xD53 PUSH2 0x1365 JUMP JUMPDEST PUSH1 0x40 MLOAD SWAP2 DUP3 SWAP2 PUSH1 0x20 DUP4 MSTORE PUSH1 0x20 DUP4 ADD SWAP1 PUSH2 0x130B JUMP JUMPDEST SUB SWAP1 RETURN JUMPDEST POP CALLVALUE PUSH2 0x196 JUMPI DUP1 PUSH1 0x3 NOT CALLDATASIZE ADD SLT PUSH2 0x196 JUMPI PUSH2 0xD84 PUSH2 0x163D JUMP JUMPDEST DUP1 SLOAD PUSH1 0x1 PUSH1 0x1 PUSH1 0xA0 SHL SUB NOT DUP2 AND DUP3 SSTORE DUP2 SWAP1 PUSH1 0x1 PUSH1 0x1 PUSH1 0xA0 SHL SUB AND PUSH32 0x8BE0079C531659141344CD1FD0A4F28419497F9722A3DAAFE3B4186F6B6457E0 DUP3 DUP1 LOG3 DUP1 RETURN JUMPDEST POP CALLVALUE PUSH2 0x196 JUMPI DUP1 PUSH1 0x3 NOT CALLDATASIZE ADD SLT PUSH2 0x196 JUMPI PUSH1 0x20 PUSH1 0x7 SLOAD PUSH1 0x40 MLOAD SWAP1 DUP2 MSTORE RETURN JUMPDEST POP CALLVALUE PUSH2 0x196 JUMPI DUP1 PUSH1 0x3 NOT CALLDATASIZE ADD SLT PUSH2 0x196 JUMPI PUSH1 0x40 MLOAD PUSH32 0x0 PUSH1 0x1 PUSH1 0x1 PUSH1 0xA0 SHL SUB AND DUP2 MSTORE PUSH1 0x20 SWAP1 RETURN JUMPDEST POP CALLVALUE PUSH2 0x196 JUMPI DUP1 PUSH1 0x3 NOT CALLDATASIZE ADD SLT PUSH2 0x196 JUMPI PUSH1 0x20 PUSH1 0xFF PUSH1 0x9 SLOAD AND PUSH1 0x40 MLOAD SWAP1 ISZERO ISZERO DUP2 MSTORE RETURN JUMPDEST POP CALLVALUE PUSH2 0x196 JUMPI DUP1 PUSH1 0x3 NOT CALLDATASIZE ADD SLT PUSH2 0x196 JUMPI PUSH2 0xE8E PUSH1 0x3 SLOAD PUSH1 0x4 SLOAD SWAP1 PUSH1 0xFF PUSH1 0x7 SLOAD PUSH1 0x9 SLOAD SWAP1 PUSH2 0xE77 PUSH2 0x1365 JUMP JUMPDEST SWAP5 PUSH1 0x40 MLOAD SWAP7 DUP8 SWAP7 PUSH2 0x120 DUP9 MSTORE PUSH2 0x120 DUP9 ADD SWAP1 PUSH2 0x130B JUMP JUMPDEST SWAP5 PUSH1 0x20 DUP8 ADD MSTORE PUSH1 0x40 DUP7 ADD MSTORE PUSH1 0x60 DUP6 ADD MSTORE PUSH1 0x1 DUP1 PUSH1 0xA0 SHL SUB PUSH32 0x0 AND PUSH1 0x80 DUP6 ADD MSTORE DUP2 DUP2 AND ISZERO ISZERO PUSH1 0xA0 DUP6 ADD MSTORE DUP2 DUP2 PUSH1 0x8 SHR AND ISZERO ISZERO PUSH1 0xC0 DUP6 ADD MSTORE DUP2 DUP2 PUSH1 0x10 SHR AND ISZERO ISZERO PUSH1 0xE0 DUP6 ADD MSTORE PUSH1 0x18 SHR AND ISZERO ISZERO PUSH2 0x100 DUP4 ADD MSTORE SUB SWAP1 RETURN JUMPDEST POP CALLVALUE PUSH2 0x196 JUMPI DUP1 PUSH1 0x3 NOT CALLDATASIZE ADD SLT PUSH2 0x196 JUMPI PUSH1 0x20 PUSH1 0x3 SLOAD PUSH1 0x40 MLOAD SWAP1 DUP2 MSTORE RETURN JUMPDEST POP CALLVALUE PUSH2 0x196 JUMPI DUP1 PUSH1 0x3 NOT CALLDATASIZE ADD SLT PUSH2 0x196 JUMPI PUSH1 0x20 PUSH1 0x5 SLOAD PUSH1 0x40 MLOAD SWAP1 DUP2 MSTORE RETURN JUMPDEST POP CALLVALUE PUSH2 0x196 JUMPI DUP1 PUSH1 0x3 NOT CALLDATASIZE ADD SLT PUSH2 0x196 JUMPI PUSH2 0xF81 CALLER PUSH32 0x0 PUSH1 0x1 PUSH1 0x1 PUSH1 0xA0 SHL SUB AND EQ PUSH2 0x1566 JUMP JUMPDEST PUSH1 0x9 SLOAD PUSH2 0xF94 PUSH1 0xFF DUP3 PUSH1 0x10 SHR AND ISZERO PUSH2 0x159F JUMP JUMPDEST PUSH1 0x7 SLOAD TIMESTAMP LT PUSH2 0x1053 JUMPI PUSH1 0xFF DUP2 PUSH1 0x8 SHR AND PUSH2 0x101A JUMPI PUSH4 0xFF000000 NOT DUP2 AND PUSH4 0x1000000 OR PUSH1 0x9 SSTORE PUSH1 0xFF AND ISZERO PUSH2 0xFF1 JUMPI PUSH32 0x3D229DD60FC64B0903758FEED58453F62E715F5D01DC0978C0A3A312DD2776C2 PUSH1 0x20 PUSH1 0x5 SLOAD PUSH1 0x40 MLOAD SWAP1 DUP2 MSTORE LOG1 DUP1 RETURN JUMPDEST PUSH32 0x3D229DD60FC64B0903758FEED58453F62E715F5D01DC0978C0A3A312DD2776C2 PUSH1 0x20 DUP3 PUSH2 0x2E5 JUMP JUMPDEST PUSH1 0x40 MLOAD PUSH3 0x461BCD PUSH1 0xE5 SHL DUP2 MSTORE PUSH1 0x20 PUSH1 0x4 DUP3 ADD MSTORE PUSH1 0x11 PUSH1 0x24 DUP3 ADD MSTORE PUSH17 0x14185E5B595B9D0818DBDB5C1B195D1959 PUSH1 0x7A SHL PUSH1 0x44 DUP3 ADD MSTORE PUSH1 0x64 SWAP1 REVERT JUMPDEST PUSH1 0x40 MLOAD PUSH3 0x461BCD PUSH1 0xE5 SHL DUP2 MSTORE PUSH1 0x20 PUSH1 0x4 DUP3 ADD MSTORE PUSH1 0x14 PUSH1 0x24 DUP3 ADD MSTORE PUSH20 0x111958591B1A5B99481B9BDD081C995858DA1959 PUSH1 0x62 SHL PUSH1 0x44 DUP3 ADD MSTORE PUSH1 0x64 SWAP1 REVERT JUMPDEST POP CALLVALUE PUSH2 0x355 JUMPI PUSH0 CALLDATASIZE PUSH1 0x3 NOT ADD SLT PUSH2 0x355 JUMPI PUSH2 0x10D4 CALLER PUSH32 0x0 PUSH1 0x1 PUSH1 0x1 PUSH1 0xA0 SHL SUB AND EQ PUSH2 0x1447 JUMP JUMPDEST PUSH2 0x10DC PUSH2 0x161D JUMP JUMPDEST PUSH1 0xFF PUSH1 0x9 SLOAD PUSH2 0x10F0 DUP3 DUP3 PUSH1 0x18 SHR AND ISZERO PUSH2 0x1482 JUMP JUMPDEST AND PUSH2 0x12B5 JUMPI PUSH2 0x1102 PUSH1 0x7 SLOAD TIMESTAMP LT PUSH2 0x14BF JUMP JUMPDEST PUSH1 0x5 SLOAD PUSH1 0x40 MLOAD PUSH4 0x23B872DD PUSH1 0xE0 SHL DUP2 MSTORE CALLER PUSH1 0x4 DUP3 ADD MSTORE ADDRESS PUSH1 0x24 DUP3 ADD MSTORE PUSH1 0x44 DUP2 ADD SWAP2 SWAP1 SWAP2 MSTORE PUSH1 0x20 DUP2 PUSH1 0x64 DUP2 PUSH0 PUSH1 0x1 PUSH1 0x1 PUSH1 0xA0 SHL SUB PUSH32 0x0 AND GAS CALL DUP1 ISZERO PUSH2 0x1296 JUMPI PUSH2 0x116F SWAP2 PUSH0 SWAP2 PUSH2 0xC03 JUMPI POP PUSH2 0x1523 JUMP JUMPDEST PUSH1 0x9 DUP1 SLOAD PUSH1 0xFF NOT AND PUSH1 0x1 OR SWAP1 SSTORE PUSH1 0x5 SLOAD PUSH32 0x0 PUSH1 0x1 PUSH1 0x1 PUSH1 0xA0 SHL SUB AND SWAP1 PUSH5 0xE8D4A51000 DUP1 DUP3 MUL SWAP2 DUP1 ISZERO SWAP1 DUP4 DIV SWAP1 SWAP2 EQ OR ISZERO PUSH2 0x12A1 JUMPI DUP2 EXTCODESIZE ISZERO PUSH2 0x355 JUMPI PUSH0 SWAP2 PUSH1 0xA4 DUP4 SWAP3 PUSH1 0x40 MLOAD SWAP5 DUP6 SWAP4 DUP5 SWAP3 PUSH4 0x34FF2619 PUSH1 0xE2 SHL DUP5 MSTORE CALLER PUSH1 0x4 DUP6 ADD MSTORE PUSH1 0x24 DUP5 ADD MSTORE PUSH1 0x60 PUSH1 0x44 DUP5 ADD MSTORE PUSH1 0x17 PUSH1 0x64 DUP5 ADD MSTORE PUSH32 0x436F6D6D69742D746F2D636C61696D20757066726F6E74000000000000000000 PUSH1 0x84 DUP5 ADD MSTORE GAS CALL DUP1 ISZERO PUSH2 0x1296 JUMPI PUSH2 0x1283 JUMPI JUMPDEST POP PUSH1 0x5 SLOAD PUSH5 0xE8D4A51000 DUP2 MUL DUP2 DUP2 DIV PUSH5 0xE8D4A51000 EQ DUP3 ISZERO OR ISZERO PUSH2 0x646 JUMPI PUSH1 0x40 MLOAD SWAP2 DUP3 MSTORE PUSH1 0x20 DUP3 ADD MSTORE PUSH32 0x82992E65DF7D497DAEF0942D0653C2B1AD9D8341971C65F460B254F1D709521D PUSH1 0x40 CALLER SWAP3 LOG2 PUSH1 0x1 DUP1 SSTORE DUP1 RETURN JUMPDEST PUSH2 0x128F SWAP2 POP PUSH0 SWAP1 PUSH2 0x132F JUMP JUMPDEST PUSH0 PUSH0 PUSH2 0x122D JUMP JUMPDEST PUSH1 0x40 MLOAD RETURNDATASIZE PUSH0 DUP3 RETURNDATACOPY RETURNDATASIZE SWAP1 REVERT JUMPDEST PUSH4 0x4E487B71 PUSH1 0xE0 SHL PUSH0 MSTORE PUSH1 0x11 PUSH1 0x4 MSTORE PUSH1 0x24 PUSH0 REVERT JUMPDEST PUSH1 0x40 MLOAD PUSH3 0x461BCD PUSH1 0xE5 SHL DUP2 MSTORE PUSH1 0x20 PUSH1 0x4 DUP3 ADD MSTORE PUSH1 0x14 PUSH1 0x24 DUP3 ADD MSTORE PUSH20 0x105B1C9958591E481C185A59081D5C199C9BDB9D PUSH1 0x62 SHL PUSH1 0x44 DUP3 ADD MSTORE PUSH1 0x64 SWAP1 REVERT JUMPDEST CALLVALUE PUSH2 0x355 JUMPI PUSH0 CALLDATASIZE PUSH1 0x3 NOT ADD SLT PUSH2 0x355 JUMPI PUSH1 0x20 SWAP1 PUSH1 0x4 SLOAD DUP2 MSTORE RETURN JUMPDEST DUP1 MLOAD DUP1 DUP4 MSTORE PUSH1 0x20 SWAP3 SWAP2 DUP2 SWAP1 DUP5 ADD DUP5 DUP5 ADD MCOPY PUSH0 DUP3 DUP3 ADD DUP5 ADD MSTORE PUSH1 0x1F ADD PUSH1 0x1F NOT AND ADD ADD SWAP1 JUMP JUMPDEST SWAP1 PUSH1 0x1F DUP1 NOT SWAP2 ADD AND DUP2 ADD SWAP1 DUP2 LT PUSH8 0xFFFFFFFFFFFFFFFF DUP3 GT OR PUSH2 0x1351 JUMPI PUSH1 0x40 MSTORE JUMP JUMPDEST PUSH4 0x4E487B71 PUSH1 0xE0 SHL PUSH0 MSTORE PUSH1 0x41 PUSH1 0x4 MSTORE PUSH1 0x24 PUSH0 REVERT JUMPDEST PUSH1 0x40 MLOAD SWAP1 PUSH0 PUSH1 0x2 SLOAD DUP1 PUSH1 0x1 SHR SWAP2 PUSH1 0x1 DUP3 AND SWAP2 DUP3 ISZERO PUSH2 0x143D JUMPI JUMPDEST PUSH1 0x20 DUP5 LT DUP4 EQ PUSH2 0x1429 JUMPI DUP4 DUP7 MSTORE DUP6 SWAP3 SWAP1 DUP2 ISZERO PUSH2 0x140A JUMPI POP PUSH1 0x1 EQ PUSH2 0x13AB JUMPI JUMPDEST PUSH2 0x13A9 SWAP3 POP SUB DUP4 PUSH2 0x132F JUMP JUMPDEST JUMP JUMPDEST POP PUSH1 0x2 PUSH0 SWAP1 DUP2 MSTORE SWAP1 SWAP2 PUSH32 0x405787FA12A823E0F2B7631CC41B3BA8828B3321CA811111FA75CD3AA3BB5ACE JUMPDEST DUP2 DUP4 LT PUSH2 0x13EE JUMPI POP POP SWAP1 PUSH1 0x20 PUSH2 0x13A9 SWAP3 DUP3 ADD ADD PUSH2 0x139D JUMP JUMPDEST PUSH1 0x20 SWAP2 SWAP4 POP DUP1 PUSH1 0x1 SWAP2 SLOAD DUP4 DUP6 DUP10 ADD ADD MSTORE ADD SWAP2 ADD SWAP1 SWAP2 DUP5 SWAP3 PUSH2 0x13D6 JUMP JUMPDEST PUSH1 0x20 SWAP3 POP PUSH2 0x13A9 SWAP5 SWAP2 POP PUSH1 0xFF NOT AND DUP3 DUP5 ADD MSTORE ISZERO ISZERO PUSH1 0x5 SHL DUP3 ADD ADD PUSH2 0x139D JUMP JUMPDEST PUSH4 0x4E487B71 PUSH1 0xE0 SHL PUSH0 MSTORE PUSH1 0x22 PUSH1 0x4 MSTORE PUSH1 0x24 PUSH0 REVERT JUMPDEST SWAP3 PUSH1 0x7F AND SWAP3 PUSH2 0x137E JUMP JUMPDEST ISZERO PUSH2 0x144E JUMPI JUMP JUMPDEST PUSH1 0x40 MLOAD PUSH3 0x461BCD PUSH1 0xE5 SHL DUP2 MSTORE PUSH1 0x20 PUSH1 0x4 DUP3 ADD MSTORE PUSH1 0xC PUSH1 0x24 DUP3 ADD MSTORE PUSH12 0x27B7363C9031B932B0BA37B9 PUSH1 0xA1 SHL PUSH1 0x44 DUP3 ADD MSTORE PUSH1 0x64 SWAP1 REVERT JUMPDEST ISZERO PUSH2 0x1489 JUMPI JUMP JUMPDEST PUSH1 0x40 MLOAD PUSH3 0x461BCD PUSH1 0xE5 SHL DUP2 MSTORE PUSH1 0x20 PUSH1 0x4 DUP3 ADD MSTORE PUSH1 0xE PUSH1 0x24 DUP3 ADD MSTORE PUSH14 0x141BDBDB0818D85B98D95B1B1959 PUSH1 0x92 SHL PUSH1 0x44 DUP3 ADD MSTORE PUSH1 0x64 SWAP1 REVERT JUMPDEST ISZERO PUSH2 0x14C6 JUMPI JUMP JUMPDEST PUSH1 0x40 MLOAD PUSH3 0x461BCD PUSH1 0xE5 SHL DUP2 MSTORE PUSH1 0x20 PUSH1 0x4 DUP3 ADD MSTORE PUSH1 0x17 PUSH1 0x24 DUP3 ADD MSTORE PUSH32 0x5061796D656E7420646561646C696E6520706173736564000000000000000000 PUSH1 0x44 DUP3 ADD MSTORE PUSH1 0x64 SWAP1 REVERT JUMPDEST SWAP1 DUP2 PUSH1 0x20 SWAP2 SUB SLT PUSH2 0x355 JUMPI MLOAD DUP1 ISZERO ISZERO DUP2 SUB PUSH2 0x355 JUMPI SWAP1 JUMP JUMPDEST ISZERO PUSH2 0x152A JUMPI JUMP JUMPDEST PUSH1 0x40 MLOAD PUSH3 0x461BCD PUSH1 0xE5 SHL DUP2 MSTORE PUSH1 0x20 PUSH1 0x4 DUP3 ADD MSTORE PUSH1 0x14 PUSH1 0x24 DUP3 ADD MSTORE PUSH20 0x1554D115081D1C985B9CD9995C8819985A5B1959 PUSH1 0x62 SHL PUSH1 0x44 DUP3 ADD MSTORE PUSH1 0x64 SWAP1 REVERT JUMPDEST ISZERO PUSH2 0x156D JUMPI JUMP JUMPDEST PUSH1 0x40 MLOAD PUSH3 0x461BCD PUSH1 0xE5 SHL DUP2 MSTORE PUSH1 0x20 PUSH1 0x4 DUP3 ADD MSTORE PUSH1 0xA PUSH1 0x24 DUP3 ADD MSTORE PUSH10 0x27B7363C9030B236B4B7 PUSH1 0xB1 SHL PUSH1 0x44 DUP3 ADD MSTORE PUSH1 0x64 SWAP1 REVERT JUMPDEST ISZERO PUSH2 0x15A6 JUMPI JUMP JUMPDEST PUSH1 0x40 MLOAD PUSH3 0x461BCD PUSH1 0xE5 SHL DUP2 MSTORE PUSH1 0x20 PUSH1 0x4 DUP3 ADD MSTORE PUSH1 0x11 PUSH1 0x24 DUP3 ADD MSTORE PUSH17 0x105B1C9958591E48199A5B985B1A5E9959 PUSH1 0x7A SHL PUSH1 0x44 DUP3 ADD MSTORE PUSH1 0x64 SWAP1 REVERT JUMPDEST ISZERO PUSH2 0x15E6 JUMPI JUMP JUMPDEST PUSH1 0x40 MLOAD PUSH3 0x461BCD PUSH1 0xE5 SHL DUP2 MSTORE PUSH1 0x20 PUSH1 0x4 DUP3 ADD MSTORE PUSH1 0xF PUSH1 0x24 DUP3 ADD MSTORE PUSH15 0x151C985B9CD9995C8819985A5B1959 PUSH1 0x8A SHL PUSH1 0x44 DUP3 ADD MSTORE PUSH1 0x64 SWAP1 REVERT JUMPDEST PUSH1 0x2 PUSH1 0x1 SLOAD EQ PUSH2 0x162E JUMPI PUSH1 0x2 PUSH1 0x1 SSTORE JUMP JUMPDEST PUSH4 0x3EE5AEB5 PUSH1 0xE0 SHL PUSH0 MSTORE PUSH1 0x4 PUSH0 REVERT JUMPDEST PUSH0 SLOAD PUSH1 0x1 PUSH1 0x1 PUSH1 0xA0 SHL SUB AND CALLER SUB PUSH2 0x1650 JUMPI JUMP JUMPDEST PUSH4 0x118CDAA7 PUSH1 0xE0 SHL PUSH0 MSTORE CALLER PUSH1 0x4 MSTORE PUSH1 0x24 PUSH0 REVERT INVALID LOG2 PUSH5 0x6970667358 0x22 SLT KECCAK256 LT ADD 0xB4 0xBD CALL 0x25 MLOAD 0xD9 0xF 0xE3 SMOD BLOBBASEFEE 0x2A 0xF9 TIMESTAMP SLOAD SWAP3 0xCD PUSH9 0xDD652129560F62783B JUMPI INVALID SSTORE 0xBA PUSH5 0x736F6C6343 STOP ADDMOD SHR STOP CALLER LOG2 PUSH5 0x6970667358 0x22 SLT KECCAK256 0xC3 SWAP15 0xE3 0xA8 DUP9 PUSH28 0xE7DAFE71DD5F06B36994DD6DCE35BDEFB09AD79091DD238560616473 PUSH16 0x6C634300081C00330000000000000000 "},"methodIdentifiers":{"admin()":"f851a440","allPools(uint256)":"41d1de97","createPool(address,string,uint256,uint256,uint256)":"5a192731","getAllPools()":"d88ff1f4","getPoolCount()":"8eec5d70","getUserCreatedPools(address)":"2d380cca","isPool(address)":"5b16ebb7","setAdmin(address)":"704b6c02","tlootToken()":"6b0ce9ea","usdtToken()":"a98ad46c","userCreatedPools(address,uint256)":"bbef6f90"}}}}}