{
  "_format": "hh3-artifact-1",
  "contractName": "PlatformTokenV2",
  "sourceName": "contracts/PlatformTokenV2.sol",
  "abi": [
    {
      "inputs": [],
      "stateMutability": "nonpayable",
      "type": "constructor"
    },
    {
      "inputs": [],
      "name": "AccessControlBadConfirmation",
      "type": "error"
    },
    {
      "inputs": [
        {
          "internalType": "address",
          "name": "account",
          "type": "address"
        },
        {
          "internalType": "bytes32",
          "name": "neededRole",
          "type": "bytes32"
        }
      ],
      "name": "AccessControlUnauthorizedAccount",
      "type": "error"
    },
    {
      "inputs": [
        {
          "internalType": "address",
          "name": "spender",
          "type": "address"
        },
        {
          "internalType": "uint256",
          "name": "allowance",
          "type": "uint256"
        },
        {
          "internalType": "uint256",
          "name": "needed",
          "type": "uint256"
        }
      ],
      "name": "ERC20InsufficientAllowance",
      "type": "error"
    },
    {
      "inputs": [
        {
          "internalType": "address",
          "name": "sender",
          "type": "address"
        },
        {
          "internalType": "uint256",
          "name": "balance",
          "type": "uint256"
        },
        {
          "internalType": "uint256",
          "name": "needed",
          "type": "uint256"
        }
      ],
      "name": "ERC20InsufficientBalance",
      "type": "error"
    },
    {
      "inputs": [
        {
          "internalType": "address",
          "name": "approver",
          "type": "address"
        }
      ],
      "name": "ERC20InvalidApprover",
      "type": "error"
    },
    {
      "inputs": [
        {
          "internalType": "address",
          "name": "receiver",
          "type": "address"
        }
      ],
      "name": "ERC20InvalidReceiver",
      "type": "error"
    },
    {
      "inputs": [
        {
          "internalType": "address",
          "name": "sender",
          "type": "address"
        }
      ],
      "name": "ERC20InvalidSender",
      "type": "error"
    },
    {
      "inputs": [
        {
          "internalType": "address",
          "name": "spender",
          "type": "address"
        }
      ],
      "name": "ERC20InvalidSpender",
      "type": "error"
    },
    {
      "anonymous": false,
      "inputs": [
        {
          "indexed": true,
          "internalType": "address",
          "name": "owner",
          "type": "address"
        },
        {
          "indexed": true,
          "internalType": "address",
          "name": "spender",
          "type": "address"
        },
        {
          "indexed": false,
          "internalType": "uint256",
          "name": "value",
          "type": "uint256"
        }
      ],
      "name": "Approval",
      "type": "event"
    },
    {
      "anonymous": false,
      "inputs": [
        {
          "indexed": true,
          "internalType": "address",
          "name": "account",
          "type": "address"
        }
      ],
      "name": "MinterAdded",
      "type": "event"
    },
    {
      "anonymous": false,
      "inputs": [
        {
          "indexed": true,
          "internalType": "address",
          "name": "account",
          "type": "address"
        }
      ],
      "name": "MinterRemoved",
      "type": "event"
    },
    {
      "anonymous": false,
      "inputs": [
        {
          "indexed": true,
          "internalType": "bytes32",
          "name": "role",
          "type": "bytes32"
        },
        {
          "indexed": true,
          "internalType": "bytes32",
          "name": "previousAdminRole",
          "type": "bytes32"
        },
        {
          "indexed": true,
          "internalType": "bytes32",
          "name": "newAdminRole",
          "type": "bytes32"
        }
      ],
      "name": "RoleAdminChanged",
      "type": "event"
    },
    {
      "anonymous": false,
      "inputs": [
        {
          "indexed": true,
          "internalType": "bytes32",
          "name": "role",
          "type": "bytes32"
        },
        {
          "indexed": true,
          "internalType": "address",
          "name": "account",
          "type": "address"
        },
        {
          "indexed": true,
          "internalType": "address",
          "name": "sender",
          "type": "address"
        }
      ],
      "name": "RoleGranted",
      "type": "event"
    },
    {
      "anonymous": false,
      "inputs": [
        {
          "indexed": true,
          "internalType": "bytes32",
          "name": "role",
          "type": "bytes32"
        },
        {
          "indexed": true,
          "internalType": "address",
          "name": "account",
          "type": "address"
        },
        {
          "indexed": true,
          "internalType": "address",
          "name": "sender",
          "type": "address"
        }
      ],
      "name": "RoleRevoked",
      "type": "event"
    },
    {
      "anonymous": false,
      "inputs": [
        {
          "indexed": true,
          "internalType": "address",
          "name": "to",
          "type": "address"
        },
        {
          "indexed": false,
          "internalType": "uint256",
          "name": "amount",
          "type": "uint256"
        },
        {
          "indexed": false,
          "internalType": "string",
          "name": "reason",
          "type": "string"
        }
      ],
      "name": "TokensMinted",
      "type": "event"
    },
    {
      "anonymous": false,
      "inputs": [
        {
          "indexed": true,
          "internalType": "address",
          "name": "from",
          "type": "address"
        },
        {
          "indexed": true,
          "internalType": "address",
          "name": "to",
          "type": "address"
        },
        {
          "indexed": false,
          "internalType": "uint256",
          "name": "value",
          "type": "uint256"
        }
      ],
      "name": "Transfer",
      "type": "event"
    },
    {
      "inputs": [],
      "name": "ADMIN_ROLE",
      "outputs": [
        {
          "internalType": "bytes32",
          "name": "",
          "type": "bytes32"
        }
      ],
      "stateMutability": "view",
      "type": "function"
    },
    {
      "inputs": [],
      "name": "DEFAULT_ADMIN_ROLE",
      "outputs": [
        {
          "internalType": "bytes32",
          "name": "",
          "type": "bytes32"
        }
      ],
      "stateMutability": "view",
      "type": "function"
    },
    {
      "inputs": [],
      "name": "MAX_SUPPLY",
      "outputs": [
        {
          "internalType": "uint256",
          "name": "",
          "type": "uint256"
        }
      ],
      "stateMutability": "view",
      "type": "function"
    },
    {
      "inputs": [],
      "name": "MINTER_ROLE",
      "outputs": [
        {
          "internalType": "bytes32",
          "name": "",
          "type": "bytes32"
        }
      ],
      "stateMutability": "view",
      "type": "function"
    },
    {
      "inputs": [
        {
          "internalType": "address",
          "name": "account",
          "type": "address"
        }
      ],
      "name": "addMinter",
      "outputs": [],
      "stateMutability": "nonpayable",
      "type": "function"
    },
    {
      "inputs": [
        {
          "internalType": "address",
          "name": "owner",
          "type": "address"
        },
        {
          "internalType": "address",
          "name": "spender",
          "type": "address"
        }
      ],
      "name": "allowance",
      "outputs": [
        {
          "internalType": "uint256",
          "name": "",
          "type": "uint256"
        }
      ],
      "stateMutability": "view",
      "type": "function"
    },
    {
      "inputs": [
        {
          "internalType": "address",
          "name": "spender",
          "type": "address"
        },
        {
          "internalType": "uint256",
          "name": "value",
          "type": "uint256"
        }
      ],
      "name": "approve",
      "outputs": [
        {
          "internalType": "bool",
          "name": "",
          "type": "bool"
        }
      ],
      "stateMutability": "nonpayable",
      "type": "function"
    },
    {
      "inputs": [
        {
          "internalType": "address",
          "name": "account",
          "type": "address"
        }
      ],
      "name": "balanceOf",
      "outputs": [
        {
          "internalType": "uint256",
          "name": "",
          "type": "uint256"
        }
      ],
      "stateMutability": "view",
      "type": "function"
    },
    {
      "inputs": [
        {
          "internalType": "address[]",
          "name": "recipients",
          "type": "address[]"
        },
        {
          "internalType": "uint256[]",
          "name": "amounts",
          "type": "uint256[]"
        },
        {
          "internalType": "string",
          "name": "reason",
          "type": "string"
        }
      ],
      "name": "batchMint",
      "outputs": [],
      "stateMutability": "nonpayable",
      "type": "function"
    },
    {
      "inputs": [],
      "name": "decimals",
      "outputs": [
        {
          "internalType": "uint8",
          "name": "",
          "type": "uint8"
        }
      ],
      "stateMutability": "view",
      "type": "function"
    },
    {
      "inputs": [
        {
          "internalType": "bytes32",
          "name": "role",
          "type": "bytes32"
        }
      ],
      "name": "getRoleAdmin",
      "outputs": [
        {
          "internalType": "bytes32",
          "name": "",
          "type": "bytes32"
        }
      ],
      "stateMutability": "view",
      "type": "function"
    },
    {
      "inputs": [
        {
          "internalType": "bytes32",
          "name": "role",
          "type": "bytes32"
        },
        {
          "internalType": "address",
          "name": "account",
          "type": "address"
        }
      ],
      "name": "grantRole",
      "outputs": [],
      "stateMutability": "nonpayable",
      "type": "function"
    },
    {
      "inputs": [
        {
          "internalType": "bytes32",
          "name": "role",
          "type": "bytes32"
        },
        {
          "internalType": "address",
          "name": "account",
          "type": "address"
        }
      ],
      "name": "hasRole",
      "outputs": [
        {
          "internalType": "bool",
          "name": "",
          "type": "bool"
        }
      ],
      "stateMutability": "view",
      "type": "function"
    },
    {
      "inputs": [
        {
          "internalType": "address",
          "name": "account",
          "type": "address"
        }
      ],
      "name": "isMinter",
      "outputs": [
        {
          "internalType": "bool",
          "name": "",
          "type": "bool"
        }
      ],
      "stateMutability": "view",
      "type": "function"
    },
    {
      "inputs": [
        {
          "internalType": "address",
          "name": "to",
          "type": "address"
        },
        {
          "internalType": "uint256",
          "name": "amount",
          "type": "uint256"
        },
        {
          "internalType": "string",
          "name": "reason",
          "type": "string"
        }
      ],
      "name": "mint",
      "outputs": [],
      "stateMutability": "nonpayable",
      "type": "function"
    },
    {
      "inputs": [],
      "name": "name",
      "outputs": [
        {
          "internalType": "string",
          "name": "",
          "type": "string"
        }
      ],
      "stateMutability": "view",
      "type": "function"
    },
    {
      "inputs": [],
      "name": "remainingSupply",
      "outputs": [
        {
          "internalType": "uint256",
          "name": "",
          "type": "uint256"
        }
      ],
      "stateMutability": "view",
      "type": "function"
    },
    {
      "inputs": [
        {
          "internalType": "address",
          "name": "account",
          "type": "address"
        }
      ],
      "name": "removeMinter",
      "outputs": [],
      "stateMutability": "nonpayable",
      "type": "function"
    },
    {
      "inputs": [
        {
          "internalType": "bytes32",
          "name": "role",
          "type": "bytes32"
        },
        {
          "internalType": "address",
          "name": "callerConfirmation",
          "type": "address"
        }
      ],
      "name": "renounceRole",
      "outputs": [],
      "stateMutability": "nonpayable",
      "type": "function"
    },
    {
      "inputs": [
        {
          "internalType": "bytes32",
          "name": "role",
          "type": "bytes32"
        },
        {
          "internalType": "address",
          "name": "account",
          "type": "address"
        }
      ],
      "name": "revokeRole",
      "outputs": [],
      "stateMutability": "nonpayable",
      "type": "function"
    },
    {
      "inputs": [
        {
          "internalType": "bytes4",
          "name": "interfaceId",
          "type": "bytes4"
        }
      ],
      "name": "supportsInterface",
      "outputs": [
        {
          "internalType": "bool",
          "name": "",
          "type": "bool"
        }
      ],
      "stateMutability": "view",
      "type": "function"
    },
    {
      "inputs": [],
      "name": "symbol",
      "outputs": [
        {
          "internalType": "string",
          "name": "",
          "type": "string"
        }
      ],
      "stateMutability": "view",
      "type": "function"
    },
    {
      "inputs": [],
      "name": "totalSupply",
      "outputs": [
        {
          "internalType": "uint256",
          "name": "",
          "type": "uint256"
        }
      ],
      "stateMutability": "view",
      "type": "function"
    },
    {
      "inputs": [
        {
          "internalType": "address",
          "name": "to",
          "type": "address"
        },
        {
          "internalType": "uint256",
          "name": "value",
          "type": "uint256"
        }
      ],
      "name": "transfer",
      "outputs": [
        {
          "internalType": "bool",
          "name": "",
          "type": "bool"
        }
      ],
      "stateMutability": "nonpayable",
      "type": "function"
    },
    {
      "inputs": [
        {
          "internalType": "address",
          "name": "from",
          "type": "address"
        },
        {
          "internalType": "address",
          "name": "to",
          "type": "address"
        },
        {
          "internalType": "uint256",
          "name": "value",
          "type": "uint256"
        }
      ],
      "name": "transferFrom",
      "outputs": [
        {
          "internalType": "bool",
          "name": "",
          "type": "bool"
        }
      ],
      "stateMutability": "nonpayable",
      "type": "function"
    }
  ],
  "bytecode": "0x6080604052346104a057604080519081016001600160401b038111828210176103b3576040908152600b82526a2a2627a7aa102a37b5b2b760a91b602083015280519081016001600160401b038111828210176103b3576040526005815264151313d3d560da1b602082015281516001600160401b0381116103b357600354600181811c91168015610496575b602082101461039557601f8111610433575b50602092601f82116001146103d257928192935f926103c7575b50508160011b915f199060031b1c1916176003555b80516001600160401b0381116103b357600454600181811c911680156103a9575b602082101461039557601f8111610332575b50602091601f82116001146102d2579181925f926102c7575b50508160011b915f199060031b1c1916176004555b610137336104a4565b506101413361051a565b5061014b3361059a565b505f5160206119855f395f51905f525f81815260056020527f15a28d26fa1bf736cf7edc9922607171ccb09c3c73b808e7772a3013e068a52380545f5160206119a55f395f51905f5291829055909290917fbd79b86ffe0ab8e8776151514217cd7cacd52c909f66475c3af44e129f0b00ff9080a433156102b4576002546a52b7d2dcc80cd2e400000081018091116102a057600255335f525f60205260405f206a52b7d2dcc80cd2e400000081540190556040516a52b7d2dcc80cd2e400000081525f7fddf252ad1be2c89b69c2b068fc378daa952ba7f163c4a11628f55a4df523b3ef60203393a36040516a52b7d2dcc80cd2e4000000815260406020820152600e60408201526d496e697469616c20737570706c7960901b60608201527f9d89e36eadf856db0ad9ffb5a569e07f95634dddd9501141ecf04820484ad0dc60803392a260405161130a908161061b8239f35b634e487b7160e01b5f52601160045260245ffd5b63ec442f0560e01b5f525f60045260245ffd5b015190505f80610119565b601f1982169260045f52805f20915f5b85811061031a57508360019510610302575b505050811b0160045561012e565b01515f1960f88460031b161c191690555f80806102f4565b919260206001819286850151815501940192016102e2565b60045f527f8a35acfbc15ff81a39ae7d344fd709f28e8600b4aa8c65c6b64bfe7fe36bd19b601f830160051c8101916020841061038b575b601f0160051c01905b8181106103805750610100565b5f8155600101610373565b909150819061036a565b634e487b7160e01b5f52602260045260245ffd5b90607f16906100ee565b634e487b7160e01b5f52604160045260245ffd5b015190505f806100b8565b601f1982169360035f52805f20915f5b86811061041b5750836001959610610403575b505050811b016003556100cd565b01515f1960f88460031b161c191690555f80806103f5565b919260206001819286850151815501940192016103e2565b60035f527fc2575a0e9e593c00f959f8c92f12db2869c3395a3b0502d05e2516446f71f85b601f830160051c8101916020841061048c575b601f0160051c01905b818110610481575061009e565b5f8155600101610474565b909150819061046b565b90607f169061008c565b5f80fd5b6001600160a01b0381165f9081525f5160206119c55f395f51905f52602052604090205460ff16610515576001600160a01b03165f8181525f5160206119c55f395f51905f5260205260408120805460ff191660011790553391905f5160206119255f395f51905f528180a4600190565b505f90565b6001600160a01b0381165f9081525f5160206119655f395f51905f52602052604090205460ff16610515576001600160a01b03165f8181525f5160206119655f395f51905f5260205260408120805460ff191660011790553391905f5160206119a55f395f51905f52905f5160206119255f395f51905f529080a4600190565b6001600160a01b0381165f9081525f5160206119455f395f51905f52602052604090205460ff16610515576001600160a01b03165f8181525f5160206119455f395f51905f5260205260408120805460ff191660011790553391905f5160206119855f395f51905f52905f5160206119255f395f51905f529080a460019056fe6080806040526004361015610012575f80fd5b5f3560e01c90816301ffc9a714610c035750806306fdde0314610b48578063095ea7b314610ac657806318160ddd14610aa957806323b872dd146109ca578063248a9ca3146109975780632f2ff15d146109595780633092afd5146108bf578063313ce567146108a457806332cb6b0c1461087e57806336568abe1461083a57806337f9fbdd1461064757806370a082311461061057806375b238fc146105d657806391d148541461058d57806395d89b4114610481578063983b2d5614610399578063a217fddf1461037f578063a9059cbb1461034e578063aa271e1a14610300578063d3fc986414610242578063d53913931461021b578063d547741f146101d6578063da0239a6146101835763dd62ed3e1461012f575f80fd5b3461017f57604036600319011261017f57610148610c7a565b610150610c90565b6001600160a01b039182165f908152600160209081526040808320949093168252928352819020549051908152f35b5f80fd5b3461017f575f36600319011261017f576002546b033b2e3c9fd0803ce8000000036b033b2e3c9fd0803ce800000081116101c257602090604051908152f35b634e487b7160e01b5f52601160045260245ffd5b3461017f57604036600319011261017f576102196004356101f5610c90565b9061021461020f825f526005602052600160405f20015490565b610fc4565b6111b3565b005b3461017f575f36600319011261017f5760206040515f5160206112b55f395f51905f528152f35b3461017f57606036600319011261017f5761025b610c7a565b60443560243567ffffffffffffffff821161017f5761029f7f9d89e36eadf856db0ad9ffb5a569e07f95634dddd9501141ecf04820484ad0dc923690600401610d0d565b906102a8610f7b565b6102cb6b033b2e3c9fd0803ce80000006102c483600254610d87565b1115610d94565b6001600160a01b038416936102ec9082906102e7871515610de9565b611237565b6102fb60405192839283610e35565b0390a2005b3461017f57602036600319011261017f57610319610c7a565b6001600160a01b03165f9081525f5160206112955f395f51905f52602090815260409182902054915160ff9092161515825290f35b3461017f57604036600319011261017f5761037461036a610c7a565b6024359033610e4f565b602060405160018152f35b3461017f575f36600319011261017f5760206040515f8152f35b3461017f57602036600319011261017f576103b2610c7a565b6103ba610f0c565b6001600160a01b03811690811561043c575f5160206112b55f395f51905f525f5260056020527f15a28d26fa1bf736cf7edc9922607171ccb09c3c73b808e7772a3013e068a52354610415919061041090610fc4565b610ffe565b507f6ae172837ea30b801fbfcdd4108aa1d5bf8ff775444fd70256b44e6bf3dfc3f65f80a2005b60405162461bcd60e51b815260206004820152601760248201527f43616e6e6f7420616464207a65726f20616464726573730000000000000000006044820152606490fd5b3461017f575f36600319011261017f576040515f6004548060011c90600181168015610583575b60208310811461056f5782855290811561054b57506001146104ed575b6104e9836104d581850382610cd7565b604051918291602083526020830190610c56565b0390f35b91905060045f527f8a35acfbc15ff81a39ae7d344fd709f28e8600b4aa8c65c6b64bfe7fe36bd19b915f905b808210610531575090915081016020016104d56104c5565b919260018160209254838588010152019101909291610519565b60ff191660208086019190915291151560051b840190910191506104d590506104c5565b634e487b7160e01b5f52602260045260245ffd5b91607f16916104a8565b3461017f57604036600319011261017f576105a6610c90565b6004355f52600560205260405f209060018060a01b03165f52602052602060ff60405f2054166040519015158152f35b3461017f575f36600319011261017f5760206040517fa49807205ce4d355092ef5a8a18f56e8913cf4a201fbe287825b095693c217758152f35b3461017f57602036600319011261017f576001600160a01b03610631610c7a565b165f525f602052602060405f2054604051908152f35b3461017f57606036600319011261017f5760043567ffffffffffffffff811161017f57610678903690600401610ca6565b9060243567ffffffffffffffff811161017f57610699903690600401610ca6565b60443567ffffffffffffffff811161017f576106b9903690600401610d0d565b6106c1610f7b565b8185036107fd5784156107c9575f5f5b8381106107a957506b033b2e3c9fd0803ce80000006102c46106f592600254610d87565b5f5b85811061070057005b6001906107296001600160a01b0361072161071c848b8b610d63565b610dd5565b161515610de9565b61074c61073a61071c838a8a610d63565b610745838789610d63565b3590611237565b61075a61071c828989610d63565b7f9d89e36eadf856db0ad9ffb5a569e07f95634dddd9501141ecf04820484ad0dc8461078784888a610d63565b35926107a0604051928392888060a01b03169583610e35565b0390a2016106f7565b906107c26001916107bb848789610d63565b3590610d87565b91016106d1565b60405162461bcd60e51b815260206004820152600c60248201526b456d7074792061727261797360a01b6044820152606490fd5b60405162461bcd60e51b8152602060048201526015602482015274082e4e4c2f240d8cadccee8d040dad2e6dac2e8c6d605b1b6044820152606490fd5b3461017f57604036600319011261017f57610853610c90565b336001600160a01b0382160361086f57610219906004356111b3565b63334bd91960e11b5f5260045ffd5b3461017f575f36600319011261017f5760206040516b033b2e3c9fd0803ce80000008152f35b3461017f575f36600319011261017f57602060405160128152f35b3461017f57602036600319011261017f576108d8610c7a565b6108e0610f0c565b5f5160206112b55f395f51905f525f5260056020527f15a28d26fa1bf736cf7edc9922607171ccb09c3c73b808e7772a3013e068a5235461092090610fc4565b61092981611122565b506001600160a01b03167fe94479a9f7e1952cc78f2d6baab678adc1b772d936c6583def489e524cb666925f80a2005b3461017f57604036600319011261017f57610219600435610978610c90565b9061099261020f825f526005602052600160405f20015490565b611096565b3461017f57602036600319011261017f5760206109c26004355f526005602052600160405f20015490565b604051908152f35b3461017f57606036600319011261017f576109e3610c7a565b6109eb610c90565b6001600160a01b0382165f818152600160209081526040808320338452909152902054909260443592915f198110610a29575b506103749350610e4f565b838110610a8e578415610a7b573315610a6857610374945f52600160205260405f2060018060a01b0333165f526020528360405f209103905584610a1e565b634a1406b160e11b5f525f60045260245ffd5b63e602df0560e01b5f525f60045260245ffd5b8390637dc7a0d960e11b5f523360045260245260445260645ffd5b3461017f575f36600319011261017f576020600254604051908152f35b3461017f57604036600319011261017f57610adf610c7a565b602435903315610a7b576001600160a01b0316908115610a6857335f52600160205260405f20825f526020528060405f20556040519081527f8c5be1e5ebec7d5bd14f71427d1e84f3dd0314c0f7b2291e5b200ac8c7c3b92560203392a3602060405160018152f35b3461017f575f36600319011261017f576040515f6003548060011c90600181168015610bf9575b60208310811461056f5782855290811561054b5750600114610b9b576104e9836104d581850382610cd7565b91905060035f527fc2575a0e9e593c00f959f8c92f12db2869c3395a3b0502d05e2516446f71f85b915f905b808210610bdf575090915081016020016104d56104c5565b919260018160209254838588010152019101909291610bc7565b91607f1691610b6f565b3461017f57602036600319011261017f576004359063ffffffff60e01b821680920361017f57602091637965db0b60e01b8114908115610c45575b5015158152f35b6301ffc9a760e01b14905083610c3e565b805180835260209291819084018484015e5f828201840152601f01601f1916010190565b600435906001600160a01b038216820361017f57565b602435906001600160a01b038216820361017f57565b9181601f8401121561017f5782359167ffffffffffffffff831161017f576020808501948460051b01011161017f57565b90601f8019910116810190811067ffffffffffffffff821117610cf957604052565b634e487b7160e01b5f52604160045260245ffd5b81601f8201121561017f5780359067ffffffffffffffff8211610cf95760405192610d42601f8401601f191660200185610cd7565b8284526020838301011161017f57815f926020809301838601378301015290565b9190811015610d735760051b0190565b634e487b7160e01b5f52603260045260245ffd5b919082018092116101c257565b15610d9b57565b60405162461bcd60e51b815260206004820152601260248201527145786365656473206d617820737570706c7960701b6044820152606490fd5b356001600160a01b038116810361017f5790565b15610df057565b60405162461bcd60e51b815260206004820152601b60248201527f43616e6e6f74206d696e7420746f207a65726f206164647265737300000000006044820152606490fd5b604090610e4c939281528160208201520190610c56565b90565b6001600160a01b0316908115610ef9576001600160a01b0316918215610ee657815f525f60205260405f2054818110610ecd57817fddf252ad1be2c89b69c2b068fc378daa952ba7f163c4a11628f55a4df523b3ef92602092855f525f84520360405f2055845f525f825260405f20818154019055604051908152a3565b8263391434e360e21b5f5260045260245260445260645ffd5b63ec442f0560e01b5f525f60045260245ffd5b634b637e8f60e11b5f525f60045260245ffd5b335f9081527fd8ef4509105c3edb0b04658b4528edc5ddd30ea5a81e623a2623c88db1eb54b6602052604090205460ff1615610f4457565b63e2517d3f60e01b5f52336004527fa49807205ce4d355092ef5a8a18f56e8913cf4a201fbe287825b095693c2177560245260445ffd5b335f9081525f5160206112955f395f51905f52602052604090205460ff1615610fa057565b63e2517d3f60e01b5f52336004525f5160206112b55f395f51905f5260245260445ffd5b5f81815260056020908152604080832033845290915290205460ff1615610fe85750565b63e2517d3f60e01b5f523360045260245260445ffd5b6001600160a01b0381165f9081525f5160206112955f395f51905f52602052604090205460ff16611091576001600160a01b03165f8181525f5160206112955f395f51905f5260205260408120805460ff191660011790553391905f5160206112b55f395f51905f52907f2f8788117e7eff1d82e926ec794901d17c78024a50270940304540a733656f0d9080a4600190565b505f90565b5f8181526005602090815260408083206001600160a01b038616845290915290205460ff1661111c575f8181526005602090815260408083206001600160a01b0395909516808452949091528120805460ff19166001179055339291907f2f8788117e7eff1d82e926ec794901d17c78024a50270940304540a733656f0d9080a4600190565b50505f90565b6001600160a01b0381165f9081525f5160206112955f395f51905f52602052604090205460ff1615611091576001600160a01b03165f8181525f5160206112955f395f51905f5260205260408120805460ff191690553391905f5160206112b55f395f51905f52907ff6391f5c32d9c69d2a47ea670b442974b53935d1edc7fd64eb21e047a839171b9080a4600190565b5f8181526005602090815260408083206001600160a01b038616845290915290205460ff161561111c575f8181526005602090815260408083206001600160a01b0395909516808452949091528120805460ff19169055339291907ff6391f5c32d9c69d2a47ea670b442974b53935d1edc7fd64eb21e047a839171b9080a4600190565b6001600160a01b0316908115610ee6577fddf252ad1be2c89b69c2b068fc378daa952ba7f163c4a11628f55a4df523b3ef6020826112785f94600254610d87565b60025584845283825260408420818154019055604051908152a356fe15a28d26fa1bf736cf7edc9922607171ccb09c3c73b808e7772a3013e068a5229f2df0fed2c77648de5860a4cc508cd0818c85b8b8a1ab4ceeef8d981c8956a6a26469706673582212209466e59c202fc16f9e5ce42669cecce57c90d3d7bbfa0c75aa575621f580c4dc64736f6c634300081c00332f8788117e7eff1d82e926ec794901d17c78024a50270940304540a733656f0d15a28d26fa1bf736cf7edc9922607171ccb09c3c73b808e7772a3013e068a522d8ef4509105c3edb0b04658b4528edc5ddd30ea5a81e623a2623c88db1eb54b69f2df0fed2c77648de5860a4cc508cd0818c85b8b8a1ab4ceeef8d981c8956a6a49807205ce4d355092ef5a8a18f56e8913cf4a201fbe287825b095693c2177505b8ccbb9d4d8fb16ea74ce3c29a41f1b461fbdaff4714a0d9a8eb05499746bc",
  "linkReferences": {},
  "deployedLinkReferences": {},
  "immutableReferences": {},
  "inputSourceName": "project/contracts/PlatformTokenV2.sol",
  "buildInfoId": "solc-0_8_28-665a87428586a857f03fd95190b5fa154ed16fac"
}