{
  "_format": "hh3-artifact-1",
  "contractName": "PlatformToken",
  "sourceName": "contracts/PlatformToken.sol",
  "abi": [
    {
      "inputs": [],
      "stateMutability": "nonpayable",
      "type": "constructor"
    },
    {
      "inputs": [
        {
          "internalType": "address",
          "name": "spender",
          "type": "address"
        },
        {
          "internalType": "uint256",
          "name": "allowance",
          "type": "uint256"
        },
        {
          "internalType": "uint256",
          "name": "needed",
          "type": "uint256"
        }
      ],
      "name": "ERC20InsufficientAllowance",
      "type": "error"
    },
    {
      "inputs": [
        {
          "internalType": "address",
          "name": "sender",
          "type": "address"
        },
        {
          "internalType": "uint256",
          "name": "balance",
          "type": "uint256"
        },
        {
          "internalType": "uint256",
          "name": "needed",
          "type": "uint256"
        }
      ],
      "name": "ERC20InsufficientBalance",
      "type": "error"
    },
    {
      "inputs": [
        {
          "internalType": "address",
          "name": "approver",
          "type": "address"
        }
      ],
      "name": "ERC20InvalidApprover",
      "type": "error"
    },
    {
      "inputs": [
        {
          "internalType": "address",
          "name": "receiver",
          "type": "address"
        }
      ],
      "name": "ERC20InvalidReceiver",
      "type": "error"
    },
    {
      "inputs": [
        {
          "internalType": "address",
          "name": "sender",
          "type": "address"
        }
      ],
      "name": "ERC20InvalidSender",
      "type": "error"
    },
    {
      "inputs": [
        {
          "internalType": "address",
          "name": "spender",
          "type": "address"
        }
      ],
      "name": "ERC20InvalidSpender",
      "type": "error"
    },
    {
      "inputs": [
        {
          "internalType": "address",
          "name": "owner",
          "type": "address"
        }
      ],
      "name": "OwnableInvalidOwner",
      "type": "error"
    },
    {
      "inputs": [
        {
          "internalType": "address",
          "name": "account",
          "type": "address"
        }
      ],
      "name": "OwnableUnauthorizedAccount",
      "type": "error"
    },
    {
      "anonymous": false,
      "inputs": [
        {
          "indexed": true,
          "internalType": "address",
          "name": "owner",
          "type": "address"
        },
        {
          "indexed": true,
          "internalType": "address",
          "name": "spender",
          "type": "address"
        },
        {
          "indexed": false,
          "internalType": "uint256",
          "name": "value",
          "type": "uint256"
        }
      ],
      "name": "Approval",
      "type": "event"
    },
    {
      "anonymous": false,
      "inputs": [
        {
          "indexed": true,
          "internalType": "address",
          "name": "previousOwner",
          "type": "address"
        },
        {
          "indexed": true,
          "internalType": "address",
          "name": "newOwner",
          "type": "address"
        }
      ],
      "name": "OwnershipTransferred",
      "type": "event"
    },
    {
      "anonymous": false,
      "inputs": [
        {
          "indexed": true,
          "internalType": "address",
          "name": "from",
          "type": "address"
        },
        {
          "indexed": false,
          "internalType": "uint256",
          "name": "amount",
          "type": "uint256"
        }
      ],
      "name": "TokensBurned",
      "type": "event"
    },
    {
      "anonymous": false,
      "inputs": [
        {
          "indexed": true,
          "internalType": "address",
          "name": "to",
          "type": "address"
        },
        {
          "indexed": false,
          "internalType": "uint256",
          "name": "amount",
          "type": "uint256"
        },
        {
          "indexed": false,
          "internalType": "string",
          "name": "reason",
          "type": "string"
        }
      ],
      "name": "TokensMinted",
      "type": "event"
    },
    {
      "anonymous": false,
      "inputs": [
        {
          "indexed": true,
          "internalType": "address",
          "name": "from",
          "type": "address"
        },
        {
          "indexed": true,
          "internalType": "address",
          "name": "to",
          "type": "address"
        },
        {
          "indexed": false,
          "internalType": "uint256",
          "name": "value",
          "type": "uint256"
        }
      ],
      "name": "Transfer",
      "type": "event"
    },
    {
      "inputs": [],
      "name": "MAX_SUPPLY",
      "outputs": [
        {
          "internalType": "uint256",
          "name": "",
          "type": "uint256"
        }
      ],
      "stateMutability": "view",
      "type": "function"
    },
    {
      "inputs": [
        {
          "internalType": "address",
          "name": "owner",
          "type": "address"
        },
        {
          "internalType": "address",
          "name": "spender",
          "type": "address"
        }
      ],
      "name": "allowance",
      "outputs": [
        {
          "internalType": "uint256",
          "name": "",
          "type": "uint256"
        }
      ],
      "stateMutability": "view",
      "type": "function"
    },
    {
      "inputs": [
        {
          "internalType": "address",
          "name": "spender",
          "type": "address"
        },
        {
          "internalType": "uint256",
          "name": "value",
          "type": "uint256"
        }
      ],
      "name": "approve",
      "outputs": [
        {
          "internalType": "bool",
          "name": "",
          "type": "bool"
        }
      ],
      "stateMutability": "nonpayable",
      "type": "function"
    },
    {
      "inputs": [
        {
          "internalType": "address",
          "name": "account",
          "type": "address"
        }
      ],
      "name": "balanceOf",
      "outputs": [
        {
          "internalType": "uint256",
          "name": "",
          "type": "uint256"
        }
      ],
      "stateMutability": "view",
      "type": "function"
    },
    {
      "inputs": [
        {
          "internalType": "address[]",
          "name": "recipients",
          "type": "address[]"
        },
        {
          "internalType": "uint256[]",
          "name": "amounts",
          "type": "uint256[]"
        },
        {
          "internalType": "string",
          "name": "reason",
          "type": "string"
        }
      ],
      "name": "batchMint",
      "outputs": [],
      "stateMutability": "nonpayable",
      "type": "function"
    },
    {
      "inputs": [
        {
          "internalType": "uint256",
          "name": "amount",
          "type": "uint256"
        }
      ],
      "name": "burn",
      "outputs": [],
      "stateMutability": "nonpayable",
      "type": "function"
    },
    {
      "inputs": [],
      "name": "decimals",
      "outputs": [
        {
          "internalType": "uint8",
          "name": "",
          "type": "uint8"
        }
      ],
      "stateMutability": "view",
      "type": "function"
    },
    {
      "inputs": [
        {
          "internalType": "address",
          "name": "to",
          "type": "address"
        },
        {
          "internalType": "uint256",
          "name": "amount",
          "type": "uint256"
        },
        {
          "internalType": "string",
          "name": "reason",
          "type": "string"
        }
      ],
      "name": "mint",
      "outputs": [],
      "stateMutability": "nonpayable",
      "type": "function"
    },
    {
      "inputs": [],
      "name": "name",
      "outputs": [
        {
          "internalType": "string",
          "name": "",
          "type": "string"
        }
      ],
      "stateMutability": "view",
      "type": "function"
    },
    {
      "inputs": [],
      "name": "owner",
      "outputs": [
        {
          "internalType": "address",
          "name": "",
          "type": "address"
        }
      ],
      "stateMutability": "view",
      "type": "function"
    },
    {
      "inputs": [],
      "name": "remainingSupply",
      "outputs": [
        {
          "internalType": "uint256",
          "name": "",
          "type": "uint256"
        }
      ],
      "stateMutability": "view",
      "type": "function"
    },
    {
      "inputs": [],
      "name": "renounceOwnership",
      "outputs": [],
      "stateMutability": "nonpayable",
      "type": "function"
    },
    {
      "inputs": [],
      "name": "symbol",
      "outputs": [
        {
          "internalType": "string",
          "name": "",
          "type": "string"
        }
      ],
      "stateMutability": "view",
      "type": "function"
    },
    {
      "inputs": [],
      "name": "totalSupply",
      "outputs": [
        {
          "internalType": "uint256",
          "name": "",
          "type": "uint256"
        }
      ],
      "stateMutability": "view",
      "type": "function"
    },
    {
      "inputs": [
        {
          "internalType": "address",
          "name": "to",
          "type": "address"
        },
        {
          "internalType": "uint256",
          "name": "value",
          "type": "uint256"
        }
      ],
      "name": "transfer",
      "outputs": [
        {
          "internalType": "bool",
          "name": "",
          "type": "bool"
        }
      ],
      "stateMutability": "nonpayable",
      "type": "function"
    },
    {
      "inputs": [
        {
          "internalType": "address",
          "name": "from",
          "type": "address"
        },
        {
          "internalType": "address",
          "name": "to",
          "type": "address"
        },
        {
          "internalType": "uint256",
          "name": "value",
          "type": "uint256"
        }
      ],
      "name": "transferFrom",
      "outputs": [
        {
          "internalType": "bool",
          "name": "",
          "type": "bool"
        }
      ],
      "stateMutability": "nonpayable",
      "type": "function"
    },
    {
      "inputs": [
        {
          "internalType": "address",
          "name": "newOwner",
          "type": "address"
        }
      ],
      "name": "transferOwnership",
      "outputs": [],
      "stateMutability": "nonpayable",
      "type": "function"
    }
  ],
  "bytecode": "0x60806040523461044e57604080519081016001600160401b03811182821017610361576040908152600a8252693a32bd3c902a37b5b2b760b11b602083015280519081016001600160401b0381118282101761036157604052600481526354455a5960e01b602082015281516001600160401b03811161036157600354600181811c91168015610444575b602082101461034357601f81116103e1575b50602092601f821160011461038057928192935f92610375575b50508160011b915f199060031b1c1916176003555b80516001600160401b03811161036157600454600181811c91168015610357575b602082101461034357601f81116102e0575b50602091601f8211600114610280579181925f92610275575b50508160011b915f199060031b1c1916176004555b33156102625760058054336001600160a01b0319821681179092556001600160a01b03167f8be0079c531659141344cd1fd0a4f28419497f9722a3daafe3b4186f6b6457e05f80a36002546a084595161401484a000000810180911161024e57600255335f525f60205260405f206a084595161401484a00000081540190556040516a084595161401484a00000081525f7fddf252ad1be2c89b69c2b068fc378daa952ba7f163c4a11628f55a4df523b3ef60203393a36040516a084595161401484a000000815260406020820152600e60408201526d496e697469616c20737570706c7960901b60608201527f9d89e36eadf856db0ad9ffb5a569e07f95634dddd9501141ecf04820484ad0dc60803392a2604051610dbf90816104538239f35b634e487b7160e01b5f52601160045260245ffd5b631e4fbdf760e01b5f525f60045260245ffd5b015190505f80610117565b601f1982169260045f52805f20915f5b8581106102c8575083600195106102b0575b505050811b0160045561012c565b01515f1960f88460031b161c191690555f80806102a2565b91926020600181928685015181550194019201610290565b60045f527f8a35acfbc15ff81a39ae7d344fd709f28e8600b4aa8c65c6b64bfe7fe36bd19b601f830160051c81019160208410610339575b601f0160051c01905b81811061032e57506100fe565b5f8155600101610321565b9091508190610318565b634e487b7160e01b5f52602260045260245ffd5b90607f16906100ec565b634e487b7160e01b5f52604160045260245ffd5b015190505f806100b6565b601f1982169360035f52805f20915f5b8681106103c957508360019596106103b1575b505050811b016003556100cb565b01515f1960f88460031b161c191690555f80806103a3565b91926020600181928685015181550194019201610390565b60035f527fc2575a0e9e593c00f959f8c92f12db2869c3395a3b0502d05e2516446f71f85b601f830160051c8101916020841061043a575b601f0160051c01905b81811061042f575061009c565b5f8155600101610422565b9091508190610419565b90607f169061008a565b5f80fdfe6080806040526004361015610012575f80fd5b5f3560e01c90816306fdde031461095e57508063095ea7b3146108dc57806318160ddd146108bf57806323b872dd146107e0578063313ce567146107c557806332cb6b0c146107a057806337f9fbdd1461059657806342966c68146104c157806370a082311461048a578063715018a61461042f5780638da5cb5b1461040757806395d89b41146102fb578063a9059cbb146102ca578063d3fc986414610202578063da0239a6146101b1578063dd62ed3e146101615763f2fde38b146100d7575f80fd5b3461015d57602036600319011261015d576100f0610a3a565b6100f8610d05565b6001600160a01b0316801561014a57600580546001600160a01b0319811683179091556001600160a01b03167f8be0079c531659141344cd1fd0a4f28419497f9722a3daafe3b4186f6b6457e05f80a3005b631e4fbdf760e01b5f525f60045260245ffd5b5f80fd5b3461015d57604036600319011261015d5761017a610a3a565b610182610a50565b6001600160a01b039182165f908152600160209081526040808320949093168252928352819020549051908152f35b3461015d575f36600319011261015d576002546a52b7d2dcc80cd2e4000000036a52b7d2dcc80cd2e400000081116101ee57602090604051908152f35b634e487b7160e01b5f52601160045260245ffd5b3461015d57606036600319011261015d5761021b610a3a565b60443560243567ffffffffffffffff821161015d5761025f7f9d89e36eadf856db0ad9ffb5a569e07f95634dddd9501141ecf04820484ad0dc923690600401610acd565b90610268610d05565b61028a6a52b7d2dcc80cd2e400000061028383600254610bf3565b1115610c00565b6001600160a01b038416936102b69082906102a6871515610b5b565b6102b1821515610ba7565b610d2c565b6102c560405192839283610c41565b0390a2005b3461015d57604036600319011261015d576102f06102e6610a3a565b6024359033610c5b565b602060405160018152f35b3461015d575f36600319011261015d576040515f6004548060011c906001811680156103fd575b6020831081146103e9578285529081156103c55750600114610367575b6103638361034f81850382610a97565b604051918291602083526020830190610a16565b0390f35b91905060045f527f8a35acfbc15ff81a39ae7d344fd709f28e8600b4aa8c65c6b64bfe7fe36bd19b915f905b8082106103ab5750909150810160200161034f61033f565b919260018160209254838588010152019101909291610393565b60ff191660208086019190915291151560051b8401909101915061034f905061033f565b634e487b7160e01b5f52602260045260245ffd5b91607f1691610322565b3461015d575f36600319011261015d576005546040516001600160a01b039091168152602090f35b3461015d575f36600319011261015d57610447610d05565b600580546001600160a01b031981169091555f906001600160a01b03167f8be0079c531659141344cd1fd0a4f28419497f9722a3daafe3b4186f6b6457e08280a3005b3461015d57602036600319011261015d576001600160a01b036104ab610a3a565b165f525f602052602060405f2054604051908152f35b3461015d57602036600319011261015d576004356104e0811515610ba7565b331561058357335f525f6020528060405f205481811061056a57335f525f6020520360405f205580600254036002555f6040518281527fddf252ad1be2c89b69c2b068fc378daa952ba7f163c4a11628f55a4df523b3ef60203392a36040519081527ffd38818f5291bf0bb3a2a48aadc06ba8757865d1dabd804585338aab3009dcb660203392a2005b63391434e360e21b5f523360045260245260445260645ffd5b634b637e8f60e11b5f525f60045260245ffd5b3461015d57606036600319011261015d5760043567ffffffffffffffff811161015d576105c7903690600401610a66565b9060243567ffffffffffffffff811161015d576105e8903690600401610a66565b60443567ffffffffffffffff811161015d57610608903690600401610acd565b610610610d05565b81850361076257841561072e575f5f5b8381106106d657506a52b7d2dcc80cd2e400000061028361064392600254610bf3565b5f5b85811061064e57005b806106796106676106626001948a8a610b23565b610b47565b610672838789610b23565b3590610d2c565b610687610662828989610b23565b7f9d89e36eadf856db0ad9ffb5a569e07f95634dddd9501141ecf04820484ad0dc846106b484888a610b23565b35926106cd604051928392888060a01b03169583610c41565b0390a201610645565b90600190610727906106ff6001600160a01b036106f7610662878d8d610b23565b161515610b5b565b61071561070d85888a610b23565b351515610ba7565b610720848789610b23565b3590610bf3565b9101610620565b60405162461bcd60e51b815260206004820152600c60248201526b456d7074792061727261797360a01b6044820152606490fd5b60405162461bcd60e51b8152602060048201526016602482015275082e4e4c2f2e640d8cadccee8d040dad2e6dac2e8c6d60531b6044820152606490fd5b3461015d575f36600319011261015d5760206040516a52b7d2dcc80cd2e40000008152f35b3461015d575f36600319011261015d57602060405160128152f35b3461015d57606036600319011261015d576107f9610a3a565b610801610a50565b6001600160a01b0382165f818152600160209081526040808320338452909152902054909260443592915f19811061083f575b506102f09350610c5b565b8381106108a457841561089157331561087e576102f0945f52600160205260405f2060018060a01b0333165f526020528360405f209103905584610834565b634a1406b160e11b5f525f60045260245ffd5b63e602df0560e01b5f525f60045260245ffd5b8390637dc7a0d960e11b5f523360045260245260445260645ffd5b3461015d575f36600319011261015d576020600254604051908152f35b3461015d57604036600319011261015d576108f5610a3a565b602435903315610891576001600160a01b031690811561087e57335f52600160205260405f20825f526020528060405f20556040519081527f8c5be1e5ebec7d5bd14f71427d1e84f3dd0314c0f7b2291e5b200ac8c7c3b92560203392a3602060405160018152f35b3461015d575f36600319011261015d575f6003548060011c90600181168015610a0c575b6020831081146103e9578285529081156103c557506001146109ae576103638361034f81850382610a97565b91905060035f527fc2575a0e9e593c00f959f8c92f12db2869c3395a3b0502d05e2516446f71f85b915f905b8082106109f25750909150810160200161034f61033f565b9192600181602092548385880101520191019092916109da565b91607f1691610982565b805180835260209291819084018484015e5f828201840152601f01601f1916010190565b600435906001600160a01b038216820361015d57565b602435906001600160a01b038216820361015d57565b9181601f8401121561015d5782359167ffffffffffffffff831161015d576020808501948460051b01011161015d57565b90601f8019910116810190811067ffffffffffffffff821117610ab957604052565b634e487b7160e01b5f52604160045260245ffd5b81601f8201121561015d5780359067ffffffffffffffff8211610ab95760405192610b02601f8401601f191660200185610a97565b8284526020838301011161015d57815f926020809301838601378301015290565b9190811015610b335760051b0190565b634e487b7160e01b5f52603260045260245ffd5b356001600160a01b038116810361015d5790565b15610b6257565b60405162461bcd60e51b815260206004820152601b60248201527f43616e6e6f74206d696e7420746f207a65726f206164647265737300000000006044820152606490fd5b15610bae57565b60405162461bcd60e51b815260206004820152601d60248201527f416d6f756e74206d7573742062652067726561746572207468616e20300000006044820152606490fd5b919082018092116101ee57565b15610c0757565b60405162461bcd60e51b815260206004820152601260248201527145786365656473206d617820737570706c7960701b6044820152606490fd5b604090610c58939281528160208201520190610a16565b90565b6001600160a01b0316908115610583576001600160a01b0316918215610cf257815f525f60205260405f2054818110610cd957817fddf252ad1be2c89b69c2b068fc378daa952ba7f163c4a11628f55a4df523b3ef92602092855f525f84520360405f2055845f525f825260405f20818154019055604051908152a3565b8263391434e360e21b5f5260045260245260445260645ffd5b63ec442f0560e01b5f525f60045260245ffd5b6005546001600160a01b03163303610d1957565b63118cdaa760e01b5f523360045260245ffd5b6001600160a01b0316908115610cf2577fddf252ad1be2c89b69c2b068fc378daa952ba7f163c4a11628f55a4df523b3ef602082610d6d5f94600254610bf3565b60025584845283825260408420818154019055604051908152a356fea2646970667358221220dfd454c370be0d58fcf157c41813be42c03bdee1fc563c60a1875d8e2bab8f6764736f6c634300081c0033",
  "linkReferences": {},
  "deployedLinkReferences": {},
  "immutableReferences": {},
  "inputSourceName": "project/contracts/PlatformToken.sol",
  "buildInfoId": "solc-0_8_28-b93853387ae3f502c9cab467f996edd60ba55ca8"
}